{"contracts/AlphaPING.sol":{"AlphaPING":{"abi":[{"inputs":[{"internalType":"string","name":"_name","type":"string"},{"internalType":"string","name":"_symbol","type":"string"}],"stateMutability":"nonpayable","type":"constructor"},{"inputs":[{"internalType":"address","name":"sender","type":"address"},{"internalType":"uint256","name":"tokenId","type":"uint256"},{"internalType":"address","name":"owner","type":"address"}],"name":"ERC721IncorrectOwner","type":"error"},{"inputs":[{"internalType":"address","name":"operator","type":"address"},{"internalType":"uint256","name":"tokenId","type":"uint256"}],"name":"ERC721InsufficientApproval","type":"error"},{"inputs":[{"internalType":"address","name":"approver","type":"address"}],"name":"ERC721InvalidApprover","type":"error"},{"inputs":[{"internalType":"address","name":"operator","type":"address"}],"name":"ERC721InvalidOperator","type":"error"},{"inputs":[{"internalType":"address","name":"owner","type":"address"}],"name":"ERC721InvalidOwner","type":"error"},{"inputs":[{"internalType":"address","name":"receiver","type":"address"}],"name":"ERC721InvalidReceiver","type":"error"},{"inputs":[{"internalType":"address","name":"sender","type":"address"}],"name":"ERC721InvalidSender","type":"error"},{"inputs":[{"internalType":"uint256","name":"tokenId","type":"uint256"}],"name":"ERC721NonexistentToken","type":"error"},{"anonymous":false,"inputs":[{"indexed":true,"internalType":"address","name":"owner","type":"address"},{"indexed":true,"internalType":"address","name":"approved","type":"address"},{"indexed":true,"internalType":"uint256","name":"tokenId","type":"uint256"}],"name":"Approval","type":"event"},{"anonymous":false,"inputs":[{"indexed":true,"internalType":"address","name":"owner","type":"address"},{"indexed":true,"internalType":"address","name":"operator","type":"address"},{"indexed":false,"internalType":"bool","name":"approved","type":"bool"}],"name":"ApprovalForAll","type":"event"},{"anonymous":false,"inputs":[{"indexed":true,"internalType":"address","name":"from","type":"address"},{"indexed":true,"internalType":"address","name":"to","type":"address"},{"indexed":true,"internalType":"uint256","name":"tokenId","type":"uint256"}],"name":"Transfer","type":"event"},{"inputs":[{"internalType":"address","name":"_blockedAddress","type":"address"}],"name":"addToPersonalBlockList","outputs":[],"stateMutability":"nonpayable","type":"function"},{"inputs":[{"internalType":"address","name":"_followedAddress","type":"address"}],"name":"addToPersonalFollowList","outputs":[],"stateMutability":"nonpayable","type":"function"},{"inputs":[{"internalType":"address","name":"to","type":"address"},{"internalType":"uint256","name":"tokenId","type":"uint256"}],"name":"approve","outputs":[],"stateMutability":"nonpayable","type":"function"},{"inputs":[{"internalType":"address","name":"owner","type":"address"}],"name":"balanceOf","outputs":[{"internalType":"uint256","name":"","type":"uint256"}],"stateMutability":"view","type":"function"},{"inputs":[{"internalType":"address","name":"_bannedMod","type":"address"},{"internalType":"uint256[]","name":"_channelIds","type":"uint256[]"}],"name":"banMod","outputs":[],"stateMutability":"nonpayable","type":"function"},{"inputs":[{"internalType":"address","name":"_blacklistedUser","type":"address"}],"name":"blacklistUser","outputs":[],"stateMutability":"nonpayable","type":"function"},{"inputs":[{"internalType":"address","name":"_bannedAccount","type":"address"},{"internalType":"uint256","name":"_channelId","type":"uint256"}],"name":"channelBan","outputs":[],"stateMutability":"nonpayable","type":"function"},{"inputs":[{"internalType":"uint256","name":"","type":"uint256"},{"internalType":"address","name":"","type":"address"}],"name":"channelBans","outputs":[{"internalType":"bool","name":"","type":"bool"}],"stateMutability":"view","type":"function"},{"inputs":[{"internalType":"address","name":"","type":"address"}],"name":"channelExistsForToken","outputs":[{"internalType":"bool","name":"","type":"bool"}],"stateMutability":"view","type":"function"},{"inputs":[{"internalType":"address","name":"_bannedAccount","type":"address"},{"internalType":"uint256","name":"_channelId","type":"uint256"}],"name":"channelUnban","outputs":[],"stateMutability":"nonpayable","type":"function"},{"inputs":[{"internalType":"uint256","name":"","type":"uint256"}],"name":"channels","outputs":[{"internalType":"uint256","name":"id","type":"uint256"},{"internalType":"address","name":"tokenAddress","type":"address"},{"internalType":"string","name":"name","type":"string"},{"internalType":"string","name":"tokenType","type":"string"}],"stateMutability":"view","type":"function"},{"inputs":[{"internalType":"address","name":"_tokenAddress","type":"address"},{"internalType":"string","name":"_tokenType","type":"string"}],"name":"createChannel","outputs":[],"stateMutability":"nonpayable","type":"function"},{"inputs":[{"internalType":"uint256","name":"tokenId","type":"uint256"}],"name":"getApproved","outputs":[{"internalType":"address","name":"","type":"address"}],"stateMutability":"view","type":"function"},{"inputs":[{"internalType":"uint256","name":"_channelId","type":"uint256"}],"name":"getChannel","outputs":[{"components":[{"internalType":"uint256","name":"id","type":"uint256"},{"internalType":"address","name":"tokenAddress","type":"address"},{"internalType":"string","name":"name","type":"string"},{"internalType":"string","name":"tokenType","type":"string"}],"internalType":"struct AlphaPING.Channel","name":"","type":"tuple"}],"stateMutability":"view","type":"function"},{"inputs":[{"internalType":"uint256","name":"","type":"uint256"},{"internalType":"address","name":"","type":"address"}],"name":"hasJoinedChannel","outputs":[{"internalType":"bool","name":"","type":"bool"}],"stateMutability":"view","type":"function"},{"inputs":[{"internalType":"address","name":"owner","type":"address"},{"internalType":"address","name":"operator","type":"address"}],"name":"isApprovedForAll","outputs":[{"internalType":"bool","name":"","type":"bool"}],"stateMutability":"view","type":"function"},{"inputs":[{"internalType":"address","name":"","type":"address"}],"name":"isBlackListed","outputs":[{"internalType":"bool","name":"","type":"bool"}],"stateMutability":"view","type":"function"},{"inputs":[{"internalType":"address","name":"","type":"address"}],"name":"isMember","outputs":[{"internalType":"bool","name":"","type":"bool"}],"stateMutability":"view","type":"function"},{"inputs":[{"internalType":"address","name":"_subscriber","type":"address"}],"name":"isSubscriptionActive","outputs":[{"internalType":"bool","name":"","type":"bool"}],"stateMutability":"view","type":"function"},{"inputs":[{"internalType":"uint256","name":"_channelId","type":"uint256"}],"name":"joinChannel","outputs":[],"stateMutability":"nonpayable","type":"function"},{"inputs":[{"internalType":"uint256","name":"_channelId","type":"uint256"}],"name":"leaveChannel","outputs":[],"stateMutability":"nonpayable","type":"function"},{"inputs":[],"name":"mint","outputs":[],"stateMutability":"nonpayable","type":"function"},{"inputs":[{"internalType":"uint256","name":"","type":"uint256"}],"name":"mods","outputs":[{"internalType":"address","name":"","type":"address"}],"stateMutability":"view","type":"function"},{"inputs":[],"name":"monthDuration","outputs":[{"internalType":"uint256","name":"","type":"uint256"}],"stateMutability":"view","type":"function"},{"inputs":[],"name":"name","outputs":[{"internalType":"string","name":"","type":"string"}],"stateMutability":"view","type":"function"},{"inputs":[],"name":"owner","outputs":[{"internalType":"address","name":"","type":"address"}],"stateMutability":"view","type":"function"},{"inputs":[{"internalType":"uint256","name":"tokenId","type":"uint256"}],"name":"ownerOf","outputs":[{"internalType":"address","name":"","type":"address"}],"stateMutability":"view","type":"function"},{"inputs":[{"internalType":"address","name":"","type":"address"},{"internalType":"address","name":"","type":"address"}],"name":"personalBlockList","outputs":[{"internalType":"bool","name":"","type":"bool"}],"stateMutability":"view","type":"function"},{"inputs":[{"internalType":"address","name":"","type":"address"},{"internalType":"address","name":"","type":"address"}],"name":"personalFollowList","outputs":[{"internalType":"bool","name":"","type":"bool"}],"stateMutability":"view","type":"function"},{"inputs":[{"internalType":"address","name":"","type":"address"}],"name":"premiumMembershipExpiry","outputs":[{"internalType":"uint256","name":"","type":"uint256"}],"stateMutability":"view","type":"function"},{"inputs":[{"internalType":"address","name":"","type":"address"}],"name":"profilePic","outputs":[{"internalType":"string","name":"","type":"string"}],"stateMutability":"view","type":"function"},{"inputs":[],"name":"promoPeriod","outputs":[{"internalType":"bool","name":"","type":"bool"}],"stateMutability":"view","type":"function"},{"inputs":[],"name":"purchaseMonthlySubscription","outputs":[],"stateMutability":"nonpayable","type":"function"},{"inputs":[{"internalType":"address","name":"_blockedAddress","type":"address"}],"name":"removeFromPersonalBlockList","outputs":[],"stateMutability":"nonpayable","type":"function"},{"inputs":[{"internalType":"address","name":"_followedAddress","type":"address"}],"name":"removeFromPersonalFollowList","outputs":[],"stateMutability":"nonpayable","type":"function"},{"inputs":[{"internalType":"address","name":"from","type":"address"},{"internalType":"address","name":"to","type":"address"},{"internalType":"uint256","name":"tokenId","type":"uint256"}],"name":"safeTransferFrom","outputs":[],"stateMutability":"nonpayable","type":"function"},{"inputs":[{"internalType":"address","name":"from","type":"address"},{"internalType":"address","name":"to","type":"address"},{"internalType":"uint256","name":"tokenId","type":"uint256"},{"internalType":"bytes","name":"data","type":"bytes"}],"name":"safeTransferFrom","outputs":[],"stateMutability":"nonpayable","type":"function"},{"inputs":[{"internalType":"address","name":"operator","type":"address"},{"internalType":"bool","name":"approved","type":"bool"}],"name":"setApprovalForAll","outputs":[],"stateMutability":"nonpayable","type":"function"},{"inputs":[{"internalType":"string","name":"_picString","type":"string"}],"name":"setProfilePic","outputs":[],"stateMutability":"nonpayable","type":"function"},{"inputs":[{"internalType":"address","name":"_subscriptionCurrency","type":"address"}],"name":"setSubscriptionCurrency","outputs":[],"stateMutability":"nonpayable","type":"function"},{"inputs":[{"internalType":"uint256","name":"_newSubscriptionPrice","type":"uint256"}],"name":"setSubscriptionPriceMonthly","outputs":[],"stateMutability":"nonpayable","type":"function"},{"inputs":[{"internalType":"string","name":"_username","type":"string"}],"name":"setUsername","outputs":[],"stateMutability":"nonpayable","type":"function"},{"inputs":[],"name":"subscriptionCurrency","outputs":[{"internalType":"address","name":"","type":"address"}],"stateMutability":"view","type":"function"},{"inputs":[],"name":"subscriptionPriceMonthly","outputs":[{"internalType":"uint256","name":"","type":"uint256"}],"stateMutability":"view","type":"function"},{"inputs":[{"internalType":"bytes4","name":"interfaceId","type":"bytes4"}],"name":"supportsInterface","outputs":[{"internalType":"bool","name":"","type":"bool"}],"stateMutability":"view","type":"function"},{"inputs":[],"name":"symbol","outputs":[{"internalType":"string","name":"","type":"string"}],"stateMutability":"view","type":"function"},{"inputs":[],"name":"togglePromoPeriod","outputs":[],"stateMutability":"nonpayable","type":"function"},{"inputs":[{"internalType":"uint256","name":"tokenId","type":"uint256"}],"name":"tokenURI","outputs":[{"internalType":"string","name":"","type":"string"}],"stateMutability":"view","type":"function"},{"inputs":[],"name":"totalChannels","outputs":[{"internalType":"uint256","name":"","type":"uint256"}],"stateMutability":"view","type":"function"},{"inputs":[],"name":"totalSupply","outputs":[{"internalType":"uint256","name":"","type":"uint256"}],"stateMutability":"view","type":"function"},{"inputs":[{"internalType":"address","name":"from","type":"address"},{"internalType":"address","name":"to","type":"address"},{"internalType":"uint256","name":"tokenId","type":"uint256"}],"name":"transferFrom","outputs":[],"stateMutability":"nonpayable","type":"function"},{"inputs":[{"internalType":"address","name":"_newMod","type":"address"},{"internalType":"uint256","name":"_channelId","type":"uint256"}],"name":"transferMod","outputs":[],"stateMutability":"nonpayable","type":"function"},{"inputs":[{"internalType":"address","name":"_newOwner","type":"address"}],"name":"transferOwner","outputs":[],"stateMutability":"nonpayable","type":"function"},{"inputs":[{"internalType":"address","name":"_blacklistedUser","type":"address"}],"name":"unBlacklistUser","outputs":[],"stateMutability":"nonpayable","type":"function"},{"inputs":[{"internalType":"address","name":"","type":"address"}],"name":"username","outputs":[{"internalType":"string","name":"","type":"string"}],"stateMutability":"view","type":"function"},{"inputs":[],"name":"withdraw","outputs":[],"stateMutability":"nonpayable","type":"function"}],"evm":{"bytecode":{"linkReferences":{},"object":"60806040526012805460ff1916600117905562278d006014553480156200002557600080fd5b5060405162004a4138038062004a418339810160408190526200004891620007fe565b81816000620000588382620008f8565b506001620000678282620008f8565b5050600780546001600160a01b031916331790555062000086620000bb565b620000a573af88d065e77c8cc2239327c5edb3a432268e583162000102565b620000b3624c4b4062000186565b505062000a75565b60068054906000620000cd83620009c4565b9190505550620000e633600654620001e960201b60201c565b336000908152600d60205260409020805460ff19166001179055565b6007546001600160a01b03163314620001645760405162461bcd60e51b815260206004820152602a602482015260008051602062004a218339815191526044820152692046756e6374696f6e2160b01b60648201526084015b60405180910390fd5b601680546001600160a01b0319166001600160a01b0392909216919091179055565b6007546001600160a01b03163314620001e45760405162461bcd60e51b815260206004820152602a602482015260008051602062004a218339815191526044820152692046756e6374696f6e2160b01b60648201526084016200015b565b601555565b6200020b8282604051806020016040528060008152506200020f60201b60201c565b5050565b6200021b83836200022f565b6200022a600084848462000299565b505050565b6001600160a01b0382166200025b57604051633250574960e11b8152600060048201526024016200015b565b60006200026a838383620003d0565b90506001600160a01b038116156200022a576040516339e3563760e11b8152600060048201526024016200015b565b6001600160a01b0383163b15620003ca57604051630a85bd0160e11b81526001600160a01b0384169063150b7a0290620002de903390889087908790600401620009ec565b6020604051808303816000875af19250505080156200031c575060408051601f3d908101601f19168201909252620003199181019062000a42565b60015b6200038a573d8080156200034d576040519150601f19603f3d011682016040523d82523d6000602084013e62000352565b606091505b5080516000036200038257604051633250574960e11b81526001600160a01b03851660048201526024016200015b565b805181602001fd5b6001600160e01b03198116630a85bd0160e11b14620003c857604051633250574960e11b81526001600160a01b03851660048201526024016200015b565b505b50505050565b6000828152600260205260408120546001600160a01b0390811690831615620004005762000400818486620004cf565b6001600160a01b0381161562000440576200041f600085818062000539565b6001600160a01b038116600090815260036020526040902080546000190190555b6001600160a01b0385161562000470576001600160a01b0385166000908152600360205260409020805460010190555b60008481526002602052604080822080546001600160a01b0319166001600160a01b0389811691821790925591518793918516917fddf252ad1be2c89b69c2b068fc378daa952ba7f163c4a11628f55a4df523b3ef91a4949350505050565b620004dc83838362000667565b6200022a576001600160a01b0383166200050d57604051637e27328960e01b8152600481018290526024016200015b565b60405163177e802f60e01b81526001600160a01b0383166004820152602481018290526044016200015b565b80806200054e57506001600160a01b03821615155b15620006375760006200056184620006f0565b90506001600160a01b038316158015906200058e5750826001600160a01b0316816001600160a01b031614155b8015620005c157506001600160a01b0380821660009081526005602090815260408083209387168352929052205460ff16155b15620005ec5760405163a9fbf51f60e01b81526001600160a01b03841660048201526024016200015b565b8115620006355783856001600160a01b0316826001600160a01b03167f8c5be1e5ebec7d5bd14f71427d1e84f3dd0314c0f7b2291e5b200ac8c7c3b92560405160405180910390a45b505b5050600090815260046020526040902080546001600160a01b0319166001600160a01b0392909216919091179055565b60006001600160a01b03831615801590620006e85750826001600160a01b0316846001600160a01b03161480620006c357506001600160a01b0380851660009081526005602090815260408083209387168352929052205460ff165b80620006e857506000828152600460205260409020546001600160a01b038481169116145b949350505050565b6000818152600260205260408120546001600160a01b0316806200072b57604051637e27328960e01b8152600481018490526024016200015b565b92915050565b634e487b7160e01b600052604160045260246000fd5b60005b83811015620007645781810151838201526020016200074a565b50506000910152565b600082601f8301126200077f57600080fd5b81516001600160401b03808211156200079c576200079c62000731565b604051601f8301601f19908116603f01168101908282118183101715620007c757620007c762000731565b81604052838152866020858801011115620007e157600080fd5b620007f484602083016020890162000747565b9695505050505050565b600080604083850312156200081257600080fd5b82516001600160401b03808211156200082a57600080fd5b62000838868387016200076d565b935060208501519150808211156200084f57600080fd5b506200085e858286016200076d565b9150509250929050565b600181811c908216806200087d57607f821691505b6020821081036200089e57634e487b7160e01b600052602260045260246000fd5b50919050565b601f8211156200022a576000816000526020600020601f850160051c81016020861015620008cf5750805b601f850160051c820191505b81811015620008f057828155600101620008db565b505050505050565b81516001600160401b0381111562000914576200091462000731565b6200092c8162000925845462000868565b84620008a4565b602080601f8311600181146200096457600084156200094b5750858301515b600019600386901b1c1916600185901b178555620008f0565b600085815260208120601f198616915b82811015620009955788860151825594840194600190910190840162000974565b5085821015620009b45787850151600019600388901b60f8161c191681555b5050505050600190811b01905550565b600060018201620009e557634e487b7160e01b600052601160045260246000fd5b5060010190565b600060018060a01b03808716835280861660208401525083604083015260806060830152825180608084015262000a2b8160a085016020870162000747565b601f01601f19169190910160a00195945050505050565b60006020828403121562000a5557600080fd5b81516001600160e01b03198116811462000a6e57600080fd5b9392505050565b613f9c8062000a856000396000f3fe608060405234801561001057600080fd5b50600436106103775760003560e01c80637734a9f6116101d3578063c70854ac11610104578063e985e9c5116100a2578063ed01fbd71161007c578063ed01fbd71461088d578063ed59313a146108a0578063f2f06bcb146108b3578063fcbca456146108c657600080fd5b8063e985e9c514610836578063ec08ad7614610872578063ec4ceae91461087a57600080fd5b8063e04794b6116100de578063e04794b6146107a1578063e47d6060146107b4578063e5949b5d146107d7578063e638dfc2146107fa57600080fd5b8063c70854ac14610758578063c87b56dd1461076b578063cb661f391461077e57600080fd5b8063a230c52411610171578063b64afe051161014b578063b64afe05146106e9578063b88d4fde146106fc578063bf59a6c81461070f578063c00af42c1461072f57600080fd5b8063a230c524146106a0578063a900a08a146106c3578063b08a778c146106d657600080fd5b806384108c76116101ad57806384108c761461065f5780638da5cb5b1461067257806395d89b4114610685578063a22cb4651461068d57600080fd5b80637734a9f6146106155780637c622fd91461061e578063834452321461063157600080fd5b80632183525d116102ad5780633a17916b1161024b5780634fb2e45d116102255780634fb2e45d146105c9578063604a427e146105dc5780636352211e146105ef57806370a082311461060257600080fd5b80633a17916b146105a55780633ccfd60b146105ae57806342842e0e146105b657600080fd5b806328a126421161028757806328a12642146104df5780632d01936a1461050d5780632d6d761d1461053b578063334d4de41461056957600080fd5b80632183525d146104a657806323b872dd146104b95780632819cc0c146104cc57600080fd5b8063095ea7b31161031a5780631249c58b116102f45780631249c58b1461047a578063144013291461048257806318160ddd146104955780631b3d7e1c1461049e57600080fd5b8063095ea7b31461043a5780630d9551da1461044d57806310df54a01461045a57600080fd5b80630610a7a2116103565780630610a7a2146103dd57806306fdde03146103f0578063081812fc146103f857806308cad1bf1461042357600080fd5b806290d3561461037c578063011f2cce146103a557806301ffc9a7146103ba575b600080fd5b61038f61038a366004613768565b6108d9565b60405161039c91906137d3565b60405180910390f35b6103b86103b33660046138b3565b610973565b005b6103cd6103c8366004613901565b610990565b604051901515815260200161039c565b61038f6103eb366004613768565b6109fb565b61038f610a14565b61040b61040636600461391e565b610aa6565b6040516001600160a01b03909116815260200161039c565b61042c60145481565b60405190815260200161039c565b6103b8610448366004613937565b610acf565b6012546103cd9060ff1681565b61046d61046836600461391e565b610ada565b60405161039c9190613961565b6103b8610d23565b6103cd610490366004613768565b610d60565b61042c60065481565b6103b8610d9f565b6103b86104b436600461391e565b6110e8565b6103b86104c73660046139c0565b61115a565b6103b86104da36600461391e565b6111fe565b6103cd6104ed3660046139fc565b601160209081526000928352604080842090915290825290205460ff1681565b6103cd61051b366004613a28565b601760209081526000928352604080842090915290825290205460ff1681565b6103cd610549366004613a28565b601860209081526000928352604080842090915290825290205460ff1681565b6103b8610577366004613768565b3360009081526017602090815260408083206001600160a01b0394909416835292905220805460ff19169055565b61042c60155481565b6103b86113df565b6103b86105c43660046139c0565b6115b7565b6103b86105d7366004613768565b6115d7565b6103b86105ea366004613937565b611771565b61040b6105fd36600461391e565b611997565b61042c610610366004613768565b6119a2565b61042c60095481565b6103b861062c366004613768565b611a03565b6103cd61063f3660046139fc565b600c60209081526000928352604080842090915290825290205460ff1681565b6103b861066d366004613a52565b611a8c565b60075461040b906001600160a01b031681565b61038f611d02565b6103b861069b366004613b19565b611d11565b6103cd6106ae366004613768565b600d6020526000908152604090205460ff1681565b6103b86106d136600461391e565b611d1c565b6103b86106e4366004613768565b611e7d565b6103b86106f7366004613937565b611f06565b6103b861070a366004613b50565b612058565b61042c61071d366004613768565b60136020526000908152604090205481565b61040b61073d36600461391e565b6008602052600090815260409020546001600160a01b031681565b60165461040b906001600160a01b031681565b61038f61077936600461391e565b61206f565b6103cd61078c366004613768565b600a6020526000908152604090205460ff1681565b6103b86107af366004613937565b6120e4565b6103cd6107c2366004613768565b60106020526000908152604090205460ff1681565b6107ea6107e536600461391e565b612386565b60405161039c9493929190613bcc565b6103b8610808366004613768565b3360009081526018602090815260408083206001600160a01b0394909416835292905220805460ff19169055565b6103cd610844366004613a28565b6001600160a01b03918216600090815260056020908152604080832093909416825291909152205460ff1690565b6103b86124c9565b6103b8610888366004613768565b61254a565b6103b861089b366004613768565b612650565b6103b86108ae3660046138b3565b6126df565b6103b86108c1366004613c11565b6126f8565b6103b86108d4366004613768565b612e64565b600e60205260009081526040902080546108f290613c5f565b80601f016020809104026020016040519081016040528092919081815260200182805461091e90613c5f565b801561096b5780601f106109405761010080835404028352916020019161096b565b820191906000526020600020905b81548152906001019060200180831161094e57829003601f168201915b505050505081565b336000908152600e6020526040902061098c8282613ce3565b5050565b60006001600160e01b031982166380ac58cd60e01b14806109da57506001600160e01b031982167f5b5e139f00000000000000000000000000000000000000000000000000000000145b806109f557506301ffc9a760e01b6001600160e01b03198316145b92915050565b600f60205260009081526040902080546108f290613c5f565b606060008054610a2390613c5f565b80601f0160208091040260200160405190810160405280929190818152602001828054610a4f90613c5f565b8015610a9c5780601f10610a7157610100808354040283529160200191610a9c565b820191906000526020600020905b815481529060010190602001808311610a7f57829003601f168201915b5050505050905090565b6000610ab182612fba565b506000828152600460205260409020546001600160a01b03166109f5565b61098c828233612ff3565b610b0e60405180608001604052806000815260200160006001600160a01b0316815260200160608152602001606081525090565b8180600003610b725760405162461bcd60e51b815260206004820152602560248201527f4368616e6e656c204944204d7573742042652047726561746572205468616e206044820152645a65726f2160d81b60648201526084015b60405180910390fd5b600954811115610bbc5760405162461bcd60e51b81526020600482015260156024820152744368616e6e656c20494420546f6f204c617267652160581b6044820152606401610b69565b6000838152600b602090815260409182902082516080810184528154815260018201546001600160a01b0316928101929092526002810180549293919291840191610c0690613c5f565b80601f0160208091040260200160405190810160405280929190818152602001828054610c3290613c5f565b8015610c7f5780601f10610c5457610100808354040283529160200191610c7f565b820191906000526020600020905b815481529060010190602001808311610c6257829003601f168201915b50505050508152602001600382018054610c9890613c5f565b80601f0160208091040260200160405190810160405280929190818152602001828054610cc490613c5f565b8015610d115780601f10610ce657610100808354040283529160200191610d11565b820191906000526020600020905b815481529060010190602001808311610cf457829003601f168201915b50505050508152505091505b50919050565b60068054906000610d3383613db9565b9190505550610d4433600654613000565b336000908152600d60205260409020805460ff19166001179055565b6007546000906001600160a01b0390811690831603610d8157506001919050565b506001600160a01b0316600090815260136020526040902054421090565b336000908152600d602052604090205460ff161515600114610e1d5760405162461bcd60e51b815260206004820152603160248201527f4f6e6c7920416c70686150494e47204d656d62657273204d6179204578656375604482015270746520546869732046756e6374696f6e2160781b6064820152608401610b69565b6015546016546040517f70a082310000000000000000000000000000000000000000000000000000000081523360048201526001600160a01b03909116906370a0823190602401602060405180830381865afa158015610e81573d6000803e3d6000fd5b505050506040513d601f19601f82011682018060405250810190610ea59190613dd2565b1015610f185760405162461bcd60e51b8152602060048201526024808201527f596f7520646f206e6f74206861766520656e6f75676820555344432062616c6160448201527f6e636521000000000000000000000000000000000000000000000000000000006064820152608401610b69565b6016546040517fdd62ed3e0000000000000000000000000000000000000000000000000000000081523360048201523060248201526000916001600160a01b03169063dd62ed3e90604401602060405180830381865afa158015610f80573d6000803e3d6000fd5b505050506040513d601f19601f82011682018060405250810190610fa49190613dd2565b9050601554811015610ff85760405162461bcd60e51b815260206004820152601b60248201527f416c6c6f77616e6365206973206e6f742073756666696369656e7400000000006044820152606401610b69565b6016546015546040516323b872dd60e01b815233600482015230602482015260448101919091526000916001600160a01b0316906323b872dd906064016020604051808303816000875af1158015611054573d6000803e3d6000fd5b505050506040513d601f19601f820116820180604052508101906110789190613deb565b9050806110c75760405162461bcd60e51b815260206004820152600f60248201527f5472616e73666572204661696c656400000000000000000000000000000000006044820152606401610b69565b6014546110d49042613e08565b336000908152601360205260409020555050565b6007546001600160a01b031633146111555760405162461bcd60e51b815260206004820152602a60248201527f4f6e6c79204f776e657220526f6c65204d6179204578656375746520546869736044820152692046756e6374696f6e2160b01b6064820152608401610b69565b601555565b6001600160a01b03821661118457604051633250574960e11b815260006004820152602401610b69565b600061119183833361301a565b9050836001600160a01b0316816001600160a01b0316146111f8576040517f64283d7b0000000000000000000000000000000000000000000000000000000081526001600160a01b0380861660048301526024820184905282166044820152606401610b69565b50505050565b336000908152600d602052604090205460ff16151560011461127c5760405162461bcd60e51b815260206004820152603160248201527f4f6e6c7920416c70686150494e47204d656d62657273204d6179204578656375604482015270746520546869732046756e6374696f6e2160781b6064820152608401610b69565b80806000036112db5760405162461bcd60e51b815260206004820152602560248201527f4368616e6e656c204944204d7573742042652047726561746572205468616e206044820152645a65726f2160d81b6064820152608401610b69565b6009548111156113255760405162461bcd60e51b81526020600482015260156024820152744368616e6e656c20494420546f6f204c617267652160581b6044820152606401610b69565b6000828152600c6020908152604080832033845290915290205460ff1615156001036113b85760405162461bcd60e51b8152602060048201526024808201527f596f75204861766520416c7265616479204a6f696e656420546869732043686160448201527f6e6e656c000000000000000000000000000000000000000000000000000000006064820152608401610b69565b506000908152600c602090815260408083203384529091529020805460ff19166001179055565b6007546001600160a01b0316331461144c5760405162461bcd60e51b815260206004820152602a60248201527f4f6e6c79204f776e657220526f6c65204d6179204578656375746520546869736044820152692046756e6374696f6e2160b01b6064820152608401610b69565b6016546015546040517f095ea7b300000000000000000000000000000000000000000000000000000000815230600482015260248101919091526000916001600160a01b03169063095ea7b3906044016020604051808303816000875af11580156114bb573d6000803e3d6000fd5b505050506040513d601f19601f820116820180604052508101906114df9190613deb565b6016546007546015546040516323b872dd60e01b81523060048201526001600160a01b03928316602482015260448101919091529293506000929116906323b872dd906064016020604051808303816000875af1158015611544573d6000803e3d6000fd5b505050506040513d601f19601f820116820180604052508101906115689190613deb565b90508061098c5760405162461bcd60e51b815260206004820152600f60248201527f5472616e73666572204661696c656400000000000000000000000000000000006044820152606401610b69565b6115d283838360405180602001604052806000815250612058565b505050565b6007546001600160a01b031633146116445760405162461bcd60e51b815260206004820152602a60248201527f4f6e6c79204f776e657220526f6c65204d6179204578656375746520546869736044820152692046756e6374696f6e2160b01b6064820152608401610b69565b6001600160a01b0381166000908152600d602052604090205460ff1615156001146116d75760405162461bcd60e51b815260206004820152602660248201527f4e6577204f776e6572204d75737420426520416e20416c70686150494e47204d60448201527f656d6265722100000000000000000000000000000000000000000000000000006064820152608401610b69565b6001600160a01b03811660009081526010602052604090205460ff16151560010361174f5760405162461bcd60e51b815260206004820152602260248201527f4e6577204f776e6572204d757374204e6f7420426520426c61636b6c69737465604482015261642160f01b6064820152608401610b69565b600780546001600160a01b0319166001600160a01b0392909216919091179055565b60008181526008602052604090205481906001600160a01b03163314806117a257506007546001600160a01b031633145b6118145760405162461bcd60e51b815260206004820152603960248201527f4f6e6c79204368616e6e656c204d6f64206f72204f776e657220526f6c65204d60448201527f6179204578656375746520546869732046756e6374696f6e21000000000000006064820152608401610b69565b60008281526011602090815260408083206001600160a01b038716845290915290205460ff1615156001036118b15760405162461bcd60e51b815260206004820152602c60248201527f54686973205573657220497320416c72656164792042616e6e6564204f6e205460448201527f686973204368616e6e656c2100000000000000000000000000000000000000006064820152608401610b69565b6007546001600160a01b039081169084160361190f5760405162461bcd60e51b815260206004820152601160248201527f43616e206e6f742062616e206f776e65720000000000000000000000000000006044820152606401610b69565b336001600160a01b038416036119675760405162461bcd60e51b815260206004820152601560248201527f43616e206e6f742062616e20796f757273656c662100000000000000000000006044820152606401610b69565b5060009081526011602090815260408083206001600160a01b03909416835292905220805460ff19166001179055565b60006109f582612fba565b60006001600160a01b0382166119e7576040517f89c62b6400000000000000000000000000000000000000000000000000000000815260006004820152602401610b69565b506001600160a01b031660009081526003602052604090205490565b336001600160a01b03821603611a5b5760405162461bcd60e51b815260206004820152601860248201527f43616e206e6f7420666f6c6c6f7720796f757273656c662100000000000000006044820152606401610b69565b3360009081526018602090815260408083206001600160a01b0394909416835292905220805460ff19166001179055565b6007546001600160a01b03163314611af95760405162461bcd60e51b815260206004820152602a60248201527f4f6e6c79204f776e657220526f6c65204d6179204578656375746520546869736044820152692046756e6374696f6e2160b01b6064820152608401610b69565b6001600160a01b03821660009081526010602052604090205460ff161515600103611b665760405162461bcd60e51b815260206004820152601c60248201527f5573657220497320416c726561647920426c61636b6c697374656421000000006044820152606401610b69565b60005b8151811015611c0b57826001600160a01b031660086000848481518110611b9257611b92613e1b565b6020908102919091018101518252810191909152604001600020546001600160a01b031614611c035760405162461bcd60e51b815260206004820181905260248201527f55736572204973204e6f742041204d6f6420466f722041204368616e6e656c216044820152606401610b69565b600101611b69565b50336001600160a01b03831603611c645760405162461bcd60e51b815260206004820152601f60248201527f43616e206e6f742072756e2062616e4d6f64206f6e20796f757273656c6621006044820152606401610b69565b60005b8151811015611cdc57600760009054906101000a90046001600160a01b031660086000848481518110611c9c57611c9c613e1b565b602090810291909101810151825281019190915260400160002080546001600160a01b0319166001600160a01b0392909216919091179055600101611c67565b50506001600160a01b03166000908152601060205260409020805460ff19166001179055565b606060018054610a2390613c5f565b61098c338383613113565b8080600003611d7b5760405162461bcd60e51b815260206004820152602560248201527f4368616e6e656c204944204d7573742042652047726561746572205468616e206044820152645a65726f2160d81b6064820152608401610b69565b600954811115611dc55760405162461bcd60e51b81526020600482015260156024820152744368616e6e656c20494420546f6f204c617267652160581b6044820152606401610b69565b6000828152600c6020908152604080832033845290915290205460ff161515600114611e595760405162461bcd60e51b815260206004820152602f60248201527f596f7520417265204e6f742043757272656e746c792041204d656d626572206f60448201527f662054686973204368616e6e656c2100000000000000000000000000000000006064820152608401610b69565b506000908152600c602090815260408083203384529091529020805460ff19169055565b336001600160a01b03821603611ed55760405162461bcd60e51b815260206004820152601b60248201527f43616e206e6f7420626c61636b6c69737420796f757273656c662100000000006044820152606401610b69565b3360009081526017602090815260408083206001600160a01b0394909416835292905220805460ff19166001179055565b60008181526008602052604090205481906001600160a01b0316331480611f3757506007546001600160a01b031633145b611fa95760405162461bcd60e51b815260206004820152603960248201527f4f6e6c79204368616e6e656c204d6f64206f72204f776e657220526f6c65204d60448201527f6179204578656375746520546869732046756e6374696f6e21000000000000006064820152608401610b69565b60008281526011602090815260408083206001600160a01b038716845290915290205460ff16151560011461202b5760405162461bcd60e51b815260206004820152602260248201527f546869732055736572204973204e6f742043757272656e746c792042616e6e65604482015261642160f01b6064820152608401610b69565b5060009081526011602090815260408083206001600160a01b03909416835292905220805460ff19169055565b61206384848461115a565b6111f8848484846131cb565b606061207a82612fba565b50600061209260408051602081019091526000815290565b905060008151116120b257604051806020016040528060008152506120dd565b806120bc846132f4565b6040516020016120cd929190613e31565b6040516020818303038152906040525b9392505050565b80806000036121435760405162461bcd60e51b815260206004820152602560248201527f4368616e6e656c204944204d7573742042652047726561746572205468616e206044820152645a65726f2160d81b6064820152608401610b69565b60095481111561218d5760405162461bcd60e51b81526020600482015260156024820152744368616e6e656c20494420546f6f204c617267652160581b6044820152606401610b69565b60008281526008602052604090205482906001600160a01b03163314806121be57506007546001600160a01b031633145b6122305760405162461bcd60e51b815260206004820152603960248201527f4f6e6c79204368616e6e656c204d6f64206f72204f776e657220526f6c65204d60448201527f6179204578656375746520546869732046756e6374696f6e21000000000000006064820152608401610b69565b6001600160a01b0384166000908152600d602052604090205460ff1615156001146122c35760405162461bcd60e51b815260206004820152602c60248201527f4e6577204368616e6e656c204d6f64204d75737420426520416e20416c70686160448201527f50494e47204d656d6265722100000000000000000000000000000000000000006064820152608401610b69565b6001600160a01b03841660009081526010602052604090205460ff1615156001036123565760405162461bcd60e51b815260206004820152602860248201527f4e6577204368616e6e656c204d6f64204d757374204e6f7420426520426c616360448201527f6b6c6973746564210000000000000000000000000000000000000000000000006064820152608401610b69565b5050600090815260086020526040902080546001600160a01b0319166001600160a01b0392909216919091179055565b600b6020526000908152604090208054600182015460028301805492936001600160a01b03909216926123b890613c5f565b80601f01602080910402602001604051908101604052809291908181526020018280546123e490613c5f565b80156124315780601f1061240657610100808354040283529160200191612431565b820191906000526020600020905b81548152906001019060200180831161241457829003601f168201915b50505050509080600301805461244690613c5f565b80601f016020809104026020016040519081016040528092919081815260200182805461247290613c5f565b80156124bf5780601f10612494576101008083540402835291602001916124bf565b820191906000526020600020905b8154815290600101906020018083116124a257829003601f168201915b5050505050905084565b6007546001600160a01b031633146125365760405162461bcd60e51b815260206004820152602a60248201527f4f6e6c79204f776e657220526f6c65204d6179204578656375746520546869736044820152692046756e6374696f6e2160b01b6064820152608401610b69565b6012805460ff19811660ff90911615179055565b6007546001600160a01b031633146125b75760405162461bcd60e51b815260206004820152602a60248201527f4f6e6c79204f776e657220526f6c65204d6179204578656375746520546869736044820152692046756e6374696f6e2160b01b6064820152608401610b69565b6001600160a01b03811660009081526010602052604090205460ff16151560011461262f5760405162461bcd60e51b815260206004820152602260248201527f55736572204973204e6f742043757272656e746c7920426c61636b6c69737465604482015261642160f01b6064820152608401610b69565b6001600160a01b03166000908152601060205260409020805460ff19169055565b6007546001600160a01b031633146126bd5760405162461bcd60e51b815260206004820152602a60248201527f4f6e6c79204f776e657220526f6c65204d6179204578656375746520546869736044820152692046756e6374696f6e2160b01b6064820152608401610b69565b601680546001600160a01b0319166001600160a01b0392909216919091179055565b336000908152600f6020526040902061098c8282613ce3565b336000908152600d602052604090205460ff1615156001146127765760405162461bcd60e51b815260206004820152603160248201527f4f6e6c7920416c70686150494e47204d656d62657273204d6179204578656375604482015270746520546869732046756e6374696f6e2160781b6064820152608401610b69565b3360009081526010602052604090205460ff1615156001036128265760405162461bcd60e51b815260206004820152604360248201527f54686973205573657227732050726976656c656467657320486176652042656560448201527f6e205265766f6b65642044756520546f204265696e6720426c61636b6c69737460648201527f6564210000000000000000000000000000000000000000000000000000000000608482015260a401610b69565b6001600160a01b0382166000908152600a602052604090205460ff1615156001036128935760405162461bcd60e51b815260206004820152601c60248201527f54686973204368616e6e656c20416c72656164792045786973747321000000006044820152606401610b69565b6040517f45524332300000000000000000000000000000000000000000000000000000006020820152600090602501604051602081830303815290604052805190602001209050600060405160200161290f907f4552433732310000000000000000000000000000000000000000000000000000815260060190565b60405160208183030381529060405280519060200120905060008360405160200161293a9190613e60565b6040516020818303038152906040528051906020012090508281148061295f57508181145b6129d15760405162461bcd60e51b815260206004820152602a60248201527f546f6b656e2054797065204d757374204569746865722042652045524332302060448201527f6f722045524337323121000000000000000000000000000000000000000000006064820152608401610b69565b818103612ab9576040516301ffc9a760e01b81526380ac58cd60e01b60048201526001600160a01b038616906301ffc9a790602401602060405180830381865afa158015612a23573d6000803e3d6000fd5b505050506040513d601f19601f82011682018060405250810190612a479190613deb565b612ab95760405162461bcd60e51b815260206004820152602160248201527f54686973204973204e6f7420412056616c69642045524337323120546f6b656e60448201527f21000000000000000000000000000000000000000000000000000000000000006064820152608401610b69565b828103612b75576000856001600160a01b031663313ce5676040518163ffffffff1660e01b8152600401602060405180830381865afa158015612b00573d6000803e3d6000fd5b505050506040513d601f19601f82011682018060405250810190612b249190613e7c565b60ff161015612b755760405162461bcd60e51b815260206004820181905260248201527f54686973204973204e6f7420412056616c696420455243323020546f6b656e216044820152606401610b69565b6060838203612bf957856001600160a01b03166306fdde036040518163ffffffff1660e01b8152600401600060405180830381865afa925050508015612bdd57506040513d6000823e601f3d908101601f19168201604052612bda9190810190613e9f565b60015b612bf65750604080516020810190915260008152612bf9565b90505b828203612c7b57856001600160a01b03166306fdde036040518163ffffffff1660e01b8152600401600060405180830381865afa925050508015612c5f57506040513d6000823e601f3d908101601f19168201604052612c5c9190810190613e9f565b60015b612c785750604080516020810190915260008152612c7b565b90505b838203612cf9576000815111612cf95760405162461bcd60e51b815260206004820152602360248201527f4e6f204e616d6520466f756e6420466f72205468697320455243323020546f6b60448201527f656e2100000000000000000000000000000000000000000000000000000000006064820152608401610b69565b828203612d76576000815111612d765760405162461bcd60e51b8152602060048201526024808201527f4e6f204e616d6520466f756e6420466f7220546869732045524337323120546f60448201527f6b656e21000000000000000000000000000000000000000000000000000000006064820152608401610b69565b60098054906000612d8683613db9565b9091555050604080516080810182526009548082526001600160a01b038981166020808501918252848601878152606086018c90526000948552600b909152949092208351815591516001830180546001600160a01b0319169190921617905591519091906002820190612dfa9082613ce3565b5060608201516003820190612e0f9082613ce3565b5050600754600954600090815260086020908152604080832080546001600160a01b0319166001600160a01b03958616179055999092168152600a90915296909620805460ff19166001179055505050505050565b6007546001600160a01b03163314612ed15760405162461bcd60e51b815260206004820152602a60248201527f4f6e6c79204f776e657220526f6c65204d6179204578656375746520546869736044820152692046756e6374696f6e2160b01b6064820152608401610b69565b6001600160a01b03811660009081526010602052604090205460ff161515600103612f3e5760405162461bcd60e51b815260206004820152601c60248201527f5573657220497320416c726561647920426c61636b6c697374656421000000006044820152606401610b69565b336001600160a01b03821603612f965760405162461bcd60e51b815260206004820152601b60248201527f43616e206e6f7420626c61636b6c69737420796f757273656c662100000000006044820152606401610b69565b6001600160a01b03166000908152601060205260409020805460ff19166001179055565b6000818152600260205260408120546001600160a01b0316806109f557604051637e27328960e01b815260048101849052602401610b69565b6115d28383836001613394565b61098c8282604051806020016040528060008152506134d2565b6000828152600260205260408120546001600160a01b0390811690831615613047576130478184866134e9565b6001600160a01b0381161561308557613064600085600080613394565b6001600160a01b038116600090815260036020526040902080546000190190555b6001600160a01b038516156130b4576001600160a01b0385166000908152600360205260409020805460010190555b60008481526002602052604080822080546001600160a01b0319166001600160a01b0389811691821790925591518793918516917fddf252ad1be2c89b69c2b068fc378daa952ba7f163c4a11628f55a4df523b3ef91a4949350505050565b6001600160a01b03821661315e576040517f5b08ba180000000000000000000000000000000000000000000000000000000081526001600160a01b0383166004820152602401610b69565b6001600160a01b03838116600081815260056020908152604080832094871680845294825291829020805460ff191686151590811790915591519182527f17307eab39ab6107e8899845ad3d59bd9653f200f220920489ca2b5937696c31910160405180910390a3505050565b6001600160a01b0383163b156111f857604051630a85bd0160e11b81526001600160a01b0384169063150b7a029061320d903390889087908790600401613f0d565b6020604051808303816000875af1925050508015613248575060408051601f3d908101601f1916820190925261324591810190613f49565b60015b6132b1573d808015613276576040519150601f19603f3d011682016040523d82523d6000602084013e61327b565b606091505b5080516000036132a957604051633250574960e11b81526001600160a01b0385166004820152602401610b69565b805181602001fd5b6001600160e01b03198116630a85bd0160e11b146132ed57604051633250574960e11b81526001600160a01b0385166004820152602401610b69565b5050505050565b6060600061330183613566565b600101905060008167ffffffffffffffff811115613321576133216137e6565b6040519080825280601f01601f19166020018201604052801561334b576020820181803683370190505b5090508181016020015b600019017f3031323334353637383961626364656600000000000000000000000000000000600a86061a8153600a850494508461335557509392505050565b80806133a857506001600160a01b03821615155b156134a25760006133b884612fba565b90506001600160a01b038316158015906133e45750826001600160a01b0316816001600160a01b031614155b801561341657506001600160a01b0380821660009081526005602090815260408083209387168352929052205460ff16155b15613458576040517fa9fbf51f0000000000000000000000000000000000000000000000000000000081526001600160a01b0384166004820152602401610b69565b81156134a05783856001600160a01b0316826001600160a01b03167f8c5be1e5ebec7d5bd14f71427d1e84f3dd0314c0f7b2291e5b200ac8c7c3b92560405160405180910390a45b505b5050600090815260046020526040902080546001600160a01b0319166001600160a01b0392909216919091179055565b6134dc8383613648565b6115d260008484846131cb565b6134f48383836136c6565b6115d2576001600160a01b03831661352257604051637e27328960e01b815260048101829052602401610b69565b6040517f177e802f0000000000000000000000000000000000000000000000000000000081526001600160a01b038316600482015260248101829052604401610b69565b6000807a184f03e93ff9f4daa797ed6e38ed64bf6a1f01000000000000000083106135af577a184f03e93ff9f4daa797ed6e38ed64bf6a1f010000000000000000830492506040015b6d04ee2d6d415b85acef810000000083106135db576d04ee2d6d415b85acef8100000000830492506020015b662386f26fc1000083106135f957662386f26fc10000830492506010015b6305f5e1008310613611576305f5e100830492506008015b612710831061362557612710830492506004015b60648310613637576064830492506002015b600a83106109f55760010192915050565b6001600160a01b03821661367257604051633250574960e11b815260006004820152602401610b69565b60006136808383600061301a565b90506001600160a01b038116156115d2576040517f73c6ac6e00000000000000000000000000000000000000000000000000000000815260006004820152602401610b69565b60006001600160a01b038316158015906137445750826001600160a01b0316846001600160a01b0316148061372057506001600160a01b0380851660009081526005602090815260408083209387168352929052205460ff165b8061374457506000828152600460205260409020546001600160a01b038481169116145b949350505050565b80356001600160a01b038116811461376357600080fd5b919050565b60006020828403121561377a57600080fd5b6120dd8261374c565b60005b8381101561379e578181015183820152602001613786565b50506000910152565b600081518084526137bf816020860160208601613783565b601f01601f19169290920160200192915050565b6020815260006120dd60208301846137a7565b634e487b7160e01b600052604160045260246000fd5b604051601f8201601f1916810167ffffffffffffffff81118282101715613825576138256137e6565b604052919050565b600067ffffffffffffffff821115613847576138476137e6565b50601f01601f191660200190565b60006138686138638461382d565b6137fc565b905082815283838301111561387c57600080fd5b828260208301376000602084830101529392505050565b600082601f8301126138a457600080fd5b6120dd83833560208501613855565b6000602082840312156138c557600080fd5b813567ffffffffffffffff8111156138dc57600080fd5b61374484828501613893565b6001600160e01b0319811681146138fe57600080fd5b50565b60006020828403121561391357600080fd5b81356120dd816138e8565b60006020828403121561393057600080fd5b5035919050565b6000806040838503121561394a57600080fd5b6139538361374c565b946020939093013593505050565b60208152815160208201526001600160a01b036020830151166040820152600060408301516080606084015261399a60a08401826137a7565b90506060840151601f198483030160808501526139b782826137a7565b95945050505050565b6000806000606084860312156139d557600080fd5b6139de8461374c565b92506139ec6020850161374c565b9150604084013590509250925092565b60008060408385031215613a0f57600080fd5b82359150613a1f6020840161374c565b90509250929050565b60008060408385031215613a3b57600080fd5b613a448361374c565b9150613a1f6020840161374c565b60008060408385031215613a6557600080fd5b613a6e8361374c565b915060208084013567ffffffffffffffff80821115613a8c57600080fd5b818601915086601f830112613aa057600080fd5b813581811115613ab257613ab26137e6565b8060051b9150613ac38483016137fc565b8181529183018401918481019089841115613add57600080fd5b938501935b83851015613afb57843582529385019390850190613ae2565b8096505050505050509250929050565b80151581146138fe57600080fd5b60008060408385031215613b2c57600080fd5b613b358361374c565b91506020830135613b4581613b0b565b809150509250929050565b60008060008060808587031215613b6657600080fd5b613b6f8561374c565b9350613b7d6020860161374c565b925060408501359150606085013567ffffffffffffffff811115613ba057600080fd5b8501601f81018713613bb157600080fd5b613bc087823560208401613855565b91505092959194509250565b8481526001600160a01b0384166020820152608060408201526000613bf460808301856137a7565b8281036060840152613c0681856137a7565b979650505050505050565b60008060408385031215613c2457600080fd5b613c2d8361374c565b9150602083013567ffffffffffffffff811115613c4957600080fd5b613c5585828601613893565b9150509250929050565b600181811c90821680613c7357607f821691505b602082108103610d1d57634e487b7160e01b600052602260045260246000fd5b601f8211156115d2576000816000526020600020601f850160051c81016020861015613cbc5750805b601f850160051c820191505b81811015613cdb57828155600101613cc8565b505050505050565b815167ffffffffffffffff811115613cfd57613cfd6137e6565b613d1181613d0b8454613c5f565b84613c93565b602080601f831160018114613d465760008415613d2e5750858301515b600019600386901b1c1916600185901b178555613cdb565b600085815260208120601f198616915b82811015613d7557888601518255948401946001909101908401613d56565b5085821015613d935787850151600019600388901b60f8161c191681555b5050505050600190811b01905550565b634e487b7160e01b600052601160045260246000fd5b600060018201613dcb57613dcb613da3565b5060010190565b600060208284031215613de457600080fd5b5051919050565b600060208284031215613dfd57600080fd5b81516120dd81613b0b565b808201808211156109f5576109f5613da3565b634e487b7160e01b600052603260045260246000fd5b60008351613e43818460208801613783565b835190830190613e57818360208801613783565b01949350505050565b60008251613e72818460208701613783565b9190910192915050565b600060208284031215613e8e57600080fd5b815160ff811681146120dd57600080fd5b600060208284031215613eb157600080fd5b815167ffffffffffffffff811115613ec857600080fd5b8201601f81018413613ed957600080fd5b8051613ee76138638261382d565b818152856020838501011115613efc57600080fd5b6139b7826020830160208601613783565b60006001600160a01b03808716835280861660208401525083604083015260806060830152613f3f60808301846137a7565b9695505050505050565b600060208284031215613f5b57600080fd5b81516120dd816138e856fea26469706673582212207e93a59654a54009861f7112ad016c6f38bb1b5d3b5884115f063aa91d1c692d64736f6c634300081800334f6e6c79204f776e657220526f6c65204d617920457865637574652054686973","opcodes":"PUSH1 0x80 PUSH1 0x40 MSTORE PUSH1 0x12 DUP1 SLOAD PUSH1 0xFF NOT AND PUSH1 0x1 OR SWAP1 SSTORE PUSH3 0x278D00 PUSH1 0x14 SSTORE CALLVALUE DUP1 ISZERO PUSH3 0x25 JUMPI PUSH1 0x0 DUP1 REVERT JUMPDEST POP PUSH1 0x40 MLOAD PUSH3 0x4A41 CODESIZE SUB DUP1 PUSH3 0x4A41 DUP4 CODECOPY DUP2 ADD PUSH1 0x40 DUP2 SWAP1 MSTORE PUSH3 0x48 SWAP2 PUSH3 0x7FE JUMP JUMPDEST DUP2 DUP2 PUSH1 0x0 PUSH3 0x58 DUP4 DUP3 PUSH3 0x8F8 JUMP JUMPDEST POP PUSH1 0x1 PUSH3 0x67 DUP3 DUP3 PUSH3 0x8F8 JUMP JUMPDEST POP POP PUSH1 0x7 DUP1 SLOAD PUSH1 0x1 PUSH1 0x1 PUSH1 0xA0 SHL SUB NOT AND CALLER OR SWAP1 SSTORE POP PUSH3 0x86 PUSH3 0xBB JUMP JUMPDEST PUSH3 0xA5 PUSH20 0xAF88D065E77C8CC2239327C5EDB3A432268E5831 PUSH3 0x102 JUMP JUMPDEST PUSH3 0xB3 PUSH3 0x4C4B40 PUSH3 0x186 JUMP JUMPDEST POP POP PUSH3 0xA75 JUMP JUMPDEST PUSH1 0x6 DUP1 SLOAD SWAP1 PUSH1 0x0 PUSH3 0xCD DUP4 PUSH3 0x9C4 JUMP JUMPDEST SWAP2 SWAP1 POP SSTORE POP PUSH3 0xE6 CALLER PUSH1 0x6 SLOAD PUSH3 0x1E9 PUSH1 0x20 SHL PUSH1 0x20 SHR JUMP JUMPDEST CALLER PUSH1 0x0 SWAP1 DUP2 MSTORE PUSH1 0xD PUSH1 0x20 MSTORE PUSH1 0x40 SWAP1 KECCAK256 DUP1 SLOAD PUSH1 0xFF NOT AND PUSH1 0x1 OR SWAP1 SSTORE JUMP JUMPDEST PUSH1 0x7 SLOAD PUSH1 0x1 PUSH1 0x1 PUSH1 0xA0 SHL SUB AND CALLER EQ PUSH3 0x164 JUMPI PUSH1 0x40 MLOAD PUSH3 0x461BCD PUSH1 0xE5 SHL DUP2 MSTORE PUSH1 0x20 PUSH1 0x4 DUP3 ADD MSTORE PUSH1 0x2A PUSH1 0x24 DUP3 ADD MSTORE PUSH1 0x0 DUP1 MLOAD PUSH1 0x20 PUSH3 0x4A21 DUP4 CODECOPY DUP2 MLOAD SWAP2 MSTORE PUSH1 0x44 DUP3 ADD MSTORE PUSH10 0x2046756E6374696F6E21 PUSH1 0xB0 SHL PUSH1 0x64 DUP3 ADD MSTORE PUSH1 0x84 ADD JUMPDEST PUSH1 0x40 MLOAD DUP1 SWAP2 SUB SWAP1 REVERT JUMPDEST PUSH1 0x16 DUP1 SLOAD PUSH1 0x1 PUSH1 0x1 PUSH1 0xA0 SHL SUB NOT AND PUSH1 0x1 PUSH1 0x1 PUSH1 0xA0 SHL SUB SWAP3 SWAP1 SWAP3 AND SWAP2 SWAP1 SWAP2 OR SWAP1 SSTORE JUMP JUMPDEST PUSH1 0x7 SLOAD PUSH1 0x1 PUSH1 0x1 PUSH1 0xA0 SHL SUB AND CALLER EQ PUSH3 0x1E4 JUMPI PUSH1 0x40 MLOAD PUSH3 0x461BCD PUSH1 0xE5 SHL DUP2 MSTORE PUSH1 0x20 PUSH1 0x4 DUP3 ADD MSTORE PUSH1 0x2A PUSH1 0x24 DUP3 ADD MSTORE PUSH1 0x0 DUP1 MLOAD PUSH1 0x20 PUSH3 0x4A21 DUP4 CODECOPY DUP2 MLOAD SWAP2 MSTORE PUSH1 0x44 DUP3 ADD MSTORE PUSH10 0x2046756E6374696F6E21 PUSH1 0xB0 SHL PUSH1 0x64 DUP3 ADD MSTORE PUSH1 0x84 ADD PUSH3 0x15B JUMP JUMPDEST PUSH1 0x15 SSTORE JUMP JUMPDEST PUSH3 0x20B DUP3 DUP3 PUSH1 0x40 MLOAD DUP1 PUSH1 0x20 ADD PUSH1 0x40 MSTORE DUP1 PUSH1 0x0 DUP2 MSTORE POP PUSH3 0x20F PUSH1 0x20 SHL PUSH1 0x20 SHR JUMP JUMPDEST POP POP JUMP JUMPDEST PUSH3 0x21B DUP4 DUP4 PUSH3 0x22F JUMP JUMPDEST PUSH3 0x22A PUSH1 0x0 DUP5 DUP5 DUP5 PUSH3 0x299 JUMP JUMPDEST POP POP POP JUMP JUMPDEST PUSH1 0x1 PUSH1 0x1 PUSH1 0xA0 SHL SUB DUP3 AND PUSH3 0x25B JUMPI PUSH1 0x40 MLOAD PUSH4 0x32505749 PUSH1 0xE1 SHL DUP2 MSTORE PUSH1 0x0 PUSH1 0x4 DUP3 ADD MSTORE PUSH1 0x24 ADD PUSH3 0x15B JUMP JUMPDEST PUSH1 0x0 PUSH3 0x26A DUP4 DUP4 DUP4 PUSH3 0x3D0 JUMP JUMPDEST SWAP1 POP PUSH1 0x1 PUSH1 0x1 PUSH1 0xA0 SHL SUB DUP2 AND ISZERO PUSH3 0x22A JUMPI PUSH1 0x40 MLOAD PUSH4 0x39E35637 PUSH1 0xE1 SHL DUP2 MSTORE PUSH1 0x0 PUSH1 0x4 DUP3 ADD MSTORE PUSH1 0x24 ADD PUSH3 0x15B JUMP JUMPDEST PUSH1 0x1 PUSH1 0x1 PUSH1 0xA0 SHL SUB DUP4 AND EXTCODESIZE ISZERO PUSH3 0x3CA JUMPI PUSH1 0x40 MLOAD PUSH4 0xA85BD01 PUSH1 0xE1 SHL DUP2 MSTORE PUSH1 0x1 PUSH1 0x1 PUSH1 0xA0 SHL SUB DUP5 AND SWAP1 PUSH4 0x150B7A02 SWAP1 PUSH3 0x2DE SWAP1 CALLER SWAP1 DUP9 SWAP1 DUP8 SWAP1 DUP8 SWAP1 PUSH1 0x4 ADD PUSH3 0x9EC JUMP JUMPDEST PUSH1 0x20 PUSH1 0x40 MLOAD DUP1 DUP4 SUB DUP2 PUSH1 0x0 DUP8 GAS CALL SWAP3 POP POP POP DUP1 ISZERO PUSH3 0x31C JUMPI POP PUSH1 0x40 DUP1 MLOAD PUSH1 0x1F RETURNDATASIZE SWAP1 DUP2 ADD PUSH1 0x1F NOT AND DUP3 ADD SWAP1 SWAP3 MSTORE PUSH3 0x319 SWAP2 DUP2 ADD SWAP1 PUSH3 0xA42 JUMP JUMPDEST PUSH1 0x1 JUMPDEST PUSH3 0x38A JUMPI RETURNDATASIZE DUP1 DUP1 ISZERO PUSH3 0x34D JUMPI PUSH1 0x40 MLOAD SWAP2 POP PUSH1 0x1F NOT PUSH1 0x3F RETURNDATASIZE ADD AND DUP3 ADD PUSH1 0x40 MSTORE RETURNDATASIZE DUP3 MSTORE RETURNDATASIZE PUSH1 0x0 PUSH1 0x20 DUP5 ADD RETURNDATACOPY PUSH3 0x352 JUMP JUMPDEST PUSH1 0x60 SWAP2 POP JUMPDEST POP DUP1 MLOAD PUSH1 0x0 SUB PUSH3 0x382 JUMPI PUSH1 0x40 MLOAD PUSH4 0x32505749 PUSH1 0xE1 SHL DUP2 MSTORE PUSH1 0x1 PUSH1 0x1 PUSH1 0xA0 SHL SUB DUP6 AND PUSH1 0x4 DUP3 ADD MSTORE PUSH1 0x24 ADD PUSH3 0x15B JUMP JUMPDEST DUP1 MLOAD DUP2 PUSH1 0x20 ADD REVERT JUMPDEST PUSH1 0x1 PUSH1 0x1 PUSH1 0xE0 SHL SUB NOT DUP2 AND PUSH4 0xA85BD01 PUSH1 0xE1 SHL EQ PUSH3 0x3C8 JUMPI PUSH1 0x40 MLOAD PUSH4 0x32505749 PUSH1 0xE1 SHL DUP2 MSTORE PUSH1 0x1 PUSH1 0x1 PUSH1 0xA0 SHL SUB DUP6 AND PUSH1 0x4 DUP3 ADD MSTORE PUSH1 0x24 ADD PUSH3 0x15B JUMP JUMPDEST POP JUMPDEST POP POP POP POP JUMP JUMPDEST PUSH1 0x0 DUP3 DUP2 MSTORE PUSH1 0x2 PUSH1 0x20 MSTORE PUSH1 0x40 DUP2 KECCAK256 SLOAD PUSH1 0x1 PUSH1 0x1 PUSH1 0xA0 SHL SUB SWAP1 DUP2 AND SWAP1 DUP4 AND ISZERO PUSH3 0x400 JUMPI PUSH3 0x400 DUP2 DUP5 DUP7 PUSH3 0x4CF JUMP JUMPDEST PUSH1 0x1 PUSH1 0x1 PUSH1 0xA0 SHL SUB DUP2 AND ISZERO PUSH3 0x440 JUMPI PUSH3 0x41F PUSH1 0x0 DUP6 DUP2 DUP1 PUSH3 0x539 JUMP JUMPDEST PUSH1 0x1 PUSH1 0x1 PUSH1 0xA0 SHL SUB DUP2 AND PUSH1 0x0 SWAP1 DUP2 MSTORE PUSH1 0x3 PUSH1 0x20 MSTORE PUSH1 0x40 SWAP1 KECCAK256 DUP1 SLOAD PUSH1 0x0 NOT ADD SWAP1 SSTORE JUMPDEST PUSH1 0x1 PUSH1 0x1 PUSH1 0xA0 SHL SUB DUP6 AND ISZERO PUSH3 0x470 JUMPI PUSH1 0x1 PUSH1 0x1 PUSH1 0xA0 SHL SUB DUP6 AND PUSH1 0x0 SWAP1 DUP2 MSTORE PUSH1 0x3 PUSH1 0x20 MSTORE PUSH1 0x40 SWAP1 KECCAK256 DUP1 SLOAD PUSH1 0x1 ADD SWAP1 SSTORE JUMPDEST PUSH1 0x0 DUP5 DUP2 MSTORE PUSH1 0x2 PUSH1 0x20 MSTORE PUSH1 0x40 DUP1 DUP3 KECCAK256 DUP1 SLOAD PUSH1 0x1 PUSH1 0x1 PUSH1 0xA0 SHL SUB NOT AND PUSH1 0x1 PUSH1 0x1 PUSH1 0xA0 SHL SUB DUP10 DUP2 AND SWAP2 DUP3 OR SWAP1 SWAP3 SSTORE SWAP2 MLOAD DUP8 SWAP4 SWAP2 DUP6 AND SWAP2 PUSH32 0xDDF252AD1BE2C89B69C2B068FC378DAA952BA7F163C4A11628F55A4DF523B3EF SWAP2 LOG4 SWAP5 SWAP4 POP POP POP POP JUMP JUMPDEST PUSH3 0x4DC DUP4 DUP4 DUP4 PUSH3 0x667 JUMP JUMPDEST PUSH3 0x22A JUMPI PUSH1 0x1 PUSH1 0x1 PUSH1 0xA0 SHL SUB DUP4 AND PUSH3 0x50D JUMPI PUSH1 0x40 MLOAD PUSH4 0x7E273289 PUSH1 0xE0 SHL DUP2 MSTORE PUSH1 0x4 DUP2 ADD DUP3 SWAP1 MSTORE PUSH1 0x24 ADD PUSH3 0x15B JUMP JUMPDEST PUSH1 0x40 MLOAD PUSH4 0x177E802F PUSH1 0xE0 SHL DUP2 MSTORE PUSH1 0x1 PUSH1 0x1 PUSH1 0xA0 SHL SUB DUP4 AND PUSH1 0x4 DUP3 ADD MSTORE PUSH1 0x24 DUP2 ADD DUP3 SWAP1 MSTORE PUSH1 0x44 ADD PUSH3 0x15B JUMP JUMPDEST DUP1 DUP1 PUSH3 0x54E JUMPI POP PUSH1 0x1 PUSH1 0x1 PUSH1 0xA0 SHL SUB DUP3 AND ISZERO ISZERO JUMPDEST ISZERO PUSH3 0x637 JUMPI PUSH1 0x0 PUSH3 0x561 DUP5 PUSH3 0x6F0 JUMP JUMPDEST SWAP1 POP PUSH1 0x1 PUSH1 0x1 PUSH1 0xA0 SHL SUB DUP4 AND ISZERO DUP1 ISZERO SWAP1 PUSH3 0x58E JUMPI POP DUP3 PUSH1 0x1 PUSH1 0x1 PUSH1 0xA0 SHL SUB AND DUP2 PUSH1 0x1 PUSH1 0x1 PUSH1 0xA0 SHL SUB AND EQ ISZERO JUMPDEST DUP1 ISZERO PUSH3 0x5C1 JUMPI POP PUSH1 0x1 PUSH1 0x1 PUSH1 0xA0 SHL SUB DUP1 DUP3 AND PUSH1 0x0 SWAP1 DUP2 MSTORE PUSH1 0x5 PUSH1 0x20 SWAP1 DUP2 MSTORE PUSH1 0x40 DUP1 DUP4 KECCAK256 SWAP4 DUP8 AND DUP4 MSTORE SWAP3 SWAP1 MSTORE KECCAK256 SLOAD PUSH1 0xFF AND ISZERO JUMPDEST ISZERO PUSH3 0x5EC JUMPI PUSH1 0x40 MLOAD PUSH4 0xA9FBF51F PUSH1 0xE0 SHL DUP2 MSTORE PUSH1 0x1 PUSH1 0x1 PUSH1 0xA0 SHL SUB DUP5 AND PUSH1 0x4 DUP3 ADD MSTORE PUSH1 0x24 ADD PUSH3 0x15B JUMP JUMPDEST DUP2 ISZERO PUSH3 0x635 JUMPI DUP4 DUP6 PUSH1 0x1 PUSH1 0x1 PUSH1 0xA0 SHL SUB AND DUP3 PUSH1 0x1 PUSH1 0x1 PUSH1 0xA0 SHL SUB AND PUSH32 0x8C5BE1E5EBEC7D5BD14F71427D1E84F3DD0314C0F7B2291E5B200AC8C7C3B925 PUSH1 0x40 MLOAD PUSH1 0x40 MLOAD DUP1 SWAP2 SUB SWAP1 LOG4 JUMPDEST POP JUMPDEST POP POP PUSH1 0x0 SWAP1 DUP2 MSTORE PUSH1 0x4 PUSH1 0x20 MSTORE PUSH1 0x40 SWAP1 KECCAK256 DUP1 SLOAD PUSH1 0x1 PUSH1 0x1 PUSH1 0xA0 SHL SUB NOT AND PUSH1 0x1 PUSH1 0x1 PUSH1 0xA0 SHL SUB SWAP3 SWAP1 SWAP3 AND SWAP2 SWAP1 SWAP2 OR SWAP1 SSTORE JUMP JUMPDEST PUSH1 0x0 PUSH1 0x1 PUSH1 0x1 PUSH1 0xA0 SHL SUB DUP4 AND ISZERO DUP1 ISZERO SWAP1 PUSH3 0x6E8 JUMPI POP DUP3 PUSH1 0x1 PUSH1 0x1 PUSH1 0xA0 SHL SUB AND DUP5 PUSH1 0x1 PUSH1 0x1 PUSH1 0xA0 SHL SUB AND EQ DUP1 PUSH3 0x6C3 JUMPI POP PUSH1 0x1 PUSH1 0x1 PUSH1 0xA0 SHL SUB DUP1 DUP6 AND PUSH1 0x0 SWAP1 DUP2 MSTORE PUSH1 0x5 PUSH1 0x20 SWAP1 DUP2 MSTORE PUSH1 0x40 DUP1 DUP4 KECCAK256 SWAP4 DUP8 AND DUP4 MSTORE SWAP3 SWAP1 MSTORE KECCAK256 SLOAD PUSH1 0xFF AND JUMPDEST DUP1 PUSH3 0x6E8 JUMPI POP PUSH1 0x0 DUP3 DUP2 MSTORE PUSH1 0x4 PUSH1 0x20 MSTORE PUSH1 0x40 SWAP1 KECCAK256 SLOAD PUSH1 0x1 PUSH1 0x1 PUSH1 0xA0 SHL SUB DUP5 DUP2 AND SWAP2 AND EQ JUMPDEST SWAP5 SWAP4 POP POP POP POP JUMP JUMPDEST PUSH1 0x0 DUP2 DUP2 MSTORE PUSH1 0x2 PUSH1 0x20 MSTORE PUSH1 0x40 DUP2 KECCAK256 SLOAD PUSH1 0x1 PUSH1 0x1 PUSH1 0xA0 SHL SUB AND DUP1 PUSH3 0x72B JUMPI PUSH1 0x40 MLOAD PUSH4 0x7E273289 PUSH1 0xE0 SHL DUP2 MSTORE PUSH1 0x4 DUP2 ADD DUP5 SWAP1 MSTORE PUSH1 0x24 ADD PUSH3 0x15B JUMP JUMPDEST SWAP3 SWAP2 POP POP JUMP JUMPDEST PUSH4 0x4E487B71 PUSH1 0xE0 SHL PUSH1 0x0 MSTORE PUSH1 0x41 PUSH1 0x4 MSTORE PUSH1 0x24 PUSH1 0x0 REVERT JUMPDEST PUSH1 0x0 JUMPDEST DUP4 DUP2 LT ISZERO PUSH3 0x764 JUMPI DUP2 DUP2 ADD MLOAD DUP4 DUP3 ADD MSTORE PUSH1 0x20 ADD PUSH3 0x74A JUMP JUMPDEST POP POP PUSH1 0x0 SWAP2 ADD MSTORE JUMP JUMPDEST PUSH1 0x0 DUP3 PUSH1 0x1F DUP4 ADD SLT PUSH3 0x77F JUMPI PUSH1 0x0 DUP1 REVERT JUMPDEST DUP2 MLOAD PUSH1 0x1 PUSH1 0x1 PUSH1 0x40 SHL SUB DUP1 DUP3 GT ISZERO PUSH3 0x79C JUMPI PUSH3 0x79C PUSH3 0x731 JUMP JUMPDEST PUSH1 0x40 MLOAD PUSH1 0x1F DUP4 ADD PUSH1 0x1F NOT SWAP1 DUP2 AND PUSH1 0x3F ADD AND DUP2 ADD SWAP1 DUP3 DUP3 GT DUP2 DUP4 LT OR ISZERO PUSH3 0x7C7 JUMPI PUSH3 0x7C7 PUSH3 0x731 JUMP JUMPDEST DUP2 PUSH1 0x40 MSTORE DUP4 DUP2 MSTORE DUP7 PUSH1 0x20 DUP6 DUP9 ADD ADD GT ISZERO PUSH3 0x7E1 JUMPI PUSH1 0x0 DUP1 REVERT JUMPDEST PUSH3 0x7F4 DUP5 PUSH1 0x20 DUP4 ADD PUSH1 0x20 DUP10 ADD PUSH3 0x747 JUMP JUMPDEST SWAP7 SWAP6 POP POP POP POP POP POP JUMP JUMPDEST PUSH1 0x0 DUP1 PUSH1 0x40 DUP4 DUP6 SUB SLT ISZERO PUSH3 0x812 JUMPI PUSH1 0x0 DUP1 REVERT JUMPDEST DUP3 MLOAD PUSH1 0x1 PUSH1 0x1 PUSH1 0x40 SHL SUB DUP1 DUP3 GT ISZERO PUSH3 0x82A JUMPI PUSH1 0x0 DUP1 REVERT JUMPDEST PUSH3 0x838 DUP7 DUP4 DUP8 ADD PUSH3 0x76D JUMP JUMPDEST SWAP4 POP PUSH1 0x20 DUP6 ADD MLOAD SWAP2 POP DUP1 DUP3 GT ISZERO PUSH3 0x84F JUMPI PUSH1 0x0 DUP1 REVERT JUMPDEST POP PUSH3 0x85E DUP6 DUP3 DUP7 ADD PUSH3 0x76D JUMP JUMPDEST SWAP2 POP POP SWAP3 POP SWAP3 SWAP1 POP JUMP JUMPDEST PUSH1 0x1 DUP2 DUP2 SHR SWAP1 DUP3 AND DUP1 PUSH3 0x87D JUMPI PUSH1 0x7F DUP3 AND SWAP2 POP JUMPDEST PUSH1 0x20 DUP3 LT DUP2 SUB PUSH3 0x89E JUMPI PUSH4 0x4E487B71 PUSH1 0xE0 SHL PUSH1 0x0 MSTORE PUSH1 0x22 PUSH1 0x4 MSTORE PUSH1 0x24 PUSH1 0x0 REVERT JUMPDEST POP SWAP2 SWAP1 POP JUMP JUMPDEST PUSH1 0x1F DUP3 GT ISZERO PUSH3 0x22A JUMPI PUSH1 0x0 DUP2 PUSH1 0x0 MSTORE PUSH1 0x20 PUSH1 0x0 KECCAK256 PUSH1 0x1F DUP6 ADD PUSH1 0x5 SHR DUP2 ADD PUSH1 0x20 DUP7 LT ISZERO PUSH3 0x8CF JUMPI POP DUP1 JUMPDEST PUSH1 0x1F DUP6 ADD PUSH1 0x5 SHR DUP3 ADD SWAP2 POP JUMPDEST DUP2 DUP2 LT ISZERO PUSH3 0x8F0 JUMPI DUP3 DUP2 SSTORE PUSH1 0x1 ADD PUSH3 0x8DB JUMP JUMPDEST POP POP POP POP POP POP JUMP JUMPDEST DUP2 MLOAD PUSH1 0x1 PUSH1 0x1 PUSH1 0x40 SHL SUB DUP2 GT ISZERO PUSH3 0x914 JUMPI PUSH3 0x914 PUSH3 0x731 JUMP JUMPDEST PUSH3 0x92C DUP2 PUSH3 0x925 DUP5 SLOAD PUSH3 0x868 JUMP JUMPDEST DUP5 PUSH3 0x8A4 JUMP JUMPDEST PUSH1 0x20 DUP1 PUSH1 0x1F DUP4 GT PUSH1 0x1 DUP2 EQ PUSH3 0x964 JUMPI PUSH1 0x0 DUP5 ISZERO PUSH3 0x94B JUMPI POP DUP6 DUP4 ADD MLOAD JUMPDEST PUSH1 0x0 NOT PUSH1 0x3 DUP7 SWAP1 SHL SHR NOT AND PUSH1 0x1 DUP6 SWAP1 SHL OR DUP6 SSTORE PUSH3 0x8F0 JUMP JUMPDEST PUSH1 0x0 DUP6 DUP2 MSTORE PUSH1 0x20 DUP2 KECCAK256 PUSH1 0x1F NOT DUP7 AND SWAP2 JUMPDEST DUP3 DUP2 LT ISZERO PUSH3 0x995 JUMPI DUP9 DUP7 ADD MLOAD DUP3 SSTORE SWAP5 DUP5 ADD SWAP5 PUSH1 0x1 SWAP1 SWAP2 ADD SWAP1 DUP5 ADD PUSH3 0x974 JUMP JUMPDEST POP DUP6 DUP3 LT ISZERO PUSH3 0x9B4 JUMPI DUP8 DUP6 ADD MLOAD PUSH1 0x0 NOT PUSH1 0x3 DUP9 SWAP1 SHL PUSH1 0xF8 AND SHR NOT AND DUP2 SSTORE JUMPDEST POP POP POP POP POP PUSH1 0x1 SWAP1 DUP2 SHL ADD SWAP1 SSTORE POP JUMP JUMPDEST PUSH1 0x0 PUSH1 0x1 DUP3 ADD PUSH3 0x9E5 JUMPI PUSH4 0x4E487B71 PUSH1 0xE0 SHL PUSH1 0x0 MSTORE PUSH1 0x11 PUSH1 0x4 MSTORE PUSH1 0x24 PUSH1 0x0 REVERT JUMPDEST POP PUSH1 0x1 ADD SWAP1 JUMP JUMPDEST PUSH1 0x0 PUSH1 0x1 DUP1 PUSH1 0xA0 SHL SUB DUP1 DUP8 AND DUP4 MSTORE DUP1 DUP7 AND PUSH1 0x20 DUP5 ADD MSTORE POP DUP4 PUSH1 0x40 DUP4 ADD MSTORE PUSH1 0x80 PUSH1 0x60 DUP4 ADD MSTORE DUP3 MLOAD DUP1 PUSH1 0x80 DUP5 ADD MSTORE PUSH3 0xA2B DUP2 PUSH1 0xA0 DUP6 ADD PUSH1 0x20 DUP8 ADD PUSH3 0x747 JUMP JUMPDEST PUSH1 0x1F ADD PUSH1 0x1F NOT AND SWAP2 SWAP1 SWAP2 ADD PUSH1 0xA0 ADD SWAP6 SWAP5 POP POP POP POP POP JUMP JUMPDEST PUSH1 0x0 PUSH1 0x20 DUP3 DUP5 SUB SLT ISZERO PUSH3 0xA55 JUMPI PUSH1 0x0 DUP1 REVERT JUMPDEST DUP2 MLOAD PUSH1 0x1 PUSH1 0x1 PUSH1 0xE0 SHL SUB NOT DUP2 AND DUP2 EQ PUSH3 0xA6E JUMPI PUSH1 0x0 DUP1 REVERT JUMPDEST SWAP4 SWAP3 POP POP POP JUMP JUMPDEST PUSH2 0x3F9C DUP1 PUSH3 0xA85 PUSH1 0x0 CODECOPY PUSH1 0x0 RETURN INVALID PUSH1 0x80 PUSH1 0x40 MSTORE CALLVALUE DUP1 ISZERO PUSH2 0x10 JUMPI PUSH1 0x0 DUP1 REVERT JUMPDEST POP PUSH1 0x4 CALLDATASIZE LT PUSH2 0x377 JUMPI PUSH1 0x0 CALLDATALOAD PUSH1 0xE0 SHR DUP1 PUSH4 0x7734A9F6 GT PUSH2 0x1D3 JUMPI DUP1 PUSH4 0xC70854AC GT PUSH2 0x104 JUMPI DUP1 PUSH4 0xE985E9C5 GT PUSH2 0xA2 JUMPI DUP1 PUSH4 0xED01FBD7 GT PUSH2 0x7C JUMPI DUP1 PUSH4 0xED01FBD7 EQ PUSH2 0x88D JUMPI DUP1 PUSH4 0xED59313A EQ PUSH2 0x8A0 JUMPI DUP1 PUSH4 0xF2F06BCB EQ PUSH2 0x8B3 JUMPI DUP1 PUSH4 0xFCBCA456 EQ PUSH2 0x8C6 JUMPI PUSH1 0x0 DUP1 REVERT JUMPDEST DUP1 PUSH4 0xE985E9C5 EQ PUSH2 0x836 JUMPI DUP1 PUSH4 0xEC08AD76 EQ PUSH2 0x872 JUMPI DUP1 PUSH4 0xEC4CEAE9 EQ PUSH2 0x87A JUMPI PUSH1 0x0 DUP1 REVERT JUMPDEST DUP1 PUSH4 0xE04794B6 GT PUSH2 0xDE JUMPI DUP1 PUSH4 0xE04794B6 EQ PUSH2 0x7A1 JUMPI DUP1 PUSH4 0xE47D6060 EQ PUSH2 0x7B4 JUMPI DUP1 PUSH4 0xE5949B5D EQ PUSH2 0x7D7 JUMPI DUP1 PUSH4 0xE638DFC2 EQ PUSH2 0x7FA JUMPI PUSH1 0x0 DUP1 REVERT JUMPDEST DUP1 PUSH4 0xC70854AC EQ PUSH2 0x758 JUMPI DUP1 PUSH4 0xC87B56DD EQ PUSH2 0x76B JUMPI DUP1 PUSH4 0xCB661F39 EQ PUSH2 0x77E JUMPI PUSH1 0x0 DUP1 REVERT JUMPDEST DUP1 PUSH4 0xA230C524 GT PUSH2 0x171 JUMPI DUP1 PUSH4 0xB64AFE05 GT PUSH2 0x14B JUMPI DUP1 PUSH4 0xB64AFE05 EQ PUSH2 0x6E9 JUMPI DUP1 PUSH4 0xB88D4FDE EQ PUSH2 0x6FC JUMPI DUP1 PUSH4 0xBF59A6C8 EQ PUSH2 0x70F JUMPI DUP1 PUSH4 0xC00AF42C EQ PUSH2 0x72F JUMPI PUSH1 0x0 DUP1 REVERT JUMPDEST DUP1 PUSH4 0xA230C524 EQ PUSH2 0x6A0 JUMPI DUP1 PUSH4 0xA900A08A EQ PUSH2 0x6C3 JUMPI DUP1 PUSH4 0xB08A778C EQ PUSH2 0x6D6 JUMPI PUSH1 0x0 DUP1 REVERT JUMPDEST DUP1 PUSH4 0x84108C76 GT PUSH2 0x1AD JUMPI DUP1 PUSH4 0x84108C76 EQ PUSH2 0x65F JUMPI DUP1 PUSH4 0x8DA5CB5B EQ PUSH2 0x672 JUMPI DUP1 PUSH4 0x95D89B41 EQ PUSH2 0x685 JUMPI DUP1 PUSH4 0xA22CB465 EQ PUSH2 0x68D JUMPI PUSH1 0x0 DUP1 REVERT JUMPDEST DUP1 PUSH4 0x7734A9F6 EQ PUSH2 0x615 JUMPI DUP1 PUSH4 0x7C622FD9 EQ PUSH2 0x61E JUMPI DUP1 PUSH4 0x83445232 EQ PUSH2 0x631 JUMPI PUSH1 0x0 DUP1 REVERT JUMPDEST DUP1 PUSH4 0x2183525D GT PUSH2 0x2AD JUMPI DUP1 PUSH4 0x3A17916B GT PUSH2 0x24B JUMPI DUP1 PUSH4 0x4FB2E45D GT PUSH2 0x225 JUMPI DUP1 PUSH4 0x4FB2E45D EQ PUSH2 0x5C9 JUMPI DUP1 PUSH4 0x604A427E EQ PUSH2 0x5DC JUMPI DUP1 PUSH4 0x6352211E EQ PUSH2 0x5EF JUMPI DUP1 PUSH4 0x70A08231 EQ PUSH2 0x602 JUMPI PUSH1 0x0 DUP1 REVERT JUMPDEST DUP1 PUSH4 0x3A17916B EQ PUSH2 0x5A5 JUMPI DUP1 PUSH4 0x3CCFD60B EQ PUSH2 0x5AE JUMPI DUP1 PUSH4 0x42842E0E EQ PUSH2 0x5B6 JUMPI PUSH1 0x0 DUP1 REVERT JUMPDEST DUP1 PUSH4 0x28A12642 GT PUSH2 0x287 JUMPI DUP1 PUSH4 0x28A12642 EQ PUSH2 0x4DF JUMPI DUP1 PUSH4 0x2D01936A EQ PUSH2 0x50D JUMPI DUP1 PUSH4 0x2D6D761D EQ PUSH2 0x53B JUMPI DUP1 PUSH4 0x334D4DE4 EQ PUSH2 0x569 JUMPI PUSH1 0x0 DUP1 REVERT JUMPDEST DUP1 PUSH4 0x2183525D EQ PUSH2 0x4A6 JUMPI DUP1 PUSH4 0x23B872DD EQ PUSH2 0x4B9 JUMPI DUP1 PUSH4 0x2819CC0C EQ PUSH2 0x4CC JUMPI PUSH1 0x0 DUP1 REVERT JUMPDEST DUP1 PUSH4 0x95EA7B3 GT PUSH2 0x31A JUMPI DUP1 PUSH4 0x1249C58B GT PUSH2 0x2F4 JUMPI DUP1 PUSH4 0x1249C58B EQ PUSH2 0x47A JUMPI DUP1 PUSH4 0x14401329 EQ PUSH2 0x482 JUMPI DUP1 PUSH4 0x18160DDD EQ PUSH2 0x495 JUMPI DUP1 PUSH4 0x1B3D7E1C EQ PUSH2 0x49E JUMPI PUSH1 0x0 DUP1 REVERT JUMPDEST DUP1 PUSH4 0x95EA7B3 EQ PUSH2 0x43A JUMPI DUP1 PUSH4 0xD9551DA EQ PUSH2 0x44D JUMPI DUP1 PUSH4 0x10DF54A0 EQ PUSH2 0x45A JUMPI PUSH1 0x0 DUP1 REVERT JUMPDEST DUP1 PUSH4 0x610A7A2 GT PUSH2 0x356 JUMPI DUP1 PUSH4 0x610A7A2 EQ PUSH2 0x3DD JUMPI DUP1 PUSH4 0x6FDDE03 EQ PUSH2 0x3F0 JUMPI DUP1 PUSH4 0x81812FC EQ PUSH2 0x3F8 JUMPI DUP1 PUSH4 0x8CAD1BF EQ PUSH2 0x423 JUMPI PUSH1 0x0 DUP1 REVERT JUMPDEST DUP1 PUSH3 0x90D356 EQ PUSH2 0x37C JUMPI DUP1 PUSH4 0x11F2CCE EQ PUSH2 0x3A5 JUMPI DUP1 PUSH4 0x1FFC9A7 EQ PUSH2 0x3BA JUMPI JUMPDEST PUSH1 0x0 DUP1 REVERT JUMPDEST PUSH2 0x38F PUSH2 0x38A CALLDATASIZE PUSH1 0x4 PUSH2 0x3768 JUMP JUMPDEST PUSH2 0x8D9 JUMP JUMPDEST PUSH1 0x40 MLOAD PUSH2 0x39C SWAP2 SWAP1 PUSH2 0x37D3 JUMP JUMPDEST PUSH1 0x40 MLOAD DUP1 SWAP2 SUB SWAP1 RETURN JUMPDEST PUSH2 0x3B8 PUSH2 0x3B3 CALLDATASIZE PUSH1 0x4 PUSH2 0x38B3 JUMP JUMPDEST PUSH2 0x973 JUMP JUMPDEST STOP JUMPDEST PUSH2 0x3CD PUSH2 0x3C8 CALLDATASIZE PUSH1 0x4 PUSH2 0x3901 JUMP JUMPDEST PUSH2 0x990 JUMP JUMPDEST PUSH1 0x40 MLOAD SWAP1 ISZERO ISZERO DUP2 MSTORE PUSH1 0x20 ADD PUSH2 0x39C JUMP JUMPDEST PUSH2 0x38F PUSH2 0x3EB CALLDATASIZE PUSH1 0x4 PUSH2 0x3768 JUMP JUMPDEST PUSH2 0x9FB JUMP JUMPDEST PUSH2 0x38F PUSH2 0xA14 JUMP JUMPDEST PUSH2 0x40B PUSH2 0x406 CALLDATASIZE PUSH1 0x4 PUSH2 0x391E JUMP JUMPDEST PUSH2 0xAA6 JUMP JUMPDEST PUSH1 0x40 MLOAD PUSH1 0x1 PUSH1 0x1 PUSH1 0xA0 SHL SUB SWAP1 SWAP2 AND DUP2 MSTORE PUSH1 0x20 ADD PUSH2 0x39C JUMP JUMPDEST PUSH2 0x42C PUSH1 0x14 SLOAD DUP2 JUMP JUMPDEST PUSH1 0x40 MLOAD SWAP1 DUP2 MSTORE PUSH1 0x20 ADD PUSH2 0x39C JUMP JUMPDEST PUSH2 0x3B8 PUSH2 0x448 CALLDATASIZE PUSH1 0x4 PUSH2 0x3937 JUMP JUMPDEST PUSH2 0xACF JUMP JUMPDEST PUSH1 0x12 SLOAD PUSH2 0x3CD SWAP1 PUSH1 0xFF AND DUP2 JUMP JUMPDEST PUSH2 0x46D PUSH2 0x468 CALLDATASIZE PUSH1 0x4 PUSH2 0x391E JUMP JUMPDEST PUSH2 0xADA JUMP JUMPDEST PUSH1 0x40 MLOAD PUSH2 0x39C SWAP2 SWAP1 PUSH2 0x3961 JUMP JUMPDEST PUSH2 0x3B8 PUSH2 0xD23 JUMP JUMPDEST PUSH2 0x3CD PUSH2 0x490 CALLDATASIZE PUSH1 0x4 PUSH2 0x3768 JUMP JUMPDEST PUSH2 0xD60 JUMP JUMPDEST PUSH2 0x42C PUSH1 0x6 SLOAD DUP2 JUMP JUMPDEST PUSH2 0x3B8 PUSH2 0xD9F JUMP JUMPDEST PUSH2 0x3B8 PUSH2 0x4B4 CALLDATASIZE PUSH1 0x4 PUSH2 0x391E JUMP JUMPDEST PUSH2 0x10E8 JUMP JUMPDEST PUSH2 0x3B8 PUSH2 0x4C7 CALLDATASIZE PUSH1 0x4 PUSH2 0x39C0 JUMP JUMPDEST PUSH2 0x115A JUMP JUMPDEST PUSH2 0x3B8 PUSH2 0x4DA CALLDATASIZE PUSH1 0x4 PUSH2 0x391E JUMP JUMPDEST PUSH2 0x11FE JUMP JUMPDEST PUSH2 0x3CD PUSH2 0x4ED CALLDATASIZE PUSH1 0x4 PUSH2 0x39FC JUMP JUMPDEST PUSH1 0x11 PUSH1 0x20 SWAP1 DUP2 MSTORE PUSH1 0x0 SWAP3 DUP4 MSTORE PUSH1 0x40 DUP1 DUP5 KECCAK256 SWAP1 SWAP2 MSTORE SWAP1 DUP3 MSTORE SWAP1 KECCAK256 SLOAD PUSH1 0xFF AND DUP2 JUMP JUMPDEST PUSH2 0x3CD PUSH2 0x51B CALLDATASIZE PUSH1 0x4 PUSH2 0x3A28 JUMP JUMPDEST PUSH1 0x17 PUSH1 0x20 SWAP1 DUP2 MSTORE PUSH1 0x0 SWAP3 DUP4 MSTORE PUSH1 0x40 DUP1 DUP5 KECCAK256 SWAP1 SWAP2 MSTORE SWAP1 DUP3 MSTORE SWAP1 KECCAK256 SLOAD PUSH1 0xFF AND DUP2 JUMP JUMPDEST PUSH2 0x3CD PUSH2 0x549 CALLDATASIZE PUSH1 0x4 PUSH2 0x3A28 JUMP JUMPDEST PUSH1 0x18 PUSH1 0x20 SWAP1 DUP2 MSTORE PUSH1 0x0 SWAP3 DUP4 MSTORE PUSH1 0x40 DUP1 DUP5 KECCAK256 SWAP1 SWAP2 MSTORE SWAP1 DUP3 MSTORE SWAP1 KECCAK256 SLOAD PUSH1 0xFF AND DUP2 JUMP JUMPDEST PUSH2 0x3B8 PUSH2 0x577 CALLDATASIZE PUSH1 0x4 PUSH2 0x3768 JUMP JUMPDEST CALLER PUSH1 0x0 SWAP1 DUP2 MSTORE PUSH1 0x17 PUSH1 0x20 SWAP1 DUP2 MSTORE PUSH1 0x40 DUP1 DUP4 KECCAK256 PUSH1 0x1 PUSH1 0x1 PUSH1 0xA0 SHL SUB SWAP5 SWAP1 SWAP5 AND DUP4 MSTORE SWAP3 SWAP1 MSTORE KECCAK256 DUP1 SLOAD PUSH1 0xFF NOT AND SWAP1 SSTORE JUMP JUMPDEST PUSH2 0x42C PUSH1 0x15 SLOAD DUP2 JUMP JUMPDEST PUSH2 0x3B8 PUSH2 0x13DF JUMP JUMPDEST PUSH2 0x3B8 PUSH2 0x5C4 CALLDATASIZE PUSH1 0x4 PUSH2 0x39C0 JUMP JUMPDEST PUSH2 0x15B7 JUMP JUMPDEST PUSH2 0x3B8 PUSH2 0x5D7 CALLDATASIZE PUSH1 0x4 PUSH2 0x3768 JUMP JUMPDEST PUSH2 0x15D7 JUMP JUMPDEST PUSH2 0x3B8 PUSH2 0x5EA CALLDATASIZE PUSH1 0x4 PUSH2 0x3937 JUMP JUMPDEST PUSH2 0x1771 JUMP JUMPDEST PUSH2 0x40B PUSH2 0x5FD CALLDATASIZE PUSH1 0x4 PUSH2 0x391E JUMP JUMPDEST PUSH2 0x1997 JUMP JUMPDEST PUSH2 0x42C PUSH2 0x610 CALLDATASIZE PUSH1 0x4 PUSH2 0x3768 JUMP JUMPDEST PUSH2 0x19A2 JUMP JUMPDEST PUSH2 0x42C PUSH1 0x9 SLOAD DUP2 JUMP JUMPDEST PUSH2 0x3B8 PUSH2 0x62C CALLDATASIZE PUSH1 0x4 PUSH2 0x3768 JUMP JUMPDEST PUSH2 0x1A03 JUMP JUMPDEST PUSH2 0x3CD PUSH2 0x63F CALLDATASIZE PUSH1 0x4 PUSH2 0x39FC JUMP JUMPDEST PUSH1 0xC PUSH1 0x20 SWAP1 DUP2 MSTORE PUSH1 0x0 SWAP3 DUP4 MSTORE PUSH1 0x40 DUP1 DUP5 KECCAK256 SWAP1 SWAP2 MSTORE SWAP1 DUP3 MSTORE SWAP1 KECCAK256 SLOAD PUSH1 0xFF AND DUP2 JUMP JUMPDEST PUSH2 0x3B8 PUSH2 0x66D CALLDATASIZE PUSH1 0x4 PUSH2 0x3A52 JUMP JUMPDEST PUSH2 0x1A8C JUMP JUMPDEST PUSH1 0x7 SLOAD PUSH2 0x40B SWAP1 PUSH1 0x1 PUSH1 0x1 PUSH1 0xA0 SHL SUB AND DUP2 JUMP JUMPDEST PUSH2 0x38F PUSH2 0x1D02 JUMP JUMPDEST PUSH2 0x3B8 PUSH2 0x69B CALLDATASIZE PUSH1 0x4 PUSH2 0x3B19 JUMP JUMPDEST PUSH2 0x1D11 JUMP JUMPDEST PUSH2 0x3CD PUSH2 0x6AE CALLDATASIZE PUSH1 0x4 PUSH2 0x3768 JUMP JUMPDEST PUSH1 0xD PUSH1 0x20 MSTORE PUSH1 0x0 SWAP1 DUP2 MSTORE PUSH1 0x40 SWAP1 KECCAK256 SLOAD PUSH1 0xFF AND DUP2 JUMP JUMPDEST PUSH2 0x3B8 PUSH2 0x6D1 CALLDATASIZE PUSH1 0x4 PUSH2 0x391E JUMP JUMPDEST PUSH2 0x1D1C JUMP JUMPDEST PUSH2 0x3B8 PUSH2 0x6E4 CALLDATASIZE PUSH1 0x4 PUSH2 0x3768 JUMP JUMPDEST PUSH2 0x1E7D JUMP JUMPDEST PUSH2 0x3B8 PUSH2 0x6F7 CALLDATASIZE PUSH1 0x4 PUSH2 0x3937 JUMP JUMPDEST PUSH2 0x1F06 JUMP JUMPDEST PUSH2 0x3B8 PUSH2 0x70A CALLDATASIZE PUSH1 0x4 PUSH2 0x3B50 JUMP JUMPDEST PUSH2 0x2058 JUMP JUMPDEST PUSH2 0x42C PUSH2 0x71D CALLDATASIZE PUSH1 0x4 PUSH2 0x3768 JUMP JUMPDEST PUSH1 0x13 PUSH1 0x20 MSTORE PUSH1 0x0 SWAP1 DUP2 MSTORE PUSH1 0x40 SWAP1 KECCAK256 SLOAD DUP2 JUMP JUMPDEST PUSH2 0x40B PUSH2 0x73D CALLDATASIZE PUSH1 0x4 PUSH2 0x391E JUMP JUMPDEST PUSH1 0x8 PUSH1 0x20 MSTORE PUSH1 0x0 SWAP1 DUP2 MSTORE PUSH1 0x40 SWAP1 KECCAK256 SLOAD PUSH1 0x1 PUSH1 0x1 PUSH1 0xA0 SHL SUB AND DUP2 JUMP JUMPDEST PUSH1 0x16 SLOAD PUSH2 0x40B SWAP1 PUSH1 0x1 PUSH1 0x1 PUSH1 0xA0 SHL SUB AND DUP2 JUMP JUMPDEST PUSH2 0x38F PUSH2 0x779 CALLDATASIZE PUSH1 0x4 PUSH2 0x391E JUMP JUMPDEST PUSH2 0x206F JUMP JUMPDEST PUSH2 0x3CD PUSH2 0x78C CALLDATASIZE PUSH1 0x4 PUSH2 0x3768 JUMP JUMPDEST PUSH1 0xA PUSH1 0x20 MSTORE PUSH1 0x0 SWAP1 DUP2 MSTORE PUSH1 0x40 SWAP1 KECCAK256 SLOAD PUSH1 0xFF AND DUP2 JUMP JUMPDEST PUSH2 0x3B8 PUSH2 0x7AF CALLDATASIZE PUSH1 0x4 PUSH2 0x3937 JUMP JUMPDEST PUSH2 0x20E4 JUMP JUMPDEST PUSH2 0x3CD PUSH2 0x7C2 CALLDATASIZE PUSH1 0x4 PUSH2 0x3768 JUMP JUMPDEST PUSH1 0x10 PUSH1 0x20 MSTORE PUSH1 0x0 SWAP1 DUP2 MSTORE PUSH1 0x40 SWAP1 KECCAK256 SLOAD PUSH1 0xFF AND DUP2 JUMP JUMPDEST PUSH2 0x7EA PUSH2 0x7E5 CALLDATASIZE PUSH1 0x4 PUSH2 0x391E JUMP JUMPDEST PUSH2 0x2386 JUMP JUMPDEST PUSH1 0x40 MLOAD PUSH2 0x39C SWAP5 SWAP4 SWAP3 SWAP2 SWAP1 PUSH2 0x3BCC JUMP JUMPDEST PUSH2 0x3B8 PUSH2 0x808 CALLDATASIZE PUSH1 0x4 PUSH2 0x3768 JUMP JUMPDEST CALLER PUSH1 0x0 SWAP1 DUP2 MSTORE PUSH1 0x18 PUSH1 0x20 SWAP1 DUP2 MSTORE PUSH1 0x40 DUP1 DUP4 KECCAK256 PUSH1 0x1 PUSH1 0x1 PUSH1 0xA0 SHL SUB SWAP5 SWAP1 SWAP5 AND DUP4 MSTORE SWAP3 SWAP1 MSTORE KECCAK256 DUP1 SLOAD PUSH1 0xFF NOT AND SWAP1 SSTORE JUMP JUMPDEST PUSH2 0x3CD PUSH2 0x844 CALLDATASIZE PUSH1 0x4 PUSH2 0x3A28 JUMP JUMPDEST PUSH1 0x1 PUSH1 0x1 PUSH1 0xA0 SHL SUB SWAP2 DUP3 AND PUSH1 0x0 SWAP1 DUP2 MSTORE PUSH1 0x5 PUSH1 0x20 SWAP1 DUP2 MSTORE PUSH1 0x40 DUP1 DUP4 KECCAK256 SWAP4 SWAP1 SWAP5 AND DUP3 MSTORE SWAP2 SWAP1 SWAP2 MSTORE KECCAK256 SLOAD PUSH1 0xFF AND SWAP1 JUMP JUMPDEST PUSH2 0x3B8 PUSH2 0x24C9 JUMP JUMPDEST PUSH2 0x3B8 PUSH2 0x888 CALLDATASIZE PUSH1 0x4 PUSH2 0x3768 JUMP JUMPDEST PUSH2 0x254A JUMP JUMPDEST PUSH2 0x3B8 PUSH2 0x89B CALLDATASIZE PUSH1 0x4 PUSH2 0x3768 JUMP JUMPDEST PUSH2 0x2650 JUMP JUMPDEST PUSH2 0x3B8 PUSH2 0x8AE CALLDATASIZE PUSH1 0x4 PUSH2 0x38B3 JUMP JUMPDEST PUSH2 0x26DF JUMP JUMPDEST PUSH2 0x3B8 PUSH2 0x8C1 CALLDATASIZE PUSH1 0x4 PUSH2 0x3C11 JUMP JUMPDEST PUSH2 0x26F8 JUMP JUMPDEST PUSH2 0x3B8 PUSH2 0x8D4 CALLDATASIZE PUSH1 0x4 PUSH2 0x3768 JUMP JUMPDEST PUSH2 0x2E64 JUMP JUMPDEST PUSH1 0xE PUSH1 0x20 MSTORE PUSH1 0x0 SWAP1 DUP2 MSTORE PUSH1 0x40 SWAP1 KECCAK256 DUP1 SLOAD PUSH2 0x8F2 SWAP1 PUSH2 0x3C5F JUMP JUMPDEST DUP1 PUSH1 0x1F ADD PUSH1 0x20 DUP1 SWAP2 DIV MUL PUSH1 0x20 ADD PUSH1 0x40 MLOAD SWAP1 DUP2 ADD PUSH1 0x40 MSTORE DUP1 SWAP3 SWAP2 SWAP1 DUP2 DUP2 MSTORE PUSH1 0x20 ADD DUP3 DUP1 SLOAD PUSH2 0x91E SWAP1 PUSH2 0x3C5F JUMP JUMPDEST DUP1 ISZERO PUSH2 0x96B JUMPI DUP1 PUSH1 0x1F LT PUSH2 0x940 JUMPI PUSH2 0x100 DUP1 DUP4 SLOAD DIV MUL DUP4 MSTORE SWAP2 PUSH1 0x20 ADD SWAP2 PUSH2 0x96B JUMP JUMPDEST DUP3 ADD SWAP2 SWAP1 PUSH1 0x0 MSTORE PUSH1 0x20 PUSH1 0x0 KECCAK256 SWAP1 JUMPDEST DUP2 SLOAD DUP2 MSTORE SWAP1 PUSH1 0x1 ADD SWAP1 PUSH1 0x20 ADD DUP1 DUP4 GT PUSH2 0x94E JUMPI DUP3 SWAP1 SUB PUSH1 0x1F AND DUP3 ADD SWAP2 JUMPDEST POP POP POP POP POP DUP2 JUMP JUMPDEST CALLER PUSH1 0x0 SWAP1 DUP2 MSTORE PUSH1 0xE PUSH1 0x20 MSTORE PUSH1 0x40 SWAP1 KECCAK256 PUSH2 0x98C DUP3 DUP3 PUSH2 0x3CE3 JUMP JUMPDEST POP POP JUMP JUMPDEST PUSH1 0x0 PUSH1 0x1 PUSH1 0x1 PUSH1 0xE0 SHL SUB NOT DUP3 AND PUSH4 0x80AC58CD PUSH1 0xE0 SHL EQ DUP1 PUSH2 0x9DA JUMPI POP PUSH1 0x1 PUSH1 0x1 PUSH1 0xE0 SHL SUB NOT DUP3 AND PUSH32 0x5B5E139F00000000000000000000000000000000000000000000000000000000 EQ JUMPDEST DUP1 PUSH2 0x9F5 JUMPI POP PUSH4 0x1FFC9A7 PUSH1 0xE0 SHL PUSH1 0x1 PUSH1 0x1 PUSH1 0xE0 SHL SUB NOT DUP4 AND EQ JUMPDEST SWAP3 SWAP2 POP POP JUMP JUMPDEST PUSH1 0xF PUSH1 0x20 MSTORE PUSH1 0x0 SWAP1 DUP2 MSTORE PUSH1 0x40 SWAP1 KECCAK256 DUP1 SLOAD PUSH2 0x8F2 SWAP1 PUSH2 0x3C5F JUMP JUMPDEST PUSH1 0x60 PUSH1 0x0 DUP1 SLOAD PUSH2 0xA23 SWAP1 PUSH2 0x3C5F JUMP JUMPDEST DUP1 PUSH1 0x1F ADD PUSH1 0x20 DUP1 SWAP2 DIV MUL PUSH1 0x20 ADD PUSH1 0x40 MLOAD SWAP1 DUP2 ADD PUSH1 0x40 MSTORE DUP1 SWAP3 SWAP2 SWAP1 DUP2 DUP2 MSTORE PUSH1 0x20 ADD DUP3 DUP1 SLOAD PUSH2 0xA4F SWAP1 PUSH2 0x3C5F JUMP JUMPDEST DUP1 ISZERO PUSH2 0xA9C JUMPI DUP1 PUSH1 0x1F LT PUSH2 0xA71 JUMPI PUSH2 0x100 DUP1 DUP4 SLOAD DIV MUL DUP4 MSTORE SWAP2 PUSH1 0x20 ADD SWAP2 PUSH2 0xA9C JUMP JUMPDEST DUP3 ADD SWAP2 SWAP1 PUSH1 0x0 MSTORE PUSH1 0x20 PUSH1 0x0 KECCAK256 SWAP1 JUMPDEST DUP2 SLOAD DUP2 MSTORE SWAP1 PUSH1 0x1 ADD SWAP1 PUSH1 0x20 ADD DUP1 DUP4 GT PUSH2 0xA7F JUMPI DUP3 SWAP1 SUB PUSH1 0x1F AND DUP3 ADD SWAP2 JUMPDEST POP POP POP POP POP SWAP1 POP SWAP1 JUMP JUMPDEST PUSH1 0x0 PUSH2 0xAB1 DUP3 PUSH2 0x2FBA JUMP JUMPDEST POP PUSH1 0x0 DUP3 DUP2 MSTORE PUSH1 0x4 PUSH1 0x20 MSTORE PUSH1 0x40 SWAP1 KECCAK256 SLOAD PUSH1 0x1 PUSH1 0x1 PUSH1 0xA0 SHL SUB AND PUSH2 0x9F5 JUMP JUMPDEST PUSH2 0x98C DUP3 DUP3 CALLER PUSH2 0x2FF3 JUMP JUMPDEST PUSH2 0xB0E PUSH1 0x40 MLOAD DUP1 PUSH1 0x80 ADD PUSH1 0x40 MSTORE DUP1 PUSH1 0x0 DUP2 MSTORE PUSH1 0x20 ADD PUSH1 0x0 PUSH1 0x1 PUSH1 0x1 PUSH1 0xA0 SHL SUB AND DUP2 MSTORE PUSH1 0x20 ADD PUSH1 0x60 DUP2 MSTORE PUSH1 0x20 ADD PUSH1 0x60 DUP2 MSTORE POP SWAP1 JUMP JUMPDEST DUP2 DUP1 PUSH1 0x0 SUB PUSH2 0xB72 JUMPI PUSH1 0x40 MLOAD PUSH3 0x461BCD PUSH1 0xE5 SHL DUP2 MSTORE PUSH1 0x20 PUSH1 0x4 DUP3 ADD MSTORE PUSH1 0x25 PUSH1 0x24 DUP3 ADD MSTORE PUSH32 0x4368616E6E656C204944204D7573742042652047726561746572205468616E20 PUSH1 0x44 DUP3 ADD MSTORE PUSH5 0x5A65726F21 PUSH1 0xD8 SHL PUSH1 0x64 DUP3 ADD MSTORE PUSH1 0x84 ADD JUMPDEST PUSH1 0x40 MLOAD DUP1 SWAP2 SUB SWAP1 REVERT JUMPDEST PUSH1 0x9 SLOAD DUP2 GT ISZERO PUSH2 0xBBC JUMPI PUSH1 0x40 MLOAD PUSH3 0x461BCD PUSH1 0xE5 SHL DUP2 MSTORE PUSH1 0x20 PUSH1 0x4 DUP3 ADD MSTORE PUSH1 0x15 PUSH1 0x24 DUP3 ADD MSTORE PUSH21 0x4368616E6E656C20494420546F6F204C6172676521 PUSH1 0x58 SHL PUSH1 0x44 DUP3 ADD MSTORE PUSH1 0x64 ADD PUSH2 0xB69 JUMP JUMPDEST PUSH1 0x0 DUP4 DUP2 MSTORE PUSH1 0xB PUSH1 0x20 SWAP1 DUP2 MSTORE PUSH1 0x40 SWAP2 DUP3 SWAP1 KECCAK256 DUP3 MLOAD PUSH1 0x80 DUP2 ADD DUP5 MSTORE DUP2 SLOAD DUP2 MSTORE PUSH1 0x1 DUP3 ADD SLOAD PUSH1 0x1 PUSH1 0x1 PUSH1 0xA0 SHL SUB AND SWAP3 DUP2 ADD SWAP3 SWAP1 SWAP3 MSTORE PUSH1 0x2 DUP2 ADD DUP1 SLOAD SWAP3 SWAP4 SWAP2 SWAP3 SWAP2 DUP5 ADD SWAP2 PUSH2 0xC06 SWAP1 PUSH2 0x3C5F JUMP JUMPDEST DUP1 PUSH1 0x1F ADD PUSH1 0x20 DUP1 SWAP2 DIV MUL PUSH1 0x20 ADD PUSH1 0x40 MLOAD SWAP1 DUP2 ADD PUSH1 0x40 MSTORE DUP1 SWAP3 SWAP2 SWAP1 DUP2 DUP2 MSTORE PUSH1 0x20 ADD DUP3 DUP1 SLOAD PUSH2 0xC32 SWAP1 PUSH2 0x3C5F JUMP JUMPDEST DUP1 ISZERO PUSH2 0xC7F JUMPI DUP1 PUSH1 0x1F LT PUSH2 0xC54 JUMPI PUSH2 0x100 DUP1 DUP4 SLOAD DIV MUL DUP4 MSTORE SWAP2 PUSH1 0x20 ADD SWAP2 PUSH2 0xC7F JUMP JUMPDEST DUP3 ADD SWAP2 SWAP1 PUSH1 0x0 MSTORE PUSH1 0x20 PUSH1 0x0 KECCAK256 SWAP1 JUMPDEST DUP2 SLOAD DUP2 MSTORE SWAP1 PUSH1 0x1 ADD SWAP1 PUSH1 0x20 ADD DUP1 DUP4 GT PUSH2 0xC62 JUMPI DUP3 SWAP1 SUB PUSH1 0x1F AND DUP3 ADD SWAP2 JUMPDEST POP POP POP POP POP DUP2 MSTORE PUSH1 0x20 ADD PUSH1 0x3 DUP3 ADD DUP1 SLOAD PUSH2 0xC98 SWAP1 PUSH2 0x3C5F JUMP JUMPDEST DUP1 PUSH1 0x1F ADD PUSH1 0x20 DUP1 SWAP2 DIV MUL PUSH1 0x20 ADD PUSH1 0x40 MLOAD SWAP1 DUP2 ADD PUSH1 0x40 MSTORE DUP1 SWAP3 SWAP2 SWAP1 DUP2 DUP2 MSTORE PUSH1 0x20 ADD DUP3 DUP1 SLOAD PUSH2 0xCC4 SWAP1 PUSH2 0x3C5F JUMP JUMPDEST DUP1 ISZERO PUSH2 0xD11 JUMPI DUP1 PUSH1 0x1F LT PUSH2 0xCE6 JUMPI PUSH2 0x100 DUP1 DUP4 SLOAD DIV MUL DUP4 MSTORE SWAP2 PUSH1 0x20 ADD SWAP2 PUSH2 0xD11 JUMP JUMPDEST DUP3 ADD SWAP2 SWAP1 PUSH1 0x0 MSTORE PUSH1 0x20 PUSH1 0x0 KECCAK256 SWAP1 JUMPDEST DUP2 SLOAD DUP2 MSTORE SWAP1 PUSH1 0x1 ADD SWAP1 PUSH1 0x20 ADD DUP1 DUP4 GT PUSH2 0xCF4 JUMPI DUP3 SWAP1 SUB PUSH1 0x1F AND DUP3 ADD SWAP2 JUMPDEST POP POP POP POP POP DUP2 MSTORE POP POP SWAP2 POP JUMPDEST POP SWAP2 SWAP1 POP JUMP JUMPDEST PUSH1 0x6 DUP1 SLOAD SWAP1 PUSH1 0x0 PUSH2 0xD33 DUP4 PUSH2 0x3DB9 JUMP JUMPDEST SWAP2 SWAP1 POP SSTORE POP PUSH2 0xD44 CALLER PUSH1 0x6 SLOAD PUSH2 0x3000 JUMP JUMPDEST CALLER PUSH1 0x0 SWAP1 DUP2 MSTORE PUSH1 0xD PUSH1 0x20 MSTORE PUSH1 0x40 SWAP1 KECCAK256 DUP1 SLOAD PUSH1 0xFF NOT AND PUSH1 0x1 OR SWAP1 SSTORE JUMP JUMPDEST PUSH1 0x7 SLOAD PUSH1 0x0 SWAP1 PUSH1 0x1 PUSH1 0x1 PUSH1 0xA0 SHL SUB SWAP1 DUP2 AND SWAP1 DUP4 AND SUB PUSH2 0xD81 JUMPI POP PUSH1 0x1 SWAP2 SWAP1 POP JUMP JUMPDEST POP PUSH1 0x1 PUSH1 0x1 PUSH1 0xA0 SHL SUB AND PUSH1 0x0 SWAP1 DUP2 MSTORE PUSH1 0x13 PUSH1 0x20 MSTORE PUSH1 0x40 SWAP1 KECCAK256 SLOAD TIMESTAMP LT SWAP1 JUMP JUMPDEST CALLER PUSH1 0x0 SWAP1 DUP2 MSTORE PUSH1 0xD PUSH1 0x20 MSTORE PUSH1 0x40 SWAP1 KECCAK256 SLOAD PUSH1 0xFF AND ISZERO ISZERO PUSH1 0x1 EQ PUSH2 0xE1D JUMPI PUSH1 0x40 MLOAD PUSH3 0x461BCD PUSH1 0xE5 SHL DUP2 MSTORE PUSH1 0x20 PUSH1 0x4 DUP3 ADD MSTORE PUSH1 0x31 PUSH1 0x24 DUP3 ADD MSTORE PUSH32 0x4F6E6C7920416C70686150494E47204D656D62657273204D6179204578656375 PUSH1 0x44 DUP3 ADD MSTORE PUSH17 0x746520546869732046756E6374696F6E21 PUSH1 0x78 SHL PUSH1 0x64 DUP3 ADD MSTORE PUSH1 0x84 ADD PUSH2 0xB69 JUMP JUMPDEST PUSH1 0x15 SLOAD PUSH1 0x16 SLOAD PUSH1 0x40 MLOAD PUSH32 0x70A0823100000000000000000000000000000000000000000000000000000000 DUP2 MSTORE CALLER PUSH1 0x4 DUP3 ADD MSTORE PUSH1 0x1 PUSH1 0x1 PUSH1 0xA0 SHL SUB SWAP1 SWAP2 AND SWAP1 PUSH4 0x70A08231 SWAP1 PUSH1 0x24 ADD PUSH1 0x20 PUSH1 0x40 MLOAD DUP1 DUP4 SUB DUP2 DUP7 GAS STATICCALL ISZERO DUP1 ISZERO PUSH2 0xE81 JUMPI RETURNDATASIZE PUSH1 0x0 DUP1 RETURNDATACOPY RETURNDATASIZE PUSH1 0x0 REVERT JUMPDEST POP POP POP POP PUSH1 0x40 MLOAD RETURNDATASIZE PUSH1 0x1F NOT PUSH1 0x1F DUP3 ADD AND DUP3 ADD DUP1 PUSH1 0x40 MSTORE POP DUP2 ADD SWAP1 PUSH2 0xEA5 SWAP2 SWAP1 PUSH2 0x3DD2 JUMP JUMPDEST LT ISZERO PUSH2 0xF18 JUMPI PUSH1 0x40 MLOAD PUSH3 0x461BCD PUSH1 0xE5 SHL DUP2 MSTORE PUSH1 0x20 PUSH1 0x4 DUP3 ADD MSTORE PUSH1 0x24 DUP1 DUP3 ADD MSTORE PUSH32 0x596F7520646F206E6F74206861766520656E6F75676820555344432062616C61 PUSH1 0x44 DUP3 ADD MSTORE PUSH32 0x6E63652100000000000000000000000000000000000000000000000000000000 PUSH1 0x64 DUP3 ADD MSTORE PUSH1 0x84 ADD PUSH2 0xB69 JUMP JUMPDEST PUSH1 0x16 SLOAD PUSH1 0x40 MLOAD PUSH32 0xDD62ED3E00000000000000000000000000000000000000000000000000000000 DUP2 MSTORE CALLER PUSH1 0x4 DUP3 ADD MSTORE ADDRESS PUSH1 0x24 DUP3 ADD MSTORE PUSH1 0x0 SWAP2 PUSH1 0x1 PUSH1 0x1 PUSH1 0xA0 SHL SUB AND SWAP1 PUSH4 0xDD62ED3E SWAP1 PUSH1 0x44 ADD PUSH1 0x20 PUSH1 0x40 MLOAD DUP1 DUP4 SUB DUP2 DUP7 GAS STATICCALL ISZERO DUP1 ISZERO PUSH2 0xF80 JUMPI RETURNDATASIZE PUSH1 0x0 DUP1 RETURNDATACOPY RETURNDATASIZE PUSH1 0x0 REVERT JUMPDEST POP POP POP POP PUSH1 0x40 MLOAD RETURNDATASIZE PUSH1 0x1F NOT PUSH1 0x1F DUP3 ADD AND DUP3 ADD DUP1 PUSH1 0x40 MSTORE POP DUP2 ADD SWAP1 PUSH2 0xFA4 SWAP2 SWAP1 PUSH2 0x3DD2 JUMP JUMPDEST SWAP1 POP PUSH1 0x15 SLOAD DUP2 LT ISZERO PUSH2 0xFF8 JUMPI PUSH1 0x40 MLOAD PUSH3 0x461BCD PUSH1 0xE5 SHL DUP2 MSTORE PUSH1 0x20 PUSH1 0x4 DUP3 ADD MSTORE PUSH1 0x1B PUSH1 0x24 DUP3 ADD MSTORE PUSH32 0x416C6C6F77616E6365206973206E6F742073756666696369656E740000000000 PUSH1 0x44 DUP3 ADD MSTORE PUSH1 0x64 ADD PUSH2 0xB69 JUMP JUMPDEST PUSH1 0x16 SLOAD PUSH1 0x15 SLOAD PUSH1 0x40 MLOAD PUSH4 0x23B872DD PUSH1 0xE0 SHL DUP2 MSTORE CALLER PUSH1 0x4 DUP3 ADD MSTORE ADDRESS PUSH1 0x24 DUP3 ADD MSTORE PUSH1 0x44 DUP2 ADD SWAP2 SWAP1 SWAP2 MSTORE PUSH1 0x0 SWAP2 PUSH1 0x1 PUSH1 0x1 PUSH1 0xA0 SHL SUB AND SWAP1 PUSH4 0x23B872DD SWAP1 PUSH1 0x64 ADD PUSH1 0x20 PUSH1 0x40 MLOAD DUP1 DUP4 SUB DUP2 PUSH1 0x0 DUP8 GAS CALL ISZERO DUP1 ISZERO PUSH2 0x1054 JUMPI RETURNDATASIZE PUSH1 0x0 DUP1 RETURNDATACOPY RETURNDATASIZE PUSH1 0x0 REVERT JUMPDEST POP POP POP POP PUSH1 0x40 MLOAD RETURNDATASIZE PUSH1 0x1F NOT PUSH1 0x1F DUP3 ADD AND DUP3 ADD DUP1 PUSH1 0x40 MSTORE POP DUP2 ADD SWAP1 PUSH2 0x1078 SWAP2 SWAP1 PUSH2 0x3DEB JUMP JUMPDEST SWAP1 POP DUP1 PUSH2 0x10C7 JUMPI PUSH1 0x40 MLOAD PUSH3 0x461BCD PUSH1 0xE5 SHL DUP2 MSTORE PUSH1 0x20 PUSH1 0x4 DUP3 ADD MSTORE PUSH1 0xF PUSH1 0x24 DUP3 ADD MSTORE PUSH32 0x5472616E73666572204661696C65640000000000000000000000000000000000 PUSH1 0x44 DUP3 ADD MSTORE PUSH1 0x64 ADD PUSH2 0xB69 JUMP JUMPDEST PUSH1 0x14 SLOAD PUSH2 0x10D4 SWAP1 TIMESTAMP PUSH2 0x3E08 JUMP JUMPDEST CALLER PUSH1 0x0 SWAP1 DUP2 MSTORE PUSH1 0x13 PUSH1 0x20 MSTORE PUSH1 0x40 SWAP1 KECCAK256 SSTORE POP POP JUMP JUMPDEST PUSH1 0x7 SLOAD PUSH1 0x1 PUSH1 0x1 PUSH1 0xA0 SHL SUB AND CALLER EQ PUSH2 0x1155 JUMPI PUSH1 0x40 MLOAD PUSH3 0x461BCD PUSH1 0xE5 SHL DUP2 MSTORE PUSH1 0x20 PUSH1 0x4 DUP3 ADD MSTORE PUSH1 0x2A PUSH1 0x24 DUP3 ADD MSTORE PUSH32 0x4F6E6C79204F776E657220526F6C65204D617920457865637574652054686973 PUSH1 0x44 DUP3 ADD MSTORE PUSH10 0x2046756E6374696F6E21 PUSH1 0xB0 SHL PUSH1 0x64 DUP3 ADD MSTORE PUSH1 0x84 ADD PUSH2 0xB69 JUMP JUMPDEST PUSH1 0x15 SSTORE JUMP JUMPDEST PUSH1 0x1 PUSH1 0x1 PUSH1 0xA0 SHL SUB DUP3 AND PUSH2 0x1184 JUMPI PUSH1 0x40 MLOAD PUSH4 0x32505749 PUSH1 0xE1 SHL DUP2 MSTORE PUSH1 0x0 PUSH1 0x4 DUP3 ADD MSTORE PUSH1 0x24 ADD PUSH2 0xB69 JUMP JUMPDEST PUSH1 0x0 PUSH2 0x1191 DUP4 DUP4 CALLER PUSH2 0x301A JUMP JUMPDEST SWAP1 POP DUP4 PUSH1 0x1 PUSH1 0x1 PUSH1 0xA0 SHL SUB AND DUP2 PUSH1 0x1 PUSH1 0x1 PUSH1 0xA0 SHL SUB AND EQ PUSH2 0x11F8 JUMPI PUSH1 0x40 MLOAD PUSH32 0x64283D7B00000000000000000000000000000000000000000000000000000000 DUP2 MSTORE PUSH1 0x1 PUSH1 0x1 PUSH1 0xA0 SHL SUB DUP1 DUP7 AND PUSH1 0x4 DUP4 ADD MSTORE PUSH1 0x24 DUP3 ADD DUP5 SWAP1 MSTORE DUP3 AND PUSH1 0x44 DUP3 ADD MSTORE PUSH1 0x64 ADD PUSH2 0xB69 JUMP JUMPDEST POP POP POP POP JUMP JUMPDEST CALLER PUSH1 0x0 SWAP1 DUP2 MSTORE PUSH1 0xD PUSH1 0x20 MSTORE PUSH1 0x40 SWAP1 KECCAK256 SLOAD PUSH1 0xFF AND ISZERO ISZERO PUSH1 0x1 EQ PUSH2 0x127C JUMPI PUSH1 0x40 MLOAD PUSH3 0x461BCD PUSH1 0xE5 SHL DUP2 MSTORE PUSH1 0x20 PUSH1 0x4 DUP3 ADD MSTORE PUSH1 0x31 PUSH1 0x24 DUP3 ADD MSTORE PUSH32 0x4F6E6C7920416C70686150494E47204D656D62657273204D6179204578656375 PUSH1 0x44 DUP3 ADD MSTORE PUSH17 0x746520546869732046756E6374696F6E21 PUSH1 0x78 SHL PUSH1 0x64 DUP3 ADD MSTORE PUSH1 0x84 ADD PUSH2 0xB69 JUMP JUMPDEST DUP1 DUP1 PUSH1 0x0 SUB PUSH2 0x12DB JUMPI PUSH1 0x40 MLOAD PUSH3 0x461BCD PUSH1 0xE5 SHL DUP2 MSTORE PUSH1 0x20 PUSH1 0x4 DUP3 ADD MSTORE PUSH1 0x25 PUSH1 0x24 DUP3 ADD MSTORE PUSH32 0x4368616E6E656C204944204D7573742042652047726561746572205468616E20 PUSH1 0x44 DUP3 ADD MSTORE PUSH5 0x5A65726F21 PUSH1 0xD8 SHL PUSH1 0x64 DUP3 ADD MSTORE PUSH1 0x84 ADD PUSH2 0xB69 JUMP JUMPDEST PUSH1 0x9 SLOAD DUP2 GT ISZERO PUSH2 0x1325 JUMPI PUSH1 0x40 MLOAD PUSH3 0x461BCD PUSH1 0xE5 SHL DUP2 MSTORE PUSH1 0x20 PUSH1 0x4 DUP3 ADD MSTORE PUSH1 0x15 PUSH1 0x24 DUP3 ADD MSTORE PUSH21 0x4368616E6E656C20494420546F6F204C6172676521 PUSH1 0x58 SHL PUSH1 0x44 DUP3 ADD MSTORE PUSH1 0x64 ADD PUSH2 0xB69 JUMP JUMPDEST PUSH1 0x0 DUP3 DUP2 MSTORE PUSH1 0xC PUSH1 0x20 SWAP1 DUP2 MSTORE PUSH1 0x40 DUP1 DUP4 KECCAK256 CALLER DUP5 MSTORE SWAP1 SWAP2 MSTORE SWAP1 KECCAK256 SLOAD PUSH1 0xFF AND ISZERO ISZERO PUSH1 0x1 SUB PUSH2 0x13B8 JUMPI PUSH1 0x40 MLOAD PUSH3 0x461BCD PUSH1 0xE5 SHL DUP2 MSTORE PUSH1 0x20 PUSH1 0x4 DUP3 ADD MSTORE PUSH1 0x24 DUP1 DUP3 ADD MSTORE PUSH32 0x596F75204861766520416C7265616479204A6F696E6564205468697320436861 PUSH1 0x44 DUP3 ADD MSTORE PUSH32 0x6E6E656C00000000000000000000000000000000000000000000000000000000 PUSH1 0x64 DUP3 ADD MSTORE PUSH1 0x84 ADD PUSH2 0xB69 JUMP JUMPDEST POP PUSH1 0x0 SWAP1 DUP2 MSTORE PUSH1 0xC PUSH1 0x20 SWAP1 DUP2 MSTORE PUSH1 0x40 DUP1 DUP4 KECCAK256 CALLER DUP5 MSTORE SWAP1 SWAP2 MSTORE SWAP1 KECCAK256 DUP1 SLOAD PUSH1 0xFF NOT AND PUSH1 0x1 OR SWAP1 SSTORE JUMP JUMPDEST PUSH1 0x7 SLOAD PUSH1 0x1 PUSH1 0x1 PUSH1 0xA0 SHL SUB AND CALLER EQ PUSH2 0x144C JUMPI PUSH1 0x40 MLOAD PUSH3 0x461BCD PUSH1 0xE5 SHL DUP2 MSTORE PUSH1 0x20 PUSH1 0x4 DUP3 ADD MSTORE PUSH1 0x2A PUSH1 0x24 DUP3 ADD MSTORE PUSH32 0x4F6E6C79204F776E657220526F6C65204D617920457865637574652054686973 PUSH1 0x44 DUP3 ADD MSTORE PUSH10 0x2046756E6374696F6E21 PUSH1 0xB0 SHL PUSH1 0x64 DUP3 ADD MSTORE PUSH1 0x84 ADD PUSH2 0xB69 JUMP JUMPDEST PUSH1 0x16 SLOAD PUSH1 0x15 SLOAD PUSH1 0x40 MLOAD PUSH32 0x95EA7B300000000000000000000000000000000000000000000000000000000 DUP2 MSTORE ADDRESS PUSH1 0x4 DUP3 ADD MSTORE PUSH1 0x24 DUP2 ADD SWAP2 SWAP1 SWAP2 MSTORE PUSH1 0x0 SWAP2 PUSH1 0x1 PUSH1 0x1 PUSH1 0xA0 SHL SUB AND SWAP1 PUSH4 0x95EA7B3 SWAP1 PUSH1 0x44 ADD PUSH1 0x20 PUSH1 0x40 MLOAD DUP1 DUP4 SUB DUP2 PUSH1 0x0 DUP8 GAS CALL ISZERO DUP1 ISZERO PUSH2 0x14BB JUMPI RETURNDATASIZE PUSH1 0x0 DUP1 RETURNDATACOPY RETURNDATASIZE PUSH1 0x0 REVERT JUMPDEST POP POP POP POP PUSH1 0x40 MLOAD RETURNDATASIZE PUSH1 0x1F NOT PUSH1 0x1F DUP3 ADD AND DUP3 ADD DUP1 PUSH1 0x40 MSTORE POP DUP2 ADD SWAP1 PUSH2 0x14DF SWAP2 SWAP1 PUSH2 0x3DEB JUMP JUMPDEST PUSH1 0x16 SLOAD PUSH1 0x7 SLOAD PUSH1 0x15 SLOAD PUSH1 0x40 MLOAD PUSH4 0x23B872DD PUSH1 0xE0 SHL DUP2 MSTORE ADDRESS PUSH1 0x4 DUP3 ADD MSTORE PUSH1 0x1 PUSH1 0x1 PUSH1 0xA0 SHL SUB SWAP3 DUP4 AND PUSH1 0x24 DUP3 ADD MSTORE PUSH1 0x44 DUP2 ADD SWAP2 SWAP1 SWAP2 MSTORE SWAP3 SWAP4 POP PUSH1 0x0 SWAP3 SWAP2 AND SWAP1 PUSH4 0x23B872DD SWAP1 PUSH1 0x64 ADD PUSH1 0x20 PUSH1 0x40 MLOAD DUP1 DUP4 SUB DUP2 PUSH1 0x0 DUP8 GAS CALL ISZERO DUP1 ISZERO PUSH2 0x1544 JUMPI RETURNDATASIZE PUSH1 0x0 DUP1 RETURNDATACOPY RETURNDATASIZE PUSH1 0x0 REVERT JUMPDEST POP POP POP POP PUSH1 0x40 MLOAD RETURNDATASIZE PUSH1 0x1F NOT PUSH1 0x1F DUP3 ADD AND DUP3 ADD DUP1 PUSH1 0x40 MSTORE POP DUP2 ADD SWAP1 PUSH2 0x1568 SWAP2 SWAP1 PUSH2 0x3DEB JUMP JUMPDEST SWAP1 POP DUP1 PUSH2 0x98C JUMPI PUSH1 0x40 MLOAD PUSH3 0x461BCD PUSH1 0xE5 SHL DUP2 MSTORE PUSH1 0x20 PUSH1 0x4 DUP3 ADD MSTORE PUSH1 0xF PUSH1 0x24 DUP3 ADD MSTORE PUSH32 0x5472616E73666572204661696C65640000000000000000000000000000000000 PUSH1 0x44 DUP3 ADD MSTORE PUSH1 0x64 ADD PUSH2 0xB69 JUMP JUMPDEST PUSH2 0x15D2 DUP4 DUP4 DUP4 PUSH1 0x40 MLOAD DUP1 PUSH1 0x20 ADD PUSH1 0x40 MSTORE DUP1 PUSH1 0x0 DUP2 MSTORE POP PUSH2 0x2058 JUMP JUMPDEST POP POP POP JUMP JUMPDEST PUSH1 0x7 SLOAD PUSH1 0x1 PUSH1 0x1 PUSH1 0xA0 SHL SUB AND CALLER EQ PUSH2 0x1644 JUMPI PUSH1 0x40 MLOAD PUSH3 0x461BCD PUSH1 0xE5 SHL DUP2 MSTORE PUSH1 0x20 PUSH1 0x4 DUP3 ADD MSTORE PUSH1 0x2A PUSH1 0x24 DUP3 ADD MSTORE PUSH32 0x4F6E6C79204F776E657220526F6C65204D617920457865637574652054686973 PUSH1 0x44 DUP3 ADD MSTORE PUSH10 0x2046756E6374696F6E21 PUSH1 0xB0 SHL PUSH1 0x64 DUP3 ADD MSTORE PUSH1 0x84 ADD PUSH2 0xB69 JUMP JUMPDEST PUSH1 0x1 PUSH1 0x1 PUSH1 0xA0 SHL SUB DUP2 AND PUSH1 0x0 SWAP1 DUP2 MSTORE PUSH1 0xD PUSH1 0x20 MSTORE PUSH1 0x40 SWAP1 KECCAK256 SLOAD PUSH1 0xFF AND ISZERO ISZERO PUSH1 0x1 EQ PUSH2 0x16D7 JUMPI PUSH1 0x40 MLOAD PUSH3 0x461BCD PUSH1 0xE5 SHL DUP2 MSTORE PUSH1 0x20 PUSH1 0x4 DUP3 ADD MSTORE PUSH1 0x26 PUSH1 0x24 DUP3 ADD MSTORE PUSH32 0x4E6577204F776E6572204D75737420426520416E20416C70686150494E47204D PUSH1 0x44 DUP3 ADD MSTORE PUSH32 0x656D626572210000000000000000000000000000000000000000000000000000 PUSH1 0x64 DUP3 ADD MSTORE PUSH1 0x84 ADD PUSH2 0xB69 JUMP JUMPDEST PUSH1 0x1 PUSH1 0x1 PUSH1 0xA0 SHL SUB DUP2 AND PUSH1 0x0 SWAP1 DUP2 MSTORE PUSH1 0x10 PUSH1 0x20 MSTORE PUSH1 0x40 SWAP1 KECCAK256 SLOAD PUSH1 0xFF AND ISZERO ISZERO PUSH1 0x1 SUB PUSH2 0x174F JUMPI PUSH1 0x40 MLOAD PUSH3 0x461BCD PUSH1 0xE5 SHL DUP2 MSTORE PUSH1 0x20 PUSH1 0x4 DUP3 ADD MSTORE PUSH1 0x22 PUSH1 0x24 DUP3 ADD MSTORE PUSH32 0x4E6577204F776E6572204D757374204E6F7420426520426C61636B6C69737465 PUSH1 0x44 DUP3 ADD MSTORE PUSH2 0x6421 PUSH1 0xF0 SHL PUSH1 0x64 DUP3 ADD MSTORE PUSH1 0x84 ADD PUSH2 0xB69 JUMP JUMPDEST PUSH1 0x7 DUP1 SLOAD PUSH1 0x1 PUSH1 0x1 PUSH1 0xA0 SHL SUB NOT AND PUSH1 0x1 PUSH1 0x1 PUSH1 0xA0 SHL SUB SWAP3 SWAP1 SWAP3 AND SWAP2 SWAP1 SWAP2 OR SWAP1 SSTORE JUMP JUMPDEST PUSH1 0x0 DUP2 DUP2 MSTORE PUSH1 0x8 PUSH1 0x20 MSTORE PUSH1 0x40 SWAP1 KECCAK256 SLOAD DUP2 SWAP1 PUSH1 0x1 PUSH1 0x1 PUSH1 0xA0 SHL SUB AND CALLER EQ DUP1 PUSH2 0x17A2 JUMPI POP PUSH1 0x7 SLOAD PUSH1 0x1 PUSH1 0x1 PUSH1 0xA0 SHL SUB AND CALLER EQ JUMPDEST PUSH2 0x1814 JUMPI PUSH1 0x40 MLOAD PUSH3 0x461BCD PUSH1 0xE5 SHL DUP2 MSTORE PUSH1 0x20 PUSH1 0x4 DUP3 ADD MSTORE PUSH1 0x39 PUSH1 0x24 DUP3 ADD MSTORE PUSH32 0x4F6E6C79204368616E6E656C204D6F64206F72204F776E657220526F6C65204D PUSH1 0x44 DUP3 ADD MSTORE PUSH32 0x6179204578656375746520546869732046756E6374696F6E2100000000000000 PUSH1 0x64 DUP3 ADD MSTORE PUSH1 0x84 ADD PUSH2 0xB69 JUMP JUMPDEST PUSH1 0x0 DUP3 DUP2 MSTORE PUSH1 0x11 PUSH1 0x20 SWAP1 DUP2 MSTORE PUSH1 0x40 DUP1 DUP4 KECCAK256 PUSH1 0x1 PUSH1 0x1 PUSH1 0xA0 SHL SUB DUP8 AND DUP5 MSTORE SWAP1 SWAP2 MSTORE SWAP1 KECCAK256 SLOAD PUSH1 0xFF AND ISZERO ISZERO PUSH1 0x1 SUB PUSH2 0x18B1 JUMPI PUSH1 0x40 MLOAD PUSH3 0x461BCD PUSH1 0xE5 SHL DUP2 MSTORE PUSH1 0x20 PUSH1 0x4 DUP3 ADD MSTORE PUSH1 0x2C PUSH1 0x24 DUP3 ADD MSTORE PUSH32 0x54686973205573657220497320416C72656164792042616E6E6564204F6E2054 PUSH1 0x44 DUP3 ADD MSTORE PUSH32 0x686973204368616E6E656C210000000000000000000000000000000000000000 PUSH1 0x64 DUP3 ADD MSTORE PUSH1 0x84 ADD PUSH2 0xB69 JUMP JUMPDEST PUSH1 0x7 SLOAD PUSH1 0x1 PUSH1 0x1 PUSH1 0xA0 SHL SUB SWAP1 DUP2 AND SWAP1 DUP5 AND SUB PUSH2 0x190F JUMPI PUSH1 0x40 MLOAD PUSH3 0x461BCD PUSH1 0xE5 SHL DUP2 MSTORE PUSH1 0x20 PUSH1 0x4 DUP3 ADD MSTORE PUSH1 0x11 PUSH1 0x24 DUP3 ADD MSTORE PUSH32 0x43616E206E6F742062616E206F776E6572000000000000000000000000000000 PUSH1 0x44 DUP3 ADD MSTORE PUSH1 0x64 ADD PUSH2 0xB69 JUMP JUMPDEST CALLER PUSH1 0x1 PUSH1 0x1 PUSH1 0xA0 SHL SUB DUP5 AND SUB PUSH2 0x1967 JUMPI PUSH1 0x40 MLOAD PUSH3 0x461BCD PUSH1 0xE5 SHL DUP2 MSTORE PUSH1 0x20 PUSH1 0x4 DUP3 ADD MSTORE PUSH1 0x15 PUSH1 0x24 DUP3 ADD MSTORE PUSH32 0x43616E206E6F742062616E20796F757273656C66210000000000000000000000 PUSH1 0x44 DUP3 ADD MSTORE PUSH1 0x64 ADD PUSH2 0xB69 JUMP JUMPDEST POP PUSH1 0x0 SWAP1 DUP2 MSTORE PUSH1 0x11 PUSH1 0x20 SWAP1 DUP2 MSTORE PUSH1 0x40 DUP1 DUP4 KECCAK256 PUSH1 0x1 PUSH1 0x1 PUSH1 0xA0 SHL SUB SWAP1 SWAP5 AND DUP4 MSTORE SWAP3 SWAP1 MSTORE KECCAK256 DUP1 SLOAD PUSH1 0xFF NOT AND PUSH1 0x1 OR SWAP1 SSTORE JUMP JUMPDEST PUSH1 0x0 PUSH2 0x9F5 DUP3 PUSH2 0x2FBA JUMP JUMPDEST PUSH1 0x0 PUSH1 0x1 PUSH1 0x1 PUSH1 0xA0 SHL SUB DUP3 AND PUSH2 0x19E7 JUMPI PUSH1 0x40 MLOAD PUSH32 0x89C62B6400000000000000000000000000000000000000000000000000000000 DUP2 MSTORE PUSH1 0x0 PUSH1 0x4 DUP3 ADD MSTORE PUSH1 0x24 ADD PUSH2 0xB69 JUMP JUMPDEST POP PUSH1 0x1 PUSH1 0x1 PUSH1 0xA0 SHL SUB AND PUSH1 0x0 SWAP1 DUP2 MSTORE PUSH1 0x3 PUSH1 0x20 MSTORE PUSH1 0x40 SWAP1 KECCAK256 SLOAD SWAP1 JUMP JUMPDEST CALLER PUSH1 0x1 PUSH1 0x1 PUSH1 0xA0 SHL SUB DUP3 AND SUB PUSH2 0x1A5B JUMPI PUSH1 0x40 MLOAD PUSH3 0x461BCD PUSH1 0xE5 SHL DUP2 MSTORE PUSH1 0x20 PUSH1 0x4 DUP3 ADD MSTORE PUSH1 0x18 PUSH1 0x24 DUP3 ADD MSTORE PUSH32 0x43616E206E6F7420666F6C6C6F7720796F757273656C66210000000000000000 PUSH1 0x44 DUP3 ADD MSTORE PUSH1 0x64 ADD PUSH2 0xB69 JUMP JUMPDEST CALLER PUSH1 0x0 SWAP1 DUP2 MSTORE PUSH1 0x18 PUSH1 0x20 SWAP1 DUP2 MSTORE PUSH1 0x40 DUP1 DUP4 KECCAK256 PUSH1 0x1 PUSH1 0x1 PUSH1 0xA0 SHL SUB SWAP5 SWAP1 SWAP5 AND DUP4 MSTORE SWAP3 SWAP1 MSTORE KECCAK256 DUP1 SLOAD PUSH1 0xFF NOT AND PUSH1 0x1 OR SWAP1 SSTORE JUMP JUMPDEST PUSH1 0x7 SLOAD PUSH1 0x1 PUSH1 0x1 PUSH1 0xA0 SHL SUB AND CALLER EQ PUSH2 0x1AF9 JUMPI PUSH1 0x40 MLOAD PUSH3 0x461BCD PUSH1 0xE5 SHL DUP2 MSTORE PUSH1 0x20 PUSH1 0x4 DUP3 ADD MSTORE PUSH1 0x2A PUSH1 0x24 DUP3 ADD MSTORE PUSH32 0x4F6E6C79204F776E657220526F6C65204D617920457865637574652054686973 PUSH1 0x44 DUP3 ADD MSTORE PUSH10 0x2046756E6374696F6E21 PUSH1 0xB0 SHL PUSH1 0x64 DUP3 ADD MSTORE PUSH1 0x84 ADD PUSH2 0xB69 JUMP JUMPDEST PUSH1 0x1 PUSH1 0x1 PUSH1 0xA0 SHL SUB DUP3 AND PUSH1 0x0 SWAP1 DUP2 MSTORE PUSH1 0x10 PUSH1 0x20 MSTORE PUSH1 0x40 SWAP1 KECCAK256 SLOAD PUSH1 0xFF AND ISZERO ISZERO PUSH1 0x1 SUB PUSH2 0x1B66 JUMPI PUSH1 0x40 MLOAD PUSH3 0x461BCD PUSH1 0xE5 SHL DUP2 MSTORE PUSH1 0x20 PUSH1 0x4 DUP3 ADD MSTORE PUSH1 0x1C PUSH1 0x24 DUP3 ADD MSTORE PUSH32 0x5573657220497320416C726561647920426C61636B6C69737465642100000000 PUSH1 0x44 DUP3 ADD MSTORE PUSH1 0x64 ADD PUSH2 0xB69 JUMP JUMPDEST PUSH1 0x0 JUMPDEST DUP2 MLOAD DUP2 LT ISZERO PUSH2 0x1C0B JUMPI DUP3 PUSH1 0x1 PUSH1 0x1 PUSH1 0xA0 SHL SUB AND PUSH1 0x8 PUSH1 0x0 DUP5 DUP5 DUP2 MLOAD DUP2 LT PUSH2 0x1B92 JUMPI PUSH2 0x1B92 PUSH2 0x3E1B JUMP JUMPDEST PUSH1 0x20 SWAP1 DUP2 MUL SWAP2 SWAP1 SWAP2 ADD DUP2 ADD MLOAD DUP3 MSTORE DUP2 ADD SWAP2 SWAP1 SWAP2 MSTORE PUSH1 0x40 ADD PUSH1 0x0 KECCAK256 SLOAD PUSH1 0x1 PUSH1 0x1 PUSH1 0xA0 SHL SUB AND EQ PUSH2 0x1C03 JUMPI PUSH1 0x40 MLOAD PUSH3 0x461BCD PUSH1 0xE5 SHL DUP2 MSTORE PUSH1 0x20 PUSH1 0x4 DUP3 ADD DUP2 SWAP1 MSTORE PUSH1 0x24 DUP3 ADD MSTORE PUSH32 0x55736572204973204E6F742041204D6F6420466F722041204368616E6E656C21 PUSH1 0x44 DUP3 ADD MSTORE PUSH1 0x64 ADD PUSH2 0xB69 JUMP JUMPDEST PUSH1 0x1 ADD PUSH2 0x1B69 JUMP JUMPDEST POP CALLER PUSH1 0x1 PUSH1 0x1 PUSH1 0xA0 SHL SUB DUP4 AND SUB PUSH2 0x1C64 JUMPI PUSH1 0x40 MLOAD PUSH3 0x461BCD PUSH1 0xE5 SHL DUP2 MSTORE PUSH1 0x20 PUSH1 0x4 DUP3 ADD MSTORE PUSH1 0x1F PUSH1 0x24 DUP3 ADD MSTORE PUSH32 0x43616E206E6F742072756E2062616E4D6F64206F6E20796F757273656C662100 PUSH1 0x44 DUP3 ADD MSTORE PUSH1 0x64 ADD PUSH2 0xB69 JUMP JUMPDEST PUSH1 0x0 JUMPDEST DUP2 MLOAD DUP2 LT ISZERO PUSH2 0x1CDC JUMPI PUSH1 0x7 PUSH1 0x0 SWAP1 SLOAD SWAP1 PUSH2 0x100 EXP SWAP1 DIV PUSH1 0x1 PUSH1 0x1 PUSH1 0xA0 SHL SUB AND PUSH1 0x8 PUSH1 0x0 DUP5 DUP5 DUP2 MLOAD DUP2 LT PUSH2 0x1C9C JUMPI PUSH2 0x1C9C PUSH2 0x3E1B JUMP JUMPDEST PUSH1 0x20 SWAP1 DUP2 MUL SWAP2 SWAP1 SWAP2 ADD DUP2 ADD MLOAD DUP3 MSTORE DUP2 ADD SWAP2 SWAP1 SWAP2 MSTORE PUSH1 0x40 ADD PUSH1 0x0 KECCAK256 DUP1 SLOAD PUSH1 0x1 PUSH1 0x1 PUSH1 0xA0 SHL SUB NOT AND PUSH1 0x1 PUSH1 0x1 PUSH1 0xA0 SHL SUB SWAP3 SWAP1 SWAP3 AND SWAP2 SWAP1 SWAP2 OR SWAP1 SSTORE PUSH1 0x1 ADD PUSH2 0x1C67 JUMP JUMPDEST POP POP PUSH1 0x1 PUSH1 0x1 PUSH1 0xA0 SHL SUB AND PUSH1 0x0 SWAP1 DUP2 MSTORE PUSH1 0x10 PUSH1 0x20 MSTORE PUSH1 0x40 SWAP1 KECCAK256 DUP1 SLOAD PUSH1 0xFF NOT AND PUSH1 0x1 OR SWAP1 SSTORE JUMP JUMPDEST PUSH1 0x60 PUSH1 0x1 DUP1 SLOAD PUSH2 0xA23 SWAP1 PUSH2 0x3C5F JUMP JUMPDEST PUSH2 0x98C CALLER DUP4 DUP4 PUSH2 0x3113 JUMP JUMPDEST DUP1 DUP1 PUSH1 0x0 SUB PUSH2 0x1D7B JUMPI PUSH1 0x40 MLOAD PUSH3 0x461BCD PUSH1 0xE5 SHL DUP2 MSTORE PUSH1 0x20 PUSH1 0x4 DUP3 ADD MSTORE PUSH1 0x25 PUSH1 0x24 DUP3 ADD MSTORE PUSH32 0x4368616E6E656C204944204D7573742042652047726561746572205468616E20 PUSH1 0x44 DUP3 ADD MSTORE PUSH5 0x5A65726F21 PUSH1 0xD8 SHL PUSH1 0x64 DUP3 ADD MSTORE PUSH1 0x84 ADD PUSH2 0xB69 JUMP JUMPDEST PUSH1 0x9 SLOAD DUP2 GT ISZERO PUSH2 0x1DC5 JUMPI PUSH1 0x40 MLOAD PUSH3 0x461BCD PUSH1 0xE5 SHL DUP2 MSTORE PUSH1 0x20 PUSH1 0x4 DUP3 ADD MSTORE PUSH1 0x15 PUSH1 0x24 DUP3 ADD MSTORE PUSH21 0x4368616E6E656C20494420546F6F204C6172676521 PUSH1 0x58 SHL PUSH1 0x44 DUP3 ADD MSTORE PUSH1 0x64 ADD PUSH2 0xB69 JUMP JUMPDEST PUSH1 0x0 DUP3 DUP2 MSTORE PUSH1 0xC PUSH1 0x20 SWAP1 DUP2 MSTORE PUSH1 0x40 DUP1 DUP4 KECCAK256 CALLER DUP5 MSTORE SWAP1 SWAP2 MSTORE SWAP1 KECCAK256 SLOAD PUSH1 0xFF AND ISZERO ISZERO PUSH1 0x1 EQ PUSH2 0x1E59 JUMPI PUSH1 0x40 MLOAD PUSH3 0x461BCD PUSH1 0xE5 SHL DUP2 MSTORE PUSH1 0x20 PUSH1 0x4 DUP3 ADD MSTORE PUSH1 0x2F PUSH1 0x24 DUP3 ADD MSTORE PUSH32 0x596F7520417265204E6F742043757272656E746C792041204D656D626572206F PUSH1 0x44 DUP3 ADD MSTORE PUSH32 0x662054686973204368616E6E656C210000000000000000000000000000000000 PUSH1 0x64 DUP3 ADD MSTORE PUSH1 0x84 ADD PUSH2 0xB69 JUMP JUMPDEST POP PUSH1 0x0 SWAP1 DUP2 MSTORE PUSH1 0xC PUSH1 0x20 SWAP1 DUP2 MSTORE PUSH1 0x40 DUP1 DUP4 KECCAK256 CALLER DUP5 MSTORE SWAP1 SWAP2 MSTORE SWAP1 KECCAK256 DUP1 SLOAD PUSH1 0xFF NOT AND SWAP1 SSTORE JUMP JUMPDEST CALLER PUSH1 0x1 PUSH1 0x1 PUSH1 0xA0 SHL SUB DUP3 AND SUB PUSH2 0x1ED5 JUMPI PUSH1 0x40 MLOAD PUSH3 0x461BCD PUSH1 0xE5 SHL DUP2 MSTORE PUSH1 0x20 PUSH1 0x4 DUP3 ADD MSTORE PUSH1 0x1B PUSH1 0x24 DUP3 ADD MSTORE PUSH32 0x43616E206E6F7420626C61636B6C69737420796F757273656C66210000000000 PUSH1 0x44 DUP3 ADD MSTORE PUSH1 0x64 ADD PUSH2 0xB69 JUMP JUMPDEST CALLER PUSH1 0x0 SWAP1 DUP2 MSTORE PUSH1 0x17 PUSH1 0x20 SWAP1 DUP2 MSTORE PUSH1 0x40 DUP1 DUP4 KECCAK256 PUSH1 0x1 PUSH1 0x1 PUSH1 0xA0 SHL SUB SWAP5 SWAP1 SWAP5 AND DUP4 MSTORE SWAP3 SWAP1 MSTORE KECCAK256 DUP1 SLOAD PUSH1 0xFF NOT AND PUSH1 0x1 OR SWAP1 SSTORE JUMP JUMPDEST PUSH1 0x0 DUP2 DUP2 MSTORE PUSH1 0x8 PUSH1 0x20 MSTORE PUSH1 0x40 SWAP1 KECCAK256 SLOAD DUP2 SWAP1 PUSH1 0x1 PUSH1 0x1 PUSH1 0xA0 SHL SUB AND CALLER EQ DUP1 PUSH2 0x1F37 JUMPI POP PUSH1 0x7 SLOAD PUSH1 0x1 PUSH1 0x1 PUSH1 0xA0 SHL SUB AND CALLER EQ JUMPDEST PUSH2 0x1FA9 JUMPI PUSH1 0x40 MLOAD PUSH3 0x461BCD PUSH1 0xE5 SHL DUP2 MSTORE PUSH1 0x20 PUSH1 0x4 DUP3 ADD MSTORE PUSH1 0x39 PUSH1 0x24 DUP3 ADD MSTORE PUSH32 0x4F6E6C79204368616E6E656C204D6F64206F72204F776E657220526F6C65204D PUSH1 0x44 DUP3 ADD MSTORE PUSH32 0x6179204578656375746520546869732046756E6374696F6E2100000000000000 PUSH1 0x64 DUP3 ADD MSTORE PUSH1 0x84 ADD PUSH2 0xB69 JUMP JUMPDEST PUSH1 0x0 DUP3 DUP2 MSTORE PUSH1 0x11 PUSH1 0x20 SWAP1 DUP2 MSTORE PUSH1 0x40 DUP1 DUP4 KECCAK256 PUSH1 0x1 PUSH1 0x1 PUSH1 0xA0 SHL SUB DUP8 AND DUP5 MSTORE SWAP1 SWAP2 MSTORE SWAP1 KECCAK256 SLOAD PUSH1 0xFF AND ISZERO ISZERO PUSH1 0x1 EQ PUSH2 0x202B JUMPI PUSH1 0x40 MLOAD PUSH3 0x461BCD PUSH1 0xE5 SHL DUP2 MSTORE PUSH1 0x20 PUSH1 0x4 DUP3 ADD MSTORE PUSH1 0x22 PUSH1 0x24 DUP3 ADD MSTORE PUSH32 0x546869732055736572204973204E6F742043757272656E746C792042616E6E65 PUSH1 0x44 DUP3 ADD MSTORE PUSH2 0x6421 PUSH1 0xF0 SHL PUSH1 0x64 DUP3 ADD MSTORE PUSH1 0x84 ADD PUSH2 0xB69 JUMP JUMPDEST POP PUSH1 0x0 SWAP1 DUP2 MSTORE PUSH1 0x11 PUSH1 0x20 SWAP1 DUP2 MSTORE PUSH1 0x40 DUP1 DUP4 KECCAK256 PUSH1 0x1 PUSH1 0x1 PUSH1 0xA0 SHL SUB SWAP1 SWAP5 AND DUP4 MSTORE SWAP3 SWAP1 MSTORE KECCAK256 DUP1 SLOAD PUSH1 0xFF NOT AND SWAP1 SSTORE JUMP JUMPDEST PUSH2 0x2063 DUP5 DUP5 DUP5 PUSH2 0x115A JUMP JUMPDEST PUSH2 0x11F8 DUP5 DUP5 DUP5 DUP5 PUSH2 0x31CB JUMP JUMPDEST PUSH1 0x60 PUSH2 0x207A DUP3 PUSH2 0x2FBA JUMP JUMPDEST POP PUSH1 0x0 PUSH2 0x2092 PUSH1 0x40 DUP1 MLOAD PUSH1 0x20 DUP2 ADD SWAP1 SWAP2 MSTORE PUSH1 0x0 DUP2 MSTORE SWAP1 JUMP JUMPDEST SWAP1 POP PUSH1 0x0 DUP2 MLOAD GT PUSH2 0x20B2 JUMPI PUSH1 0x40 MLOAD DUP1 PUSH1 0x20 ADD PUSH1 0x40 MSTORE DUP1 PUSH1 0x0 DUP2 MSTORE POP PUSH2 0x20DD JUMP JUMPDEST DUP1 PUSH2 0x20BC DUP5 PUSH2 0x32F4 JUMP JUMPDEST PUSH1 0x40 MLOAD PUSH1 0x20 ADD PUSH2 0x20CD SWAP3 SWAP2 SWAP1 PUSH2 0x3E31 JUMP JUMPDEST PUSH1 0x40 MLOAD PUSH1 0x20 DUP2 DUP4 SUB SUB DUP2 MSTORE SWAP1 PUSH1 0x40 MSTORE JUMPDEST SWAP4 SWAP3 POP POP POP JUMP JUMPDEST DUP1 DUP1 PUSH1 0x0 SUB PUSH2 0x2143 JUMPI PUSH1 0x40 MLOAD PUSH3 0x461BCD PUSH1 0xE5 SHL DUP2 MSTORE PUSH1 0x20 PUSH1 0x4 DUP3 ADD MSTORE PUSH1 0x25 PUSH1 0x24 DUP3 ADD MSTORE PUSH32 0x4368616E6E656C204944204D7573742042652047726561746572205468616E20 PUSH1 0x44 DUP3 ADD MSTORE PUSH5 0x5A65726F21 PUSH1 0xD8 SHL PUSH1 0x64 DUP3 ADD MSTORE PUSH1 0x84 ADD PUSH2 0xB69 JUMP JUMPDEST PUSH1 0x9 SLOAD DUP2 GT ISZERO PUSH2 0x218D JUMPI PUSH1 0x40 MLOAD PUSH3 0x461BCD PUSH1 0xE5 SHL DUP2 MSTORE PUSH1 0x20 PUSH1 0x4 DUP3 ADD MSTORE PUSH1 0x15 PUSH1 0x24 DUP3 ADD MSTORE PUSH21 0x4368616E6E656C20494420546F6F204C6172676521 PUSH1 0x58 SHL PUSH1 0x44 DUP3 ADD MSTORE PUSH1 0x64 ADD PUSH2 0xB69 JUMP JUMPDEST PUSH1 0x0 DUP3 DUP2 MSTORE PUSH1 0x8 PUSH1 0x20 MSTORE PUSH1 0x40 SWAP1 KECCAK256 SLOAD DUP3 SWAP1 PUSH1 0x1 PUSH1 0x1 PUSH1 0xA0 SHL SUB AND CALLER EQ DUP1 PUSH2 0x21BE JUMPI POP PUSH1 0x7 SLOAD PUSH1 0x1 PUSH1 0x1 PUSH1 0xA0 SHL SUB AND CALLER EQ JUMPDEST PUSH2 0x2230 JUMPI PUSH1 0x40 MLOAD PUSH3 0x461BCD PUSH1 0xE5 SHL DUP2 MSTORE PUSH1 0x20 PUSH1 0x4 DUP3 ADD MSTORE PUSH1 0x39 PUSH1 0x24 DUP3 ADD MSTORE PUSH32 0x4F6E6C79204368616E6E656C204D6F64206F72204F776E657220526F6C65204D PUSH1 0x44 DUP3 ADD MSTORE PUSH32 0x6179204578656375746520546869732046756E6374696F6E2100000000000000 PUSH1 0x64 DUP3 ADD MSTORE PUSH1 0x84 ADD PUSH2 0xB69 JUMP JUMPDEST PUSH1 0x1 PUSH1 0x1 PUSH1 0xA0 SHL SUB DUP5 AND PUSH1 0x0 SWAP1 DUP2 MSTORE PUSH1 0xD PUSH1 0x20 MSTORE PUSH1 0x40 SWAP1 KECCAK256 SLOAD PUSH1 0xFF AND ISZERO ISZERO PUSH1 0x1 EQ PUSH2 0x22C3 JUMPI PUSH1 0x40 MLOAD PUSH3 0x461BCD PUSH1 0xE5 SHL DUP2 MSTORE PUSH1 0x20 PUSH1 0x4 DUP3 ADD MSTORE PUSH1 0x2C PUSH1 0x24 DUP3 ADD MSTORE PUSH32 0x4E6577204368616E6E656C204D6F64204D75737420426520416E20416C706861 PUSH1 0x44 DUP3 ADD MSTORE PUSH32 0x50494E47204D656D626572210000000000000000000000000000000000000000 PUSH1 0x64 DUP3 ADD MSTORE PUSH1 0x84 ADD PUSH2 0xB69 JUMP JUMPDEST PUSH1 0x1 PUSH1 0x1 PUSH1 0xA0 SHL SUB DUP5 AND PUSH1 0x0 SWAP1 DUP2 MSTORE PUSH1 0x10 PUSH1 0x20 MSTORE PUSH1 0x40 SWAP1 KECCAK256 SLOAD PUSH1 0xFF AND ISZERO ISZERO PUSH1 0x1 SUB PUSH2 0x2356 JUMPI PUSH1 0x40 MLOAD PUSH3 0x461BCD PUSH1 0xE5 SHL DUP2 MSTORE PUSH1 0x20 PUSH1 0x4 DUP3 ADD MSTORE PUSH1 0x28 PUSH1 0x24 DUP3 ADD MSTORE PUSH32 0x4E6577204368616E6E656C204D6F64204D757374204E6F7420426520426C6163 PUSH1 0x44 DUP3 ADD MSTORE PUSH32 0x6B6C697374656421000000000000000000000000000000000000000000000000 PUSH1 0x64 DUP3 ADD MSTORE PUSH1 0x84 ADD PUSH2 0xB69 JUMP JUMPDEST POP POP PUSH1 0x0 SWAP1 DUP2 MSTORE PUSH1 0x8 PUSH1 0x20 MSTORE PUSH1 0x40 SWAP1 KECCAK256 DUP1 SLOAD PUSH1 0x1 PUSH1 0x1 PUSH1 0xA0 SHL SUB NOT AND PUSH1 0x1 PUSH1 0x1 PUSH1 0xA0 SHL SUB SWAP3 SWAP1 SWAP3 AND SWAP2 SWAP1 SWAP2 OR SWAP1 SSTORE JUMP JUMPDEST PUSH1 0xB PUSH1 0x20 MSTORE PUSH1 0x0 SWAP1 DUP2 MSTORE PUSH1 0x40 SWAP1 KECCAK256 DUP1 SLOAD PUSH1 0x1 DUP3 ADD SLOAD PUSH1 0x2 DUP4 ADD DUP1 SLOAD SWAP3 SWAP4 PUSH1 0x1 PUSH1 0x1 PUSH1 0xA0 SHL SUB SWAP1 SWAP3 AND SWAP3 PUSH2 0x23B8 SWAP1 PUSH2 0x3C5F JUMP JUMPDEST DUP1 PUSH1 0x1F ADD PUSH1 0x20 DUP1 SWAP2 DIV MUL PUSH1 0x20 ADD PUSH1 0x40 MLOAD SWAP1 DUP2 ADD PUSH1 0x40 MSTORE DUP1 SWAP3 SWAP2 SWAP1 DUP2 DUP2 MSTORE PUSH1 0x20 ADD DUP3 DUP1 SLOAD PUSH2 0x23E4 SWAP1 PUSH2 0x3C5F JUMP JUMPDEST DUP1 ISZERO PUSH2 0x2431 JUMPI DUP1 PUSH1 0x1F LT PUSH2 0x2406 JUMPI PUSH2 0x100 DUP1 DUP4 SLOAD DIV MUL DUP4 MSTORE SWAP2 PUSH1 0x20 ADD SWAP2 PUSH2 0x2431 JUMP JUMPDEST DUP3 ADD SWAP2 SWAP1 PUSH1 0x0 MSTORE PUSH1 0x20 PUSH1 0x0 KECCAK256 SWAP1 JUMPDEST DUP2 SLOAD DUP2 MSTORE SWAP1 PUSH1 0x1 ADD SWAP1 PUSH1 0x20 ADD DUP1 DUP4 GT PUSH2 0x2414 JUMPI DUP3 SWAP1 SUB PUSH1 0x1F AND DUP3 ADD SWAP2 JUMPDEST POP POP POP POP POP SWAP1 DUP1 PUSH1 0x3 ADD DUP1 SLOAD PUSH2 0x2446 SWAP1 PUSH2 0x3C5F JUMP JUMPDEST DUP1 PUSH1 0x1F ADD PUSH1 0x20 DUP1 SWAP2 DIV MUL PUSH1 0x20 ADD PUSH1 0x40 MLOAD SWAP1 DUP2 ADD PUSH1 0x40 MSTORE DUP1 SWAP3 SWAP2 SWAP1 DUP2 DUP2 MSTORE PUSH1 0x20 ADD DUP3 DUP1 SLOAD PUSH2 0x2472 SWAP1 PUSH2 0x3C5F JUMP JUMPDEST DUP1 ISZERO PUSH2 0x24BF JUMPI DUP1 PUSH1 0x1F LT PUSH2 0x2494 JUMPI PUSH2 0x100 DUP1 DUP4 SLOAD DIV MUL DUP4 MSTORE SWAP2 PUSH1 0x20 ADD SWAP2 PUSH2 0x24BF JUMP JUMPDEST DUP3 ADD SWAP2 SWAP1 PUSH1 0x0 MSTORE PUSH1 0x20 PUSH1 0x0 KECCAK256 SWAP1 JUMPDEST DUP2 SLOAD DUP2 MSTORE SWAP1 PUSH1 0x1 ADD SWAP1 PUSH1 0x20 ADD DUP1 DUP4 GT PUSH2 0x24A2 JUMPI DUP3 SWAP1 SUB PUSH1 0x1F AND DUP3 ADD SWAP2 JUMPDEST POP POP POP POP POP SWAP1 POP DUP5 JUMP JUMPDEST PUSH1 0x7 SLOAD PUSH1 0x1 PUSH1 0x1 PUSH1 0xA0 SHL SUB AND CALLER EQ PUSH2 0x2536 JUMPI PUSH1 0x40 MLOAD PUSH3 0x461BCD PUSH1 0xE5 SHL DUP2 MSTORE PUSH1 0x20 PUSH1 0x4 DUP3 ADD MSTORE PUSH1 0x2A PUSH1 0x24 DUP3 ADD MSTORE PUSH32 0x4F6E6C79204F776E657220526F6C65204D617920457865637574652054686973 PUSH1 0x44 DUP3 ADD MSTORE PUSH10 0x2046756E6374696F6E21 PUSH1 0xB0 SHL PUSH1 0x64 DUP3 ADD MSTORE PUSH1 0x84 ADD PUSH2 0xB69 JUMP JUMPDEST PUSH1 0x12 DUP1 SLOAD PUSH1 0xFF NOT DUP2 AND PUSH1 0xFF SWAP1 SWAP2 AND ISZERO OR SWAP1 SSTORE JUMP JUMPDEST PUSH1 0x7 SLOAD PUSH1 0x1 PUSH1 0x1 PUSH1 0xA0 SHL SUB AND CALLER EQ PUSH2 0x25B7 JUMPI PUSH1 0x40 MLOAD PUSH3 0x461BCD PUSH1 0xE5 SHL DUP2 MSTORE PUSH1 0x20 PUSH1 0x4 DUP3 ADD MSTORE PUSH1 0x2A PUSH1 0x24 DUP3 ADD MSTORE PUSH32 0x4F6E6C79204F776E657220526F6C65204D617920457865637574652054686973 PUSH1 0x44 DUP3 ADD MSTORE PUSH10 0x2046756E6374696F6E21 PUSH1 0xB0 SHL PUSH1 0x64 DUP3 ADD MSTORE PUSH1 0x84 ADD PUSH2 0xB69 JUMP JUMPDEST PUSH1 0x1 PUSH1 0x1 PUSH1 0xA0 SHL SUB DUP2 AND PUSH1 0x0 SWAP1 DUP2 MSTORE PUSH1 0x10 PUSH1 0x20 MSTORE PUSH1 0x40 SWAP1 KECCAK256 SLOAD PUSH1 0xFF AND ISZERO ISZERO PUSH1 0x1 EQ PUSH2 0x262F JUMPI PUSH1 0x40 MLOAD PUSH3 0x461BCD PUSH1 0xE5 SHL DUP2 MSTORE PUSH1 0x20 PUSH1 0x4 DUP3 ADD MSTORE PUSH1 0x22 PUSH1 0x24 DUP3 ADD MSTORE PUSH32 0x55736572204973204E6F742043757272656E746C7920426C61636B6C69737465 PUSH1 0x44 DUP3 ADD MSTORE PUSH2 0x6421 PUSH1 0xF0 SHL PUSH1 0x64 DUP3 ADD MSTORE PUSH1 0x84 ADD PUSH2 0xB69 JUMP JUMPDEST PUSH1 0x1 PUSH1 0x1 PUSH1 0xA0 SHL SUB AND PUSH1 0x0 SWAP1 DUP2 MSTORE PUSH1 0x10 PUSH1 0x20 MSTORE PUSH1 0x40 SWAP1 KECCAK256 DUP1 SLOAD PUSH1 0xFF NOT AND SWAP1 SSTORE JUMP JUMPDEST PUSH1 0x7 SLOAD PUSH1 0x1 PUSH1 0x1 PUSH1 0xA0 SHL SUB AND CALLER EQ PUSH2 0x26BD JUMPI PUSH1 0x40 MLOAD PUSH3 0x461BCD PUSH1 0xE5 SHL DUP2 MSTORE PUSH1 0x20 PUSH1 0x4 DUP3 ADD MSTORE PUSH1 0x2A PUSH1 0x24 DUP3 ADD MSTORE PUSH32 0x4F6E6C79204F776E657220526F6C65204D617920457865637574652054686973 PUSH1 0x44 DUP3 ADD MSTORE PUSH10 0x2046756E6374696F6E21 PUSH1 0xB0 SHL PUSH1 0x64 DUP3 ADD MSTORE PUSH1 0x84 ADD PUSH2 0xB69 JUMP JUMPDEST PUSH1 0x16 DUP1 SLOAD PUSH1 0x1 PUSH1 0x1 PUSH1 0xA0 SHL SUB NOT AND PUSH1 0x1 PUSH1 0x1 PUSH1 0xA0 SHL SUB SWAP3 SWAP1 SWAP3 AND SWAP2 SWAP1 SWAP2 OR SWAP1 SSTORE JUMP JUMPDEST CALLER PUSH1 0x0 SWAP1 DUP2 MSTORE PUSH1 0xF PUSH1 0x20 MSTORE PUSH1 0x40 SWAP1 KECCAK256 PUSH2 0x98C DUP3 DUP3 PUSH2 0x3CE3 JUMP JUMPDEST CALLER PUSH1 0x0 SWAP1 DUP2 MSTORE PUSH1 0xD PUSH1 0x20 MSTORE PUSH1 0x40 SWAP1 KECCAK256 SLOAD PUSH1 0xFF AND ISZERO ISZERO PUSH1 0x1 EQ PUSH2 0x2776 JUMPI PUSH1 0x40 MLOAD PUSH3 0x461BCD PUSH1 0xE5 SHL DUP2 MSTORE PUSH1 0x20 PUSH1 0x4 DUP3 ADD MSTORE PUSH1 0x31 PUSH1 0x24 DUP3 ADD MSTORE PUSH32 0x4F6E6C7920416C70686150494E47204D656D62657273204D6179204578656375 PUSH1 0x44 DUP3 ADD MSTORE PUSH17 0x746520546869732046756E6374696F6E21 PUSH1 0x78 SHL PUSH1 0x64 DUP3 ADD MSTORE PUSH1 0x84 ADD PUSH2 0xB69 JUMP JUMPDEST CALLER PUSH1 0x0 SWAP1 DUP2 MSTORE PUSH1 0x10 PUSH1 0x20 MSTORE PUSH1 0x40 SWAP1 KECCAK256 SLOAD PUSH1 0xFF AND ISZERO ISZERO PUSH1 0x1 SUB PUSH2 0x2826 JUMPI PUSH1 0x40 MLOAD PUSH3 0x461BCD PUSH1 0xE5 SHL DUP2 MSTORE PUSH1 0x20 PUSH1 0x4 DUP3 ADD MSTORE PUSH1 0x43 PUSH1 0x24 DUP3 ADD MSTORE PUSH32 0x54686973205573657227732050726976656C6564676573204861766520426565 PUSH1 0x44 DUP3 ADD MSTORE PUSH32 0x6E205265766F6B65642044756520546F204265696E6720426C61636B6C697374 PUSH1 0x64 DUP3 ADD MSTORE PUSH32 0x6564210000000000000000000000000000000000000000000000000000000000 PUSH1 0x84 DUP3 ADD MSTORE PUSH1 0xA4 ADD PUSH2 0xB69 JUMP JUMPDEST PUSH1 0x1 PUSH1 0x1 PUSH1 0xA0 SHL SUB DUP3 AND PUSH1 0x0 SWAP1 DUP2 MSTORE PUSH1 0xA PUSH1 0x20 MSTORE PUSH1 0x40 SWAP1 KECCAK256 SLOAD PUSH1 0xFF AND ISZERO ISZERO PUSH1 0x1 SUB PUSH2 0x2893 JUMPI PUSH1 0x40 MLOAD PUSH3 0x461BCD PUSH1 0xE5 SHL DUP2 MSTORE PUSH1 0x20 PUSH1 0x4 DUP3 ADD MSTORE PUSH1 0x1C PUSH1 0x24 DUP3 ADD MSTORE PUSH32 0x54686973204368616E6E656C20416C7265616479204578697374732100000000 PUSH1 0x44 DUP3 ADD MSTORE PUSH1 0x64 ADD PUSH2 0xB69 JUMP JUMPDEST PUSH1 0x40 MLOAD PUSH32 0x4552433230000000000000000000000000000000000000000000000000000000 PUSH1 0x20 DUP3 ADD MSTORE PUSH1 0x0 SWAP1 PUSH1 0x25 ADD PUSH1 0x40 MLOAD PUSH1 0x20 DUP2 DUP4 SUB SUB DUP2 MSTORE SWAP1 PUSH1 0x40 MSTORE DUP1 MLOAD SWAP1 PUSH1 0x20 ADD KECCAK256 SWAP1 POP PUSH1 0x0 PUSH1 0x40 MLOAD PUSH1 0x20 ADD PUSH2 0x290F SWAP1 PUSH32 0x4552433732310000000000000000000000000000000000000000000000000000 DUP2 MSTORE PUSH1 0x6 ADD SWAP1 JUMP JUMPDEST PUSH1 0x40 MLOAD PUSH1 0x20 DUP2 DUP4 SUB SUB DUP2 MSTORE SWAP1 PUSH1 0x40 MSTORE DUP1 MLOAD SWAP1 PUSH1 0x20 ADD KECCAK256 SWAP1 POP PUSH1 0x0 DUP4 PUSH1 0x40 MLOAD PUSH1 0x20 ADD PUSH2 0x293A SWAP2 SWAP1 PUSH2 0x3E60 JUMP JUMPDEST PUSH1 0x40 MLOAD PUSH1 0x20 DUP2 DUP4 SUB SUB DUP2 MSTORE SWAP1 PUSH1 0x40 MSTORE DUP1 MLOAD SWAP1 PUSH1 0x20 ADD KECCAK256 SWAP1 POP DUP3 DUP2 EQ DUP1 PUSH2 0x295F JUMPI POP DUP2 DUP2 EQ JUMPDEST PUSH2 0x29D1 JUMPI PUSH1 0x40 MLOAD PUSH3 0x461BCD PUSH1 0xE5 SHL DUP2 MSTORE PUSH1 0x20 PUSH1 0x4 DUP3 ADD MSTORE PUSH1 0x2A PUSH1 0x24 DUP3 ADD MSTORE PUSH32 0x546F6B656E2054797065204D7573742045697468657220426520455243323020 PUSH1 0x44 DUP3 ADD MSTORE PUSH32 0x6F72204552433732312100000000000000000000000000000000000000000000 PUSH1 0x64 DUP3 ADD MSTORE PUSH1 0x84 ADD PUSH2 0xB69 JUMP JUMPDEST DUP2 DUP2 SUB PUSH2 0x2AB9 JUMPI PUSH1 0x40 MLOAD PUSH4 0x1FFC9A7 PUSH1 0xE0 SHL DUP2 MSTORE PUSH4 0x80AC58CD PUSH1 0xE0 SHL PUSH1 0x4 DUP3 ADD MSTORE PUSH1 0x1 PUSH1 0x1 PUSH1 0xA0 SHL SUB DUP7 AND SWAP1 PUSH4 0x1FFC9A7 SWAP1 PUSH1 0x24 ADD PUSH1 0x20 PUSH1 0x40 MLOAD DUP1 DUP4 SUB DUP2 DUP7 GAS STATICCALL ISZERO DUP1 ISZERO PUSH2 0x2A23 JUMPI RETURNDATASIZE PUSH1 0x0 DUP1 RETURNDATACOPY RETURNDATASIZE PUSH1 0x0 REVERT JUMPDEST POP POP POP POP PUSH1 0x40 MLOAD RETURNDATASIZE PUSH1 0x1F NOT PUSH1 0x1F DUP3 ADD AND DUP3 ADD DUP1 PUSH1 0x40 MSTORE POP DUP2 ADD SWAP1 PUSH2 0x2A47 SWAP2 SWAP1 PUSH2 0x3DEB JUMP JUMPDEST PUSH2 0x2AB9 JUMPI PUSH1 0x40 MLOAD PUSH3 0x461BCD PUSH1 0xE5 SHL DUP2 MSTORE PUSH1 0x20 PUSH1 0x4 DUP3 ADD MSTORE PUSH1 0x21 PUSH1 0x24 DUP3 ADD MSTORE PUSH32 0x54686973204973204E6F7420412056616C69642045524337323120546F6B656E PUSH1 0x44 DUP3 ADD MSTORE PUSH32 0x2100000000000000000000000000000000000000000000000000000000000000 PUSH1 0x64 DUP3 ADD MSTORE PUSH1 0x84 ADD PUSH2 0xB69 JUMP JUMPDEST DUP3 DUP2 SUB PUSH2 0x2B75 JUMPI PUSH1 0x0 DUP6 PUSH1 0x1 PUSH1 0x1 PUSH1 0xA0 SHL SUB AND PUSH4 0x313CE567 PUSH1 0x40 MLOAD DUP2 PUSH4 0xFFFFFFFF AND PUSH1 0xE0 SHL DUP2 MSTORE PUSH1 0x4 ADD PUSH1 0x20 PUSH1 0x40 MLOAD DUP1 DUP4 SUB DUP2 DUP7 GAS STATICCALL ISZERO DUP1 ISZERO PUSH2 0x2B00 JUMPI RETURNDATASIZE PUSH1 0x0 DUP1 RETURNDATACOPY RETURNDATASIZE PUSH1 0x0 REVERT JUMPDEST POP POP POP POP PUSH1 0x40 MLOAD RETURNDATASIZE PUSH1 0x1F NOT PUSH1 0x1F DUP3 ADD AND DUP3 ADD DUP1 PUSH1 0x40 MSTORE POP DUP2 ADD SWAP1 PUSH2 0x2B24 SWAP2 SWAP1 PUSH2 0x3E7C JUMP JUMPDEST PUSH1 0xFF AND LT ISZERO PUSH2 0x2B75 JUMPI PUSH1 0x40 MLOAD PUSH3 0x461BCD PUSH1 0xE5 SHL DUP2 MSTORE PUSH1 0x20 PUSH1 0x4 DUP3 ADD DUP2 SWAP1 MSTORE PUSH1 0x24 DUP3 ADD MSTORE PUSH32 0x54686973204973204E6F7420412056616C696420455243323020546F6B656E21 PUSH1 0x44 DUP3 ADD MSTORE PUSH1 0x64 ADD PUSH2 0xB69 JUMP JUMPDEST PUSH1 0x60 DUP4 DUP3 SUB PUSH2 0x2BF9 JUMPI DUP6 PUSH1 0x1 PUSH1 0x1 PUSH1 0xA0 SHL SUB AND PUSH4 0x6FDDE03 PUSH1 0x40 MLOAD DUP2 PUSH4 0xFFFFFFFF AND PUSH1 0xE0 SHL DUP2 MSTORE PUSH1 0x4 ADD PUSH1 0x0 PUSH1 0x40 MLOAD DUP1 DUP4 SUB DUP2 DUP7 GAS STATICCALL SWAP3 POP POP POP DUP1 ISZERO PUSH2 0x2BDD JUMPI POP PUSH1 0x40 MLOAD RETURNDATASIZE PUSH1 0x0 DUP3 RETURNDATACOPY PUSH1 0x1F RETURNDATASIZE SWAP1 DUP2 ADD PUSH1 0x1F NOT AND DUP3 ADD PUSH1 0x40 MSTORE PUSH2 0x2BDA SWAP2 SWAP1 DUP2 ADD SWAP1 PUSH2 0x3E9F JUMP JUMPDEST PUSH1 0x1 JUMPDEST PUSH2 0x2BF6 JUMPI POP PUSH1 0x40 DUP1 MLOAD PUSH1 0x20 DUP2 ADD SWAP1 SWAP2 MSTORE PUSH1 0x0 DUP2 MSTORE PUSH2 0x2BF9 JUMP JUMPDEST SWAP1 POP JUMPDEST DUP3 DUP3 SUB PUSH2 0x2C7B JUMPI DUP6 PUSH1 0x1 PUSH1 0x1 PUSH1 0xA0 SHL SUB AND PUSH4 0x6FDDE03 PUSH1 0x40 MLOAD DUP2 PUSH4 0xFFFFFFFF AND PUSH1 0xE0 SHL DUP2 MSTORE PUSH1 0x4 ADD PUSH1 0x0 PUSH1 0x40 MLOAD DUP1 DUP4 SUB DUP2 DUP7 GAS STATICCALL SWAP3 POP POP POP DUP1 ISZERO PUSH2 0x2C5F JUMPI POP PUSH1 0x40 MLOAD RETURNDATASIZE PUSH1 0x0 DUP3 RETURNDATACOPY PUSH1 0x1F RETURNDATASIZE SWAP1 DUP2 ADD PUSH1 0x1F NOT AND DUP3 ADD PUSH1 0x40 MSTORE PUSH2 0x2C5C SWAP2 SWAP1 DUP2 ADD SWAP1 PUSH2 0x3E9F JUMP JUMPDEST PUSH1 0x1 JUMPDEST PUSH2 0x2C78 JUMPI POP PUSH1 0x40 DUP1 MLOAD PUSH1 0x20 DUP2 ADD SWAP1 SWAP2 MSTORE PUSH1 0x0 DUP2 MSTORE PUSH2 0x2C7B JUMP JUMPDEST SWAP1 POP JUMPDEST DUP4 DUP3 SUB PUSH2 0x2CF9 JUMPI PUSH1 0x0 DUP2 MLOAD GT PUSH2 0x2CF9 JUMPI PUSH1 0x40 MLOAD PUSH3 0x461BCD PUSH1 0xE5 SHL DUP2 MSTORE PUSH1 0x20 PUSH1 0x4 DUP3 ADD MSTORE PUSH1 0x23 PUSH1 0x24 DUP3 ADD MSTORE PUSH32 0x4E6F204E616D6520466F756E6420466F72205468697320455243323020546F6B PUSH1 0x44 DUP3 ADD MSTORE PUSH32 0x656E210000000000000000000000000000000000000000000000000000000000 PUSH1 0x64 DUP3 ADD MSTORE PUSH1 0x84 ADD PUSH2 0xB69 JUMP JUMPDEST DUP3 DUP3 SUB PUSH2 0x2D76 JUMPI PUSH1 0x0 DUP2 MLOAD GT PUSH2 0x2D76 JUMPI PUSH1 0x40 MLOAD PUSH3 0x461BCD PUSH1 0xE5 SHL DUP2 MSTORE PUSH1 0x20 PUSH1 0x4 DUP3 ADD MSTORE PUSH1 0x24 DUP1 DUP3 ADD MSTORE PUSH32 0x4E6F204E616D6520466F756E6420466F7220546869732045524337323120546F PUSH1 0x44 DUP3 ADD MSTORE PUSH32 0x6B656E2100000000000000000000000000000000000000000000000000000000 PUSH1 0x64 DUP3 ADD MSTORE PUSH1 0x84 ADD PUSH2 0xB69 JUMP JUMPDEST PUSH1 0x9 DUP1 SLOAD SWAP1 PUSH1 0x0 PUSH2 0x2D86 DUP4 PUSH2 0x3DB9 JUMP JUMPDEST SWAP1 SWAP2 SSTORE POP POP PUSH1 0x40 DUP1 MLOAD PUSH1 0x80 DUP2 ADD DUP3 MSTORE PUSH1 0x9 SLOAD DUP1 DUP3 MSTORE PUSH1 0x1 PUSH1 0x1 PUSH1 0xA0 SHL SUB DUP10 DUP2 AND PUSH1 0x20 DUP1 DUP6 ADD SWAP2 DUP3 MSTORE DUP5 DUP7 ADD DUP8 DUP2 MSTORE PUSH1 0x60 DUP7 ADD DUP13 SWAP1 MSTORE PUSH1 0x0 SWAP5 DUP6 MSTORE PUSH1 0xB SWAP1 SWAP2 MSTORE SWAP5 SWAP1 SWAP3 KECCAK256 DUP4 MLOAD DUP2 SSTORE SWAP2 MLOAD PUSH1 0x1 DUP4 ADD DUP1 SLOAD PUSH1 0x1 PUSH1 0x1 PUSH1 0xA0 SHL SUB NOT AND SWAP2 SWAP1 SWAP3 AND OR SWAP1 SSTORE SWAP2 MLOAD SWAP1 SWAP2 SWAP1 PUSH1 0x2 DUP3 ADD SWAP1 PUSH2 0x2DFA SWAP1 DUP3 PUSH2 0x3CE3 JUMP JUMPDEST POP PUSH1 0x60 DUP3 ADD MLOAD PUSH1 0x3 DUP3 ADD SWAP1 PUSH2 0x2E0F SWAP1 DUP3 PUSH2 0x3CE3 JUMP JUMPDEST POP POP PUSH1 0x7 SLOAD PUSH1 0x9 SLOAD PUSH1 0x0 SWAP1 DUP2 MSTORE PUSH1 0x8 PUSH1 0x20 SWAP1 DUP2 MSTORE PUSH1 0x40 DUP1 DUP4 KECCAK256 DUP1 SLOAD PUSH1 0x1 PUSH1 0x1 PUSH1 0xA0 SHL SUB NOT AND PUSH1 0x1 PUSH1 0x1 PUSH1 0xA0 SHL SUB SWAP6 DUP7 AND OR SWAP1 SSTORE SWAP10 SWAP1 SWAP3 AND DUP2 MSTORE PUSH1 0xA SWAP1 SWAP2 MSTORE SWAP7 SWAP1 SWAP7 KECCAK256 DUP1 SLOAD PUSH1 0xFF NOT AND PUSH1 0x1 OR SWAP1 SSTORE POP POP POP POP POP POP JUMP JUMPDEST PUSH1 0x7 SLOAD PUSH1 0x1 PUSH1 0x1 PUSH1 0xA0 SHL SUB AND CALLER EQ PUSH2 0x2ED1 JUMPI PUSH1 0x40 MLOAD PUSH3 0x461BCD PUSH1 0xE5 SHL DUP2 MSTORE PUSH1 0x20 PUSH1 0x4 DUP3 ADD MSTORE PUSH1 0x2A PUSH1 0x24 DUP3 ADD MSTORE PUSH32 0x4F6E6C79204F776E657220526F6C65204D617920457865637574652054686973 PUSH1 0x44 DUP3 ADD MSTORE PUSH10 0x2046756E6374696F6E21 PUSH1 0xB0 SHL PUSH1 0x64 DUP3 ADD MSTORE PUSH1 0x84 ADD PUSH2 0xB69 JUMP JUMPDEST PUSH1 0x1 PUSH1 0x1 PUSH1 0xA0 SHL SUB DUP2 AND PUSH1 0x0 SWAP1 DUP2 MSTORE PUSH1 0x10 PUSH1 0x20 MSTORE PUSH1 0x40 SWAP1 KECCAK256 SLOAD PUSH1 0xFF AND ISZERO ISZERO PUSH1 0x1 SUB PUSH2 0x2F3E JUMPI PUSH1 0x40 MLOAD PUSH3 0x461BCD PUSH1 0xE5 SHL DUP2 MSTORE PUSH1 0x20 PUSH1 0x4 DUP3 ADD MSTORE PUSH1 0x1C PUSH1 0x24 DUP3 ADD MSTORE PUSH32 0x5573657220497320416C726561647920426C61636B6C69737465642100000000 PUSH1 0x44 DUP3 ADD MSTORE PUSH1 0x64 ADD PUSH2 0xB69 JUMP JUMPDEST CALLER PUSH1 0x1 PUSH1 0x1 PUSH1 0xA0 SHL SUB DUP3 AND SUB PUSH2 0x2F96 JUMPI PUSH1 0x40 MLOAD PUSH3 0x461BCD PUSH1 0xE5 SHL DUP2 MSTORE PUSH1 0x20 PUSH1 0x4 DUP3 ADD MSTORE PUSH1 0x1B PUSH1 0x24 DUP3 ADD MSTORE PUSH32 0x43616E206E6F7420626C61636B6C69737420796F757273656C66210000000000 PUSH1 0x44 DUP3 ADD MSTORE PUSH1 0x64 ADD PUSH2 0xB69 JUMP JUMPDEST PUSH1 0x1 PUSH1 0x1 PUSH1 0xA0 SHL SUB AND PUSH1 0x0 SWAP1 DUP2 MSTORE PUSH1 0x10 PUSH1 0x20 MSTORE PUSH1 0x40 SWAP1 KECCAK256 DUP1 SLOAD PUSH1 0xFF NOT AND PUSH1 0x1 OR SWAP1 SSTORE JUMP JUMPDEST PUSH1 0x0 DUP2 DUP2 MSTORE PUSH1 0x2 PUSH1 0x20 MSTORE PUSH1 0x40 DUP2 KECCAK256 SLOAD PUSH1 0x1 PUSH1 0x1 PUSH1 0xA0 SHL SUB AND DUP1 PUSH2 0x9F5 JUMPI PUSH1 0x40 MLOAD PUSH4 0x7E273289 PUSH1 0xE0 SHL DUP2 MSTORE PUSH1 0x4 DUP2 ADD DUP5 SWAP1 MSTORE PUSH1 0x24 ADD PUSH2 0xB69 JUMP JUMPDEST PUSH2 0x15D2 DUP4 DUP4 DUP4 PUSH1 0x1 PUSH2 0x3394 JUMP JUMPDEST PUSH2 0x98C DUP3 DUP3 PUSH1 0x40 MLOAD DUP1 PUSH1 0x20 ADD PUSH1 0x40 MSTORE DUP1 PUSH1 0x0 DUP2 MSTORE POP PUSH2 0x34D2 JUMP JUMPDEST PUSH1 0x0 DUP3 DUP2 MSTORE PUSH1 0x2 PUSH1 0x20 MSTORE PUSH1 0x40 DUP2 KECCAK256 SLOAD PUSH1 0x1 PUSH1 0x1 PUSH1 0xA0 SHL SUB SWAP1 DUP2 AND SWAP1 DUP4 AND ISZERO PUSH2 0x3047 JUMPI PUSH2 0x3047 DUP2 DUP5 DUP7 PUSH2 0x34E9 JUMP JUMPDEST PUSH1 0x1 PUSH1 0x1 PUSH1 0xA0 SHL SUB DUP2 AND ISZERO PUSH2 0x3085 JUMPI PUSH2 0x3064 PUSH1 0x0 DUP6 PUSH1 0x0 DUP1 PUSH2 0x3394 JUMP JUMPDEST PUSH1 0x1 PUSH1 0x1 PUSH1 0xA0 SHL SUB DUP2 AND PUSH1 0x0 SWAP1 DUP2 MSTORE PUSH1 0x3 PUSH1 0x20 MSTORE PUSH1 0x40 SWAP1 KECCAK256 DUP1 SLOAD PUSH1 0x0 NOT ADD SWAP1 SSTORE JUMPDEST PUSH1 0x1 PUSH1 0x1 PUSH1 0xA0 SHL SUB DUP6 AND ISZERO PUSH2 0x30B4 JUMPI PUSH1 0x1 PUSH1 0x1 PUSH1 0xA0 SHL SUB DUP6 AND PUSH1 0x0 SWAP1 DUP2 MSTORE PUSH1 0x3 PUSH1 0x20 MSTORE PUSH1 0x40 SWAP1 KECCAK256 DUP1 SLOAD PUSH1 0x1 ADD SWAP1 SSTORE JUMPDEST PUSH1 0x0 DUP5 DUP2 MSTORE PUSH1 0x2 PUSH1 0x20 MSTORE PUSH1 0x40 DUP1 DUP3 KECCAK256 DUP1 SLOAD PUSH1 0x1 PUSH1 0x1 PUSH1 0xA0 SHL SUB NOT AND PUSH1 0x1 PUSH1 0x1 PUSH1 0xA0 SHL SUB DUP10 DUP2 AND SWAP2 DUP3 OR SWAP1 SWAP3 SSTORE SWAP2 MLOAD DUP8 SWAP4 SWAP2 DUP6 AND SWAP2 PUSH32 0xDDF252AD1BE2C89B69C2B068FC378DAA952BA7F163C4A11628F55A4DF523B3EF SWAP2 LOG4 SWAP5 SWAP4 POP POP POP POP JUMP JUMPDEST PUSH1 0x1 PUSH1 0x1 PUSH1 0xA0 SHL SUB DUP3 AND PUSH2 0x315E JUMPI PUSH1 0x40 MLOAD PUSH32 0x5B08BA1800000000000000000000000000000000000000000000000000000000 DUP2 MSTORE PUSH1 0x1 PUSH1 0x1 PUSH1 0xA0 SHL SUB DUP4 AND PUSH1 0x4 DUP3 ADD MSTORE PUSH1 0x24 ADD PUSH2 0xB69 JUMP JUMPDEST PUSH1 0x1 PUSH1 0x1 PUSH1 0xA0 SHL SUB DUP4 DUP2 AND PUSH1 0x0 DUP2 DUP2 MSTORE PUSH1 0x5 PUSH1 0x20 SWAP1 DUP2 MSTORE PUSH1 0x40 DUP1 DUP4 KECCAK256 SWAP5 DUP8 AND DUP1 DUP5 MSTORE SWAP5 DUP3 MSTORE SWAP2 DUP3 SWAP1 KECCAK256 DUP1 SLOAD PUSH1 0xFF NOT AND DUP7 ISZERO ISZERO SWAP1 DUP2 OR SWAP1 SWAP2 SSTORE SWAP2 MLOAD SWAP2 DUP3 MSTORE PUSH32 0x17307EAB39AB6107E8899845AD3D59BD9653F200F220920489CA2B5937696C31 SWAP2 ADD PUSH1 0x40 MLOAD DUP1 SWAP2 SUB SWAP1 LOG3 POP POP POP JUMP JUMPDEST PUSH1 0x1 PUSH1 0x1 PUSH1 0xA0 SHL SUB DUP4 AND EXTCODESIZE ISZERO PUSH2 0x11F8 JUMPI PUSH1 0x40 MLOAD PUSH4 0xA85BD01 PUSH1 0xE1 SHL DUP2 MSTORE PUSH1 0x1 PUSH1 0x1 PUSH1 0xA0 SHL SUB DUP5 AND SWAP1 PUSH4 0x150B7A02 SWAP1 PUSH2 0x320D SWAP1 CALLER SWAP1 DUP9 SWAP1 DUP8 SWAP1 DUP8 SWAP1 PUSH1 0x4 ADD PUSH2 0x3F0D JUMP JUMPDEST PUSH1 0x20 PUSH1 0x40 MLOAD DUP1 DUP4 SUB DUP2 PUSH1 0x0 DUP8 GAS CALL SWAP3 POP POP POP DUP1 ISZERO PUSH2 0x3248 JUMPI POP PUSH1 0x40 DUP1 MLOAD PUSH1 0x1F RETURNDATASIZE SWAP1 DUP2 ADD PUSH1 0x1F NOT AND DUP3 ADD SWAP1 SWAP3 MSTORE PUSH2 0x3245 SWAP2 DUP2 ADD SWAP1 PUSH2 0x3F49 JUMP JUMPDEST PUSH1 0x1 JUMPDEST PUSH2 0x32B1 JUMPI RETURNDATASIZE DUP1 DUP1 ISZERO PUSH2 0x3276 JUMPI PUSH1 0x40 MLOAD SWAP2 POP PUSH1 0x1F NOT PUSH1 0x3F RETURNDATASIZE ADD AND DUP3 ADD PUSH1 0x40 MSTORE RETURNDATASIZE DUP3 MSTORE RETURNDATASIZE PUSH1 0x0 PUSH1 0x20 DUP5 ADD RETURNDATACOPY PUSH2 0x327B JUMP JUMPDEST PUSH1 0x60 SWAP2 POP JUMPDEST POP DUP1 MLOAD PUSH1 0x0 SUB PUSH2 0x32A9 JUMPI PUSH1 0x40 MLOAD PUSH4 0x32505749 PUSH1 0xE1 SHL DUP2 MSTORE PUSH1 0x1 PUSH1 0x1 PUSH1 0xA0 SHL SUB DUP6 AND PUSH1 0x4 DUP3 ADD MSTORE PUSH1 0x24 ADD PUSH2 0xB69 JUMP JUMPDEST DUP1 MLOAD DUP2 PUSH1 0x20 ADD REVERT JUMPDEST PUSH1 0x1 PUSH1 0x1 PUSH1 0xE0 SHL SUB NOT DUP2 AND PUSH4 0xA85BD01 PUSH1 0xE1 SHL EQ PUSH2 0x32ED JUMPI PUSH1 0x40 MLOAD PUSH4 0x32505749 PUSH1 0xE1 SHL DUP2 MSTORE PUSH1 0x1 PUSH1 0x1 PUSH1 0xA0 SHL SUB DUP6 AND PUSH1 0x4 DUP3 ADD MSTORE PUSH1 0x24 ADD PUSH2 0xB69 JUMP JUMPDEST POP POP POP POP POP JUMP JUMPDEST PUSH1 0x60 PUSH1 0x0 PUSH2 0x3301 DUP4 PUSH2 0x3566 JUMP JUMPDEST PUSH1 0x1 ADD SWAP1 POP PUSH1 0x0 DUP2 PUSH8 0xFFFFFFFFFFFFFFFF DUP2 GT ISZERO PUSH2 0x3321 JUMPI PUSH2 0x3321 PUSH2 0x37E6 JUMP JUMPDEST PUSH1 0x40 MLOAD SWAP1 DUP1 DUP3 MSTORE DUP1 PUSH1 0x1F ADD PUSH1 0x1F NOT AND PUSH1 0x20 ADD DUP3 ADD PUSH1 0x40 MSTORE DUP1 ISZERO PUSH2 0x334B JUMPI PUSH1 0x20 DUP3 ADD DUP2 DUP1 CALLDATASIZE DUP4 CALLDATACOPY ADD SWAP1 POP JUMPDEST POP SWAP1 POP DUP2 DUP2 ADD PUSH1 0x20 ADD JUMPDEST PUSH1 0x0 NOT ADD PUSH32 0x3031323334353637383961626364656600000000000000000000000000000000 PUSH1 0xA DUP7 MOD BYTE DUP2 MSTORE8 PUSH1 0xA DUP6 DIV SWAP5 POP DUP5 PUSH2 0x3355 JUMPI POP SWAP4 SWAP3 POP POP POP JUMP JUMPDEST DUP1 DUP1 PUSH2 0x33A8 JUMPI POP PUSH1 0x1 PUSH1 0x1 PUSH1 0xA0 SHL SUB DUP3 AND ISZERO ISZERO JUMPDEST ISZERO PUSH2 0x34A2 JUMPI PUSH1 0x0 PUSH2 0x33B8 DUP5 PUSH2 0x2FBA JUMP JUMPDEST SWAP1 POP PUSH1 0x1 PUSH1 0x1 PUSH1 0xA0 SHL SUB DUP4 AND ISZERO DUP1 ISZERO SWAP1 PUSH2 0x33E4 JUMPI POP DUP3 PUSH1 0x1 PUSH1 0x1 PUSH1 0xA0 SHL SUB AND DUP2 PUSH1 0x1 PUSH1 0x1 PUSH1 0xA0 SHL SUB AND EQ ISZERO JUMPDEST DUP1 ISZERO PUSH2 0x3416 JUMPI POP PUSH1 0x1 PUSH1 0x1 PUSH1 0xA0 SHL SUB DUP1 DUP3 AND PUSH1 0x0 SWAP1 DUP2 MSTORE PUSH1 0x5 PUSH1 0x20 SWAP1 DUP2 MSTORE PUSH1 0x40 DUP1 DUP4 KECCAK256 SWAP4 DUP8 AND DUP4 MSTORE SWAP3 SWAP1 MSTORE KECCAK256 SLOAD PUSH1 0xFF AND ISZERO JUMPDEST ISZERO PUSH2 0x3458 JUMPI PUSH1 0x40 MLOAD PUSH32 0xA9FBF51F00000000000000000000000000000000000000000000000000000000 DUP2 MSTORE PUSH1 0x1 PUSH1 0x1 PUSH1 0xA0 SHL SUB DUP5 AND PUSH1 0x4 DUP3 ADD MSTORE PUSH1 0x24 ADD PUSH2 0xB69 JUMP JUMPDEST DUP2 ISZERO PUSH2 0x34A0 JUMPI DUP4 DUP6 PUSH1 0x1 PUSH1 0x1 PUSH1 0xA0 SHL SUB AND DUP3 PUSH1 0x1 PUSH1 0x1 PUSH1 0xA0 SHL SUB AND PUSH32 0x8C5BE1E5EBEC7D5BD14F71427D1E84F3DD0314C0F7B2291E5B200AC8C7C3B925 PUSH1 0x40 MLOAD PUSH1 0x40 MLOAD DUP1 SWAP2 SUB SWAP1 LOG4 JUMPDEST POP JUMPDEST POP POP PUSH1 0x0 SWAP1 DUP2 MSTORE PUSH1 0x4 PUSH1 0x20 MSTORE PUSH1 0x40 SWAP1 KECCAK256 DUP1 SLOAD PUSH1 0x1 PUSH1 0x1 PUSH1 0xA0 SHL SUB NOT AND PUSH1 0x1 PUSH1 0x1 PUSH1 0xA0 SHL SUB SWAP3 SWAP1 SWAP3 AND SWAP2 SWAP1 SWAP2 OR SWAP1 SSTORE JUMP JUMPDEST PUSH2 0x34DC DUP4 DUP4 PUSH2 0x3648 JUMP JUMPDEST PUSH2 0x15D2 PUSH1 0x0 DUP5 DUP5 DUP5 PUSH2 0x31CB JUMP JUMPDEST PUSH2 0x34F4 DUP4 DUP4 DUP4 PUSH2 0x36C6 JUMP JUMPDEST PUSH2 0x15D2 JUMPI PUSH1 0x1 PUSH1 0x1 PUSH1 0xA0 SHL SUB DUP4 AND PUSH2 0x3522 JUMPI PUSH1 0x40 MLOAD PUSH4 0x7E273289 PUSH1 0xE0 SHL DUP2 MSTORE PUSH1 0x4 DUP2 ADD DUP3 SWAP1 MSTORE PUSH1 0x24 ADD PUSH2 0xB69 JUMP JUMPDEST PUSH1 0x40 MLOAD PUSH32 0x177E802F00000000000000000000000000000000000000000000000000000000 DUP2 MSTORE PUSH1 0x1 PUSH1 0x1 PUSH1 0xA0 SHL SUB DUP4 AND PUSH1 0x4 DUP3 ADD MSTORE PUSH1 0x24 DUP2 ADD DUP3 SWAP1 MSTORE PUSH1 0x44 ADD PUSH2 0xB69 JUMP JUMPDEST PUSH1 0x0 DUP1 PUSH27 0x184F03E93FF9F4DAA797ED6E38ED64BF6A1F010000000000000000 DUP4 LT PUSH2 0x35AF JUMPI PUSH27 0x184F03E93FF9F4DAA797ED6E38ED64BF6A1F010000000000000000 DUP4 DIV SWAP3 POP PUSH1 0x40 ADD JUMPDEST PUSH14 0x4EE2D6D415B85ACEF8100000000 DUP4 LT PUSH2 0x35DB JUMPI PUSH14 0x4EE2D6D415B85ACEF8100000000 DUP4 DIV SWAP3 POP PUSH1 0x20 ADD JUMPDEST PUSH7 0x2386F26FC10000 DUP4 LT PUSH2 0x35F9 JUMPI PUSH7 0x2386F26FC10000 DUP4 DIV SWAP3 POP PUSH1 0x10 ADD JUMPDEST PUSH4 0x5F5E100 DUP4 LT PUSH2 0x3611 JUMPI PUSH4 0x5F5E100 DUP4 DIV SWAP3 POP PUSH1 0x8 ADD JUMPDEST PUSH2 0x2710 DUP4 LT PUSH2 0x3625 JUMPI PUSH2 0x2710 DUP4 DIV SWAP3 POP PUSH1 0x4 ADD JUMPDEST PUSH1 0x64 DUP4 LT PUSH2 0x3637 JUMPI PUSH1 0x64 DUP4 DIV SWAP3 POP PUSH1 0x2 ADD JUMPDEST PUSH1 0xA DUP4 LT PUSH2 0x9F5 JUMPI PUSH1 0x1 ADD SWAP3 SWAP2 POP POP JUMP JUMPDEST PUSH1 0x1 PUSH1 0x1 PUSH1 0xA0 SHL SUB DUP3 AND PUSH2 0x3672 JUMPI PUSH1 0x40 MLOAD PUSH4 0x32505749 PUSH1 0xE1 SHL DUP2 MSTORE PUSH1 0x0 PUSH1 0x4 DUP3 ADD MSTORE PUSH1 0x24 ADD PUSH2 0xB69 JUMP JUMPDEST PUSH1 0x0 PUSH2 0x3680 DUP4 DUP4 PUSH1 0x0 PUSH2 0x301A JUMP JUMPDEST SWAP1 POP PUSH1 0x1 PUSH1 0x1 PUSH1 0xA0 SHL SUB DUP2 AND ISZERO PUSH2 0x15D2 JUMPI PUSH1 0x40 MLOAD PUSH32 0x73C6AC6E00000000000000000000000000000000000000000000000000000000 DUP2 MSTORE PUSH1 0x0 PUSH1 0x4 DUP3 ADD MSTORE PUSH1 0x24 ADD PUSH2 0xB69 JUMP JUMPDEST PUSH1 0x0 PUSH1 0x1 PUSH1 0x1 PUSH1 0xA0 SHL SUB DUP4 AND ISZERO DUP1 ISZERO SWAP1 PUSH2 0x3744 JUMPI POP DUP3 PUSH1 0x1 PUSH1 0x1 PUSH1 0xA0 SHL SUB AND DUP5 PUSH1 0x1 PUSH1 0x1 PUSH1 0xA0 SHL SUB AND EQ DUP1 PUSH2 0x3720 JUMPI POP PUSH1 0x1 PUSH1 0x1 PUSH1 0xA0 SHL SUB DUP1 DUP6 AND PUSH1 0x0 SWAP1 DUP2 MSTORE PUSH1 0x5 PUSH1 0x20 SWAP1 DUP2 MSTORE PUSH1 0x40 DUP1 DUP4 KECCAK256 SWAP4 DUP8 AND DUP4 MSTORE SWAP3 SWAP1 MSTORE KECCAK256 SLOAD PUSH1 0xFF AND JUMPDEST DUP1 PUSH2 0x3744 JUMPI POP PUSH1 0x0 DUP3 DUP2 MSTORE PUSH1 0x4 PUSH1 0x20 MSTORE PUSH1 0x40 SWAP1 KECCAK256 SLOAD PUSH1 0x1 PUSH1 0x1 PUSH1 0xA0 SHL SUB DUP5 DUP2 AND SWAP2 AND EQ JUMPDEST SWAP5 SWAP4 POP POP POP POP JUMP JUMPDEST DUP1 CALLDATALOAD PUSH1 0x1 PUSH1 0x1 PUSH1 0xA0 SHL SUB DUP2 AND DUP2 EQ PUSH2 0x3763 JUMPI PUSH1 0x0 DUP1 REVERT JUMPDEST SWAP2 SWAP1 POP JUMP JUMPDEST PUSH1 0x0 PUSH1 0x20 DUP3 DUP5 SUB SLT ISZERO PUSH2 0x377A JUMPI PUSH1 0x0 DUP1 REVERT JUMPDEST PUSH2 0x20DD DUP3 PUSH2 0x374C JUMP JUMPDEST PUSH1 0x0 JUMPDEST DUP4 DUP2 LT ISZERO PUSH2 0x379E JUMPI DUP2 DUP2 ADD MLOAD DUP4 DUP3 ADD MSTORE PUSH1 0x20 ADD PUSH2 0x3786 JUMP JUMPDEST POP POP PUSH1 0x0 SWAP2 ADD MSTORE JUMP JUMPDEST PUSH1 0x0 DUP2 MLOAD DUP1 DUP5 MSTORE PUSH2 0x37BF DUP2 PUSH1 0x20 DUP7 ADD PUSH1 0x20 DUP7 ADD PUSH2 0x3783 JUMP JUMPDEST PUSH1 0x1F ADD PUSH1 0x1F NOT AND SWAP3 SWAP1 SWAP3 ADD PUSH1 0x20 ADD SWAP3 SWAP2 POP POP JUMP JUMPDEST PUSH1 0x20 DUP2 MSTORE PUSH1 0x0 PUSH2 0x20DD PUSH1 0x20 DUP4 ADD DUP5 PUSH2 0x37A7 JUMP JUMPDEST PUSH4 0x4E487B71 PUSH1 0xE0 SHL PUSH1 0x0 MSTORE PUSH1 0x41 PUSH1 0x4 MSTORE PUSH1 0x24 PUSH1 0x0 REVERT JUMPDEST PUSH1 0x40 MLOAD PUSH1 0x1F DUP3 ADD PUSH1 0x1F NOT AND DUP2 ADD PUSH8 0xFFFFFFFFFFFFFFFF DUP2 GT DUP3 DUP3 LT OR ISZERO PUSH2 0x3825 JUMPI PUSH2 0x3825 PUSH2 0x37E6 JUMP JUMPDEST PUSH1 0x40 MSTORE SWAP2 SWAP1 POP JUMP JUMPDEST PUSH1 0x0 PUSH8 0xFFFFFFFFFFFFFFFF DUP3 GT ISZERO PUSH2 0x3847 JUMPI PUSH2 0x3847 PUSH2 0x37E6 JUMP JUMPDEST POP PUSH1 0x1F ADD PUSH1 0x1F NOT AND PUSH1 0x20 ADD SWAP1 JUMP JUMPDEST PUSH1 0x0 PUSH2 0x3868 PUSH2 0x3863 DUP5 PUSH2 0x382D JUMP JUMPDEST PUSH2 0x37FC JUMP JUMPDEST SWAP1 POP DUP3 DUP2 MSTORE DUP4 DUP4 DUP4 ADD GT ISZERO PUSH2 0x387C JUMPI PUSH1 0x0 DUP1 REVERT JUMPDEST DUP3 DUP3 PUSH1 0x20 DUP4 ADD CALLDATACOPY PUSH1 0x0 PUSH1 0x20 DUP5 DUP4 ADD ADD MSTORE SWAP4 SWAP3 POP POP POP JUMP JUMPDEST PUSH1 0x0 DUP3 PUSH1 0x1F DUP4 ADD SLT PUSH2 0x38A4 JUMPI PUSH1 0x0 DUP1 REVERT JUMPDEST PUSH2 0x20DD DUP4 DUP4 CALLDATALOAD PUSH1 0x20 DUP6 ADD PUSH2 0x3855 JUMP JUMPDEST PUSH1 0x0 PUSH1 0x20 DUP3 DUP5 SUB SLT ISZERO PUSH2 0x38C5 JUMPI PUSH1 0x0 DUP1 REVERT JUMPDEST DUP2 CALLDATALOAD PUSH8 0xFFFFFFFFFFFFFFFF DUP2 GT ISZERO PUSH2 0x38DC JUMPI PUSH1 0x0 DUP1 REVERT JUMPDEST PUSH2 0x3744 DUP5 DUP3 DUP6 ADD PUSH2 0x3893 JUMP JUMPDEST PUSH1 0x1 PUSH1 0x1 PUSH1 0xE0 SHL SUB NOT DUP2 AND DUP2 EQ PUSH2 0x38FE JUMPI PUSH1 0x0 DUP1 REVERT JUMPDEST POP JUMP JUMPDEST PUSH1 0x0 PUSH1 0x20 DUP3 DUP5 SUB SLT ISZERO PUSH2 0x3913 JUMPI PUSH1 0x0 DUP1 REVERT JUMPDEST DUP2 CALLDATALOAD PUSH2 0x20DD DUP2 PUSH2 0x38E8 JUMP JUMPDEST PUSH1 0x0 PUSH1 0x20 DUP3 DUP5 SUB SLT ISZERO PUSH2 0x3930 JUMPI PUSH1 0x0 DUP1 REVERT JUMPDEST POP CALLDATALOAD SWAP2 SWAP1 POP JUMP JUMPDEST PUSH1 0x0 DUP1 PUSH1 0x40 DUP4 DUP6 SUB SLT ISZERO PUSH2 0x394A JUMPI PUSH1 0x0 DUP1 REVERT JUMPDEST PUSH2 0x3953 DUP4 PUSH2 0x374C JUMP JUMPDEST SWAP5 PUSH1 0x20 SWAP4 SWAP1 SWAP4 ADD CALLDATALOAD SWAP4 POP POP POP JUMP JUMPDEST PUSH1 0x20 DUP2 MSTORE DUP2 MLOAD PUSH1 0x20 DUP3 ADD MSTORE PUSH1 0x1 PUSH1 0x1 PUSH1 0xA0 SHL SUB PUSH1 0x20 DUP4 ADD MLOAD AND PUSH1 0x40 DUP3 ADD MSTORE PUSH1 0x0 PUSH1 0x40 DUP4 ADD MLOAD PUSH1 0x80 PUSH1 0x60 DUP5 ADD MSTORE PUSH2 0x399A PUSH1 0xA0 DUP5 ADD DUP3 PUSH2 0x37A7 JUMP JUMPDEST SWAP1 POP PUSH1 0x60 DUP5 ADD MLOAD PUSH1 0x1F NOT DUP5 DUP4 SUB ADD PUSH1 0x80 DUP6 ADD MSTORE PUSH2 0x39B7 DUP3 DUP3 PUSH2 0x37A7 JUMP JUMPDEST SWAP6 SWAP5 POP POP POP POP POP JUMP JUMPDEST PUSH1 0x0 DUP1 PUSH1 0x0 PUSH1 0x60 DUP5 DUP7 SUB SLT ISZERO PUSH2 0x39D5 JUMPI PUSH1 0x0 DUP1 REVERT JUMPDEST PUSH2 0x39DE DUP5 PUSH2 0x374C JUMP JUMPDEST SWAP3 POP PUSH2 0x39EC PUSH1 0x20 DUP6 ADD PUSH2 0x374C JUMP JUMPDEST SWAP2 POP PUSH1 0x40 DUP5 ADD CALLDATALOAD SWAP1 POP SWAP3 POP SWAP3 POP SWAP3 JUMP JUMPDEST PUSH1 0x0 DUP1 PUSH1 0x40 DUP4 DUP6 SUB SLT ISZERO PUSH2 0x3A0F JUMPI PUSH1 0x0 DUP1 REVERT JUMPDEST DUP3 CALLDATALOAD SWAP2 POP PUSH2 0x3A1F PUSH1 0x20 DUP5 ADD PUSH2 0x374C JUMP JUMPDEST SWAP1 POP SWAP3 POP SWAP3 SWAP1 POP JUMP JUMPDEST PUSH1 0x0 DUP1 PUSH1 0x40 DUP4 DUP6 SUB SLT ISZERO PUSH2 0x3A3B JUMPI PUSH1 0x0 DUP1 REVERT JUMPDEST PUSH2 0x3A44 DUP4 PUSH2 0x374C JUMP JUMPDEST SWAP2 POP PUSH2 0x3A1F PUSH1 0x20 DUP5 ADD PUSH2 0x374C JUMP JUMPDEST PUSH1 0x0 DUP1 PUSH1 0x40 DUP4 DUP6 SUB SLT ISZERO PUSH2 0x3A65 JUMPI PUSH1 0x0 DUP1 REVERT JUMPDEST PUSH2 0x3A6E DUP4 PUSH2 0x374C JUMP JUMPDEST SWAP2 POP PUSH1 0x20 DUP1 DUP5 ADD CALLDATALOAD PUSH8 0xFFFFFFFFFFFFFFFF DUP1 DUP3 GT ISZERO PUSH2 0x3A8C JUMPI PUSH1 0x0 DUP1 REVERT JUMPDEST DUP2 DUP7 ADD SWAP2 POP DUP7 PUSH1 0x1F DUP4 ADD SLT PUSH2 0x3AA0 JUMPI PUSH1 0x0 DUP1 REVERT JUMPDEST DUP2 CALLDATALOAD DUP2 DUP2 GT ISZERO PUSH2 0x3AB2 JUMPI PUSH2 0x3AB2 PUSH2 0x37E6 JUMP JUMPDEST DUP1 PUSH1 0x5 SHL SWAP2 POP PUSH2 0x3AC3 DUP5 DUP4 ADD PUSH2 0x37FC JUMP JUMPDEST DUP2 DUP2 MSTORE SWAP2 DUP4 ADD DUP5 ADD SWAP2 DUP5 DUP2 ADD SWAP1 DUP10 DUP5 GT ISZERO PUSH2 0x3ADD JUMPI PUSH1 0x0 DUP1 REVERT JUMPDEST SWAP4 DUP6 ADD SWAP4 JUMPDEST DUP4 DUP6 LT ISZERO PUSH2 0x3AFB JUMPI DUP5 CALLDATALOAD DUP3 MSTORE SWAP4 DUP6 ADD SWAP4 SWAP1 DUP6 ADD SWAP1 PUSH2 0x3AE2 JUMP JUMPDEST DUP1 SWAP7 POP POP POP POP POP POP POP SWAP3 POP SWAP3 SWAP1 POP JUMP JUMPDEST DUP1 ISZERO ISZERO DUP2 EQ PUSH2 0x38FE JUMPI PUSH1 0x0 DUP1 REVERT JUMPDEST PUSH1 0x0 DUP1 PUSH1 0x40 DUP4 DUP6 SUB SLT ISZERO PUSH2 0x3B2C JUMPI PUSH1 0x0 DUP1 REVERT JUMPDEST PUSH2 0x3B35 DUP4 PUSH2 0x374C JUMP JUMPDEST SWAP2 POP PUSH1 0x20 DUP4 ADD CALLDATALOAD PUSH2 0x3B45 DUP2 PUSH2 0x3B0B JUMP JUMPDEST DUP1 SWAP2 POP POP SWAP3 POP SWAP3 SWAP1 POP JUMP JUMPDEST PUSH1 0x0 DUP1 PUSH1 0x0 DUP1 PUSH1 0x80 DUP6 DUP8 SUB SLT ISZERO PUSH2 0x3B66 JUMPI PUSH1 0x0 DUP1 REVERT JUMPDEST PUSH2 0x3B6F DUP6 PUSH2 0x374C JUMP JUMPDEST SWAP4 POP PUSH2 0x3B7D PUSH1 0x20 DUP7 ADD PUSH2 0x374C JUMP JUMPDEST SWAP3 POP PUSH1 0x40 DUP6 ADD CALLDATALOAD SWAP2 POP PUSH1 0x60 DUP6 ADD CALLDATALOAD PUSH8 0xFFFFFFFFFFFFFFFF DUP2 GT ISZERO PUSH2 0x3BA0 JUMPI PUSH1 0x0 DUP1 REVERT JUMPDEST DUP6 ADD PUSH1 0x1F DUP2 ADD DUP8 SGT PUSH2 0x3BB1 JUMPI PUSH1 0x0 DUP1 REVERT JUMPDEST PUSH2 0x3BC0 DUP8 DUP3 CALLDATALOAD PUSH1 0x20 DUP5 ADD PUSH2 0x3855 JUMP JUMPDEST SWAP2 POP POP SWAP3 SWAP6 SWAP2 SWAP5 POP SWAP3 POP JUMP JUMPDEST DUP5 DUP2 MSTORE PUSH1 0x1 PUSH1 0x1 PUSH1 0xA0 SHL SUB DUP5 AND PUSH1 0x20 DUP3 ADD MSTORE PUSH1 0x80 PUSH1 0x40 DUP3 ADD MSTORE PUSH1 0x0 PUSH2 0x3BF4 PUSH1 0x80 DUP4 ADD DUP6 PUSH2 0x37A7 JUMP JUMPDEST DUP3 DUP2 SUB PUSH1 0x60 DUP5 ADD MSTORE PUSH2 0x3C06 DUP2 DUP6 PUSH2 0x37A7 JUMP JUMPDEST SWAP8 SWAP7 POP POP POP POP POP POP POP JUMP JUMPDEST PUSH1 0x0 DUP1 PUSH1 0x40 DUP4 DUP6 SUB SLT ISZERO PUSH2 0x3C24 JUMPI PUSH1 0x0 DUP1 REVERT JUMPDEST PUSH2 0x3C2D DUP4 PUSH2 0x374C JUMP JUMPDEST SWAP2 POP PUSH1 0x20 DUP4 ADD CALLDATALOAD PUSH8 0xFFFFFFFFFFFFFFFF DUP2 GT ISZERO PUSH2 0x3C49 JUMPI PUSH1 0x0 DUP1 REVERT JUMPDEST PUSH2 0x3C55 DUP6 DUP3 DUP7 ADD PUSH2 0x3893 JUMP JUMPDEST SWAP2 POP POP SWAP3 POP SWAP3 SWAP1 POP JUMP JUMPDEST PUSH1 0x1 DUP2 DUP2 SHR SWAP1 DUP3 AND DUP1 PUSH2 0x3C73 JUMPI PUSH1 0x7F DUP3 AND SWAP2 POP JUMPDEST PUSH1 0x20 DUP3 LT DUP2 SUB PUSH2 0xD1D JUMPI PUSH4 0x4E487B71 PUSH1 0xE0 SHL PUSH1 0x0 MSTORE PUSH1 0x22 PUSH1 0x4 MSTORE PUSH1 0x24 PUSH1 0x0 REVERT JUMPDEST PUSH1 0x1F DUP3 GT ISZERO PUSH2 0x15D2 JUMPI PUSH1 0x0 DUP2 PUSH1 0x0 MSTORE PUSH1 0x20 PUSH1 0x0 KECCAK256 PUSH1 0x1F DUP6 ADD PUSH1 0x5 SHR DUP2 ADD PUSH1 0x20 DUP7 LT ISZERO PUSH2 0x3CBC JUMPI POP DUP1 JUMPDEST PUSH1 0x1F DUP6 ADD PUSH1 0x5 SHR DUP3 ADD SWAP2 POP JUMPDEST DUP2 DUP2 LT ISZERO PUSH2 0x3CDB JUMPI DUP3 DUP2 SSTORE PUSH1 0x1 ADD PUSH2 0x3CC8 JUMP JUMPDEST POP POP POP POP POP POP JUMP JUMPDEST DUP2 MLOAD PUSH8 0xFFFFFFFFFFFFFFFF DUP2 GT ISZERO PUSH2 0x3CFD JUMPI PUSH2 0x3CFD PUSH2 0x37E6 JUMP JUMPDEST PUSH2 0x3D11 DUP2 PUSH2 0x3D0B DUP5 SLOAD PUSH2 0x3C5F JUMP JUMPDEST DUP5 PUSH2 0x3C93 JUMP JUMPDEST PUSH1 0x20 DUP1 PUSH1 0x1F DUP4 GT PUSH1 0x1 DUP2 EQ PUSH2 0x3D46 JUMPI PUSH1 0x0 DUP5 ISZERO PUSH2 0x3D2E JUMPI POP DUP6 DUP4 ADD MLOAD JUMPDEST PUSH1 0x0 NOT PUSH1 0x3 DUP7 SWAP1 SHL SHR NOT AND PUSH1 0x1 DUP6 SWAP1 SHL OR DUP6 SSTORE PUSH2 0x3CDB JUMP JUMPDEST PUSH1 0x0 DUP6 DUP2 MSTORE PUSH1 0x20 DUP2 KECCAK256 PUSH1 0x1F NOT DUP7 AND SWAP2 JUMPDEST DUP3 DUP2 LT ISZERO PUSH2 0x3D75 JUMPI DUP9 DUP7 ADD MLOAD DUP3 SSTORE SWAP5 DUP5 ADD SWAP5 PUSH1 0x1 SWAP1 SWAP2 ADD SWAP1 DUP5 ADD PUSH2 0x3D56 JUMP JUMPDEST POP DUP6 DUP3 LT ISZERO PUSH2 0x3D93 JUMPI DUP8 DUP6 ADD MLOAD PUSH1 0x0 NOT PUSH1 0x3 DUP9 SWAP1 SHL PUSH1 0xF8 AND SHR NOT AND DUP2 SSTORE JUMPDEST POP POP POP POP POP PUSH1 0x1 SWAP1 DUP2 SHL ADD SWAP1 SSTORE POP JUMP JUMPDEST PUSH4 0x4E487B71 PUSH1 0xE0 SHL PUSH1 0x0 MSTORE PUSH1 0x11 PUSH1 0x4 MSTORE PUSH1 0x24 PUSH1 0x0 REVERT JUMPDEST PUSH1 0x0 PUSH1 0x1 DUP3 ADD PUSH2 0x3DCB JUMPI PUSH2 0x3DCB PUSH2 0x3DA3 JUMP JUMPDEST POP PUSH1 0x1 ADD SWAP1 JUMP JUMPDEST PUSH1 0x0 PUSH1 0x20 DUP3 DUP5 SUB SLT ISZERO PUSH2 0x3DE4 JUMPI PUSH1 0x0 DUP1 REVERT JUMPDEST POP MLOAD SWAP2 SWAP1 POP JUMP JUMPDEST PUSH1 0x0 PUSH1 0x20 DUP3 DUP5 SUB SLT ISZERO PUSH2 0x3DFD JUMPI PUSH1 0x0 DUP1 REVERT JUMPDEST DUP2 MLOAD PUSH2 0x20DD DUP2 PUSH2 0x3B0B JUMP JUMPDEST DUP1 DUP3 ADD DUP1 DUP3 GT ISZERO PUSH2 0x9F5 JUMPI PUSH2 0x9F5 PUSH2 0x3DA3 JUMP JUMPDEST PUSH4 0x4E487B71 PUSH1 0xE0 SHL PUSH1 0x0 MSTORE PUSH1 0x32 PUSH1 0x4 MSTORE PUSH1 0x24 PUSH1 0x0 REVERT JUMPDEST PUSH1 0x0 DUP4 MLOAD PUSH2 0x3E43 DUP2 DUP5 PUSH1 0x20 DUP9 ADD PUSH2 0x3783 JUMP JUMPDEST DUP4 MLOAD SWAP1 DUP4 ADD SWAP1 PUSH2 0x3E57 DUP2 DUP4 PUSH1 0x20 DUP9 ADD PUSH2 0x3783 JUMP JUMPDEST ADD SWAP5 SWAP4 POP POP POP POP JUMP JUMPDEST PUSH1 0x0 DUP3 MLOAD PUSH2 0x3E72 DUP2 DUP5 PUSH1 0x20 DUP8 ADD PUSH2 0x3783 JUMP JUMPDEST SWAP2 SWAP1 SWAP2 ADD SWAP3 SWAP2 POP POP JUMP JUMPDEST PUSH1 0x0 PUSH1 0x20 DUP3 DUP5 SUB SLT ISZERO PUSH2 0x3E8E JUMPI PUSH1 0x0 DUP1 REVERT JUMPDEST DUP2 MLOAD PUSH1 0xFF DUP2 AND DUP2 EQ PUSH2 0x20DD JUMPI PUSH1 0x0 DUP1 REVERT JUMPDEST PUSH1 0x0 PUSH1 0x20 DUP3 DUP5 SUB SLT ISZERO PUSH2 0x3EB1 JUMPI PUSH1 0x0 DUP1 REVERT JUMPDEST DUP2 MLOAD PUSH8 0xFFFFFFFFFFFFFFFF DUP2 GT ISZERO PUSH2 0x3EC8 JUMPI PUSH1 0x0 DUP1 REVERT JUMPDEST DUP3 ADD PUSH1 0x1F DUP2 ADD DUP5 SGT PUSH2 0x3ED9 JUMPI PUSH1 0x0 DUP1 REVERT JUMPDEST DUP1 MLOAD PUSH2 0x3EE7 PUSH2 0x3863 DUP3 PUSH2 0x382D JUMP JUMPDEST DUP2 DUP2 MSTORE DUP6 PUSH1 0x20 DUP4 DUP6 ADD ADD GT ISZERO PUSH2 0x3EFC JUMPI PUSH1 0x0 DUP1 REVERT JUMPDEST PUSH2 0x39B7 DUP3 PUSH1 0x20 DUP4 ADD PUSH1 0x20 DUP7 ADD PUSH2 0x3783 JUMP JUMPDEST PUSH1 0x0 PUSH1 0x1 PUSH1 0x1 PUSH1 0xA0 SHL SUB DUP1 DUP8 AND DUP4 MSTORE DUP1 DUP7 AND PUSH1 0x20 DUP5 ADD MSTORE POP DUP4 PUSH1 0x40 DUP4 ADD MSTORE PUSH1 0x80 PUSH1 0x60 DUP4 ADD MSTORE PUSH2 0x3F3F PUSH1 0x80 DUP4 ADD DUP5 PUSH2 0x37A7 JUMP JUMPDEST SWAP7 SWAP6 POP POP POP POP POP POP JUMP JUMPDEST PUSH1 0x0 PUSH1 0x20 DUP3 DUP5 SUB SLT ISZERO PUSH2 0x3F5B JUMPI PUSH1 0x0 DUP1 REVERT JUMPDEST DUP2 MLOAD PUSH2 0x20DD DUP2 PUSH2 0x38E8 JUMP INVALID LOG2 PUSH5 0x6970667358 0x22 SLT KECCAK256 PUSH31 0x93A59654A54009861F7112AD016C6F38BB1B5D3B5884115F063AA91D1C692D PUSH5 0x736F6C6343 STOP ADDMOD XOR STOP CALLER 0x4F PUSH15 0x6C79204F776E657220526F6C65204D PUSH2 0x7920 GASLIMIT PUSH25 0x65637574652054686973000000000000000000000000000000 "},"methodIdentifiers":{"addToPersonalBlockList(address)":"b08a778c","addToPersonalFollowList(address)":"7c622fd9","approve(address,uint256)":"095ea7b3","balanceOf(address)":"70a08231","banMod(address,uint256[])":"84108c76","blacklistUser(address)":"fcbca456","channelBan(address,uint256)":"604a427e","channelBans(uint256,address)":"28a12642","channelExistsForToken(address)":"cb661f39","channelUnban(address,uint256)":"b64afe05","channels(uint256)":"e5949b5d","createChannel(address,string)":"f2f06bcb","getApproved(uint256)":"081812fc","getChannel(uint256)":"10df54a0","hasJoinedChannel(uint256,address)":"83445232","isApprovedForAll(address,address)":"e985e9c5","isBlackListed(address)":"e47d6060","isMember(address)":"a230c524","isSubscriptionActive(address)":"14401329","joinChannel(uint256)":"2819cc0c","leaveChannel(uint256)":"a900a08a","mint()":"1249c58b","mods(uint256)":"c00af42c","monthDuration()":"08cad1bf","name()":"06fdde03","owner()":"8da5cb5b","ownerOf(uint256)":"6352211e","personalBlockList(address,address)":"2d01936a","personalFollowList(address,address)":"2d6d761d","premiumMembershipExpiry(address)":"bf59a6c8","profilePic(address)":"0090d356","promoPeriod()":"0d9551da","purchaseMonthlySubscription()":"1b3d7e1c","removeFromPersonalBlockList(address)":"334d4de4","removeFromPersonalFollowList(address)":"e638dfc2","safeTransferFrom(address,address,uint256)":"42842e0e","safeTransferFrom(address,address,uint256,bytes)":"b88d4fde","setApprovalForAll(address,bool)":"a22cb465","setProfilePic(string)":"011f2cce","setSubscriptionCurrency(address)":"ed01fbd7","setSubscriptionPriceMonthly(uint256)":"2183525d","setUsername(string)":"ed59313a","subscriptionCurrency()":"c70854ac","subscriptionPriceMonthly()":"3a17916b","supportsInterface(bytes4)":"01ffc9a7","symbol()":"95d89b41","togglePromoPeriod()":"ec08ad76","tokenURI(uint256)":"c87b56dd","totalChannels()":"7734a9f6","totalSupply()":"18160ddd","transferFrom(address,address,uint256)":"23b872dd","transferMod(address,uint256)":"e04794b6","transferOwner(address)":"4fb2e45d","unBlacklistUser(address)":"ec4ceae9","username(address)":"0610a7a2","withdraw()":"3ccfd60b"}}}}}