{
  "_format": "hh-sol-artifact-1",
  "contractName": "AlphaPING",
  "sourceName": "contracts/AlphaPING.sol",
  "abi": [
    {
      "inputs": [
        {
          "internalType": "string",
          "name": "_name",
          "type": "string"
        },
        {
          "internalType": "string",
          "name": "_symbol",
          "type": "string"
        }
      ],
      "stateMutability": "nonpayable",
      "type": "constructor"
    },
    {
      "inputs": [
        {
          "internalType": "address",
          "name": "sender",
          "type": "address"
        },
        {
          "internalType": "uint256",
          "name": "tokenId",
          "type": "uint256"
        },
        {
          "internalType": "address",
          "name": "owner",
          "type": "address"
        }
      ],
      "name": "ERC721IncorrectOwner",
      "type": "error"
    },
    {
      "inputs": [
        {
          "internalType": "address",
          "name": "operator",
          "type": "address"
        },
        {
          "internalType": "uint256",
          "name": "tokenId",
          "type": "uint256"
        }
      ],
      "name": "ERC721InsufficientApproval",
      "type": "error"
    },
    {
      "inputs": [
        {
          "internalType": "address",
          "name": "approver",
          "type": "address"
        }
      ],
      "name": "ERC721InvalidApprover",
      "type": "error"
    },
    {
      "inputs": [
        {
          "internalType": "address",
          "name": "operator",
          "type": "address"
        }
      ],
      "name": "ERC721InvalidOperator",
      "type": "error"
    },
    {
      "inputs": [
        {
          "internalType": "address",
          "name": "owner",
          "type": "address"
        }
      ],
      "name": "ERC721InvalidOwner",
      "type": "error"
    },
    {
      "inputs": [
        {
          "internalType": "address",
          "name": "receiver",
          "type": "address"
        }
      ],
      "name": "ERC721InvalidReceiver",
      "type": "error"
    },
    {
      "inputs": [
        {
          "internalType": "address",
          "name": "sender",
          "type": "address"
        }
      ],
      "name": "ERC721InvalidSender",
      "type": "error"
    },
    {
      "inputs": [
        {
          "internalType": "uint256",
          "name": "tokenId",
          "type": "uint256"
        }
      ],
      "name": "ERC721NonexistentToken",
      "type": "error"
    },
    {
      "anonymous": false,
      "inputs": [
        {
          "indexed": true,
          "internalType": "address",
          "name": "owner",
          "type": "address"
        },
        {
          "indexed": true,
          "internalType": "address",
          "name": "approved",
          "type": "address"
        },
        {
          "indexed": true,
          "internalType": "uint256",
          "name": "tokenId",
          "type": "uint256"
        }
      ],
      "name": "Approval",
      "type": "event"
    },
    {
      "anonymous": false,
      "inputs": [
        {
          "indexed": true,
          "internalType": "address",
          "name": "owner",
          "type": "address"
        },
        {
          "indexed": true,
          "internalType": "address",
          "name": "operator",
          "type": "address"
        },
        {
          "indexed": false,
          "internalType": "bool",
          "name": "approved",
          "type": "bool"
        }
      ],
      "name": "ApprovalForAll",
      "type": "event"
    },
    {
      "anonymous": false,
      "inputs": [
        {
          "indexed": true,
          "internalType": "address",
          "name": "from",
          "type": "address"
        },
        {
          "indexed": true,
          "internalType": "address",
          "name": "to",
          "type": "address"
        },
        {
          "indexed": true,
          "internalType": "uint256",
          "name": "tokenId",
          "type": "uint256"
        }
      ],
      "name": "Transfer",
      "type": "event"
    },
    {
      "inputs": [
        {
          "internalType": "address",
          "name": "to",
          "type": "address"
        },
        {
          "internalType": "uint256",
          "name": "tokenId",
          "type": "uint256"
        }
      ],
      "name": "approve",
      "outputs": [],
      "stateMutability": "nonpayable",
      "type": "function"
    },
    {
      "inputs": [
        {
          "internalType": "address",
          "name": "owner",
          "type": "address"
        }
      ],
      "name": "balanceOf",
      "outputs": [
        {
          "internalType": "uint256",
          "name": "",
          "type": "uint256"
        }
      ],
      "stateMutability": "view",
      "type": "function"
    },
    {
      "inputs": [
        {
          "internalType": "address",
          "name": "_bannedMod",
          "type": "address"
        },
        {
          "internalType": "uint256",
          "name": "_channelId",
          "type": "uint256"
        }
      ],
      "name": "banMod",
      "outputs": [],
      "stateMutability": "nonpayable",
      "type": "function"
    },
    {
      "inputs": [
        {
          "internalType": "address",
          "name": "_blacklistedUser",
          "type": "address"
        }
      ],
      "name": "blacklistUser",
      "outputs": [],
      "stateMutability": "nonpayable",
      "type": "function"
    },
    {
      "inputs": [
        {
          "internalType": "address",
          "name": "_bannedAccount",
          "type": "address"
        },
        {
          "internalType": "uint256",
          "name": "_channelId",
          "type": "uint256"
        }
      ],
      "name": "channelBan",
      "outputs": [],
      "stateMutability": "nonpayable",
      "type": "function"
    },
    {
      "inputs": [
        {
          "internalType": "uint256",
          "name": "",
          "type": "uint256"
        },
        {
          "internalType": "address",
          "name": "",
          "type": "address"
        }
      ],
      "name": "channelBans",
      "outputs": [
        {
          "internalType": "bool",
          "name": "",
          "type": "bool"
        }
      ],
      "stateMutability": "view",
      "type": "function"
    },
    {
      "inputs": [
        {
          "internalType": "address",
          "name": "",
          "type": "address"
        }
      ],
      "name": "channelExistsForToken",
      "outputs": [
        {
          "internalType": "bool",
          "name": "",
          "type": "bool"
        }
      ],
      "stateMutability": "view",
      "type": "function"
    },
    {
      "inputs": [
        {
          "internalType": "address",
          "name": "_bannedAccount",
          "type": "address"
        },
        {
          "internalType": "uint256",
          "name": "_channelId",
          "type": "uint256"
        }
      ],
      "name": "channelUnban",
      "outputs": [],
      "stateMutability": "nonpayable",
      "type": "function"
    },
    {
      "inputs": [
        {
          "internalType": "uint256",
          "name": "",
          "type": "uint256"
        }
      ],
      "name": "channels",
      "outputs": [
        {
          "internalType": "uint256",
          "name": "id",
          "type": "uint256"
        },
        {
          "internalType": "address",
          "name": "tokenAdress",
          "type": "address"
        },
        {
          "internalType": "string",
          "name": "name",
          "type": "string"
        },
        {
          "internalType": "string",
          "name": "tokenType",
          "type": "string"
        }
      ],
      "stateMutability": "view",
      "type": "function"
    },
    {
      "inputs": [
        {
          "internalType": "address",
          "name": "_tokenAddress",
          "type": "address"
        },
        {
          "internalType": "string",
          "name": "_tokenType",
          "type": "string"
        }
      ],
      "name": "createChannel",
      "outputs": [],
      "stateMutability": "nonpayable",
      "type": "function"
    },
    {
      "inputs": [
        {
          "internalType": "uint256",
          "name": "tokenId",
          "type": "uint256"
        }
      ],
      "name": "getApproved",
      "outputs": [
        {
          "internalType": "address",
          "name": "",
          "type": "address"
        }
      ],
      "stateMutability": "view",
      "type": "function"
    },
    {
      "inputs": [
        {
          "internalType": "uint256",
          "name": "_channelId",
          "type": "uint256"
        }
      ],
      "name": "getChannel",
      "outputs": [
        {
          "components": [
            {
              "internalType": "uint256",
              "name": "id",
              "type": "uint256"
            },
            {
              "internalType": "address",
              "name": "tokenAdress",
              "type": "address"
            },
            {
              "internalType": "string",
              "name": "name",
              "type": "string"
            },
            {
              "internalType": "string",
              "name": "tokenType",
              "type": "string"
            }
          ],
          "internalType": "struct AlphaPING.Channel",
          "name": "",
          "type": "tuple"
        }
      ],
      "stateMutability": "view",
      "type": "function"
    },
    {
      "inputs": [
        {
          "internalType": "uint256",
          "name": "",
          "type": "uint256"
        },
        {
          "internalType": "address",
          "name": "",
          "type": "address"
        }
      ],
      "name": "hasJoinedChannel",
      "outputs": [
        {
          "internalType": "bool",
          "name": "",
          "type": "bool"
        }
      ],
      "stateMutability": "view",
      "type": "function"
    },
    {
      "inputs": [
        {
          "internalType": "address",
          "name": "owner",
          "type": "address"
        },
        {
          "internalType": "address",
          "name": "operator",
          "type": "address"
        }
      ],
      "name": "isApprovedForAll",
      "outputs": [
        {
          "internalType": "bool",
          "name": "",
          "type": "bool"
        }
      ],
      "stateMutability": "view",
      "type": "function"
    },
    {
      "inputs": [
        {
          "internalType": "address",
          "name": "",
          "type": "address"
        }
      ],
      "name": "isBlackListed",
      "outputs": [
        {
          "internalType": "bool",
          "name": "",
          "type": "bool"
        }
      ],
      "stateMutability": "view",
      "type": "function"
    },
    {
      "inputs": [
        {
          "internalType": "address",
          "name": "",
          "type": "address"
        }
      ],
      "name": "isMember",
      "outputs": [
        {
          "internalType": "bool",
          "name": "",
          "type": "bool"
        }
      ],
      "stateMutability": "view",
      "type": "function"
    },
    {
      "inputs": [
        {
          "internalType": "address",
          "name": "_subscriber",
          "type": "address"
        }
      ],
      "name": "isSubscriptionActive",
      "outputs": [
        {
          "internalType": "bool",
          "name": "",
          "type": "bool"
        }
      ],
      "stateMutability": "view",
      "type": "function"
    },
    {
      "inputs": [
        {
          "internalType": "uint256",
          "name": "_channelId",
          "type": "uint256"
        }
      ],
      "name": "joinChannel",
      "outputs": [],
      "stateMutability": "nonpayable",
      "type": "function"
    },
    {
      "inputs": [
        {
          "internalType": "uint256",
          "name": "_channelId",
          "type": "uint256"
        }
      ],
      "name": "leaveChannel",
      "outputs": [],
      "stateMutability": "nonpayable",
      "type": "function"
    },
    {
      "inputs": [],
      "name": "mint",
      "outputs": [],
      "stateMutability": "nonpayable",
      "type": "function"
    },
    {
      "inputs": [
        {
          "internalType": "uint256",
          "name": "",
          "type": "uint256"
        }
      ],
      "name": "mods",
      "outputs": [
        {
          "internalType": "address",
          "name": "",
          "type": "address"
        }
      ],
      "stateMutability": "view",
      "type": "function"
    },
    {
      "inputs": [],
      "name": "monthDuration",
      "outputs": [
        {
          "internalType": "uint256",
          "name": "",
          "type": "uint256"
        }
      ],
      "stateMutability": "view",
      "type": "function"
    },
    {
      "inputs": [],
      "name": "name",
      "outputs": [
        {
          "internalType": "string",
          "name": "",
          "type": "string"
        }
      ],
      "stateMutability": "view",
      "type": "function"
    },
    {
      "inputs": [],
      "name": "owner",
      "outputs": [
        {
          "internalType": "address",
          "name": "",
          "type": "address"
        }
      ],
      "stateMutability": "view",
      "type": "function"
    },
    {
      "inputs": [
        {
          "internalType": "uint256",
          "name": "tokenId",
          "type": "uint256"
        }
      ],
      "name": "ownerOf",
      "outputs": [
        {
          "internalType": "address",
          "name": "",
          "type": "address"
        }
      ],
      "stateMutability": "view",
      "type": "function"
    },
    {
      "inputs": [
        {
          "internalType": "address",
          "name": "",
          "type": "address"
        }
      ],
      "name": "premiumMembershipExpiry",
      "outputs": [
        {
          "internalType": "uint256",
          "name": "",
          "type": "uint256"
        }
      ],
      "stateMutability": "view",
      "type": "function"
    },
    {
      "inputs": [],
      "name": "promoPeriod",
      "outputs": [
        {
          "internalType": "bool",
          "name": "",
          "type": "bool"
        }
      ],
      "stateMutability": "view",
      "type": "function"
    },
    {
      "inputs": [],
      "name": "purchaseMonthlySubscription",
      "outputs": [],
      "stateMutability": "payable",
      "type": "function"
    },
    {
      "inputs": [
        {
          "internalType": "address",
          "name": "from",
          "type": "address"
        },
        {
          "internalType": "address",
          "name": "to",
          "type": "address"
        },
        {
          "internalType": "uint256",
          "name": "tokenId",
          "type": "uint256"
        }
      ],
      "name": "safeTransferFrom",
      "outputs": [],
      "stateMutability": "nonpayable",
      "type": "function"
    },
    {
      "inputs": [
        {
          "internalType": "address",
          "name": "from",
          "type": "address"
        },
        {
          "internalType": "address",
          "name": "to",
          "type": "address"
        },
        {
          "internalType": "uint256",
          "name": "tokenId",
          "type": "uint256"
        },
        {
          "internalType": "bytes",
          "name": "data",
          "type": "bytes"
        }
      ],
      "name": "safeTransferFrom",
      "outputs": [],
      "stateMutability": "nonpayable",
      "type": "function"
    },
    {
      "inputs": [
        {
          "internalType": "address",
          "name": "operator",
          "type": "address"
        },
        {
          "internalType": "bool",
          "name": "approved",
          "type": "bool"
        }
      ],
      "name": "setApprovalForAll",
      "outputs": [],
      "stateMutability": "nonpayable",
      "type": "function"
    },
    {
      "inputs": [
        {
          "internalType": "uint256",
          "name": "_newSubscriptionPrice",
          "type": "uint256"
        }
      ],
      "name": "setSubscriptionPriceMonthly",
      "outputs": [],
      "stateMutability": "nonpayable",
      "type": "function"
    },
    {
      "inputs": [],
      "name": "subscriptionPriceMonthly",
      "outputs": [
        {
          "internalType": "uint256",
          "name": "",
          "type": "uint256"
        }
      ],
      "stateMutability": "view",
      "type": "function"
    },
    {
      "inputs": [
        {
          "internalType": "bytes4",
          "name": "interfaceId",
          "type": "bytes4"
        }
      ],
      "name": "supportsInterface",
      "outputs": [
        {
          "internalType": "bool",
          "name": "",
          "type": "bool"
        }
      ],
      "stateMutability": "view",
      "type": "function"
    },
    {
      "inputs": [],
      "name": "symbol",
      "outputs": [
        {
          "internalType": "string",
          "name": "",
          "type": "string"
        }
      ],
      "stateMutability": "view",
      "type": "function"
    },
    {
      "inputs": [],
      "name": "togglePromoPeriod",
      "outputs": [],
      "stateMutability": "nonpayable",
      "type": "function"
    },
    {
      "inputs": [
        {
          "internalType": "uint256",
          "name": "tokenId",
          "type": "uint256"
        }
      ],
      "name": "tokenURI",
      "outputs": [
        {
          "internalType": "string",
          "name": "",
          "type": "string"
        }
      ],
      "stateMutability": "view",
      "type": "function"
    },
    {
      "inputs": [],
      "name": "totalChannels",
      "outputs": [
        {
          "internalType": "uint256",
          "name": "",
          "type": "uint256"
        }
      ],
      "stateMutability": "view",
      "type": "function"
    },
    {
      "inputs": [],
      "name": "totalSupply",
      "outputs": [
        {
          "internalType": "uint256",
          "name": "",
          "type": "uint256"
        }
      ],
      "stateMutability": "view",
      "type": "function"
    },
    {
      "inputs": [
        {
          "internalType": "address",
          "name": "from",
          "type": "address"
        },
        {
          "internalType": "address",
          "name": "to",
          "type": "address"
        },
        {
          "internalType": "uint256",
          "name": "tokenId",
          "type": "uint256"
        }
      ],
      "name": "transferFrom",
      "outputs": [],
      "stateMutability": "nonpayable",
      "type": "function"
    },
    {
      "inputs": [
        {
          "internalType": "address",
          "name": "_newMod",
          "type": "address"
        },
        {
          "internalType": "uint256",
          "name": "_channelId",
          "type": "uint256"
        }
      ],
      "name": "transferMod",
      "outputs": [],
      "stateMutability": "nonpayable",
      "type": "function"
    },
    {
      "inputs": [
        {
          "internalType": "address",
          "name": "_newOwner",
          "type": "address"
        }
      ],
      "name": "transferOwner",
      "outputs": [],
      "stateMutability": "nonpayable",
      "type": "function"
    },
    {
      "inputs": [
        {
          "internalType": "address",
          "name": "_blacklistedUser",
          "type": "address"
        }
      ],
      "name": "unBlacklistUser",
      "outputs": [],
      "stateMutability": "nonpayable",
      "type": "function"
    },
    {
      "inputs": [],
      "name": "withdraw",
      "outputs": [],
      "stateMutability": "nonpayable",
      "type": "function"
    }
  ],
  "bytecode": "0x60806040526001601060006101000a81548160ff02191690831515021790555062278d006012553480156200003357600080fd5b506040516200741538038062007415833981810160405281019062000059919062000e2e565b818181600090816200006c9190620010fe565b5080600190816200007e9190620010fe565b50505033600760006101000a81548173ffffffffffffffffffffffffffffffffffffffff021916908373ffffffffffffffffffffffffffffffffffffffff160217905550620000d2620000ee60201b60201c565b620000e6624c4b406200017660201b60201c565b505062001507565b60066000815480929190620001039062001214565b91905055506200011c336006546200021360201b60201c565b6001600d60003373ffffffffffffffffffffffffffffffffffffffff1673ffffffffffffffffffffffffffffffffffffffff16815260200190815260200160002060006101000a81548160ff021916908315150217905550565b600760009054906101000a900473ffffffffffffffffffffffffffffffffffffffff1673ffffffffffffffffffffffffffffffffffffffff163373ffffffffffffffffffffffffffffffffffffffff161462000209576040517f08c379a00000000000000000000000000000000000000000000000000000000081526004016200020090620012e8565b60405180910390fd5b8060138190555050565b620002358282604051806020016040528060008152506200023960201b60201c565b5050565b6200024b83836200026560201b60201c565b6200026060008484846200036c60201b60201c565b505050565b600073ffffffffffffffffffffffffffffffffffffffff168273ffffffffffffffffffffffffffffffffffffffff1603620002da5760006040517f64a0ae92000000000000000000000000000000000000000000000000000000008152600401620002d191906200134f565b60405180910390fd5b6000620002f0838360006200053a60201b60201c565b9050600073ffffffffffffffffffffffffffffffffffffffff168173ffffffffffffffffffffffffffffffffffffffff1614620003675760006040517f73c6ac6e0000000000000000000000000000000000000000000000000000000081526004016200035e91906200134f565b60405180910390fd5b505050565b60008373ffffffffffffffffffffffffffffffffffffffff163b111562000534578273ffffffffffffffffffffffffffffffffffffffff1663150b7a02620003b96200076f60201b60201c565b8685856040518563ffffffff1660e01b8152600401620003dd9493929190620013da565b6020604051808303816000875af19250505080156200041c57506040513d601f19601f820116820180604052508101906200041991906200148b565b60015b620004a6573d80600081146200044f576040519150601f19603f3d011682016040523d82523d6000602084013e62000454565b606091505b5060008151036200049e57836040517f64a0ae920000000000000000000000000000000000000000000000000000000081526004016200049591906200134f565b60405180910390fd5b805181602001fd5b63150b7a0260e01b7bffffffffffffffffffffffffffffffffffffffffffffffffffffffff1916817bffffffffffffffffffffffffffffffffffffffffffffffffffffffff1916146200053257836040517f64a0ae920000000000000000000000000000000000000000000000000000000081526004016200052991906200134f565b60405180910390fd5b505b50505050565b6000806200054e846200077760201b60201c565b9050600073ffffffffffffffffffffffffffffffffffffffff168373ffffffffffffffffffffffffffffffffffffffff1614620005995762000598818486620007b460201b60201c565b5b600073ffffffffffffffffffffffffffffffffffffffff168173ffffffffffffffffffffffffffffffffffffffff16146200063357620005e46000856000806200088660201b60201c565b6001600360008373ffffffffffffffffffffffffffffffffffffffff1673ffffffffffffffffffffffffffffffffffffffff168152602001908152602001600020600082825403925050819055505b600073ffffffffffffffffffffffffffffffffffffffff168573ffffffffffffffffffffffffffffffffffffffff1614620006b7576001600360008773ffffffffffffffffffffffffffffffffffffffff1673ffffffffffffffffffffffffffffffffffffffff168152602001908152602001600020600082825401925050819055505b846002600086815260200190815260200160002060006101000a81548173ffffffffffffffffffffffffffffffffffffffff021916908373ffffffffffffffffffffffffffffffffffffffff160217905550838573ffffffffffffffffffffffffffffffffffffffff168273ffffffffffffffffffffffffffffffffffffffff167fddf252ad1be2c89b69c2b068fc378daa952ba7f163c4a11628f55a4df523b3ef60405160405180910390a4809150509392505050565b600033905090565b60006002600083815260200190815260200160002060009054906101000a900473ffffffffffffffffffffffffffffffffffffffff169050919050565b620007c783838362000a6360201b60201c565b6200088157600073ffffffffffffffffffffffffffffffffffffffff168373ffffffffffffffffffffffffffffffffffffffff16036200084057806040517f7e273289000000000000000000000000000000000000000000000000000000008152600401620008379190620014bd565b60405180910390fd5b81816040517f177e802f00000000000000000000000000000000000000000000000000000000815260040162000878929190620014da565b60405180910390fd5b505050565b8080620008c05750600073ffffffffffffffffffffffffffffffffffffffff168273ffffffffffffffffffffffffffffffffffffffff1614155b1562000a0b576000620008d98462000b3760201b60201c565b9050600073ffffffffffffffffffffffffffffffffffffffff168373ffffffffffffffffffffffffffffffffffffffff16141580156200094557508273ffffffffffffffffffffffffffffffffffffffff168173ffffffffffffffffffffffffffffffffffffffff1614155b80156200096157506200095f818462000bca60201b60201c565b155b15620009a657826040517fa9fbf51f0000000000000000000000000000000000000000000000000000000081526004016200099d91906200134f565b60405180910390fd5b811562000a0957838573ffffffffffffffffffffffffffffffffffffffff168273ffffffffffffffffffffffffffffffffffffffff167f8c5be1e5ebec7d5bd14f71427d1e84f3dd0314c0f7b2291e5b200ac8c7c3b92560405160405180910390a45b505b836004600085815260200190815260200160002060006101000a81548173ffffffffffffffffffffffffffffffffffffffff021916908373ffffffffffffffffffffffffffffffffffffffff16021790555050505050565b60008073ffffffffffffffffffffffffffffffffffffffff168373ffffffffffffffffffffffffffffffffffffffff161415801562000b2e57508273ffffffffffffffffffffffffffffffffffffffff168473ffffffffffffffffffffffffffffffffffffffff16148062000ae6575062000ae5848462000bca60201b60201c565b5b8062000b2d57508273ffffffffffffffffffffffffffffffffffffffff1662000b158362000c5e60201b60201c565b73ffffffffffffffffffffffffffffffffffffffff16145b5b90509392505050565b60008062000b4b836200077760201b60201c565b9050600073ffffffffffffffffffffffffffffffffffffffff168173ffffffffffffffffffffffffffffffffffffffff160362000bc157826040517f7e27328900000000000000000000000000000000000000000000000000000000815260040162000bb89190620014bd565b60405180910390fd5b80915050919050565b6000600560008473ffffffffffffffffffffffffffffffffffffffff1673ffffffffffffffffffffffffffffffffffffffff16815260200190815260200160002060008373ffffffffffffffffffffffffffffffffffffffff1673ffffffffffffffffffffffffffffffffffffffff16815260200190815260200160002060009054906101000a900460ff16905092915050565b60006004600083815260200190815260200160002060009054906101000a900473ffffffffffffffffffffffffffffffffffffffff169050919050565b6000604051905090565b600080fd5b600080fd5b600080fd5b600080fd5b6000601f19601f8301169050919050565b7f4e487b7100000000000000000000000000000000000000000000000000000000600052604160045260246000fd5b62000d048262000cb9565b810181811067ffffffffffffffff8211171562000d265762000d2562000cca565b5b80604052505050565b600062000d3b62000c9b565b905062000d49828262000cf9565b919050565b600067ffffffffffffffff82111562000d6c5762000d6b62000cca565b5b62000d778262000cb9565b9050602081019050919050565b60005b8381101562000da457808201518184015260208101905062000d87565b60008484015250505050565b600062000dc762000dc18462000d4e565b62000d2f565b90508281526020810184848401111562000de65762000de562000cb4565b5b62000df384828562000d84565b509392505050565b600082601f83011262000e135762000e1262000caf565b5b815162000e2584826020860162000db0565b91505092915050565b6000806040838503121562000e485762000e4762000ca5565b5b600083015167ffffffffffffffff81111562000e695762000e6862000caa565b5b62000e778582860162000dfb565b925050602083015167ffffffffffffffff81111562000e9b5762000e9a62000caa565b5b62000ea98582860162000dfb565b9150509250929050565b600081519050919050565b7f4e487b7100000000000000000000000000000000000000000000000000000000600052602260045260246000fd5b6000600282049050600182168062000f0657607f821691505b60208210810362000f1c5762000f1b62000ebe565b5b50919050565b60008190508160005260206000209050919050565b60006020601f8301049050919050565b600082821b905092915050565b60006008830262000f867fffffffffffffffffffffffffffffffffffffffffffffffffffffffffffffffff8262000f47565b62000f92868362000f47565b95508019841693508086168417925050509392505050565b6000819050919050565b6000819050919050565b600062000fdf62000fd962000fd38462000faa565b62000fb4565b62000faa565b9050919050565b6000819050919050565b62000ffb8362000fbe565b620010136200100a8262000fe6565b84845462000f54565b825550505050565b600090565b6200102a6200101b565b6200103781848462000ff0565b505050565b5b818110156200105f576200105360008262001020565b6001810190506200103d565b5050565b601f821115620010ae57620010788162000f22565b620010838462000f37565b8101602085101562001093578190505b620010ab620010a28562000f37565b8301826200103c565b50505b505050565b600082821c905092915050565b6000620010d360001984600802620010b3565b1980831691505092915050565b6000620010ee8383620010c0565b9150826002028217905092915050565b620011098262000eb3565b67ffffffffffffffff81111562001125576200112462000cca565b5b62001131825462000eed565b6200113e82828562001063565b600060209050601f83116001811462001176576000841562001161578287015190505b6200116d8582620010e0565b865550620011dd565b601f198416620011868662000f22565b60005b82811015620011b05784890151825560018201915060208501945060208101905062001189565b86831015620011d05784890151620011cc601f891682620010c0565b8355505b6001600288020188555050505b505050505050565b7f4e487b7100000000000000000000000000000000000000000000000000000000600052601160045260246000fd5b6000620012218262000faa565b91507fffffffffffffffffffffffffffffffffffffffffffffffffffffffffffffffff8203620012565762001255620011e5565b5b600182019050919050565b600082825260208201905092915050565b7f4f6e6c79204f776e657220526f6c65204d61792045786563757465205468697360008201527f2046756e6374696f6e2100000000000000000000000000000000000000000000602082015250565b6000620012d0602a8362001261565b9150620012dd8262001272565b604082019050919050565b600060208201905081810360008301526200130381620012c1565b9050919050565b600073ffffffffffffffffffffffffffffffffffffffff82169050919050565b600062001337826200130a565b9050919050565b62001349816200132a565b82525050565b60006020820190506200136660008301846200133e565b92915050565b620013778162000faa565b82525050565b600081519050919050565b600082825260208201905092915050565b6000620013a6826200137d565b620013b2818562001388565b9350620013c481856020860162000d84565b620013cf8162000cb9565b840191505092915050565b6000608082019050620013f160008301876200133e565b6200140060208301866200133e565b6200140f60408301856200136c565b818103606083015262001423818462001399565b905095945050505050565b60007fffffffff0000000000000000000000000000000000000000000000000000000082169050919050565b62001465816200142e565b81146200147157600080fd5b50565b60008151905062001485816200145a565b92915050565b600060208284031215620014a457620014a362000ca5565b5b6000620014b48482850162001474565b91505092915050565b6000602082019050620014d460008301846200136c565b92915050565b6000604082019050620014f160008301856200133e565b6200150060208301846200136c565b9392505050565b615efe80620015176000396000f3fe6080604052600436106102675760003560e01c80637734a9f611610144578063c00af42c116100b6578063e5949b5d1161007a578063e5949b5d14610967578063e985e9c5146109a7578063ec08ad76146109e4578063ec4ceae9146109fb578063f2f06bcb14610a24578063fcbca45614610a4d57610267565b8063c00af42c1461084a578063c87b56dd14610887578063cb661f39146108c4578063e04794b614610901578063e47d60601461092a57610267565b8063a22cb46511610108578063a22cb4651461072c578063a230c52414610755578063a900a08a14610792578063b64afe05146107bb578063b88d4fde146107e4578063bf59a6c81461080d57610267565b80637734a9f61461064557806380d1ca891461067057806383445232146106995780638da5cb5b146106d657806395d89b411461070157610267565b80632183525d116101dd5780633ccfd60b116101a15780633ccfd60b1461053957806342842e0e146105505780634fb2e45d14610579578063604a427e146105a25780636352211e146105cb57806370a082311461060857610267565b80632183525d1461045657806323b872dd1461047f5780632819cc0c146104a857806328a12642146104d15780633a17916b1461050e57610267565b80630d9551da1161022f5780630d9551da1461036557806310df54a0146103905780631249c58b146103cd57806314401329146103e457806318160ddd146104215780631b3d7e1c1461044c57610267565b806301ffc9a71461026c57806306fdde03146102a9578063081812fc146102d457806308cad1bf14610311578063095ea7b31461033c575b600080fd5b34801561027857600080fd5b50610293600480360381019061028e91906141a0565b610a76565b6040516102a091906141e8565b60405180910390f35b3480156102b557600080fd5b506102be610b58565b6040516102cb9190614293565b60405180910390f35b3480156102e057600080fd5b506102fb60048036038101906102f691906142eb565b610bea565b6040516103089190614359565b60405180910390f35b34801561031d57600080fd5b50610326610c06565b6040516103339190614383565b60405180910390f35b34801561034857600080fd5b50610363600480360381019061035e91906143ca565b610c0c565b005b34801561037157600080fd5b5061037a610c22565b60405161038791906141e8565b60405180910390f35b34801561039c57600080fd5b506103b760048036038101906103b291906142eb565b610c35565b6040516103c491906144dc565b60405180910390f35b3480156103d957600080fd5b506103e2610e70565b005b3480156103f057600080fd5b5061040b600480360381019061040691906144fe565b610eee565b60405161041891906141e8565b60405180910390f35b34801561042d57600080fd5b50610436610f98565b6040516104439190614383565b60405180910390f35b610454610f9e565b005b34801561046257600080fd5b5061047d600480360381019061047891906142eb565b6110c9565b005b34801561048b57600080fd5b506104a660048036038101906104a1919061452b565b611163565b005b3480156104b457600080fd5b506104cf60048036038101906104ca91906142eb565b611265565b005b3480156104dd57600080fd5b506104f860048036038101906104f3919061457e565b611492565b60405161050591906141e8565b60405180910390f35b34801561051a57600080fd5b506105236114c1565b6040516105309190614383565b60405180910390f35b34801561054557600080fd5b5061054e6114c7565b005b34801561055c57600080fd5b506105776004803603810190610572919061452b565b6115f2565b005b34801561058557600080fd5b506105a0600480360381019061059b91906144fe565b611612565b005b3480156105ae57600080fd5b506105c960048036038101906105c491906143ca565b61180c565b005b3480156105d757600080fd5b506105f260048036038101906105ed91906142eb565b611a18565b6040516105ff9190614359565b60405180910390f35b34801561061457600080fd5b5061062f600480360381019061062a91906144fe565b611a2a565b60405161063c9190614383565b60405180910390f35b34801561065157600080fd5b5061065a611ae4565b6040516106679190614383565b60405180910390f35b34801561067c57600080fd5b50610697600480360381019061069291906143ca565b611aea565b005b3480156106a557600080fd5b506106c060048036038101906106bb919061457e565b611d7e565b6040516106cd91906141e8565b60405180910390f35b3480156106e257600080fd5b506106eb611dad565b6040516106f89190614359565b60405180910390f35b34801561070d57600080fd5b50610716611dd3565b6040516107239190614293565b60405180910390f35b34801561073857600080fd5b50610753600480360381019061074e91906145ea565b611e65565b005b34801561076157600080fd5b5061077c600480360381019061077791906144fe565b611e7b565b60405161078991906141e8565b60405180910390f35b34801561079e57600080fd5b506107b960048036038101906107b491906142eb565b611e9b565b005b3480156107c757600080fd5b506107e260048036038101906107dd91906143ca565b612035565b005b3480156107f057600080fd5b5061080b6004803603810190610806919061475f565b612241565b005b34801561081957600080fd5b50610834600480360381019061082f91906144fe565b61225e565b6040516108419190614383565b60405180910390f35b34801561085657600080fd5b50610871600480360381019061086c91906142eb565b612276565b60405161087e9190614359565b60405180910390f35b34801561089357600080fd5b506108ae60048036038101906108a991906142eb565b6122a9565b6040516108bb9190614293565b60405180910390f35b3480156108d057600080fd5b506108eb60048036038101906108e691906144fe565b612312565b6040516108f891906141e8565b60405180910390f35b34801561090d57600080fd5b50610928600480360381019061092391906143ca565b612332565b005b34801561093657600080fd5b50610951600480360381019061094c91906144fe565b612633565b60405161095e91906141e8565b60405180910390f35b34801561097357600080fd5b5061098e600480360381019061098991906142eb565b612653565b60405161099e94939291906147e2565b60405180910390f35b3480156109b357600080fd5b506109ce60048036038101906109c99190614835565b6127b3565b6040516109db91906141e8565b60405180910390f35b3480156109f057600080fd5b506109f9612847565b005b348015610a0757600080fd5b50610a226004803603810190610a1d91906144fe565b612903565b005b348015610a3057600080fd5b50610a4b6004803603810190610a469190614916565b612a81565b005b348015610a5957600080fd5b50610a746004803603810190610a6f91906144fe565b6131fd565b005b60007f80ac58cd000000000000000000000000000000000000000000000000000000007bffffffffffffffffffffffffffffffffffffffffffffffffffffffff1916827bffffffffffffffffffffffffffffffffffffffffffffffffffffffff19161480610b4157507f5b5e139f000000000000000000000000000000000000000000000000000000007bffffffffffffffffffffffffffffffffffffffffffffffffffffffff1916827bffffffffffffffffffffffffffffffffffffffffffffffffffffffff1916145b80610b515750610b508261337b565b5b9050919050565b606060008054610b67906149a1565b80601f0160208091040260200160405190810160405280929190818152602001828054610b93906149a1565b8015610be05780601f10610bb557610100808354040283529160200191610be0565b820191906000526020600020905b815481529060010190602001808311610bc357829003601f168201915b5050505050905090565b6000610bf5826133e5565b50610bff8261346d565b9050919050565b60125481565b610c1e8282610c196134aa565b6134b2565b5050565b601060009054906101000a900460ff1681565b610c3d6140f6565b8160008103610c81576040517f08c379a0000000000000000000000000000000000000000000000000000000008152600401610c7890614a44565b60405180910390fd5b600954811115610cc6576040517f08c379a0000000000000000000000000000000000000000000000000000000008152600401610cbd90614ab0565b60405180910390fd5b600b6000848152602001908152602001600020604051806080016040529081600082015481526020016001820160009054906101000a900473ffffffffffffffffffffffffffffffffffffffff1673ffffffffffffffffffffffffffffffffffffffff1673ffffffffffffffffffffffffffffffffffffffff168152602001600282018054610d54906149a1565b80601f0160208091040260200160405190810160405280929190818152602001828054610d80906149a1565b8015610dcd5780601f10610da257610100808354040283529160200191610dcd565b820191906000526020600020905b815481529060010190602001808311610db057829003601f168201915b50505050508152602001600382018054610de6906149a1565b80601f0160208091040260200160405190810160405280929190818152602001828054610e12906149a1565b8015610e5f5780601f10610e3457610100808354040283529160200191610e5f565b820191906000526020600020905b815481529060010190602001808311610e4257829003601f168201915b505050505081525050915050919050565b60066000815480929190610e8390614aff565b9190505550610e94336006546134c4565b6001600d60003373ffffffffffffffffffffffffffffffffffffffff1673ffffffffffffffffffffffffffffffffffffffff16815260200190815260200160002060006101000a81548160ff021916908315150217905550565b6000600760009054906101000a900473ffffffffffffffffffffffffffffffffffffffff1673ffffffffffffffffffffffffffffffffffffffff168273ffffffffffffffffffffffffffffffffffffffff1603610f4e5760019050610f93565b42601160008473ffffffffffffffffffffffffffffffffffffffff1673ffffffffffffffffffffffffffffffffffffffff168152602001908152602001600020541190505b919050565b60065481565b60011515600d60003373ffffffffffffffffffffffffffffffffffffffff1673ffffffffffffffffffffffffffffffffffffffff16815260200190815260200160002060009054906101000a900460ff16151514611031576040517f08c379a000000000000000000000000000000000000000000000000000000000815260040161102890614bb9565b60405180910390fd5b601354341015611076576040517f08c379a000000000000000000000000000000000000000000000000000000000815260040161106d90614c25565b60405180910390fd5b601254426110849190614c45565b601160003373ffffffffffffffffffffffffffffffffffffffff1673ffffffffffffffffffffffffffffffffffffffff16815260200190815260200160002081905550565b600760009054906101000a900473ffffffffffffffffffffffffffffffffffffffff1673ffffffffffffffffffffffffffffffffffffffff163373ffffffffffffffffffffffffffffffffffffffff1614611159576040517f08c379a000000000000000000000000000000000000000000000000000000000815260040161115090614ceb565b60405180910390fd5b8060138190555050565b600073ffffffffffffffffffffffffffffffffffffffff168273ffffffffffffffffffffffffffffffffffffffff16036111d55760006040517f64a0ae920000000000000000000000000000000000000000000000000000000081526004016111cc9190614359565b60405180910390fd5b60006111e983836111e46134aa565b6134e2565b90508373ffffffffffffffffffffffffffffffffffffffff168173ffffffffffffffffffffffffffffffffffffffff161461125f578382826040517f64283d7b00000000000000000000000000000000000000000000000000000000815260040161125693929190614d0b565b60405180910390fd5b50505050565b60011515600d60003373ffffffffffffffffffffffffffffffffffffffff1673ffffffffffffffffffffffffffffffffffffffff16815260200190815260200160002060009054906101000a900460ff161515146112f8576040517f08c379a00000000000000000000000000000000000000000000000000000000081526004016112ef90614bb9565b60405180910390fd5b806000810361133c576040517f08c379a000000000000000000000000000000000000000000000000000000000815260040161133390614a44565b60405180910390fd5b600954811115611381576040517f08c379a000000000000000000000000000000000000000000000000000000000815260040161137890614ab0565b60405180910390fd5b60011515600c600084815260200190815260200160002060003373ffffffffffffffffffffffffffffffffffffffff1673ffffffffffffffffffffffffffffffffffffffff16815260200190815260200160002060009054906101000a900460ff16151503611425576040517f08c379a000000000000000000000000000000000000000000000000000000000815260040161141c90614db4565b60405180910390fd5b6001600c600084815260200190815260200160002060003373ffffffffffffffffffffffffffffffffffffffff1673ffffffffffffffffffffffffffffffffffffffff16815260200190815260200160002060006101000a81548160ff0219169083151502179055505050565b600f6020528160005260406000206020528060005260406000206000915091509054906101000a900460ff1681565b60135481565b600760009054906101000a900473ffffffffffffffffffffffffffffffffffffffff1673ffffffffffffffffffffffffffffffffffffffff163373ffffffffffffffffffffffffffffffffffffffff1614611557576040517f08c379a000000000000000000000000000000000000000000000000000000000815260040161154e90614ceb565b60405180910390fd5b6000600760009054906101000a900473ffffffffffffffffffffffffffffffffffffffff1673ffffffffffffffffffffffffffffffffffffffff164760405161159f90614e05565b60006040518083038185875af1925050503d80600081146115dc576040519150601f19603f3d011682016040523d82523d6000602084013e6115e1565b606091505b50509050806115ef57600080fd5b50565b61160d83838360405180602001604052806000815250612241565b505050565b600760009054906101000a900473ffffffffffffffffffffffffffffffffffffffff1673ffffffffffffffffffffffffffffffffffffffff163373ffffffffffffffffffffffffffffffffffffffff16146116a2576040517f08c379a000000000000000000000000000000000000000000000000000000000815260040161169990614ceb565b60405180910390fd5b60011515600d60008373ffffffffffffffffffffffffffffffffffffffff1673ffffffffffffffffffffffffffffffffffffffff16815260200190815260200160002060009054906101000a900460ff16151514611735576040517f08c379a000000000000000000000000000000000000000000000000000000000815260040161172c90614e8c565b60405180910390fd5b60011515600e60008373ffffffffffffffffffffffffffffffffffffffff1673ffffffffffffffffffffffffffffffffffffffff16815260200190815260200160002060009054906101000a900460ff161515036117c8576040517f08c379a00000000000000000000000000000000000000000000000000000000081526004016117bf90614f1e565b60405180910390fd5b80600760006101000a81548173ffffffffffffffffffffffffffffffffffffffff021916908373ffffffffffffffffffffffffffffffffffffffff16021790555050565b806008600082815260200190815260200160002060009054906101000a900473ffffffffffffffffffffffffffffffffffffffff1673ffffffffffffffffffffffffffffffffffffffff163373ffffffffffffffffffffffffffffffffffffffff1614806118c75750600760009054906101000a900473ffffffffffffffffffffffffffffffffffffffff1673ffffffffffffffffffffffffffffffffffffffff163373ffffffffffffffffffffffffffffffffffffffff16145b611906576040517f08c379a00000000000000000000000000000000000000000000000000000000081526004016118fd90614fb0565b60405180910390fd5b60011515600f600084815260200190815260200160002060008573ffffffffffffffffffffffffffffffffffffffff1673ffffffffffffffffffffffffffffffffffffffff16815260200190815260200160002060009054906101000a900460ff161515036119aa576040517f08c379a00000000000000000000000000000000000000000000000000000000081526004016119a190615042565b60405180910390fd5b6001600f600084815260200190815260200160002060008573ffffffffffffffffffffffffffffffffffffffff1673ffffffffffffffffffffffffffffffffffffffff16815260200190815260200160002060006101000a81548160ff021916908315150217905550505050565b6000611a23826133e5565b9050919050565b60008073ffffffffffffffffffffffffffffffffffffffff168273ffffffffffffffffffffffffffffffffffffffff1603611a9d5760006040517f89c62b64000000000000000000000000000000000000000000000000000000008152600401611a949190614359565b60405180910390fd5b600360008373ffffffffffffffffffffffffffffffffffffffff1673ffffffffffffffffffffffffffffffffffffffff168152602001908152602001600020549050919050565b60095481565b600760009054906101000a900473ffffffffffffffffffffffffffffffffffffffff1673ffffffffffffffffffffffffffffffffffffffff163373ffffffffffffffffffffffffffffffffffffffff1614611b7a576040517f08c379a0000000000000000000000000000000000000000000000000000000008152600401611b7190614ceb565b60405180910390fd5b60011515600e60008473ffffffffffffffffffffffffffffffffffffffff1673ffffffffffffffffffffffffffffffffffffffff16815260200190815260200160002060009054906101000a900460ff16151503611c0d576040517f08c379a0000000000000000000000000000000000000000000000000000000008152600401611c04906150ae565b60405180910390fd5b8173ffffffffffffffffffffffffffffffffffffffff166008600083815260200190815260200160002060009054906101000a900473ffffffffffffffffffffffffffffffffffffffff1673ffffffffffffffffffffffffffffffffffffffff1614611cae576040517f08c379a0000000000000000000000000000000000000000000000000000000008152600401611ca590615140565b60405180910390fd5b600760009054906101000a900473ffffffffffffffffffffffffffffffffffffffff166008600083815260200190815260200160002060006101000a81548173ffffffffffffffffffffffffffffffffffffffff021916908373ffffffffffffffffffffffffffffffffffffffff1602179055506001600e60008473ffffffffffffffffffffffffffffffffffffffff1673ffffffffffffffffffffffffffffffffffffffff16815260200190815260200160002060006101000a81548160ff0219169083151502179055505050565b600c6020528160005260406000206020528060005260406000206000915091509054906101000a900460ff1681565b600760009054906101000a900473ffffffffffffffffffffffffffffffffffffffff1681565b606060018054611de2906149a1565b80601f0160208091040260200160405190810160405280929190818152602001828054611e0e906149a1565b8015611e5b5780601f10611e3057610100808354040283529160200191611e5b565b820191906000526020600020905b815481529060010190602001808311611e3e57829003601f168201915b5050505050905090565b611e77611e706134aa565b83836136fc565b5050565b600d6020528060005260406000206000915054906101000a900460ff1681565b8060008103611edf576040517f08c379a0000000000000000000000000000000000000000000000000000000008152600401611ed690614a44565b60405180910390fd5b600954811115611f24576040517f08c379a0000000000000000000000000000000000000000000000000000000008152600401611f1b90614ab0565b60405180910390fd5b60011515600c600084815260200190815260200160002060003373ffffffffffffffffffffffffffffffffffffffff1673ffffffffffffffffffffffffffffffffffffffff16815260200190815260200160002060009054906101000a900460ff16151514611fc8576040517f08c379a0000000000000000000000000000000000000000000000000000000008152600401611fbf906151d2565b60405180910390fd5b6000600c600084815260200190815260200160002060003373ffffffffffffffffffffffffffffffffffffffff1673ffffffffffffffffffffffffffffffffffffffff16815260200190815260200160002060006101000a81548160ff0219169083151502179055505050565b806008600082815260200190815260200160002060009054906101000a900473ffffffffffffffffffffffffffffffffffffffff1673ffffffffffffffffffffffffffffffffffffffff163373ffffffffffffffffffffffffffffffffffffffff1614806120f05750600760009054906101000a900473ffffffffffffffffffffffffffffffffffffffff1673ffffffffffffffffffffffffffffffffffffffff163373ffffffffffffffffffffffffffffffffffffffff16145b61212f576040517f08c379a000000000000000000000000000000000000000000000000000000000815260040161212690614fb0565b60405180910390fd5b60011515600f600084815260200190815260200160002060008573ffffffffffffffffffffffffffffffffffffffff1673ffffffffffffffffffffffffffffffffffffffff16815260200190815260200160002060009054906101000a900460ff161515146121d3576040517f08c379a00000000000000000000000000000000000000000000000000000000081526004016121ca90615264565b60405180910390fd5b6000600f600084815260200190815260200160002060008573ffffffffffffffffffffffffffffffffffffffff1673ffffffffffffffffffffffffffffffffffffffff16815260200190815260200160002060006101000a81548160ff021916908315150217905550505050565b61224c848484611163565b6122588484848461386b565b50505050565b60116020528060005260406000206000915090505481565b60086020528060005260406000206000915054906101000a900473ffffffffffffffffffffffffffffffffffffffff1681565b60606122b4826133e5565b5060006122bf613a22565b905060008151116122df576040518060200160405280600081525061230a565b806122e984613a39565b6040516020016122fa9291906152c0565b6040516020818303038152906040525b915050919050565b600a6020528060005260406000206000915054906101000a900460ff1681565b8060008103612376576040517f08c379a000000000000000000000000000000000000000000000000000000000815260040161236d90614a44565b60405180910390fd5b6009548111156123bb576040517f08c379a00000000000000000000000000000000000000000000000000000000081526004016123b290614ab0565b60405180910390fd5b816008600082815260200190815260200160002060009054906101000a900473ffffffffffffffffffffffffffffffffffffffff1673ffffffffffffffffffffffffffffffffffffffff163373ffffffffffffffffffffffffffffffffffffffff1614806124765750600760009054906101000a900473ffffffffffffffffffffffffffffffffffffffff1673ffffffffffffffffffffffffffffffffffffffff163373ffffffffffffffffffffffffffffffffffffffff16145b6124b5576040517f08c379a00000000000000000000000000000000000000000000000000000000081526004016124ac90614fb0565b60405180910390fd5b60011515600d60008673ffffffffffffffffffffffffffffffffffffffff1673ffffffffffffffffffffffffffffffffffffffff16815260200190815260200160002060009054906101000a900460ff16151514612548576040517f08c379a000000000000000000000000000000000000000000000000000000000815260040161253f90615356565b60405180910390fd5b60011515600e60008673ffffffffffffffffffffffffffffffffffffffff1673ffffffffffffffffffffffffffffffffffffffff16815260200190815260200160002060009054906101000a900460ff161515036125db576040517f08c379a00000000000000000000000000000000000000000000000000000000081526004016125d2906153e8565b60405180910390fd5b836008600085815260200190815260200160002060006101000a81548173ffffffffffffffffffffffffffffffffffffffff021916908373ffffffffffffffffffffffffffffffffffffffff16021790555050505050565b600e6020528060005260406000206000915054906101000a900460ff1681565b600b6020528060005260406000206000915090508060000154908060010160009054906101000a900473ffffffffffffffffffffffffffffffffffffffff16908060020180546126a2906149a1565b80601f01602080910402602001604051908101604052809291908181526020018280546126ce906149a1565b801561271b5780601f106126f05761010080835404028352916020019161271b565b820191906000526020600020905b8154815290600101906020018083116126fe57829003601f168201915b505050505090806003018054612730906149a1565b80601f016020809104026020016040519081016040528092919081815260200182805461275c906149a1565b80156127a95780601f1061277e576101008083540402835291602001916127a9565b820191906000526020600020905b81548152906001019060200180831161278c57829003601f168201915b5050505050905084565b6000600560008473ffffffffffffffffffffffffffffffffffffffff1673ffffffffffffffffffffffffffffffffffffffff16815260200190815260200160002060008373ffffffffffffffffffffffffffffffffffffffff1673ffffffffffffffffffffffffffffffffffffffff16815260200190815260200160002060009054906101000a900460ff16905092915050565b600760009054906101000a900473ffffffffffffffffffffffffffffffffffffffff1673ffffffffffffffffffffffffffffffffffffffff163373ffffffffffffffffffffffffffffffffffffffff16146128d7576040517f08c379a00000000000000000000000000000000000000000000000000000000081526004016128ce90614ceb565b60405180910390fd5b601060009054906101000a900460ff1615601060006101000a81548160ff021916908315150217905550565b600760009054906101000a900473ffffffffffffffffffffffffffffffffffffffff1673ffffffffffffffffffffffffffffffffffffffff163373ffffffffffffffffffffffffffffffffffffffff1614612993576040517f08c379a000000000000000000000000000000000000000000000000000000000815260040161298a90614ceb565b60405180910390fd5b60011515600e60008373ffffffffffffffffffffffffffffffffffffffff1673ffffffffffffffffffffffffffffffffffffffff16815260200190815260200160002060009054906101000a900460ff16151514612a26576040517f08c379a0000000000000000000000000000000000000000000000000000000008152600401612a1d9061547a565b60405180910390fd5b6000600e60008373ffffffffffffffffffffffffffffffffffffffff1673ffffffffffffffffffffffffffffffffffffffff16815260200190815260200160002060006101000a81548160ff02191690831515021790555050565b60011515600d60003373ffffffffffffffffffffffffffffffffffffffff1673ffffffffffffffffffffffffffffffffffffffff16815260200190815260200160002060009054906101000a900460ff16151514612b14576040517f08c379a0000000000000000000000000000000000000000000000000000000008152600401612b0b90614bb9565b60405180910390fd5b60011515600e60003373ffffffffffffffffffffffffffffffffffffffff1673ffffffffffffffffffffffffffffffffffffffff16815260200190815260200160002060009054906101000a900460ff16151503612ba7576040517f08c379a0000000000000000000000000000000000000000000000000000000008152600401612b9e90615532565b60405180910390fd5b60011515600a60008473ffffffffffffffffffffffffffffffffffffffff1673ffffffffffffffffffffffffffffffffffffffff16815260200190815260200160002060009054906101000a900460ff16151503612c3a576040517f08c379a0000000000000000000000000000000000000000000000000000000008152600401612c319061559e565b60405180910390fd5b6000604051602001612c4b9061560a565b6040516020818303038152906040528051906020012090506000604051602001612c749061566b565b604051602081830303815290604052805190602001209050600083604051602001612c9f9190615680565b60405160208183030381529060405280519060200120905082811480612cc457508181145b612d03576040517f08c379a0000000000000000000000000000000000000000000000000000000008152600401612cfa90615709565b60405180910390fd5b818103612dc8578473ffffffffffffffffffffffffffffffffffffffff166301ffc9a76380ac58cd6040518263ffffffff1660e01b8152600401612d479190615771565b602060405180830381865afa158015612d64573d6000803e3d6000fd5b505050506040513d601f19601f82011682018060405250810190612d8891906157a1565b612dc7576040517f08c379a0000000000000000000000000000000000000000000000000000000008152600401612dbe90615840565b60405180910390fd5b5b828103612e855760008573ffffffffffffffffffffffffffffffffffffffff1663313ce5676040518163ffffffff1660e01b8152600401602060405180830381865afa158015612e1c573d6000803e3d6000fd5b505050506040513d601f19601f82011682018060405250810190612e409190615899565b60ff161015612e84576040517f08c379a0000000000000000000000000000000000000000000000000000000008152600401612e7b90615912565b60405180910390fd5b5b6060838203612f1c578573ffffffffffffffffffffffffffffffffffffffff166306fdde036040518163ffffffff1660e01b8152600401600060405180830381865afa925050508015612efb57506040513d6000823e3d601f19601f82011682018060405250810190612ef891906159a2565b60015b612f1657604051806020016040528060008152509050612f1b565b809150505b5b828203612fb1578573ffffffffffffffffffffffffffffffffffffffff166306fdde036040518163ffffffff1660e01b8152600401600060405180830381865afa925050508015612f9057506040513d6000823e3d601f19601f82011682018060405250810190612f8d91906159a2565b60015b612fab57604051806020016040528060008152509050612fb0565b809150505b5b838203612ffd576000815111612ffc576040517f08c379a0000000000000000000000000000000000000000000000000000000008152600401612ff390615a5d565b60405180910390fd5b5b828203613049576000815111613048576040517f08c379a000000000000000000000000000000000000000000000000000000000815260040161303f90615aef565b60405180910390fd5b5b6009600081548092919061305c90614aff565b9190505550604051806080016040528060095481526020018773ffffffffffffffffffffffffffffffffffffffff16815260200182815260200186815250600b600060095481526020019081526020016000206000820151816000015560208201518160010160006101000a81548173ffffffffffffffffffffffffffffffffffffffff021916908373ffffffffffffffffffffffffffffffffffffffff16021790555060408201518160020190816131159190615cbb565b50606082015181600301908161312b9190615cbb565b50905050600760009054906101000a900473ffffffffffffffffffffffffffffffffffffffff1660086000600954815260200190815260200160002060006101000a81548173ffffffffffffffffffffffffffffffffffffffff021916908373ffffffffffffffffffffffffffffffffffffffff16021790555060011515600a60008873ffffffffffffffffffffffffffffffffffffffff1673ffffffffffffffffffffffffffffffffffffffff16815260200190815260200160002060009054906101000a90505050505050505050565b600760009054906101000a900473ffffffffffffffffffffffffffffffffffffffff1673ffffffffffffffffffffffffffffffffffffffff163373ffffffffffffffffffffffffffffffffffffffff161461328d576040517f08c379a000000000000000000000000000000000000000000000000000000000815260040161328490614ceb565b60405180910390fd5b60011515600e60008373ffffffffffffffffffffffffffffffffffffffff1673ffffffffffffffffffffffffffffffffffffffff16815260200190815260200160002060009054906101000a900460ff16151503613320576040517f08c379a0000000000000000000000000000000000000000000000000000000008152600401613317906150ae565b60405180910390fd5b6001600e60008373ffffffffffffffffffffffffffffffffffffffff1673ffffffffffffffffffffffffffffffffffffffff16815260200190815260200160002060006101000a81548160ff02191690831515021790555050565b60007f01ffc9a7000000000000000000000000000000000000000000000000000000007bffffffffffffffffffffffffffffffffffffffffffffffffffffffff1916827bffffffffffffffffffffffffffffffffffffffffffffffffffffffff1916149050919050565b6000806133f183613b07565b9050600073ffffffffffffffffffffffffffffffffffffffff168173ffffffffffffffffffffffffffffffffffffffff160361346457826040517f7e27328900000000000000000000000000000000000000000000000000000000815260040161345b9190614383565b60405180910390fd5b80915050919050565b60006004600083815260200190815260200160002060009054906101000a900473ffffffffffffffffffffffffffffffffffffffff169050919050565b600033905090565b6134bf8383836001613b44565b505050565b6134de828260405180602001604052806000815250613d09565b5050565b6000806134ee84613b07565b9050600073ffffffffffffffffffffffffffffffffffffffff168373ffffffffffffffffffffffffffffffffffffffff16146135305761352f818486613d25565b5b600073ffffffffffffffffffffffffffffffffffffffff168173ffffffffffffffffffffffffffffffffffffffff16146135c157613572600085600080613b44565b6001600360008373ffffffffffffffffffffffffffffffffffffffff1673ffffffffffffffffffffffffffffffffffffffff168152602001908152602001600020600082825403925050819055505b600073ffffffffffffffffffffffffffffffffffffffff168573ffffffffffffffffffffffffffffffffffffffff1614613644576001600360008773ffffffffffffffffffffffffffffffffffffffff1673ffffffffffffffffffffffffffffffffffffffff168152602001908152602001600020600082825401925050819055505b846002600086815260200190815260200160002060006101000a81548173ffffffffffffffffffffffffffffffffffffffff021916908373ffffffffffffffffffffffffffffffffffffffff160217905550838573ffffffffffffffffffffffffffffffffffffffff168273ffffffffffffffffffffffffffffffffffffffff167fddf252ad1be2c89b69c2b068fc378daa952ba7f163c4a11628f55a4df523b3ef60405160405180910390a4809150509392505050565b600073ffffffffffffffffffffffffffffffffffffffff168273ffffffffffffffffffffffffffffffffffffffff160361376d57816040517f5b08ba180000000000000000000000000000000000000000000000000000000081526004016137649190614359565b60405180910390fd5b80600560008573ffffffffffffffffffffffffffffffffffffffff1673ffffffffffffffffffffffffffffffffffffffff16815260200190815260200160002060008473ffffffffffffffffffffffffffffffffffffffff1673ffffffffffffffffffffffffffffffffffffffff16815260200190815260200160002060006101000a81548160ff0219169083151502179055508173ffffffffffffffffffffffffffffffffffffffff168373ffffffffffffffffffffffffffffffffffffffff167f17307eab39ab6107e8899845ad3d59bd9653f200f220920489ca2b5937696c318360405161385e91906141e8565b60405180910390a3505050565b60008373ffffffffffffffffffffffffffffffffffffffff163b1115613a1c578273ffffffffffffffffffffffffffffffffffffffff1663150b7a026138af6134aa565b8685856040518563ffffffff1660e01b81526004016138d19493929190615de2565b6020604051808303816000875af192505050801561390d57506040513d601f19601f8201168201806040525081019061390a9190615e43565b60015b613991573d806000811461393d576040519150601f19603f3d011682016040523d82523d6000602084013e613942565b606091505b50600081510361398957836040517f64a0ae920000000000000000000000000000000000000000000000000000000081526004016139809190614359565b60405180910390fd5b805181602001fd5b63150b7a0260e01b7bffffffffffffffffffffffffffffffffffffffffffffffffffffffff1916817bffffffffffffffffffffffffffffffffffffffffffffffffffffffff191614613a1a57836040517f64a0ae92000000000000000000000000000000000000000000000000000000008152600401613a119190614359565b60405180910390fd5b505b50505050565b606060405180602001604052806000815250905090565b606060006001613a4884613de9565b01905060008167ffffffffffffffff811115613a6757613a66614634565b5b6040519080825280601f01601f191660200182016040528015613a995781602001600182028036833780820191505090505b509050600082602001820190505b600115613afc578080600190039150507f3031323334353637383961626364656600000000000000000000000000000000600a86061a8153600a8581613af057613aef615e70565b5b04945060008503613aa7575b819350505050919050565b60006002600083815260200190815260200160002060009054906101000a900473ffffffffffffffffffffffffffffffffffffffff169050919050565b8080613b7d5750600073ffffffffffffffffffffffffffffffffffffffff168273ffffffffffffffffffffffffffffffffffffffff1614155b15613cb1576000613b8d846133e5565b9050600073ffffffffffffffffffffffffffffffffffffffff168373ffffffffffffffffffffffffffffffffffffffff1614158015613bf857508273ffffffffffffffffffffffffffffffffffffffff168173ffffffffffffffffffffffffffffffffffffffff1614155b8015613c0b5750613c0981846127b3565b155b15613c4d57826040517fa9fbf51f000000000000000000000000000000000000000000000000000000008152600401613c449190614359565b60405180910390fd5b8115613caf57838573ffffffffffffffffffffffffffffffffffffffff168273ffffffffffffffffffffffffffffffffffffffff167f8c5be1e5ebec7d5bd14f71427d1e84f3dd0314c0f7b2291e5b200ac8c7c3b92560405160405180910390a45b505b836004600085815260200190815260200160002060006101000a81548173ffffffffffffffffffffffffffffffffffffffff021916908373ffffffffffffffffffffffffffffffffffffffff16021790555050505050565b613d138383613f3c565b613d20600084848461386b565b505050565b613d30838383614035565b613de457600073ffffffffffffffffffffffffffffffffffffffff168373ffffffffffffffffffffffffffffffffffffffff1603613da557806040517f7e273289000000000000000000000000000000000000000000000000000000008152600401613d9c9190614383565b60405180910390fd5b81816040517f177e802f000000000000000000000000000000000000000000000000000000008152600401613ddb929190615e9f565b60405180910390fd5b505050565b600080600090507a184f03e93ff9f4daa797ed6e38ed64bf6a1f0100000000000000008310613e47577a184f03e93ff9f4daa797ed6e38ed64bf6a1f0100000000000000008381613e3d57613e3c615e70565b5b0492506040810190505b6d04ee2d6d415b85acef81000000008310613e84576d04ee2d6d415b85acef81000000008381613e7a57613e79615e70565b5b0492506020810190505b662386f26fc100008310613eb357662386f26fc100008381613ea957613ea8615e70565b5b0492506010810190505b6305f5e1008310613edc576305f5e1008381613ed257613ed1615e70565b5b0492506008810190505b6127108310613f01576127108381613ef757613ef6615e70565b5b0492506004810190505b60648310613f245760648381613f1a57613f19615e70565b5b0492506002810190505b600a8310613f33576001810190505b80915050919050565b600073ffffffffffffffffffffffffffffffffffffffff168273ffffffffffffffffffffffffffffffffffffffff1603613fae5760006040517f64a0ae92000000000000000000000000000000000000000000000000000000008152600401613fa59190614359565b60405180910390fd5b6000613fbc838360006134e2565b9050600073ffffffffffffffffffffffffffffffffffffffff168173ffffffffffffffffffffffffffffffffffffffff16146140305760006040517f73c6ac6e0000000000000000000000000000000000000000000000000000000081526004016140279190614359565b60405180910390fd5b505050565b60008073ffffffffffffffffffffffffffffffffffffffff168373ffffffffffffffffffffffffffffffffffffffff16141580156140ed57508273ffffffffffffffffffffffffffffffffffffffff168473ffffffffffffffffffffffffffffffffffffffff1614806140ae57506140ad84846127b3565b5b806140ec57508273ffffffffffffffffffffffffffffffffffffffff166140d48361346d565b73ffffffffffffffffffffffffffffffffffffffff16145b5b90509392505050565b604051806080016040528060008152602001600073ffffffffffffffffffffffffffffffffffffffff16815260200160608152602001606081525090565b6000604051905090565b600080fd5b600080fd5b60007fffffffff0000000000000000000000000000000000000000000000000000000082169050919050565b61417d81614148565b811461418857600080fd5b50565b60008135905061419a81614174565b92915050565b6000602082840312156141b6576141b561413e565b5b60006141c48482850161418b565b91505092915050565b60008115159050919050565b6141e2816141cd565b82525050565b60006020820190506141fd60008301846141d9565b92915050565b600081519050919050565b600082825260208201905092915050565b60005b8381101561423d578082015181840152602081019050614222565b60008484015250505050565b6000601f19601f8301169050919050565b600061426582614203565b61426f818561420e565b935061427f81856020860161421f565b61428881614249565b840191505092915050565b600060208201905081810360008301526142ad818461425a565b905092915050565b6000819050919050565b6142c8816142b5565b81146142d357600080fd5b50565b6000813590506142e5816142bf565b92915050565b6000602082840312156143015761430061413e565b5b600061430f848285016142d6565b91505092915050565b600073ffffffffffffffffffffffffffffffffffffffff82169050919050565b600061434382614318565b9050919050565b61435381614338565b82525050565b600060208201905061436e600083018461434a565b92915050565b61437d816142b5565b82525050565b60006020820190506143986000830184614374565b92915050565b6143a781614338565b81146143b257600080fd5b50565b6000813590506143c48161439e565b92915050565b600080604083850312156143e1576143e061413e565b5b60006143ef858286016143b5565b9250506020614400858286016142d6565b9150509250929050565b614413816142b5565b82525050565b61442281614338565b82525050565b600082825260208201905092915050565b600061444482614203565b61444e8185614428565b935061445e81856020860161421f565b61446781614249565b840191505092915050565b600060808301600083015161448a600086018261440a565b50602083015161449d6020860182614419565b50604083015184820360408601526144b58282614439565b915050606083015184820360608601526144cf8282614439565b9150508091505092915050565b600060208201905081810360008301526144f68184614472565b905092915050565b6000602082840312156145145761451361413e565b5b6000614522848285016143b5565b91505092915050565b6000806000606084860312156145445761454361413e565b5b6000614552868287016143b5565b9350506020614563868287016143b5565b9250506040614574868287016142d6565b9150509250925092565b600080604083850312156145955761459461413e565b5b60006145a3858286016142d6565b92505060206145b4858286016143b5565b9150509250929050565b6145c7816141cd565b81146145d257600080fd5b50565b6000813590506145e4816145be565b92915050565b600080604083850312156146015761460061413e565b5b600061460f858286016143b5565b9250506020614620858286016145d5565b9150509250929050565b600080fd5b600080fd5b7f4e487b7100000000000000000000000000000000000000000000000000000000600052604160045260246000fd5b61466c82614249565b810181811067ffffffffffffffff8211171561468b5761468a614634565b5b80604052505050565b600061469e614134565b90506146aa8282614663565b919050565b600067ffffffffffffffff8211156146ca576146c9614634565b5b6146d382614249565b9050602081019050919050565b82818337600083830152505050565b60006147026146fd846146af565b614694565b90508281526020810184848401111561471e5761471d61462f565b5b6147298482856146e0565b509392505050565b600082601f8301126147465761474561462a565b5b81356147568482602086016146ef565b91505092915050565b600080600080608085870312156147795761477861413e565b5b6000614787878288016143b5565b9450506020614798878288016143b5565b93505060406147a9878288016142d6565b925050606085013567ffffffffffffffff8111156147ca576147c9614143565b5b6147d687828801614731565b91505092959194509250565b60006080820190506147f76000830187614374565b614804602083018661434a565b8181036040830152614816818561425a565b9050818103606083015261482a818461425a565b905095945050505050565b6000806040838503121561484c5761484b61413e565b5b600061485a858286016143b5565b925050602061486b858286016143b5565b9150509250929050565b600067ffffffffffffffff8211156148905761488f614634565b5b61489982614249565b9050602081019050919050565b60006148b96148b484614875565b614694565b9050828152602081018484840111156148d5576148d461462f565b5b6148e08482856146e0565b509392505050565b600082601f8301126148fd576148fc61462a565b5b813561490d8482602086016148a6565b91505092915050565b6000806040838503121561492d5761492c61413e565b5b600061493b858286016143b5565b925050602083013567ffffffffffffffff81111561495c5761495b614143565b5b614968858286016148e8565b9150509250929050565b7f4e487b7100000000000000000000000000000000000000000000000000000000600052602260045260246000fd5b600060028204905060018216806149b957607f821691505b6020821081036149cc576149cb614972565b5b50919050565b7f4368616e6e656c204944204d7573742042652047726561746572205468616e2060008201527f5a65726f21000000000000000000000000000000000000000000000000000000602082015250565b6000614a2e60258361420e565b9150614a39826149d2565b604082019050919050565b60006020820190508181036000830152614a5d81614a21565b9050919050565b7f4368616e6e656c20494420546f6f204c61726765210000000000000000000000600082015250565b6000614a9a60158361420e565b9150614aa582614a64565b602082019050919050565b60006020820190508181036000830152614ac981614a8d565b9050919050565b7f4e487b7100000000000000000000000000000000000000000000000000000000600052601160045260246000fd5b6000614b0a826142b5565b91507fffffffffffffffffffffffffffffffffffffffffffffffffffffffffffffffff8203614b3c57614b3b614ad0565b5b600182019050919050565b7f4f6e6c7920416c70686150494e47204d656d62657273204d617920457865637560008201527f746520546869732046756e6374696f6e21000000000000000000000000000000602082015250565b6000614ba360318361420e565b9150614bae82614b47565b604082019050919050565b60006020820190508181036000830152614bd281614b96565b9050919050565b7f496e73756666696369656e742046756e64732050726f76696465642100000000600082015250565b6000614c0f601c8361420e565b9150614c1a82614bd9565b602082019050919050565b60006020820190508181036000830152614c3e81614c02565b9050919050565b6000614c50826142b5565b9150614c5b836142b5565b9250828201905080821115614c7357614c72614ad0565b5b92915050565b7f4f6e6c79204f776e657220526f6c65204d61792045786563757465205468697360008201527f2046756e6374696f6e2100000000000000000000000000000000000000000000602082015250565b6000614cd5602a8361420e565b9150614ce082614c79565b604082019050919050565b60006020820190508181036000830152614d0481614cc8565b9050919050565b6000606082019050614d20600083018661434a565b614d2d6020830185614374565b614d3a604083018461434a565b949350505050565b7f596f75204861766520416c7265616479204a6f696e656420546869732043686160008201527f6e6e656c00000000000000000000000000000000000000000000000000000000602082015250565b6000614d9e60248361420e565b9150614da982614d42565b604082019050919050565b60006020820190508181036000830152614dcd81614d91565b9050919050565b600081905092915050565b50565b6000614def600083614dd4565b9150614dfa82614ddf565b600082019050919050565b6000614e1082614de2565b9150819050919050565b7f4e6577204f776e6572204d75737420426520416e20416c70686150494e47204d60008201527f656d626572210000000000000000000000000000000000000000000000000000602082015250565b6000614e7660268361420e565b9150614e8182614e1a565b604082019050919050565b60006020820190508181036000830152614ea581614e69565b9050919050565b7f4e6577204f776e6572204d757374204e6f7420426520426c61636b6c6973746560008201527f6421000000000000000000000000000000000000000000000000000000000000602082015250565b6000614f0860228361420e565b9150614f1382614eac565b604082019050919050565b60006020820190508181036000830152614f3781614efb565b9050919050565b7f4f6e6c79204368616e6e656c204d6f64206f72204f776e657220526f6c65204d60008201527f6179204578656375746520546869732046756e6374696f6e2100000000000000602082015250565b6000614f9a60398361420e565b9150614fa582614f3e565b604082019050919050565b60006020820190508181036000830152614fc981614f8d565b9050919050565b7f54686973205573657220497320416c72656164792042616e6e6564204f6e205460008201527f686973204368616e6e656c210000000000000000000000000000000000000000602082015250565b600061502c602c8361420e565b915061503782614fd0565b604082019050919050565b6000602082019050818103600083015261505b8161501f565b9050919050565b7f5573657220497320416c726561647920426c61636b6c69737465642100000000600082015250565b6000615098601c8361420e565b91506150a382615062565b602082019050919050565b600060208201905081810360008301526150c78161508b565b9050919050565b7f55736572204973204e6f742041204d6f6420466f722054686973204368616e6e60008201527f656c210000000000000000000000000000000000000000000000000000000000602082015250565b600061512a60238361420e565b9150615135826150ce565b604082019050919050565b600060208201905081810360008301526151598161511d565b9050919050565b7f596f7520417265204e6f742043757272656e746c792041204d656d626572206f60008201527f662054686973204368616e6e656c210000000000000000000000000000000000602082015250565b60006151bc602f8361420e565b91506151c782615160565b604082019050919050565b600060208201905081810360008301526151eb816151af565b9050919050565b7f546869732055736572204973204e6f742043757272656e746c792042616e6e6560008201527f6421000000000000000000000000000000000000000000000000000000000000602082015250565b600061524e60228361420e565b9150615259826151f2565b604082019050919050565b6000602082019050818103600083015261527d81615241565b9050919050565b600081905092915050565b600061529a82614203565b6152a48185615284565b93506152b481856020860161421f565b80840191505092915050565b60006152cc828561528f565b91506152d8828461528f565b91508190509392505050565b7f4e6577204368616e6e656c204d6f64204d75737420426520416e20416c70686160008201527f50494e47204d656d626572210000000000000000000000000000000000000000602082015250565b6000615340602c8361420e565b915061534b826152e4565b604082019050919050565b6000602082019050818103600083015261536f81615333565b9050919050565b7f4e6577204368616e6e656c204d6f64204d757374204e6f7420426520426c616360008201527f6b6c697374656421000000000000000000000000000000000000000000000000602082015250565b60006153d260288361420e565b91506153dd82615376565b604082019050919050565b60006020820190508181036000830152615401816153c5565b9050919050565b7f55736572204973204e6f742043757272656e746c7920426c61636b6c6973746560008201527f6421000000000000000000000000000000000000000000000000000000000000602082015250565b600061546460228361420e565b915061546f82615408565b604082019050919050565b6000602082019050818103600083015261549381615457565b9050919050565b7f54686973205573657227732050726976656c656467657320486176652042656560008201527f6e205265766f6b65642044756520546f204265696e6720426c61636b6c69737460208201527f6564210000000000000000000000000000000000000000000000000000000000604082015250565b600061551c60438361420e565b91506155278261549a565b606082019050919050565b6000602082019050818103600083015261554b8161550f565b9050919050565b7f54686973204368616e6e656c20416c7265616479204578697374732100000000600082015250565b6000615588601c8361420e565b915061559382615552565b602082019050919050565b600060208201905081810360008301526155b78161557b565b9050919050565b7f4552433230000000000000000000000000000000000000000000000000000000600082015250565b60006155f4600583615284565b91506155ff826155be565b600582019050919050565b6000615615826155e7565b9150819050919050565b7f4552433732310000000000000000000000000000000000000000000000000000600082015250565b6000615655600683615284565b91506156608261561f565b600682019050919050565b600061567682615648565b9150819050919050565b600061568c828461528f565b915081905092915050565b7f546f6b656e2054797065204d757374204569746865722042652045524332302060008201527f6f72204552433732312100000000000000000000000000000000000000000000602082015250565b60006156f3602a8361420e565b91506156fe82615697565b604082019050919050565b60006020820190508181036000830152615722816156e6565b9050919050565b6000819050919050565b60008160e01b9050919050565b600061575b61575661575184615729565b615733565b614148565b9050919050565b61576b81615740565b82525050565b60006020820190506157866000830184615762565b92915050565b60008151905061579b816145be565b92915050565b6000602082840312156157b7576157b661413e565b5b60006157c58482850161578c565b91505092915050565b7f54686973204973204e6f7420412056616c69642045524337323120546f6b656e60008201527f2100000000000000000000000000000000000000000000000000000000000000602082015250565b600061582a60218361420e565b9150615835826157ce565b604082019050919050565b600060208201905081810360008301526158598161581d565b9050919050565b600060ff82169050919050565b61587681615860565b811461588157600080fd5b50565b6000815190506158938161586d565b92915050565b6000602082840312156158af576158ae61413e565b5b60006158bd84828501615884565b91505092915050565b7f54686973204973204e6f7420412056616c696420455243323020546f6b656e21600082015250565b60006158fc60208361420e565b9150615907826158c6565b602082019050919050565b6000602082019050818103600083015261592b816158ef565b9050919050565b600061594561594084614875565b614694565b9050828152602081018484840111156159615761596061462f565b5b61596c84828561421f565b509392505050565b600082601f8301126159895761598861462a565b5b8151615999848260208601615932565b91505092915050565b6000602082840312156159b8576159b761413e565b5b600082015167ffffffffffffffff8111156159d6576159d5614143565b5b6159e284828501615974565b91505092915050565b7f4e6f204e616d6520466f756e6420466f72205468697320455243323020546f6b60008201527f656e210000000000000000000000000000000000000000000000000000000000602082015250565b6000615a4760238361420e565b9150615a52826159eb565b604082019050919050565b60006020820190508181036000830152615a7681615a3a565b9050919050565b7f4e6f204e616d6520466f756e6420466f7220546869732045524337323120546f60008201527f6b656e2100000000000000000000000000000000000000000000000000000000602082015250565b6000615ad960248361420e565b9150615ae482615a7d565b604082019050919050565b60006020820190508181036000830152615b0881615acc565b9050919050565b60008190508160005260206000209050919050565b60006020601f8301049050919050565b600082821b905092915050565b600060088302615b717fffffffffffffffffffffffffffffffffffffffffffffffffffffffffffffffff82615b34565b615b7b8683615b34565b95508019841693508086168417925050509392505050565b6000819050919050565b6000615bb8615bb3615bae846142b5565b615b93565b6142b5565b9050919050565b6000819050919050565b615bd283615b9d565b615be6615bde82615bbf565b848454615b41565b825550505050565b600090565b615bfb615bee565b615c06818484615bc9565b505050565b5b81811015615c2a57615c1f600082615bf3565b600181019050615c0c565b5050565b601f821115615c6f57615c4081615b0f565b615c4984615b24565b81016020851015615c58578190505b615c6c615c6485615b24565b830182615c0b565b50505b505050565b600082821c905092915050565b6000615c9260001984600802615c74565b1980831691505092915050565b6000615cab8383615c81565b9150826002028217905092915050565b615cc482614203565b67ffffffffffffffff811115615cdd57615cdc614634565b5b615ce782546149a1565b615cf2828285615c2e565b600060209050601f831160018114615d255760008415615d13578287015190505b615d1d8582615c9f565b865550615d85565b601f198416615d3386615b0f565b60005b82811015615d5b57848901518255600182019150602085019450602081019050615d36565b86831015615d785784890151615d74601f891682615c81565b8355505b6001600288020188555050505b505050505050565b600081519050919050565b600082825260208201905092915050565b6000615db482615d8d565b615dbe8185615d98565b9350615dce81856020860161421f565b615dd781614249565b840191505092915050565b6000608082019050615df7600083018761434a565b615e04602083018661434a565b615e116040830185614374565b8181036060830152615e238184615da9565b905095945050505050565b600081519050615e3d81614174565b92915050565b600060208284031215615e5957615e5861413e565b5b6000615e6784828501615e2e565b91505092915050565b7f4e487b7100000000000000000000000000000000000000000000000000000000600052601260045260246000fd5b6000604082019050615eb4600083018561434a565b615ec16020830184614374565b939250505056fea26469706673582212207e2a70b3ff626b99cdbeacd6652d53ea622ea73ba71a84abc8dd8fa06c25f79c64736f6c63430008180033",
  "linkReferences": {},
  "deployedLinkReferences": {}
}