{
  "_format": "hh-sol-artifact-1",
  "contractName": "AlphaPING",
  "sourceName": "contracts/AlphaPING.sol",
  "abi": [
    {
      "inputs": [
        {
          "internalType": "string",
          "name": "_name",
          "type": "string"
        },
        {
          "internalType": "string",
          "name": "_symbol",
          "type": "string"
        }
      ],
      "stateMutability": "nonpayable",
      "type": "constructor"
    },
    {
      "inputs": [
        {
          "internalType": "address",
          "name": "sender",
          "type": "address"
        },
        {
          "internalType": "uint256",
          "name": "tokenId",
          "type": "uint256"
        },
        {
          "internalType": "address",
          "name": "owner",
          "type": "address"
        }
      ],
      "name": "ERC721IncorrectOwner",
      "type": "error"
    },
    {
      "inputs": [
        {
          "internalType": "address",
          "name": "operator",
          "type": "address"
        },
        {
          "internalType": "uint256",
          "name": "tokenId",
          "type": "uint256"
        }
      ],
      "name": "ERC721InsufficientApproval",
      "type": "error"
    },
    {
      "inputs": [
        {
          "internalType": "address",
          "name": "approver",
          "type": "address"
        }
      ],
      "name": "ERC721InvalidApprover",
      "type": "error"
    },
    {
      "inputs": [
        {
          "internalType": "address",
          "name": "operator",
          "type": "address"
        }
      ],
      "name": "ERC721InvalidOperator",
      "type": "error"
    },
    {
      "inputs": [
        {
          "internalType": "address",
          "name": "owner",
          "type": "address"
        }
      ],
      "name": "ERC721InvalidOwner",
      "type": "error"
    },
    {
      "inputs": [
        {
          "internalType": "address",
          "name": "receiver",
          "type": "address"
        }
      ],
      "name": "ERC721InvalidReceiver",
      "type": "error"
    },
    {
      "inputs": [
        {
          "internalType": "address",
          "name": "sender",
          "type": "address"
        }
      ],
      "name": "ERC721InvalidSender",
      "type": "error"
    },
    {
      "inputs": [
        {
          "internalType": "uint256",
          "name": "tokenId",
          "type": "uint256"
        }
      ],
      "name": "ERC721NonexistentToken",
      "type": "error"
    },
    {
      "anonymous": false,
      "inputs": [
        {
          "indexed": true,
          "internalType": "address",
          "name": "owner",
          "type": "address"
        },
        {
          "indexed": true,
          "internalType": "address",
          "name": "approved",
          "type": "address"
        },
        {
          "indexed": true,
          "internalType": "uint256",
          "name": "tokenId",
          "type": "uint256"
        }
      ],
      "name": "Approval",
      "type": "event"
    },
    {
      "anonymous": false,
      "inputs": [
        {
          "indexed": true,
          "internalType": "address",
          "name": "owner",
          "type": "address"
        },
        {
          "indexed": true,
          "internalType": "address",
          "name": "operator",
          "type": "address"
        },
        {
          "indexed": false,
          "internalType": "bool",
          "name": "approved",
          "type": "bool"
        }
      ],
      "name": "ApprovalForAll",
      "type": "event"
    },
    {
      "anonymous": false,
      "inputs": [
        {
          "indexed": true,
          "internalType": "address",
          "name": "from",
          "type": "address"
        },
        {
          "indexed": true,
          "internalType": "address",
          "name": "to",
          "type": "address"
        },
        {
          "indexed": true,
          "internalType": "uint256",
          "name": "tokenId",
          "type": "uint256"
        }
      ],
      "name": "Transfer",
      "type": "event"
    },
    {
      "inputs": [
        {
          "internalType": "address",
          "name": "to",
          "type": "address"
        },
        {
          "internalType": "uint256",
          "name": "tokenId",
          "type": "uint256"
        }
      ],
      "name": "approve",
      "outputs": [],
      "stateMutability": "nonpayable",
      "type": "function"
    },
    {
      "inputs": [
        {
          "internalType": "address",
          "name": "owner",
          "type": "address"
        }
      ],
      "name": "balanceOf",
      "outputs": [
        {
          "internalType": "uint256",
          "name": "",
          "type": "uint256"
        }
      ],
      "stateMutability": "view",
      "type": "function"
    },
    {
      "inputs": [
        {
          "internalType": "address",
          "name": "_bannedMod",
          "type": "address"
        },
        {
          "internalType": "uint256",
          "name": "_channelId",
          "type": "uint256"
        }
      ],
      "name": "banMod",
      "outputs": [],
      "stateMutability": "nonpayable",
      "type": "function"
    },
    {
      "inputs": [
        {
          "internalType": "address",
          "name": "_blacklistedUser",
          "type": "address"
        }
      ],
      "name": "blacklistUser",
      "outputs": [],
      "stateMutability": "nonpayable",
      "type": "function"
    },
    {
      "inputs": [
        {
          "internalType": "address",
          "name": "_bannedAccount",
          "type": "address"
        },
        {
          "internalType": "uint256",
          "name": "_channelId",
          "type": "uint256"
        }
      ],
      "name": "channelBan",
      "outputs": [],
      "stateMutability": "nonpayable",
      "type": "function"
    },
    {
      "inputs": [
        {
          "internalType": "uint256",
          "name": "",
          "type": "uint256"
        },
        {
          "internalType": "address",
          "name": "",
          "type": "address"
        }
      ],
      "name": "channelBans",
      "outputs": [
        {
          "internalType": "bool",
          "name": "",
          "type": "bool"
        }
      ],
      "stateMutability": "view",
      "type": "function"
    },
    {
      "inputs": [
        {
          "internalType": "address",
          "name": "",
          "type": "address"
        }
      ],
      "name": "channelExistsForToken",
      "outputs": [
        {
          "internalType": "bool",
          "name": "",
          "type": "bool"
        }
      ],
      "stateMutability": "view",
      "type": "function"
    },
    {
      "inputs": [
        {
          "internalType": "address",
          "name": "_bannedAccount",
          "type": "address"
        },
        {
          "internalType": "uint256",
          "name": "_channelId",
          "type": "uint256"
        }
      ],
      "name": "channelUnban",
      "outputs": [],
      "stateMutability": "nonpayable",
      "type": "function"
    },
    {
      "inputs": [
        {
          "internalType": "uint256",
          "name": "",
          "type": "uint256"
        }
      ],
      "name": "channels",
      "outputs": [
        {
          "internalType": "uint256",
          "name": "id",
          "type": "uint256"
        },
        {
          "internalType": "address",
          "name": "tokenAdress",
          "type": "address"
        },
        {
          "internalType": "string",
          "name": "name",
          "type": "string"
        },
        {
          "internalType": "string",
          "name": "tokenType",
          "type": "string"
        }
      ],
      "stateMutability": "view",
      "type": "function"
    },
    {
      "inputs": [
        {
          "internalType": "address",
          "name": "_tokenAddress",
          "type": "address"
        },
        {
          "internalType": "string",
          "name": "_tokenType",
          "type": "string"
        }
      ],
      "name": "createChannel",
      "outputs": [],
      "stateMutability": "nonpayable",
      "type": "function"
    },
    {
      "inputs": [
        {
          "internalType": "uint256",
          "name": "tokenId",
          "type": "uint256"
        }
      ],
      "name": "getApproved",
      "outputs": [
        {
          "internalType": "address",
          "name": "",
          "type": "address"
        }
      ],
      "stateMutability": "view",
      "type": "function"
    },
    {
      "inputs": [
        {
          "internalType": "uint256",
          "name": "_channelId",
          "type": "uint256"
        }
      ],
      "name": "getChannel",
      "outputs": [
        {
          "components": [
            {
              "internalType": "uint256",
              "name": "id",
              "type": "uint256"
            },
            {
              "internalType": "address",
              "name": "tokenAdress",
              "type": "address"
            },
            {
              "internalType": "string",
              "name": "name",
              "type": "string"
            },
            {
              "internalType": "string",
              "name": "tokenType",
              "type": "string"
            }
          ],
          "internalType": "struct AlphaPING.Channel",
          "name": "",
          "type": "tuple"
        }
      ],
      "stateMutability": "view",
      "type": "function"
    },
    {
      "inputs": [
        {
          "internalType": "uint256",
          "name": "",
          "type": "uint256"
        },
        {
          "internalType": "address",
          "name": "",
          "type": "address"
        }
      ],
      "name": "hasJoinedChannel",
      "outputs": [
        {
          "internalType": "bool",
          "name": "",
          "type": "bool"
        }
      ],
      "stateMutability": "view",
      "type": "function"
    },
    {
      "inputs": [
        {
          "internalType": "address",
          "name": "owner",
          "type": "address"
        },
        {
          "internalType": "address",
          "name": "operator",
          "type": "address"
        }
      ],
      "name": "isApprovedForAll",
      "outputs": [
        {
          "internalType": "bool",
          "name": "",
          "type": "bool"
        }
      ],
      "stateMutability": "view",
      "type": "function"
    },
    {
      "inputs": [
        {
          "internalType": "address",
          "name": "",
          "type": "address"
        }
      ],
      "name": "isBlackListed",
      "outputs": [
        {
          "internalType": "bool",
          "name": "",
          "type": "bool"
        }
      ],
      "stateMutability": "view",
      "type": "function"
    },
    {
      "inputs": [
        {
          "internalType": "address",
          "name": "",
          "type": "address"
        }
      ],
      "name": "isMember",
      "outputs": [
        {
          "internalType": "bool",
          "name": "",
          "type": "bool"
        }
      ],
      "stateMutability": "view",
      "type": "function"
    },
    {
      "inputs": [
        {
          "internalType": "uint256",
          "name": "_channelId",
          "type": "uint256"
        }
      ],
      "name": "joinChannel",
      "outputs": [],
      "stateMutability": "nonpayable",
      "type": "function"
    },
    {
      "inputs": [
        {
          "internalType": "uint256",
          "name": "_channelId",
          "type": "uint256"
        }
      ],
      "name": "leaveChannel",
      "outputs": [],
      "stateMutability": "nonpayable",
      "type": "function"
    },
    {
      "inputs": [],
      "name": "mint",
      "outputs": [],
      "stateMutability": "nonpayable",
      "type": "function"
    },
    {
      "inputs": [
        {
          "internalType": "uint256",
          "name": "",
          "type": "uint256"
        }
      ],
      "name": "mods",
      "outputs": [
        {
          "internalType": "address",
          "name": "",
          "type": "address"
        }
      ],
      "stateMutability": "view",
      "type": "function"
    },
    {
      "inputs": [],
      "name": "name",
      "outputs": [
        {
          "internalType": "string",
          "name": "",
          "type": "string"
        }
      ],
      "stateMutability": "view",
      "type": "function"
    },
    {
      "inputs": [],
      "name": "owner",
      "outputs": [
        {
          "internalType": "address",
          "name": "",
          "type": "address"
        }
      ],
      "stateMutability": "view",
      "type": "function"
    },
    {
      "inputs": [
        {
          "internalType": "uint256",
          "name": "tokenId",
          "type": "uint256"
        }
      ],
      "name": "ownerOf",
      "outputs": [
        {
          "internalType": "address",
          "name": "",
          "type": "address"
        }
      ],
      "stateMutability": "view",
      "type": "function"
    },
    {
      "inputs": [
        {
          "internalType": "address",
          "name": "from",
          "type": "address"
        },
        {
          "internalType": "address",
          "name": "to",
          "type": "address"
        },
        {
          "internalType": "uint256",
          "name": "tokenId",
          "type": "uint256"
        }
      ],
      "name": "safeTransferFrom",
      "outputs": [],
      "stateMutability": "nonpayable",
      "type": "function"
    },
    {
      "inputs": [
        {
          "internalType": "address",
          "name": "from",
          "type": "address"
        },
        {
          "internalType": "address",
          "name": "to",
          "type": "address"
        },
        {
          "internalType": "uint256",
          "name": "tokenId",
          "type": "uint256"
        },
        {
          "internalType": "bytes",
          "name": "data",
          "type": "bytes"
        }
      ],
      "name": "safeTransferFrom",
      "outputs": [],
      "stateMutability": "nonpayable",
      "type": "function"
    },
    {
      "inputs": [
        {
          "internalType": "address",
          "name": "operator",
          "type": "address"
        },
        {
          "internalType": "bool",
          "name": "approved",
          "type": "bool"
        }
      ],
      "name": "setApprovalForAll",
      "outputs": [],
      "stateMutability": "nonpayable",
      "type": "function"
    },
    {
      "inputs": [
        {
          "internalType": "bytes4",
          "name": "interfaceId",
          "type": "bytes4"
        }
      ],
      "name": "supportsInterface",
      "outputs": [
        {
          "internalType": "bool",
          "name": "",
          "type": "bool"
        }
      ],
      "stateMutability": "view",
      "type": "function"
    },
    {
      "inputs": [],
      "name": "symbol",
      "outputs": [
        {
          "internalType": "string",
          "name": "",
          "type": "string"
        }
      ],
      "stateMutability": "view",
      "type": "function"
    },
    {
      "inputs": [
        {
          "internalType": "uint256",
          "name": "tokenId",
          "type": "uint256"
        }
      ],
      "name": "tokenURI",
      "outputs": [
        {
          "internalType": "string",
          "name": "",
          "type": "string"
        }
      ],
      "stateMutability": "view",
      "type": "function"
    },
    {
      "inputs": [],
      "name": "totalChannels",
      "outputs": [
        {
          "internalType": "uint256",
          "name": "",
          "type": "uint256"
        }
      ],
      "stateMutability": "view",
      "type": "function"
    },
    {
      "inputs": [],
      "name": "totalSupply",
      "outputs": [
        {
          "internalType": "uint256",
          "name": "",
          "type": "uint256"
        }
      ],
      "stateMutability": "view",
      "type": "function"
    },
    {
      "inputs": [
        {
          "internalType": "address",
          "name": "from",
          "type": "address"
        },
        {
          "internalType": "address",
          "name": "to",
          "type": "address"
        },
        {
          "internalType": "uint256",
          "name": "tokenId",
          "type": "uint256"
        }
      ],
      "name": "transferFrom",
      "outputs": [],
      "stateMutability": "nonpayable",
      "type": "function"
    },
    {
      "inputs": [
        {
          "internalType": "address",
          "name": "_newMod",
          "type": "address"
        },
        {
          "internalType": "uint256",
          "name": "_channelId",
          "type": "uint256"
        }
      ],
      "name": "transferMod",
      "outputs": [],
      "stateMutability": "nonpayable",
      "type": "function"
    },
    {
      "inputs": [
        {
          "internalType": "address",
          "name": "_newOwner",
          "type": "address"
        }
      ],
      "name": "transferOwner",
      "outputs": [],
      "stateMutability": "nonpayable",
      "type": "function"
    },
    {
      "inputs": [
        {
          "internalType": "address",
          "name": "_blacklistedUser",
          "type": "address"
        }
      ],
      "name": "unBlacklistUser",
      "outputs": [],
      "stateMutability": "nonpayable",
      "type": "function"
    },
    {
      "inputs": [],
      "name": "withdraw",
      "outputs": [],
      "stateMutability": "nonpayable",
      "type": "function"
    }
  ],
  "bytecode": "0x60806040523480156200001157600080fd5b5060405162006e1238038062006e12833981810160405281019062000037919062000d5b565b818181600090816200004a91906200102b565b5080600190816200005c91906200102b565b50505033600760006101000a81548173ffffffffffffffffffffffffffffffffffffffff021916908373ffffffffffffffffffffffffffffffffffffffff160217905550620000b0620000b860201b60201c565b50506200138b565b60066000815480929190620000cd9062001141565b9190505550620000e6336006546200014060201b60201c565b6001600d60003373ffffffffffffffffffffffffffffffffffffffff1673ffffffffffffffffffffffffffffffffffffffff16815260200190815260200160002060006101000a81548160ff021916908315150217905550565b620001628282604051806020016040528060008152506200016660201b60201c565b5050565b6200017883836200019260201b60201c565b6200018d60008484846200029960201b60201c565b505050565b600073ffffffffffffffffffffffffffffffffffffffff168273ffffffffffffffffffffffffffffffffffffffff1603620002075760006040517f64a0ae92000000000000000000000000000000000000000000000000000000008152600401620001fe9190620011d3565b60405180910390fd5b60006200021d838360006200046760201b60201c565b9050600073ffffffffffffffffffffffffffffffffffffffff168173ffffffffffffffffffffffffffffffffffffffff1614620002945760006040517f73c6ac6e0000000000000000000000000000000000000000000000000000000081526004016200028b9190620011d3565b60405180910390fd5b505050565b60008373ffffffffffffffffffffffffffffffffffffffff163b111562000461578273ffffffffffffffffffffffffffffffffffffffff1663150b7a02620002e66200069c60201b60201c565b8685856040518563ffffffff1660e01b81526004016200030a94939291906200125e565b6020604051808303816000875af19250505080156200034957506040513d601f19601f820116820180604052508101906200034691906200130f565b60015b620003d3573d80600081146200037c576040519150601f19603f3d011682016040523d82523d6000602084013e62000381565b606091505b506000815103620003cb57836040517f64a0ae92000000000000000000000000000000000000000000000000000000008152600401620003c29190620011d3565b60405180910390fd5b805181602001fd5b63150b7a0260e01b7bffffffffffffffffffffffffffffffffffffffffffffffffffffffff1916817bffffffffffffffffffffffffffffffffffffffffffffffffffffffff1916146200045f57836040517f64a0ae92000000000000000000000000000000000000000000000000000000008152600401620004569190620011d3565b60405180910390fd5b505b50505050565b6000806200047b84620006a460201b60201c565b9050600073ffffffffffffffffffffffffffffffffffffffff168373ffffffffffffffffffffffffffffffffffffffff1614620004c657620004c5818486620006e160201b60201c565b5b600073ffffffffffffffffffffffffffffffffffffffff168173ffffffffffffffffffffffffffffffffffffffff1614620005605762000511600085600080620007b360201b60201c565b6001600360008373ffffffffffffffffffffffffffffffffffffffff1673ffffffffffffffffffffffffffffffffffffffff168152602001908152602001600020600082825403925050819055505b600073ffffffffffffffffffffffffffffffffffffffff168573ffffffffffffffffffffffffffffffffffffffff1614620005e4576001600360008773ffffffffffffffffffffffffffffffffffffffff1673ffffffffffffffffffffffffffffffffffffffff168152602001908152602001600020600082825401925050819055505b846002600086815260200190815260200160002060006101000a81548173ffffffffffffffffffffffffffffffffffffffff021916908373ffffffffffffffffffffffffffffffffffffffff160217905550838573ffffffffffffffffffffffffffffffffffffffff168273ffffffffffffffffffffffffffffffffffffffff167fddf252ad1be2c89b69c2b068fc378daa952ba7f163c4a11628f55a4df523b3ef60405160405180910390a4809150509392505050565b600033905090565b60006002600083815260200190815260200160002060009054906101000a900473ffffffffffffffffffffffffffffffffffffffff169050919050565b620006f48383836200099060201b60201c565b620007ae57600073ffffffffffffffffffffffffffffffffffffffff168373ffffffffffffffffffffffffffffffffffffffff16036200076d57806040517f7e27328900000000000000000000000000000000000000000000000000000000815260040162000764919062001341565b60405180910390fd5b81816040517f177e802f000000000000000000000000000000000000000000000000000000008152600401620007a59291906200135e565b60405180910390fd5b505050565b8080620007ed5750600073ffffffffffffffffffffffffffffffffffffffff168273ffffffffffffffffffffffffffffffffffffffff1614155b1562000938576000620008068462000a6460201b60201c565b9050600073ffffffffffffffffffffffffffffffffffffffff168373ffffffffffffffffffffffffffffffffffffffff16141580156200087257508273ffffffffffffffffffffffffffffffffffffffff168173ffffffffffffffffffffffffffffffffffffffff1614155b80156200088e57506200088c818462000af760201b60201c565b155b15620008d357826040517fa9fbf51f000000000000000000000000000000000000000000000000000000008152600401620008ca9190620011d3565b60405180910390fd5b81156200093657838573ffffffffffffffffffffffffffffffffffffffff168273ffffffffffffffffffffffffffffffffffffffff167f8c5be1e5ebec7d5bd14f71427d1e84f3dd0314c0f7b2291e5b200ac8c7c3b92560405160405180910390a45b505b836004600085815260200190815260200160002060006101000a81548173ffffffffffffffffffffffffffffffffffffffff021916908373ffffffffffffffffffffffffffffffffffffffff16021790555050505050565b60008073ffffffffffffffffffffffffffffffffffffffff168373ffffffffffffffffffffffffffffffffffffffff161415801562000a5b57508273ffffffffffffffffffffffffffffffffffffffff168473ffffffffffffffffffffffffffffffffffffffff16148062000a13575062000a12848462000af760201b60201c565b5b8062000a5a57508273ffffffffffffffffffffffffffffffffffffffff1662000a428362000b8b60201b60201c565b73ffffffffffffffffffffffffffffffffffffffff16145b5b90509392505050565b60008062000a7883620006a460201b60201c565b9050600073ffffffffffffffffffffffffffffffffffffffff168173ffffffffffffffffffffffffffffffffffffffff160362000aee57826040517f7e27328900000000000000000000000000000000000000000000000000000000815260040162000ae5919062001341565b60405180910390fd5b80915050919050565b6000600560008473ffffffffffffffffffffffffffffffffffffffff1673ffffffffffffffffffffffffffffffffffffffff16815260200190815260200160002060008373ffffffffffffffffffffffffffffffffffffffff1673ffffffffffffffffffffffffffffffffffffffff16815260200190815260200160002060009054906101000a900460ff16905092915050565b60006004600083815260200190815260200160002060009054906101000a900473ffffffffffffffffffffffffffffffffffffffff169050919050565b6000604051905090565b600080fd5b600080fd5b600080fd5b600080fd5b6000601f19601f8301169050919050565b7f4e487b7100000000000000000000000000000000000000000000000000000000600052604160045260246000fd5b62000c318262000be6565b810181811067ffffffffffffffff8211171562000c535762000c5262000bf7565b5b80604052505050565b600062000c6862000bc8565b905062000c76828262000c26565b919050565b600067ffffffffffffffff82111562000c995762000c9862000bf7565b5b62000ca48262000be6565b9050602081019050919050565b60005b8381101562000cd157808201518184015260208101905062000cb4565b60008484015250505050565b600062000cf462000cee8462000c7b565b62000c5c565b90508281526020810184848401111562000d135762000d1262000be1565b5b62000d2084828562000cb1565b509392505050565b600082601f83011262000d405762000d3f62000bdc565b5b815162000d5284826020860162000cdd565b91505092915050565b6000806040838503121562000d755762000d7462000bd2565b5b600083015167ffffffffffffffff81111562000d965762000d9562000bd7565b5b62000da48582860162000d28565b925050602083015167ffffffffffffffff81111562000dc85762000dc762000bd7565b5b62000dd68582860162000d28565b9150509250929050565b600081519050919050565b7f4e487b7100000000000000000000000000000000000000000000000000000000600052602260045260246000fd5b6000600282049050600182168062000e3357607f821691505b60208210810362000e495762000e4862000deb565b5b50919050565b60008190508160005260206000209050919050565b60006020601f8301049050919050565b600082821b905092915050565b60006008830262000eb37fffffffffffffffffffffffffffffffffffffffffffffffffffffffffffffffff8262000e74565b62000ebf868362000e74565b95508019841693508086168417925050509392505050565b6000819050919050565b6000819050919050565b600062000f0c62000f0662000f008462000ed7565b62000ee1565b62000ed7565b9050919050565b6000819050919050565b62000f288362000eeb565b62000f4062000f378262000f13565b84845462000e81565b825550505050565b600090565b62000f5762000f48565b62000f6481848462000f1d565b505050565b5b8181101562000f8c5762000f8060008262000f4d565b60018101905062000f6a565b5050565b601f82111562000fdb5762000fa58162000e4f565b62000fb08462000e64565b8101602085101562000fc0578190505b62000fd862000fcf8562000e64565b83018262000f69565b50505b505050565b600082821c905092915050565b6000620010006000198460080262000fe0565b1980831691505092915050565b60006200101b838362000fed565b9150826002028217905092915050565b620010368262000de0565b67ffffffffffffffff81111562001052576200105162000bf7565b5b6200105e825462000e1a565b6200106b82828562000f90565b600060209050601f831160018114620010a357600084156200108e578287015190505b6200109a85826200100d565b8655506200110a565b601f198416620010b38662000e4f565b60005b82811015620010dd57848901518255600182019150602085019450602081019050620010b6565b86831015620010fd5784890151620010f9601f89168262000fed565b8355505b6001600288020188555050505b505050505050565b7f4e487b7100000000000000000000000000000000000000000000000000000000600052601160045260246000fd5b60006200114e8262000ed7565b91507fffffffffffffffffffffffffffffffffffffffffffffffffffffffffffffffff820362001183576200118262001112565b5b600182019050919050565b600073ffffffffffffffffffffffffffffffffffffffff82169050919050565b6000620011bb826200118e565b9050919050565b620011cd81620011ae565b82525050565b6000602082019050620011ea6000830184620011c2565b92915050565b620011fb8162000ed7565b82525050565b600081519050919050565b600082825260208201905092915050565b60006200122a8262001201565b6200123681856200120c565b93506200124881856020860162000cb1565b620012538162000be6565b840191505092915050565b6000608082019050620012756000830187620011c2565b620012846020830186620011c2565b620012936040830185620011f0565b8181036060830152620012a781846200121d565b905095945050505050565b60007fffffffff0000000000000000000000000000000000000000000000000000000082169050919050565b620012e981620012b2565b8114620012f557600080fd5b50565b6000815190506200130981620012de565b92915050565b60006020828403121562001328576200132762000bd2565b5b60006200133884828501620012f8565b91505092915050565b6000602082019050620013586000830184620011f0565b92915050565b6000604082019050620013756000830185620011c2565b620013846020830184620011f0565b9392505050565b615a77806200139b6000396000f3fe608060405234801561001057600080fd5b506004361061021c5760003560e01c80638344523211610125578063c87b56dd116100ad578063e5949b5d1161007c578063e5949b5d1461065b578063e985e9c51461068e578063ec4ceae9146106be578063f2f06bcb146106da578063fcbca456146106f65761021c565b8063c87b56dd146105af578063cb661f39146105df578063e04794b61461060f578063e47d60601461062b5761021c565b8063a230c524116100f4578063a230c524146104fb578063a900a08a1461052b578063b64afe0514610547578063b88d4fde14610563578063c00af42c1461057f5761021c565b806383445232146104735780638da5cb5b146104a357806395d89b41146104c1578063a22cb465146104df5761021c565b806328a12642116101a8578063604a427e11610177578063604a427e146103bd5780636352211e146103d957806370a08231146104095780637734a9f61461043957806380d1ca89146104575761021c565b806328a126421461034b5780633ccfd60b1461037b57806342842e0e146103855780634fb2e45d146103a15761021c565b806310df54a0116101ef57806310df54a0146102bb5780631249c58b146102eb57806318160ddd146102f557806323b872dd146103135780632819cc0c1461032f5761021c565b806301ffc9a71461022157806306fdde0314610251578063081812fc1461026f578063095ea7b31461029f575b600080fd5b61023b60048036038101906102369190613db9565b610712565b6040516102489190613e01565b60405180910390f35b6102596107f4565b6040516102669190613eac565b60405180910390f35b61028960048036038101906102849190613f04565b610886565b6040516102969190613f72565b60405180910390f35b6102b960048036038101906102b49190613fb9565b6108a2565b005b6102d560048036038101906102d09190613f04565b6108b8565b6040516102e291906140cb565b60405180910390f35b6102f3610af3565b005b6102fd610b71565b60405161030a91906140fc565b60405180910390f35b61032d60048036038101906103289190614117565b610b77565b005b61034960048036038101906103449190613f04565b610c79565b005b6103656004803603810190610360919061416a565b610f39565b6040516103729190613e01565b60405180910390f35b610383610f68565b005b61039f600480360381019061039a9190614117565b611126565b005b6103bb60048036038101906103b691906141aa565b611146565b005b6103d760048036038101906103d29190613fb9565b6113d3565b005b6103f360048036038101906103ee9190613f04565b6115df565b6040516104009190613f72565b60405180910390f35b610423600480360381019061041e91906141aa565b6115f1565b60405161043091906140fc565b60405180910390f35b6104416116ab565b60405161044e91906140fc565b60405180910390f35b610471600480360381019061046c9190613fb9565b6116b1565b005b61048d6004803603810190610488919061416a565b611945565b60405161049a9190613e01565b60405180910390f35b6104ab611974565b6040516104b89190613f72565b60405180910390f35b6104c961199a565b6040516104d69190613eac565b60405180910390f35b6104f960048036038101906104f49190614203565b611a2c565b005b610515600480360381019061051091906141aa565b611a42565b6040516105229190613e01565b60405180910390f35b61054560048036038101906105409190613f04565b611a62565b005b610561600480360381019061055c9190613fb9565b611c8f565b005b61057d60048036038101906105789190614378565b611e9b565b005b61059960048036038101906105949190613f04565b611eb8565b6040516105a69190613f72565b60405180910390f35b6105c960048036038101906105c49190613f04565b611eeb565b6040516105d69190613eac565b60405180910390f35b6105f960048036038101906105f491906141aa565b611f54565b6040516106069190613e01565b60405180910390f35b61062960048036038101906106249190613fb9565b611f74565b005b610645600480360381019061064091906141aa565b612308565b6040516106529190613e01565b60405180910390f35b61067560048036038101906106709190613f04565b612328565b60405161068594939291906143fb565b60405180910390f35b6106a860048036038101906106a3919061444e565b612488565b6040516106b59190613e01565b60405180910390f35b6106d860048036038101906106d391906141aa565b61251c565b005b6106f460048036038101906106ef919061452f565b61269a565b005b610710600480360381019061070b91906141aa565b612e16565b005b60007f80ac58cd000000000000000000000000000000000000000000000000000000007bffffffffffffffffffffffffffffffffffffffffffffffffffffffff1916827bffffffffffffffffffffffffffffffffffffffffffffffffffffffff191614806107dd57507f5b5e139f000000000000000000000000000000000000000000000000000000007bffffffffffffffffffffffffffffffffffffffffffffffffffffffff1916827bffffffffffffffffffffffffffffffffffffffffffffffffffffffff1916145b806107ed57506107ec82612f94565b5b9050919050565b606060008054610803906145ba565b80601f016020809104026020016040519081016040528092919081815260200182805461082f906145ba565b801561087c5780601f106108515761010080835404028352916020019161087c565b820191906000526020600020905b81548152906001019060200180831161085f57829003601f168201915b5050505050905090565b600061089182612ffe565b5061089b82613086565b9050919050565b6108b482826108af6130c3565b6130cb565b5050565b6108c0613d0f565b8160008103610904576040517f08c379a00000000000000000000000000000000000000000000000000000000081526004016108fb9061465d565b60405180910390fd5b600954811115610949576040517f08c379a0000000000000000000000000000000000000000000000000000000008152600401610940906146c9565b60405180910390fd5b600b6000848152602001908152602001600020604051806080016040529081600082015481526020016001820160009054906101000a900473ffffffffffffffffffffffffffffffffffffffff1673ffffffffffffffffffffffffffffffffffffffff1673ffffffffffffffffffffffffffffffffffffffff1681526020016002820180546109d7906145ba565b80601f0160208091040260200160405190810160405280929190818152602001828054610a03906145ba565b8015610a505780601f10610a2557610100808354040283529160200191610a50565b820191906000526020600020905b815481529060010190602001808311610a3357829003601f168201915b50505050508152602001600382018054610a69906145ba565b80601f0160208091040260200160405190810160405280929190818152602001828054610a95906145ba565b8015610ae25780601f10610ab757610100808354040283529160200191610ae2565b820191906000526020600020905b815481529060010190602001808311610ac557829003601f168201915b505050505081525050915050919050565b60066000815480929190610b0690614718565b9190505550610b17336006546130dd565b6001600d60003373ffffffffffffffffffffffffffffffffffffffff1673ffffffffffffffffffffffffffffffffffffffff16815260200190815260200160002060006101000a81548160ff021916908315150217905550565b60065481565b600073ffffffffffffffffffffffffffffffffffffffff168273ffffffffffffffffffffffffffffffffffffffff1603610be95760006040517f64a0ae92000000000000000000000000000000000000000000000000000000008152600401610be09190613f72565b60405180910390fd5b6000610bfd8383610bf86130c3565b6130fb565b90508373ffffffffffffffffffffffffffffffffffffffff168173ffffffffffffffffffffffffffffffffffffffff1614610c73578382826040517f64283d7b000000000000000000000000000000000000000000000000000000008152600401610c6a93929190614760565b60405180910390fd5b50505050565b60011515600d60003373ffffffffffffffffffffffffffffffffffffffff1673ffffffffffffffffffffffffffffffffffffffff16815260200190815260200160002060009054906101000a900460ff16151514610d0c576040517f08c379a0000000000000000000000000000000000000000000000000000000008152600401610d0390614809565b60405180910390fd5b60011515600e60003373ffffffffffffffffffffffffffffffffffffffff1673ffffffffffffffffffffffffffffffffffffffff16815260200190815260200160002060009054906101000a900460ff16151503610d9f576040517f08c379a0000000000000000000000000000000000000000000000000000000008152600401610d96906148c1565b60405180910390fd5b8060008103610de3576040517f08c379a0000000000000000000000000000000000000000000000000000000008152600401610dda9061465d565b60405180910390fd5b600954811115610e28576040517f08c379a0000000000000000000000000000000000000000000000000000000008152600401610e1f906146c9565b60405180910390fd5b60011515600c600084815260200190815260200160002060003373ffffffffffffffffffffffffffffffffffffffff1673ffffffffffffffffffffffffffffffffffffffff16815260200190815260200160002060009054906101000a900460ff16151503610ecc576040517f08c379a0000000000000000000000000000000000000000000000000000000008152600401610ec390614953565b60405180910390fd5b6001600c600084815260200190815260200160002060003373ffffffffffffffffffffffffffffffffffffffff1673ffffffffffffffffffffffffffffffffffffffff16815260200190815260200160002060006101000a81548160ff0219169083151502179055505050565b600f6020528160005260406000206020528060005260406000206000915091509054906101000a900460ff1681565b600760009054906101000a900473ffffffffffffffffffffffffffffffffffffffff1673ffffffffffffffffffffffffffffffffffffffff163373ffffffffffffffffffffffffffffffffffffffff1614610ff8576040517f08c379a0000000000000000000000000000000000000000000000000000000008152600401610fef906149e5565b60405180910390fd5b60011515600e60003373ffffffffffffffffffffffffffffffffffffffff1673ffffffffffffffffffffffffffffffffffffffff16815260200190815260200160002060009054906101000a900460ff1615150361108b576040517f08c379a0000000000000000000000000000000000000000000000000000000008152600401611082906148c1565b60405180910390fd5b6000600760009054906101000a900473ffffffffffffffffffffffffffffffffffffffff1673ffffffffffffffffffffffffffffffffffffffff16476040516110d390614a36565b60006040518083038185875af1925050503d8060008114611110576040519150601f19603f3d011682016040523d82523d6000602084013e611115565b606091505b505090508061112357600080fd5b50565b61114183838360405180602001604052806000815250611e9b565b505050565b600760009054906101000a900473ffffffffffffffffffffffffffffffffffffffff1673ffffffffffffffffffffffffffffffffffffffff163373ffffffffffffffffffffffffffffffffffffffff16146111d6576040517f08c379a00000000000000000000000000000000000000000000000000000000081526004016111cd906149e5565b60405180910390fd5b60011515600e60003373ffffffffffffffffffffffffffffffffffffffff1673ffffffffffffffffffffffffffffffffffffffff16815260200190815260200160002060009054906101000a900460ff16151503611269576040517f08c379a0000000000000000000000000000000000000000000000000000000008152600401611260906148c1565b60405180910390fd5b60011515600d60008373ffffffffffffffffffffffffffffffffffffffff1673ffffffffffffffffffffffffffffffffffffffff16815260200190815260200160002060009054906101000a900460ff161515146112fc576040517f08c379a00000000000000000000000000000000000000000000000000000000081526004016112f390614abd565b60405180910390fd5b60011515600e60008373ffffffffffffffffffffffffffffffffffffffff1673ffffffffffffffffffffffffffffffffffffffff16815260200190815260200160002060009054906101000a900460ff1615150361138f576040517f08c379a000000000000000000000000000000000000000000000000000000000815260040161138690614b4f565b60405180910390fd5b80600760006101000a81548173ffffffffffffffffffffffffffffffffffffffff021916908373ffffffffffffffffffffffffffffffffffffffff16021790555050565b806008600082815260200190815260200160002060009054906101000a900473ffffffffffffffffffffffffffffffffffffffff1673ffffffffffffffffffffffffffffffffffffffff163373ffffffffffffffffffffffffffffffffffffffff16148061148e5750600760009054906101000a900473ffffffffffffffffffffffffffffffffffffffff1673ffffffffffffffffffffffffffffffffffffffff163373ffffffffffffffffffffffffffffffffffffffff16145b6114cd576040517f08c379a00000000000000000000000000000000000000000000000000000000081526004016114c490614be1565b60405180910390fd5b60011515600f600084815260200190815260200160002060008573ffffffffffffffffffffffffffffffffffffffff1673ffffffffffffffffffffffffffffffffffffffff16815260200190815260200160002060009054906101000a900460ff16151503611571576040517f08c379a000000000000000000000000000000000000000000000000000000000815260040161156890614c73565b60405180910390fd5b6001600f600084815260200190815260200160002060008573ffffffffffffffffffffffffffffffffffffffff1673ffffffffffffffffffffffffffffffffffffffff16815260200190815260200160002060006101000a81548160ff021916908315150217905550505050565b60006115ea82612ffe565b9050919050565b60008073ffffffffffffffffffffffffffffffffffffffff168273ffffffffffffffffffffffffffffffffffffffff16036116645760006040517f89c62b6400000000000000000000000000000000000000000000000000000000815260040161165b9190613f72565b60405180910390fd5b600360008373ffffffffffffffffffffffffffffffffffffffff1673ffffffffffffffffffffffffffffffffffffffff168152602001908152602001600020549050919050565b60095481565b600760009054906101000a900473ffffffffffffffffffffffffffffffffffffffff1673ffffffffffffffffffffffffffffffffffffffff163373ffffffffffffffffffffffffffffffffffffffff1614611741576040517f08c379a0000000000000000000000000000000000000000000000000000000008152600401611738906149e5565b60405180910390fd5b60011515600e60008473ffffffffffffffffffffffffffffffffffffffff1673ffffffffffffffffffffffffffffffffffffffff16815260200190815260200160002060009054906101000a900460ff161515036117d4576040517f08c379a00000000000000000000000000000000000000000000000000000000081526004016117cb90614cdf565b60405180910390fd5b8173ffffffffffffffffffffffffffffffffffffffff166008600083815260200190815260200160002060009054906101000a900473ffffffffffffffffffffffffffffffffffffffff1673ffffffffffffffffffffffffffffffffffffffff1614611875576040517f08c379a000000000000000000000000000000000000000000000000000000000815260040161186c90614d71565b60405180910390fd5b600760009054906101000a900473ffffffffffffffffffffffffffffffffffffffff166008600083815260200190815260200160002060006101000a81548173ffffffffffffffffffffffffffffffffffffffff021916908373ffffffffffffffffffffffffffffffffffffffff1602179055506001600e60008473ffffffffffffffffffffffffffffffffffffffff1673ffffffffffffffffffffffffffffffffffffffff16815260200190815260200160002060006101000a81548160ff0219169083151502179055505050565b600c6020528160005260406000206020528060005260406000206000915091509054906101000a900460ff1681565b600760009054906101000a900473ffffffffffffffffffffffffffffffffffffffff1681565b6060600180546119a9906145ba565b80601f01602080910402602001604051908101604052809291908181526020018280546119d5906145ba565b8015611a225780601f106119f757610100808354040283529160200191611a22565b820191906000526020600020905b815481529060010190602001808311611a0557829003601f168201915b5050505050905090565b611a3e611a376130c3565b8383613315565b5050565b600d6020528060005260406000206000915054906101000a900460ff1681565b60011515600d60003373ffffffffffffffffffffffffffffffffffffffff1673ffffffffffffffffffffffffffffffffffffffff16815260200190815260200160002060009054906101000a900460ff16151514611af5576040517f08c379a0000000000000000000000000000000000000000000000000000000008152600401611aec90614809565b60405180910390fd5b8060008103611b39576040517f08c379a0000000000000000000000000000000000000000000000000000000008152600401611b309061465d565b60405180910390fd5b600954811115611b7e576040517f08c379a0000000000000000000000000000000000000000000000000000000008152600401611b75906146c9565b60405180910390fd5b60011515600c600084815260200190815260200160002060003373ffffffffffffffffffffffffffffffffffffffff1673ffffffffffffffffffffffffffffffffffffffff16815260200190815260200160002060009054906101000a900460ff16151514611c22576040517f08c379a0000000000000000000000000000000000000000000000000000000008152600401611c1990614e03565b60405180910390fd5b6000600c600084815260200190815260200160002060003373ffffffffffffffffffffffffffffffffffffffff1673ffffffffffffffffffffffffffffffffffffffff16815260200190815260200160002060006101000a81548160ff0219169083151502179055505050565b806008600082815260200190815260200160002060009054906101000a900473ffffffffffffffffffffffffffffffffffffffff1673ffffffffffffffffffffffffffffffffffffffff163373ffffffffffffffffffffffffffffffffffffffff161480611d4a5750600760009054906101000a900473ffffffffffffffffffffffffffffffffffffffff1673ffffffffffffffffffffffffffffffffffffffff163373ffffffffffffffffffffffffffffffffffffffff16145b611d89576040517f08c379a0000000000000000000000000000000000000000000000000000000008152600401611d8090614be1565b60405180910390fd5b60011515600f600084815260200190815260200160002060008573ffffffffffffffffffffffffffffffffffffffff1673ffffffffffffffffffffffffffffffffffffffff16815260200190815260200160002060009054906101000a900460ff16151514611e2d576040517f08c379a0000000000000000000000000000000000000000000000000000000008152600401611e2490614e95565b60405180910390fd5b6000600f600084815260200190815260200160002060008573ffffffffffffffffffffffffffffffffffffffff1673ffffffffffffffffffffffffffffffffffffffff16815260200190815260200160002060006101000a81548160ff021916908315150217905550505050565b611ea6848484610b77565b611eb284848484613484565b50505050565b60086020528060005260406000206000915054906101000a900473ffffffffffffffffffffffffffffffffffffffff1681565b6060611ef682612ffe565b506000611f0161363b565b90506000815111611f215760405180602001604052806000815250611f4c565b80611f2b84613652565b604051602001611f3c929190614ef1565b6040516020818303038152906040525b915050919050565b600a6020528060005260406000206000915054906101000a900460ff1681565b8060008103611fb8576040517f08c379a0000000000000000000000000000000000000000000000000000000008152600401611faf9061465d565b60405180910390fd5b600954811115611ffd576040517f08c379a0000000000000000000000000000000000000000000000000000000008152600401611ff4906146c9565b60405180910390fd5b816008600082815260200190815260200160002060009054906101000a900473ffffffffffffffffffffffffffffffffffffffff1673ffffffffffffffffffffffffffffffffffffffff163373ffffffffffffffffffffffffffffffffffffffff1614806120b85750600760009054906101000a900473ffffffffffffffffffffffffffffffffffffffff1673ffffffffffffffffffffffffffffffffffffffff163373ffffffffffffffffffffffffffffffffffffffff16145b6120f7576040517f08c379a00000000000000000000000000000000000000000000000000000000081526004016120ee90614be1565b60405180910390fd5b60011515600e60003373ffffffffffffffffffffffffffffffffffffffff1673ffffffffffffffffffffffffffffffffffffffff16815260200190815260200160002060009054906101000a900460ff1615150361218a576040517f08c379a0000000000000000000000000000000000000000000000000000000008152600401612181906148c1565b60405180910390fd5b60011515600d60008673ffffffffffffffffffffffffffffffffffffffff1673ffffffffffffffffffffffffffffffffffffffff16815260200190815260200160002060009054906101000a900460ff1615151461221d576040517f08c379a000000000000000000000000000000000000000000000000000000000815260040161221490614f87565b60405180910390fd5b60011515600e60008673ffffffffffffffffffffffffffffffffffffffff1673ffffffffffffffffffffffffffffffffffffffff16815260200190815260200160002060009054906101000a900460ff161515036122b0576040517f08c379a00000000000000000000000000000000000000000000000000000000081526004016122a790615019565b60405180910390fd5b836008600085815260200190815260200160002060006101000a81548173ffffffffffffffffffffffffffffffffffffffff021916908373ffffffffffffffffffffffffffffffffffffffff16021790555050505050565b600e6020528060005260406000206000915054906101000a900460ff1681565b600b6020528060005260406000206000915090508060000154908060010160009054906101000a900473ffffffffffffffffffffffffffffffffffffffff1690806002018054612377906145ba565b80601f01602080910402602001604051908101604052809291908181526020018280546123a3906145ba565b80156123f05780601f106123c5576101008083540402835291602001916123f0565b820191906000526020600020905b8154815290600101906020018083116123d357829003601f168201915b505050505090806003018054612405906145ba565b80601f0160208091040260200160405190810160405280929190818152602001828054612431906145ba565b801561247e5780601f106124535761010080835404028352916020019161247e565b820191906000526020600020905b81548152906001019060200180831161246157829003601f168201915b5050505050905084565b6000600560008473ffffffffffffffffffffffffffffffffffffffff1673ffffffffffffffffffffffffffffffffffffffff16815260200190815260200160002060008373ffffffffffffffffffffffffffffffffffffffff1673ffffffffffffffffffffffffffffffffffffffff16815260200190815260200160002060009054906101000a900460ff16905092915050565b600760009054906101000a900473ffffffffffffffffffffffffffffffffffffffff1673ffffffffffffffffffffffffffffffffffffffff163373ffffffffffffffffffffffffffffffffffffffff16146125ac576040517f08c379a00000000000000000000000000000000000000000000000000000000081526004016125a3906149e5565b60405180910390fd5b60011515600e60008373ffffffffffffffffffffffffffffffffffffffff1673ffffffffffffffffffffffffffffffffffffffff16815260200190815260200160002060009054906101000a900460ff1615151461263f576040517f08c379a0000000000000000000000000000000000000000000000000000000008152600401612636906150ab565b60405180910390fd5b6000600e60008373ffffffffffffffffffffffffffffffffffffffff1673ffffffffffffffffffffffffffffffffffffffff16815260200190815260200160002060006101000a81548160ff02191690831515021790555050565b60011515600d60003373ffffffffffffffffffffffffffffffffffffffff1673ffffffffffffffffffffffffffffffffffffffff16815260200190815260200160002060009054906101000a900460ff1615151461272d576040517f08c379a000000000000000000000000000000000000000000000000000000000815260040161272490614809565b60405180910390fd5b60011515600e60003373ffffffffffffffffffffffffffffffffffffffff1673ffffffffffffffffffffffffffffffffffffffff16815260200190815260200160002060009054906101000a900460ff161515036127c0576040517f08c379a00000000000000000000000000000000000000000000000000000000081526004016127b7906148c1565b60405180910390fd5b60011515600a60008473ffffffffffffffffffffffffffffffffffffffff1673ffffffffffffffffffffffffffffffffffffffff16815260200190815260200160002060009054906101000a900460ff16151503612853576040517f08c379a000000000000000000000000000000000000000000000000000000000815260040161284a90615117565b60405180910390fd5b600060405160200161286490615183565b604051602081830303815290604052805190602001209050600060405160200161288d906151e4565b6040516020818303038152906040528051906020012090506000836040516020016128b891906151f9565b604051602081830303815290604052805190602001209050828114806128dd57508181145b61291c576040517f08c379a000000000000000000000000000000000000000000000000000000000815260040161291390615282565b60405180910390fd5b8181036129e1578473ffffffffffffffffffffffffffffffffffffffff166301ffc9a76380ac58cd6040518263ffffffff1660e01b815260040161296091906152ea565b602060405180830381865afa15801561297d573d6000803e3d6000fd5b505050506040513d601f19601f820116820180604052508101906129a1919061531a565b6129e0576040517f08c379a00000000000000000000000000000000000000000000000000000000081526004016129d7906153b9565b60405180910390fd5b5b828103612a9e5760008573ffffffffffffffffffffffffffffffffffffffff1663313ce5676040518163ffffffff1660e01b8152600401602060405180830381865afa158015612a35573d6000803e3d6000fd5b505050506040513d601f19601f82011682018060405250810190612a599190615412565b60ff161015612a9d576040517f08c379a0000000000000000000000000000000000000000000000000000000008152600401612a949061548b565b60405180910390fd5b5b6060838203612b35578573ffffffffffffffffffffffffffffffffffffffff166306fdde036040518163ffffffff1660e01b8152600401600060405180830381865afa925050508015612b1457506040513d6000823e3d601f19601f82011682018060405250810190612b11919061551b565b60015b612b2f57604051806020016040528060008152509050612b34565b809150505b5b828203612bca578573ffffffffffffffffffffffffffffffffffffffff166306fdde036040518163ffffffff1660e01b8152600401600060405180830381865afa925050508015612ba957506040513d6000823e3d601f19601f82011682018060405250810190612ba6919061551b565b60015b612bc457604051806020016040528060008152509050612bc9565b809150505b5b838203612c16576000815111612c15576040517f08c379a0000000000000000000000000000000000000000000000000000000008152600401612c0c906155d6565b60405180910390fd5b5b828203612c62576000815111612c61576040517f08c379a0000000000000000000000000000000000000000000000000000000008152600401612c5890615668565b60405180910390fd5b5b60096000815480929190612c7590614718565b9190505550604051806080016040528060095481526020018773ffffffffffffffffffffffffffffffffffffffff16815260200182815260200186815250600b600060095481526020019081526020016000206000820151816000015560208201518160010160006101000a81548173ffffffffffffffffffffffffffffffffffffffff021916908373ffffffffffffffffffffffffffffffffffffffff1602179055506040820151816002019081612d2e9190615834565b506060820151816003019081612d449190615834565b50905050600760009054906101000a900473ffffffffffffffffffffffffffffffffffffffff1660086000600954815260200190815260200160002060006101000a81548173ffffffffffffffffffffffffffffffffffffffff021916908373ffffffffffffffffffffffffffffffffffffffff16021790555060011515600a60008873ffffffffffffffffffffffffffffffffffffffff1673ffffffffffffffffffffffffffffffffffffffff16815260200190815260200160002060009054906101000a90505050505050505050565b600760009054906101000a900473ffffffffffffffffffffffffffffffffffffffff1673ffffffffffffffffffffffffffffffffffffffff163373ffffffffffffffffffffffffffffffffffffffff1614612ea6576040517f08c379a0000000000000000000000000000000000000000000000000000000008152600401612e9d906149e5565b60405180910390fd5b60011515600e60008373ffffffffffffffffffffffffffffffffffffffff1673ffffffffffffffffffffffffffffffffffffffff16815260200190815260200160002060009054906101000a900460ff16151503612f39576040517f08c379a0000000000000000000000000000000000000000000000000000000008152600401612f3090614cdf565b60405180910390fd5b6001600e60008373ffffffffffffffffffffffffffffffffffffffff1673ffffffffffffffffffffffffffffffffffffffff16815260200190815260200160002060006101000a81548160ff02191690831515021790555050565b60007f01ffc9a7000000000000000000000000000000000000000000000000000000007bffffffffffffffffffffffffffffffffffffffffffffffffffffffff1916827bffffffffffffffffffffffffffffffffffffffffffffffffffffffff1916149050919050565b60008061300a83613720565b9050600073ffffffffffffffffffffffffffffffffffffffff168173ffffffffffffffffffffffffffffffffffffffff160361307d57826040517f7e27328900000000000000000000000000000000000000000000000000000000815260040161307491906140fc565b60405180910390fd5b80915050919050565b60006004600083815260200190815260200160002060009054906101000a900473ffffffffffffffffffffffffffffffffffffffff169050919050565b600033905090565b6130d8838383600161375d565b505050565b6130f7828260405180602001604052806000815250613922565b5050565b60008061310784613720565b9050600073ffffffffffffffffffffffffffffffffffffffff168373ffffffffffffffffffffffffffffffffffffffff16146131495761314881848661393e565b5b600073ffffffffffffffffffffffffffffffffffffffff168173ffffffffffffffffffffffffffffffffffffffff16146131da5761318b60008560008061375d565b6001600360008373ffffffffffffffffffffffffffffffffffffffff1673ffffffffffffffffffffffffffffffffffffffff168152602001908152602001600020600082825403925050819055505b600073ffffffffffffffffffffffffffffffffffffffff168573ffffffffffffffffffffffffffffffffffffffff161461325d576001600360008773ffffffffffffffffffffffffffffffffffffffff1673ffffffffffffffffffffffffffffffffffffffff168152602001908152602001600020600082825401925050819055505b846002600086815260200190815260200160002060006101000a81548173ffffffffffffffffffffffffffffffffffffffff021916908373ffffffffffffffffffffffffffffffffffffffff160217905550838573ffffffffffffffffffffffffffffffffffffffff168273ffffffffffffffffffffffffffffffffffffffff167fddf252ad1be2c89b69c2b068fc378daa952ba7f163c4a11628f55a4df523b3ef60405160405180910390a4809150509392505050565b600073ffffffffffffffffffffffffffffffffffffffff168273ffffffffffffffffffffffffffffffffffffffff160361338657816040517f5b08ba1800000000000000000000000000000000000000000000000000000000815260040161337d9190613f72565b60405180910390fd5b80600560008573ffffffffffffffffffffffffffffffffffffffff1673ffffffffffffffffffffffffffffffffffffffff16815260200190815260200160002060008473ffffffffffffffffffffffffffffffffffffffff1673ffffffffffffffffffffffffffffffffffffffff16815260200190815260200160002060006101000a81548160ff0219169083151502179055508173ffffffffffffffffffffffffffffffffffffffff168373ffffffffffffffffffffffffffffffffffffffff167f17307eab39ab6107e8899845ad3d59bd9653f200f220920489ca2b5937696c31836040516134779190613e01565b60405180910390a3505050565b60008373ffffffffffffffffffffffffffffffffffffffff163b1115613635578273ffffffffffffffffffffffffffffffffffffffff1663150b7a026134c86130c3565b8685856040518563ffffffff1660e01b81526004016134ea949392919061595b565b6020604051808303816000875af192505050801561352657506040513d601f19601f8201168201806040525081019061352391906159bc565b60015b6135aa573d8060008114613556576040519150601f19603f3d011682016040523d82523d6000602084013e61355b565b606091505b5060008151036135a257836040517f64a0ae920000000000000000000000000000000000000000000000000000000081526004016135999190613f72565b60405180910390fd5b805181602001fd5b63150b7a0260e01b7bffffffffffffffffffffffffffffffffffffffffffffffffffffffff1916817bffffffffffffffffffffffffffffffffffffffffffffffffffffffff19161461363357836040517f64a0ae9200000000000000000000000000000000000000000000000000000000815260040161362a9190613f72565b60405180910390fd5b505b50505050565b606060405180602001604052806000815250905090565b60606000600161366184613a02565b01905060008167ffffffffffffffff8111156136805761367f61424d565b5b6040519080825280601f01601f1916602001820160405280156136b25781602001600182028036833780820191505090505b509050600082602001820190505b600115613715578080600190039150507f3031323334353637383961626364656600000000000000000000000000000000600a86061a8153600a8581613709576137086159e9565b5b049450600085036136c0575b819350505050919050565b60006002600083815260200190815260200160002060009054906101000a900473ffffffffffffffffffffffffffffffffffffffff169050919050565b80806137965750600073ffffffffffffffffffffffffffffffffffffffff168273ffffffffffffffffffffffffffffffffffffffff1614155b156138ca5760006137a684612ffe565b9050600073ffffffffffffffffffffffffffffffffffffffff168373ffffffffffffffffffffffffffffffffffffffff161415801561381157508273ffffffffffffffffffffffffffffffffffffffff168173ffffffffffffffffffffffffffffffffffffffff1614155b801561382457506138228184612488565b155b1561386657826040517fa9fbf51f00000000000000000000000000000000000000000000000000000000815260040161385d9190613f72565b60405180910390fd5b81156138c857838573ffffffffffffffffffffffffffffffffffffffff168273ffffffffffffffffffffffffffffffffffffffff167f8c5be1e5ebec7d5bd14f71427d1e84f3dd0314c0f7b2291e5b200ac8c7c3b92560405160405180910390a45b505b836004600085815260200190815260200160002060006101000a81548173ffffffffffffffffffffffffffffffffffffffff021916908373ffffffffffffffffffffffffffffffffffffffff16021790555050505050565b61392c8383613b55565b6139396000848484613484565b505050565b613949838383613c4e565b6139fd57600073ffffffffffffffffffffffffffffffffffffffff168373ffffffffffffffffffffffffffffffffffffffff16036139be57806040517f7e2732890000000000000000000000000000000000000000000000000000000081526004016139b591906140fc565b60405180910390fd5b81816040517f177e802f0000000000000000000000000000000000000000000000000000000081526004016139f4929190615a18565b60405180910390fd5b505050565b600080600090507a184f03e93ff9f4daa797ed6e38ed64bf6a1f0100000000000000008310613a60577a184f03e93ff9f4daa797ed6e38ed64bf6a1f0100000000000000008381613a5657613a556159e9565b5b0492506040810190505b6d04ee2d6d415b85acef81000000008310613a9d576d04ee2d6d415b85acef81000000008381613a9357613a926159e9565b5b0492506020810190505b662386f26fc100008310613acc57662386f26fc100008381613ac257613ac16159e9565b5b0492506010810190505b6305f5e1008310613af5576305f5e1008381613aeb57613aea6159e9565b5b0492506008810190505b6127108310613b1a576127108381613b1057613b0f6159e9565b5b0492506004810190505b60648310613b3d5760648381613b3357613b326159e9565b5b0492506002810190505b600a8310613b4c576001810190505b80915050919050565b600073ffffffffffffffffffffffffffffffffffffffff168273ffffffffffffffffffffffffffffffffffffffff1603613bc75760006040517f64a0ae92000000000000000000000000000000000000000000000000000000008152600401613bbe9190613f72565b60405180910390fd5b6000613bd5838360006130fb565b9050600073ffffffffffffffffffffffffffffffffffffffff168173ffffffffffffffffffffffffffffffffffffffff1614613c495760006040517f73c6ac6e000000000000000000000000000000000000000000000000000000008152600401613c409190613f72565b60405180910390fd5b505050565b60008073ffffffffffffffffffffffffffffffffffffffff168373ffffffffffffffffffffffffffffffffffffffff1614158015613d0657508273ffffffffffffffffffffffffffffffffffffffff168473ffffffffffffffffffffffffffffffffffffffff161480613cc75750613cc68484612488565b5b80613d0557508273ffffffffffffffffffffffffffffffffffffffff16613ced83613086565b73ffffffffffffffffffffffffffffffffffffffff16145b5b90509392505050565b604051806080016040528060008152602001600073ffffffffffffffffffffffffffffffffffffffff16815260200160608152602001606081525090565b6000604051905090565b600080fd5b600080fd5b60007fffffffff0000000000000000000000000000000000000000000000000000000082169050919050565b613d9681613d61565b8114613da157600080fd5b50565b600081359050613db381613d8d565b92915050565b600060208284031215613dcf57613dce613d57565b5b6000613ddd84828501613da4565b91505092915050565b60008115159050919050565b613dfb81613de6565b82525050565b6000602082019050613e166000830184613df2565b92915050565b600081519050919050565b600082825260208201905092915050565b60005b83811015613e56578082015181840152602081019050613e3b565b60008484015250505050565b6000601f19601f8301169050919050565b6000613e7e82613e1c565b613e888185613e27565b9350613e98818560208601613e38565b613ea181613e62565b840191505092915050565b60006020820190508181036000830152613ec68184613e73565b905092915050565b6000819050919050565b613ee181613ece565b8114613eec57600080fd5b50565b600081359050613efe81613ed8565b92915050565b600060208284031215613f1a57613f19613d57565b5b6000613f2884828501613eef565b91505092915050565b600073ffffffffffffffffffffffffffffffffffffffff82169050919050565b6000613f5c82613f31565b9050919050565b613f6c81613f51565b82525050565b6000602082019050613f876000830184613f63565b92915050565b613f9681613f51565b8114613fa157600080fd5b50565b600081359050613fb381613f8d565b92915050565b60008060408385031215613fd057613fcf613d57565b5b6000613fde85828601613fa4565b9250506020613fef85828601613eef565b9150509250929050565b61400281613ece565b82525050565b61401181613f51565b82525050565b600082825260208201905092915050565b600061403382613e1c565b61403d8185614017565b935061404d818560208601613e38565b61405681613e62565b840191505092915050565b60006080830160008301516140796000860182613ff9565b50602083015161408c6020860182614008565b50604083015184820360408601526140a48282614028565b915050606083015184820360608601526140be8282614028565b9150508091505092915050565b600060208201905081810360008301526140e58184614061565b905092915050565b6140f681613ece565b82525050565b600060208201905061411160008301846140ed565b92915050565b6000806000606084860312156141305761412f613d57565b5b600061413e86828701613fa4565b935050602061414f86828701613fa4565b925050604061416086828701613eef565b9150509250925092565b6000806040838503121561418157614180613d57565b5b600061418f85828601613eef565b92505060206141a085828601613fa4565b9150509250929050565b6000602082840312156141c0576141bf613d57565b5b60006141ce84828501613fa4565b91505092915050565b6141e081613de6565b81146141eb57600080fd5b50565b6000813590506141fd816141d7565b92915050565b6000806040838503121561421a57614219613d57565b5b600061422885828601613fa4565b9250506020614239858286016141ee565b9150509250929050565b600080fd5b600080fd5b7f4e487b7100000000000000000000000000000000000000000000000000000000600052604160045260246000fd5b61428582613e62565b810181811067ffffffffffffffff821117156142a4576142a361424d565b5b80604052505050565b60006142b7613d4d565b90506142c3828261427c565b919050565b600067ffffffffffffffff8211156142e3576142e261424d565b5b6142ec82613e62565b9050602081019050919050565b82818337600083830152505050565b600061431b614316846142c8565b6142ad565b90508281526020810184848401111561433757614336614248565b5b6143428482856142f9565b509392505050565b600082601f83011261435f5761435e614243565b5b813561436f848260208601614308565b91505092915050565b6000806000806080858703121561439257614391613d57565b5b60006143a087828801613fa4565b94505060206143b187828801613fa4565b93505060406143c287828801613eef565b925050606085013567ffffffffffffffff8111156143e3576143e2613d5c565b5b6143ef8782880161434a565b91505092959194509250565b600060808201905061441060008301876140ed565b61441d6020830186613f63565b818103604083015261442f8185613e73565b905081810360608301526144438184613e73565b905095945050505050565b6000806040838503121561446557614464613d57565b5b600061447385828601613fa4565b925050602061448485828601613fa4565b9150509250929050565b600067ffffffffffffffff8211156144a9576144a861424d565b5b6144b282613e62565b9050602081019050919050565b60006144d26144cd8461448e565b6142ad565b9050828152602081018484840111156144ee576144ed614248565b5b6144f98482856142f9565b509392505050565b600082601f83011261451657614515614243565b5b81356145268482602086016144bf565b91505092915050565b6000806040838503121561454657614545613d57565b5b600061455485828601613fa4565b925050602083013567ffffffffffffffff81111561457557614574613d5c565b5b61458185828601614501565b9150509250929050565b7f4e487b7100000000000000000000000000000000000000000000000000000000600052602260045260246000fd5b600060028204905060018216806145d257607f821691505b6020821081036145e5576145e461458b565b5b50919050565b7f4368616e6e656c204944204d7573742042652047726561746572205468616e2060008201527f5a65726f21000000000000000000000000000000000000000000000000000000602082015250565b6000614647602583613e27565b9150614652826145eb565b604082019050919050565b600060208201905081810360008301526146768161463a565b9050919050565b7f4368616e6e656c20494420546f6f204c61726765210000000000000000000000600082015250565b60006146b3601583613e27565b91506146be8261467d565b602082019050919050565b600060208201905081810360008301526146e2816146a6565b9050919050565b7f4e487b7100000000000000000000000000000000000000000000000000000000600052601160045260246000fd5b600061472382613ece565b91507fffffffffffffffffffffffffffffffffffffffffffffffffffffffffffffffff8203614755576147546146e9565b5b600182019050919050565b60006060820190506147756000830186613f63565b61478260208301856140ed565b61478f6040830184613f63565b949350505050565b7f4f6e6c7920416c70686150494e47204d656d62657273204d617920457865637560008201527f746520546869732046756e6374696f6e21000000000000000000000000000000602082015250565b60006147f3603183613e27565b91506147fe82614797565b604082019050919050565b60006020820190508181036000830152614822816147e6565b9050919050565b7f54686973205573657227732050726976656c656467657320486176652042656560008201527f6e205265766f6b65642044756520546f204265696e6720426c61636b6c69737460208201527f6564210000000000000000000000000000000000000000000000000000000000604082015250565b60006148ab604383613e27565b91506148b682614829565b606082019050919050565b600060208201905081810360008301526148da8161489e565b9050919050565b7f596f75204861766520416c7265616479204a6f696e656420546869732043686160008201527f6e6e656c00000000000000000000000000000000000000000000000000000000602082015250565b600061493d602483613e27565b9150614948826148e1565b604082019050919050565b6000602082019050818103600083015261496c81614930565b9050919050565b7f4f6e6c79204f776e657220526f6c65204d61792045786563757465205468697360008201527f2046756e6374696f6e2100000000000000000000000000000000000000000000602082015250565b60006149cf602a83613e27565b91506149da82614973565b604082019050919050565b600060208201905081810360008301526149fe816149c2565b9050919050565b600081905092915050565b50565b6000614a20600083614a05565b9150614a2b82614a10565b600082019050919050565b6000614a4182614a13565b9150819050919050565b7f4e6577204f776e6572204d75737420426520416e20416c70686150494e47204d60008201527f656d626572210000000000000000000000000000000000000000000000000000602082015250565b6000614aa7602683613e27565b9150614ab282614a4b565b604082019050919050565b60006020820190508181036000830152614ad681614a9a565b9050919050565b7f4e6577204f776e6572204d757374204e6f7420426520426c61636b6c6973746560008201527f6421000000000000000000000000000000000000000000000000000000000000602082015250565b6000614b39602283613e27565b9150614b4482614add565b604082019050919050565b60006020820190508181036000830152614b6881614b2c565b9050919050565b7f4f6e6c79204368616e6e656c204d6f64206f72204f776e657220526f6c65204d60008201527f6179204578656375746520546869732046756e6374696f6e2100000000000000602082015250565b6000614bcb603983613e27565b9150614bd682614b6f565b604082019050919050565b60006020820190508181036000830152614bfa81614bbe565b9050919050565b7f54686973205573657220497320416c72656164792042616e6e6564204f6e205460008201527f686973204368616e6e656c210000000000000000000000000000000000000000602082015250565b6000614c5d602c83613e27565b9150614c6882614c01565b604082019050919050565b60006020820190508181036000830152614c8c81614c50565b9050919050565b7f5573657220497320416c726561647920426c61636b6c69737465642100000000600082015250565b6000614cc9601c83613e27565b9150614cd482614c93565b602082019050919050565b60006020820190508181036000830152614cf881614cbc565b9050919050565b7f55736572204973204e6f742041204d6f6420466f722054686973204368616e6e60008201527f656c210000000000000000000000000000000000000000000000000000000000602082015250565b6000614d5b602383613e27565b9150614d6682614cff565b604082019050919050565b60006020820190508181036000830152614d8a81614d4e565b9050919050565b7f596f7520417265204e6f742043757272656e746c792041204d656d626572206f60008201527f662054686973204368616e6e656c210000000000000000000000000000000000602082015250565b6000614ded602f83613e27565b9150614df882614d91565b604082019050919050565b60006020820190508181036000830152614e1c81614de0565b9050919050565b7f546869732055736572204973204e6f742043757272656e746c792042616e6e6560008201527f6421000000000000000000000000000000000000000000000000000000000000602082015250565b6000614e7f602283613e27565b9150614e8a82614e23565b604082019050919050565b60006020820190508181036000830152614eae81614e72565b9050919050565b600081905092915050565b6000614ecb82613e1c565b614ed58185614eb5565b9350614ee5818560208601613e38565b80840191505092915050565b6000614efd8285614ec0565b9150614f098284614ec0565b91508190509392505050565b7f4e6577204368616e6e656c204d6f64204d75737420426520416e20416c70686160008201527f50494e47204d656d626572210000000000000000000000000000000000000000602082015250565b6000614f71602c83613e27565b9150614f7c82614f15565b604082019050919050565b60006020820190508181036000830152614fa081614f64565b9050919050565b7f4e6577204368616e6e656c204d6f64204d757374204e6f7420426520426c616360008201527f6b6c697374656421000000000000000000000000000000000000000000000000602082015250565b6000615003602883613e27565b915061500e82614fa7565b604082019050919050565b6000602082019050818103600083015261503281614ff6565b9050919050565b7f55736572204973204e6f742043757272656e746c7920426c61636b6c6973746560008201527f6421000000000000000000000000000000000000000000000000000000000000602082015250565b6000615095602283613e27565b91506150a082615039565b604082019050919050565b600060208201905081810360008301526150c481615088565b9050919050565b7f54686973204368616e6e656c20416c7265616479204578697374732100000000600082015250565b6000615101601c83613e27565b915061510c826150cb565b602082019050919050565b60006020820190508181036000830152615130816150f4565b9050919050565b7f4552433230000000000000000000000000000000000000000000000000000000600082015250565b600061516d600583614eb5565b915061517882615137565b600582019050919050565b600061518e82615160565b9150819050919050565b7f4552433732310000000000000000000000000000000000000000000000000000600082015250565b60006151ce600683614eb5565b91506151d982615198565b600682019050919050565b60006151ef826151c1565b9150819050919050565b60006152058284614ec0565b915081905092915050565b7f546f6b656e2054797065204d757374204569746865722042652045524332302060008201527f6f72204552433732312100000000000000000000000000000000000000000000602082015250565b600061526c602a83613e27565b915061527782615210565b604082019050919050565b6000602082019050818103600083015261529b8161525f565b9050919050565b6000819050919050565b60008160e01b9050919050565b60006152d46152cf6152ca846152a2565b6152ac565b613d61565b9050919050565b6152e4816152b9565b82525050565b60006020820190506152ff60008301846152db565b92915050565b600081519050615314816141d7565b92915050565b6000602082840312156153305761532f613d57565b5b600061533e84828501615305565b91505092915050565b7f54686973204973204e6f7420412056616c69642045524337323120546f6b656e60008201527f2100000000000000000000000000000000000000000000000000000000000000602082015250565b60006153a3602183613e27565b91506153ae82615347565b604082019050919050565b600060208201905081810360008301526153d281615396565b9050919050565b600060ff82169050919050565b6153ef816153d9565b81146153fa57600080fd5b50565b60008151905061540c816153e6565b92915050565b60006020828403121561542857615427613d57565b5b6000615436848285016153fd565b91505092915050565b7f54686973204973204e6f7420412056616c696420455243323020546f6b656e21600082015250565b6000615475602083613e27565b91506154808261543f565b602082019050919050565b600060208201905081810360008301526154a481615468565b9050919050565b60006154be6154b98461448e565b6142ad565b9050828152602081018484840111156154da576154d9614248565b5b6154e5848285613e38565b509392505050565b600082601f83011261550257615501614243565b5b81516155128482602086016154ab565b91505092915050565b60006020828403121561553157615530613d57565b5b600082015167ffffffffffffffff81111561554f5761554e613d5c565b5b61555b848285016154ed565b91505092915050565b7f4e6f204e616d6520466f756e6420466f72205468697320455243323020546f6b60008201527f656e210000000000000000000000000000000000000000000000000000000000602082015250565b60006155c0602383613e27565b91506155cb82615564565b604082019050919050565b600060208201905081810360008301526155ef816155b3565b9050919050565b7f4e6f204e616d6520466f756e6420466f7220546869732045524337323120546f60008201527f6b656e2100000000000000000000000000000000000000000000000000000000602082015250565b6000615652602483613e27565b915061565d826155f6565b604082019050919050565b6000602082019050818103600083015261568181615645565b9050919050565b60008190508160005260206000209050919050565b60006020601f8301049050919050565b600082821b905092915050565b6000600883026156ea7fffffffffffffffffffffffffffffffffffffffffffffffffffffffffffffffff826156ad565b6156f486836156ad565b95508019841693508086168417925050509392505050565b6000819050919050565b600061573161572c61572784613ece565b61570c565b613ece565b9050919050565b6000819050919050565b61574b83615716565b61575f61575782615738565b8484546156ba565b825550505050565b600090565b615774615767565b61577f818484615742565b505050565b5b818110156157a35761579860008261576c565b600181019050615785565b5050565b601f8211156157e8576157b981615688565b6157c28461569d565b810160208510156157d1578190505b6157e56157dd8561569d565b830182615784565b50505b505050565b600082821c905092915050565b600061580b600019846008026157ed565b1980831691505092915050565b600061582483836157fa565b9150826002028217905092915050565b61583d82613e1c565b67ffffffffffffffff8111156158565761585561424d565b5b61586082546145ba565b61586b8282856157a7565b600060209050601f83116001811461589e576000841561588c578287015190505b6158968582615818565b8655506158fe565b601f1984166158ac86615688565b60005b828110156158d4578489015182556001820191506020850194506020810190506158af565b868310156158f157848901516158ed601f8916826157fa565b8355505b6001600288020188555050505b505050505050565b600081519050919050565b600082825260208201905092915050565b600061592d82615906565b6159378185615911565b9350615947818560208601613e38565b61595081613e62565b840191505092915050565b60006080820190506159706000830187613f63565b61597d6020830186613f63565b61598a60408301856140ed565b818103606083015261599c8184615922565b905095945050505050565b6000815190506159b681613d8d565b92915050565b6000602082840312156159d2576159d1613d57565b5b60006159e0848285016159a7565b91505092915050565b7f4e487b7100000000000000000000000000000000000000000000000000000000600052601260045260246000fd5b6000604082019050615a2d6000830185613f63565b615a3a60208301846140ed565b939250505056fea2646970667358221220ce3d79149f27da662f8958331991f01e6730fb444fa3a949a9c818355ab4aac964736f6c63430008180033",
  "linkReferences": {},
  "deployedLinkReferences": {}
}