{
  "_format": "hh-sol-artifact-1",
  "contractName": "AlphaPING",
  "sourceName": "contracts/AlphaPING.sol",
  "abi": [
    {
      "inputs": [
        {
          "internalType": "string",
          "name": "_name",
          "type": "string"
        },
        {
          "internalType": "string",
          "name": "_symbol",
          "type": "string"
        }
      ],
      "stateMutability": "nonpayable",
      "type": "constructor"
    },
    {
      "inputs": [
        {
          "internalType": "address",
          "name": "sender",
          "type": "address"
        },
        {
          "internalType": "uint256",
          "name": "tokenId",
          "type": "uint256"
        },
        {
          "internalType": "address",
          "name": "owner",
          "type": "address"
        }
      ],
      "name": "ERC721IncorrectOwner",
      "type": "error"
    },
    {
      "inputs": [
        {
          "internalType": "address",
          "name": "operator",
          "type": "address"
        },
        {
          "internalType": "uint256",
          "name": "tokenId",
          "type": "uint256"
        }
      ],
      "name": "ERC721InsufficientApproval",
      "type": "error"
    },
    {
      "inputs": [
        {
          "internalType": "address",
          "name": "approver",
          "type": "address"
        }
      ],
      "name": "ERC721InvalidApprover",
      "type": "error"
    },
    {
      "inputs": [
        {
          "internalType": "address",
          "name": "operator",
          "type": "address"
        }
      ],
      "name": "ERC721InvalidOperator",
      "type": "error"
    },
    {
      "inputs": [
        {
          "internalType": "address",
          "name": "owner",
          "type": "address"
        }
      ],
      "name": "ERC721InvalidOwner",
      "type": "error"
    },
    {
      "inputs": [
        {
          "internalType": "address",
          "name": "receiver",
          "type": "address"
        }
      ],
      "name": "ERC721InvalidReceiver",
      "type": "error"
    },
    {
      "inputs": [
        {
          "internalType": "address",
          "name": "sender",
          "type": "address"
        }
      ],
      "name": "ERC721InvalidSender",
      "type": "error"
    },
    {
      "inputs": [
        {
          "internalType": "uint256",
          "name": "tokenId",
          "type": "uint256"
        }
      ],
      "name": "ERC721NonexistentToken",
      "type": "error"
    },
    {
      "anonymous": false,
      "inputs": [
        {
          "indexed": true,
          "internalType": "address",
          "name": "owner",
          "type": "address"
        },
        {
          "indexed": true,
          "internalType": "address",
          "name": "approved",
          "type": "address"
        },
        {
          "indexed": true,
          "internalType": "uint256",
          "name": "tokenId",
          "type": "uint256"
        }
      ],
      "name": "Approval",
      "type": "event"
    },
    {
      "anonymous": false,
      "inputs": [
        {
          "indexed": true,
          "internalType": "address",
          "name": "owner",
          "type": "address"
        },
        {
          "indexed": true,
          "internalType": "address",
          "name": "operator",
          "type": "address"
        },
        {
          "indexed": false,
          "internalType": "bool",
          "name": "approved",
          "type": "bool"
        }
      ],
      "name": "ApprovalForAll",
      "type": "event"
    },
    {
      "anonymous": false,
      "inputs": [
        {
          "indexed": true,
          "internalType": "address",
          "name": "from",
          "type": "address"
        },
        {
          "indexed": true,
          "internalType": "address",
          "name": "to",
          "type": "address"
        },
        {
          "indexed": true,
          "internalType": "uint256",
          "name": "tokenId",
          "type": "uint256"
        }
      ],
      "name": "Transfer",
      "type": "event"
    },
    {
      "inputs": [
        {
          "internalType": "address",
          "name": "to",
          "type": "address"
        },
        {
          "internalType": "uint256",
          "name": "tokenId",
          "type": "uint256"
        }
      ],
      "name": "approve",
      "outputs": [],
      "stateMutability": "nonpayable",
      "type": "function"
    },
    {
      "inputs": [
        {
          "internalType": "address",
          "name": "owner",
          "type": "address"
        }
      ],
      "name": "balanceOf",
      "outputs": [
        {
          "internalType": "uint256",
          "name": "",
          "type": "uint256"
        }
      ],
      "stateMutability": "view",
      "type": "function"
    },
    {
      "inputs": [
        {
          "internalType": "address",
          "name": "_bannedMod",
          "type": "address"
        },
        {
          "internalType": "uint256",
          "name": "_channelId",
          "type": "uint256"
        }
      ],
      "name": "banMod",
      "outputs": [],
      "stateMutability": "nonpayable",
      "type": "function"
    },
    {
      "inputs": [
        {
          "internalType": "address",
          "name": "_blacklistedUser",
          "type": "address"
        }
      ],
      "name": "blacklistUser",
      "outputs": [],
      "stateMutability": "nonpayable",
      "type": "function"
    },
    {
      "inputs": [
        {
          "internalType": "address",
          "name": "_bannedAccount",
          "type": "address"
        },
        {
          "internalType": "uint256",
          "name": "_channelId",
          "type": "uint256"
        }
      ],
      "name": "channelBan",
      "outputs": [],
      "stateMutability": "nonpayable",
      "type": "function"
    },
    {
      "inputs": [
        {
          "internalType": "uint256",
          "name": "",
          "type": "uint256"
        },
        {
          "internalType": "address",
          "name": "",
          "type": "address"
        }
      ],
      "name": "channelBans",
      "outputs": [
        {
          "internalType": "bool",
          "name": "",
          "type": "bool"
        }
      ],
      "stateMutability": "view",
      "type": "function"
    },
    {
      "inputs": [
        {
          "internalType": "address",
          "name": "",
          "type": "address"
        }
      ],
      "name": "channelExistsForToken",
      "outputs": [
        {
          "internalType": "bool",
          "name": "",
          "type": "bool"
        }
      ],
      "stateMutability": "view",
      "type": "function"
    },
    {
      "inputs": [
        {
          "internalType": "address",
          "name": "_bannedAccount",
          "type": "address"
        },
        {
          "internalType": "uint256",
          "name": "_channelId",
          "type": "uint256"
        }
      ],
      "name": "channelUnban",
      "outputs": [],
      "stateMutability": "nonpayable",
      "type": "function"
    },
    {
      "inputs": [
        {
          "internalType": "uint256",
          "name": "",
          "type": "uint256"
        }
      ],
      "name": "channels",
      "outputs": [
        {
          "internalType": "uint256",
          "name": "id",
          "type": "uint256"
        },
        {
          "internalType": "address",
          "name": "tokenAdress",
          "type": "address"
        },
        {
          "internalType": "string",
          "name": "name",
          "type": "string"
        },
        {
          "internalType": "string",
          "name": "tokenType",
          "type": "string"
        }
      ],
      "stateMutability": "view",
      "type": "function"
    },
    {
      "inputs": [
        {
          "internalType": "address",
          "name": "_tokenAddress",
          "type": "address"
        },
        {
          "internalType": "string",
          "name": "_tokenType",
          "type": "string"
        }
      ],
      "name": "createChannel",
      "outputs": [],
      "stateMutability": "nonpayable",
      "type": "function"
    },
    {
      "inputs": [
        {
          "internalType": "uint256",
          "name": "tokenId",
          "type": "uint256"
        }
      ],
      "name": "getApproved",
      "outputs": [
        {
          "internalType": "address",
          "name": "",
          "type": "address"
        }
      ],
      "stateMutability": "view",
      "type": "function"
    },
    {
      "inputs": [
        {
          "internalType": "uint256",
          "name": "_channelId",
          "type": "uint256"
        }
      ],
      "name": "getChannel",
      "outputs": [
        {
          "components": [
            {
              "internalType": "uint256",
              "name": "id",
              "type": "uint256"
            },
            {
              "internalType": "address",
              "name": "tokenAdress",
              "type": "address"
            },
            {
              "internalType": "string",
              "name": "name",
              "type": "string"
            },
            {
              "internalType": "string",
              "name": "tokenType",
              "type": "string"
            }
          ],
          "internalType": "struct AlphaPING.Channel",
          "name": "",
          "type": "tuple"
        }
      ],
      "stateMutability": "view",
      "type": "function"
    },
    {
      "inputs": [
        {
          "internalType": "uint256",
          "name": "",
          "type": "uint256"
        },
        {
          "internalType": "address",
          "name": "",
          "type": "address"
        }
      ],
      "name": "hasJoinedChannel",
      "outputs": [
        {
          "internalType": "bool",
          "name": "",
          "type": "bool"
        }
      ],
      "stateMutability": "view",
      "type": "function"
    },
    {
      "inputs": [
        {
          "internalType": "address",
          "name": "owner",
          "type": "address"
        },
        {
          "internalType": "address",
          "name": "operator",
          "type": "address"
        }
      ],
      "name": "isApprovedForAll",
      "outputs": [
        {
          "internalType": "bool",
          "name": "",
          "type": "bool"
        }
      ],
      "stateMutability": "view",
      "type": "function"
    },
    {
      "inputs": [
        {
          "internalType": "address",
          "name": "",
          "type": "address"
        }
      ],
      "name": "isBlackListed",
      "outputs": [
        {
          "internalType": "bool",
          "name": "",
          "type": "bool"
        }
      ],
      "stateMutability": "view",
      "type": "function"
    },
    {
      "inputs": [
        {
          "internalType": "address",
          "name": "",
          "type": "address"
        }
      ],
      "name": "isMember",
      "outputs": [
        {
          "internalType": "bool",
          "name": "",
          "type": "bool"
        }
      ],
      "stateMutability": "view",
      "type": "function"
    },
    {
      "inputs": [
        {
          "internalType": "uint256",
          "name": "_channelId",
          "type": "uint256"
        }
      ],
      "name": "joinChannel",
      "outputs": [],
      "stateMutability": "nonpayable",
      "type": "function"
    },
    {
      "inputs": [
        {
          "internalType": "uint256",
          "name": "_channelId",
          "type": "uint256"
        }
      ],
      "name": "leaveChannel",
      "outputs": [],
      "stateMutability": "nonpayable",
      "type": "function"
    },
    {
      "inputs": [],
      "name": "mint",
      "outputs": [],
      "stateMutability": "nonpayable",
      "type": "function"
    },
    {
      "inputs": [
        {
          "internalType": "uint256",
          "name": "",
          "type": "uint256"
        }
      ],
      "name": "mods",
      "outputs": [
        {
          "internalType": "address",
          "name": "",
          "type": "address"
        }
      ],
      "stateMutability": "view",
      "type": "function"
    },
    {
      "inputs": [],
      "name": "name",
      "outputs": [
        {
          "internalType": "string",
          "name": "",
          "type": "string"
        }
      ],
      "stateMutability": "view",
      "type": "function"
    },
    {
      "inputs": [],
      "name": "owner",
      "outputs": [
        {
          "internalType": "address",
          "name": "",
          "type": "address"
        }
      ],
      "stateMutability": "view",
      "type": "function"
    },
    {
      "inputs": [
        {
          "internalType": "uint256",
          "name": "tokenId",
          "type": "uint256"
        }
      ],
      "name": "ownerOf",
      "outputs": [
        {
          "internalType": "address",
          "name": "",
          "type": "address"
        }
      ],
      "stateMutability": "view",
      "type": "function"
    },
    {
      "inputs": [],
      "name": "promoPeriod",
      "outputs": [
        {
          "internalType": "bool",
          "name": "",
          "type": "bool"
        }
      ],
      "stateMutability": "view",
      "type": "function"
    },
    {
      "inputs": [
        {
          "internalType": "address",
          "name": "from",
          "type": "address"
        },
        {
          "internalType": "address",
          "name": "to",
          "type": "address"
        },
        {
          "internalType": "uint256",
          "name": "tokenId",
          "type": "uint256"
        }
      ],
      "name": "safeTransferFrom",
      "outputs": [],
      "stateMutability": "nonpayable",
      "type": "function"
    },
    {
      "inputs": [
        {
          "internalType": "address",
          "name": "from",
          "type": "address"
        },
        {
          "internalType": "address",
          "name": "to",
          "type": "address"
        },
        {
          "internalType": "uint256",
          "name": "tokenId",
          "type": "uint256"
        },
        {
          "internalType": "bytes",
          "name": "data",
          "type": "bytes"
        }
      ],
      "name": "safeTransferFrom",
      "outputs": [],
      "stateMutability": "nonpayable",
      "type": "function"
    },
    {
      "inputs": [
        {
          "internalType": "address",
          "name": "operator",
          "type": "address"
        },
        {
          "internalType": "bool",
          "name": "approved",
          "type": "bool"
        }
      ],
      "name": "setApprovalForAll",
      "outputs": [],
      "stateMutability": "nonpayable",
      "type": "function"
    },
    {
      "inputs": [],
      "name": "startPromoPeriod",
      "outputs": [],
      "stateMutability": "nonpayable",
      "type": "function"
    },
    {
      "inputs": [],
      "name": "stopPromoPeriod",
      "outputs": [],
      "stateMutability": "nonpayable",
      "type": "function"
    },
    {
      "inputs": [
        {
          "internalType": "bytes4",
          "name": "interfaceId",
          "type": "bytes4"
        }
      ],
      "name": "supportsInterface",
      "outputs": [
        {
          "internalType": "bool",
          "name": "",
          "type": "bool"
        }
      ],
      "stateMutability": "view",
      "type": "function"
    },
    {
      "inputs": [],
      "name": "symbol",
      "outputs": [
        {
          "internalType": "string",
          "name": "",
          "type": "string"
        }
      ],
      "stateMutability": "view",
      "type": "function"
    },
    {
      "inputs": [
        {
          "internalType": "uint256",
          "name": "tokenId",
          "type": "uint256"
        }
      ],
      "name": "tokenURI",
      "outputs": [
        {
          "internalType": "string",
          "name": "",
          "type": "string"
        }
      ],
      "stateMutability": "view",
      "type": "function"
    },
    {
      "inputs": [],
      "name": "totalChannels",
      "outputs": [
        {
          "internalType": "uint256",
          "name": "",
          "type": "uint256"
        }
      ],
      "stateMutability": "view",
      "type": "function"
    },
    {
      "inputs": [],
      "name": "totalSupply",
      "outputs": [
        {
          "internalType": "uint256",
          "name": "",
          "type": "uint256"
        }
      ],
      "stateMutability": "view",
      "type": "function"
    },
    {
      "inputs": [
        {
          "internalType": "address",
          "name": "from",
          "type": "address"
        },
        {
          "internalType": "address",
          "name": "to",
          "type": "address"
        },
        {
          "internalType": "uint256",
          "name": "tokenId",
          "type": "uint256"
        }
      ],
      "name": "transferFrom",
      "outputs": [],
      "stateMutability": "nonpayable",
      "type": "function"
    },
    {
      "inputs": [
        {
          "internalType": "address",
          "name": "_newMod",
          "type": "address"
        },
        {
          "internalType": "uint256",
          "name": "_channelId",
          "type": "uint256"
        }
      ],
      "name": "transferMod",
      "outputs": [],
      "stateMutability": "nonpayable",
      "type": "function"
    },
    {
      "inputs": [
        {
          "internalType": "address",
          "name": "_newOwner",
          "type": "address"
        }
      ],
      "name": "transferOwner",
      "outputs": [],
      "stateMutability": "nonpayable",
      "type": "function"
    },
    {
      "inputs": [
        {
          "internalType": "address",
          "name": "_blacklistedUser",
          "type": "address"
        }
      ],
      "name": "unBlacklistUser",
      "outputs": [],
      "stateMutability": "nonpayable",
      "type": "function"
    },
    {
      "inputs": [],
      "name": "withdraw",
      "outputs": [],
      "stateMutability": "nonpayable",
      "type": "function"
    }
  ],
  "bytecode": "0x60806040523480156200001157600080fd5b506040516200713b3803806200713b833981810160405281019062000037919062000e1b565b818181600090816200004a9190620010eb565b5080600190816200005c9190620010eb565b50505033600760006101000a81548173ffffffffffffffffffffffffffffffffffffffff021916908373ffffffffffffffffffffffffffffffffffffffff160217905550620000b0620000c860201b60201c565b620000c06200015060201b60201c565b5050620014f4565b60066000815480929190620000dd9062001201565b9190505550620000f6336006546200020060201b60201c565b6001600d60003373ffffffffffffffffffffffffffffffffffffffff1673ffffffffffffffffffffffffffffffffffffffff16815260200190815260200160002060006101000a81548160ff021916908315150217905550565b600760009054906101000a900473ffffffffffffffffffffffffffffffffffffffff1673ffffffffffffffffffffffffffffffffffffffff163373ffffffffffffffffffffffffffffffffffffffff1614620001e3576040517f08c379a0000000000000000000000000000000000000000000000000000000008152600401620001da90620012d5565b60405180910390fd5b6001601060006101000a81548160ff021916908315150217905550565b620002228282604051806020016040528060008152506200022660201b60201c565b5050565b6200023883836200025260201b60201c565b6200024d60008484846200035960201b60201c565b505050565b600073ffffffffffffffffffffffffffffffffffffffff168273ffffffffffffffffffffffffffffffffffffffff1603620002c75760006040517f64a0ae92000000000000000000000000000000000000000000000000000000008152600401620002be91906200133c565b60405180910390fd5b6000620002dd838360006200052760201b60201c565b9050600073ffffffffffffffffffffffffffffffffffffffff168173ffffffffffffffffffffffffffffffffffffffff1614620003545760006040517f73c6ac6e0000000000000000000000000000000000000000000000000000000081526004016200034b91906200133c565b60405180910390fd5b505050565b60008373ffffffffffffffffffffffffffffffffffffffff163b111562000521578273ffffffffffffffffffffffffffffffffffffffff1663150b7a02620003a66200075c60201b60201c565b8685856040518563ffffffff1660e01b8152600401620003ca9493929190620013c7565b6020604051808303816000875af19250505080156200040957506040513d601f19601f8201168201806040525081019062000406919062001478565b60015b62000493573d80600081146200043c576040519150601f19603f3d011682016040523d82523d6000602084013e62000441565b606091505b5060008151036200048b57836040517f64a0ae920000000000000000000000000000000000000000000000000000000081526004016200048291906200133c565b60405180910390fd5b805181602001fd5b63150b7a0260e01b7bffffffffffffffffffffffffffffffffffffffffffffffffffffffff1916817bffffffffffffffffffffffffffffffffffffffffffffffffffffffff1916146200051f57836040517f64a0ae920000000000000000000000000000000000000000000000000000000081526004016200051691906200133c565b60405180910390fd5b505b50505050565b6000806200053b846200076460201b60201c565b9050600073ffffffffffffffffffffffffffffffffffffffff168373ffffffffffffffffffffffffffffffffffffffff1614620005865762000585818486620007a160201b60201c565b5b600073ffffffffffffffffffffffffffffffffffffffff168173ffffffffffffffffffffffffffffffffffffffff16146200062057620005d16000856000806200087360201b60201c565b6001600360008373ffffffffffffffffffffffffffffffffffffffff1673ffffffffffffffffffffffffffffffffffffffff168152602001908152602001600020600082825403925050819055505b600073ffffffffffffffffffffffffffffffffffffffff168573ffffffffffffffffffffffffffffffffffffffff1614620006a4576001600360008773ffffffffffffffffffffffffffffffffffffffff1673ffffffffffffffffffffffffffffffffffffffff168152602001908152602001600020600082825401925050819055505b846002600086815260200190815260200160002060006101000a81548173ffffffffffffffffffffffffffffffffffffffff021916908373ffffffffffffffffffffffffffffffffffffffff160217905550838573ffffffffffffffffffffffffffffffffffffffff168273ffffffffffffffffffffffffffffffffffffffff167fddf252ad1be2c89b69c2b068fc378daa952ba7f163c4a11628f55a4df523b3ef60405160405180910390a4809150509392505050565b600033905090565b60006002600083815260200190815260200160002060009054906101000a900473ffffffffffffffffffffffffffffffffffffffff169050919050565b620007b483838362000a5060201b60201c565b6200086e57600073ffffffffffffffffffffffffffffffffffffffff168373ffffffffffffffffffffffffffffffffffffffff16036200082d57806040517f7e273289000000000000000000000000000000000000000000000000000000008152600401620008249190620014aa565b60405180910390fd5b81816040517f177e802f00000000000000000000000000000000000000000000000000000000815260040162000865929190620014c7565b60405180910390fd5b505050565b8080620008ad5750600073ffffffffffffffffffffffffffffffffffffffff168273ffffffffffffffffffffffffffffffffffffffff1614155b15620009f8576000620008c68462000b2460201b60201c565b9050600073ffffffffffffffffffffffffffffffffffffffff168373ffffffffffffffffffffffffffffffffffffffff16141580156200093257508273ffffffffffffffffffffffffffffffffffffffff168173ffffffffffffffffffffffffffffffffffffffff1614155b80156200094e57506200094c818462000bb760201b60201c565b155b156200099357826040517fa9fbf51f0000000000000000000000000000000000000000000000000000000081526004016200098a91906200133c565b60405180910390fd5b8115620009f657838573ffffffffffffffffffffffffffffffffffffffff168273ffffffffffffffffffffffffffffffffffffffff167f8c5be1e5ebec7d5bd14f71427d1e84f3dd0314c0f7b2291e5b200ac8c7c3b92560405160405180910390a45b505b836004600085815260200190815260200160002060006101000a81548173ffffffffffffffffffffffffffffffffffffffff021916908373ffffffffffffffffffffffffffffffffffffffff16021790555050505050565b60008073ffffffffffffffffffffffffffffffffffffffff168373ffffffffffffffffffffffffffffffffffffffff161415801562000b1b57508273ffffffffffffffffffffffffffffffffffffffff168473ffffffffffffffffffffffffffffffffffffffff16148062000ad3575062000ad2848462000bb760201b60201c565b5b8062000b1a57508273ffffffffffffffffffffffffffffffffffffffff1662000b028362000c4b60201b60201c565b73ffffffffffffffffffffffffffffffffffffffff16145b5b90509392505050565b60008062000b38836200076460201b60201c565b9050600073ffffffffffffffffffffffffffffffffffffffff168173ffffffffffffffffffffffffffffffffffffffff160362000bae57826040517f7e27328900000000000000000000000000000000000000000000000000000000815260040162000ba59190620014aa565b60405180910390fd5b80915050919050565b6000600560008473ffffffffffffffffffffffffffffffffffffffff1673ffffffffffffffffffffffffffffffffffffffff16815260200190815260200160002060008373ffffffffffffffffffffffffffffffffffffffff1673ffffffffffffffffffffffffffffffffffffffff16815260200190815260200160002060009054906101000a900460ff16905092915050565b60006004600083815260200190815260200160002060009054906101000a900473ffffffffffffffffffffffffffffffffffffffff169050919050565b6000604051905090565b600080fd5b600080fd5b600080fd5b600080fd5b6000601f19601f8301169050919050565b7f4e487b7100000000000000000000000000000000000000000000000000000000600052604160045260246000fd5b62000cf18262000ca6565b810181811067ffffffffffffffff8211171562000d135762000d1262000cb7565b5b80604052505050565b600062000d2862000c88565b905062000d36828262000ce6565b919050565b600067ffffffffffffffff82111562000d595762000d5862000cb7565b5b62000d648262000ca6565b9050602081019050919050565b60005b8381101562000d9157808201518184015260208101905062000d74565b60008484015250505050565b600062000db462000dae8462000d3b565b62000d1c565b90508281526020810184848401111562000dd35762000dd262000ca1565b5b62000de084828562000d71565b509392505050565b600082601f83011262000e005762000dff62000c9c565b5b815162000e1284826020860162000d9d565b91505092915050565b6000806040838503121562000e355762000e3462000c92565b5b600083015167ffffffffffffffff81111562000e565762000e5562000c97565b5b62000e648582860162000de8565b925050602083015167ffffffffffffffff81111562000e885762000e8762000c97565b5b62000e968582860162000de8565b9150509250929050565b600081519050919050565b7f4e487b7100000000000000000000000000000000000000000000000000000000600052602260045260246000fd5b6000600282049050600182168062000ef357607f821691505b60208210810362000f095762000f0862000eab565b5b50919050565b60008190508160005260206000209050919050565b60006020601f8301049050919050565b600082821b905092915050565b60006008830262000f737fffffffffffffffffffffffffffffffffffffffffffffffffffffffffffffffff8262000f34565b62000f7f868362000f34565b95508019841693508086168417925050509392505050565b6000819050919050565b6000819050919050565b600062000fcc62000fc662000fc08462000f97565b62000fa1565b62000f97565b9050919050565b6000819050919050565b62000fe88362000fab565b6200100062000ff78262000fd3565b84845462000f41565b825550505050565b600090565b6200101762001008565b6200102481848462000fdd565b505050565b5b818110156200104c57620010406000826200100d565b6001810190506200102a565b5050565b601f8211156200109b57620010658162000f0f565b620010708462000f24565b8101602085101562001080578190505b620010986200108f8562000f24565b83018262001029565b50505b505050565b600082821c905092915050565b6000620010c060001984600802620010a0565b1980831691505092915050565b6000620010db8383620010ad565b9150826002028217905092915050565b620010f68262000ea0565b67ffffffffffffffff81111562001112576200111162000cb7565b5b6200111e825462000eda565b6200112b82828562001050565b600060209050601f8311600181146200116357600084156200114e578287015190505b6200115a8582620010cd565b865550620011ca565b601f198416620011738662000f0f565b60005b828110156200119d5784890151825560018201915060208501945060208101905062001176565b86831015620011bd5784890151620011b9601f891682620010ad565b8355505b6001600288020188555050505b505050505050565b7f4e487b7100000000000000000000000000000000000000000000000000000000600052601160045260246000fd5b60006200120e8262000f97565b91507fffffffffffffffffffffffffffffffffffffffffffffffffffffffffffffffff8203620012435762001242620011d2565b5b600182019050919050565b600082825260208201905092915050565b7f4f6e6c79204f776e657220526f6c65204d61792045786563757465205468697360008201527f2046756e6374696f6e2100000000000000000000000000000000000000000000602082015250565b6000620012bd602a836200124e565b9150620012ca826200125f565b604082019050919050565b60006020820190508181036000830152620012f081620012ae565b9050919050565b600073ffffffffffffffffffffffffffffffffffffffff82169050919050565b60006200132482620012f7565b9050919050565b620013368162001317565b82525050565b60006020820190506200135360008301846200132b565b92915050565b620013648162000f97565b82525050565b600081519050919050565b600082825260208201905092915050565b600062001393826200136a565b6200139f818562001375565b9350620013b181856020860162000d71565b620013bc8162000ca6565b840191505092915050565b6000608082019050620013de60008301876200132b565b620013ed60208301866200132b565b620013fc604083018562001359565b818103606083015262001410818462001386565b905095945050505050565b60007fffffffff0000000000000000000000000000000000000000000000000000000082169050919050565b62001452816200141b565b81146200145e57600080fd5b50565b600081519050620014728162001447565b92915050565b60006020828403121562001491576200149062000c92565b5b6000620014a18482850162001461565b91505092915050565b6000602082019050620014c1600083018462001359565b92915050565b6000604082019050620014de60008301856200132b565b620014ed602083018462001359565b9392505050565b615c3780620015046000396000f3fe608060405234801561001057600080fd5b506004361061023d5760003560e01c806380d1ca891161013b578063c015799c116100b8578063e5949b5d1161007c578063e5949b5d146106ae578063e985e9c5146106e1578063ec4ceae914610711578063f2f06bcb1461072d578063fcbca456146107495761023d565b8063c015799c146105f8578063c87b56dd14610602578063cb661f3914610632578063e04794b614610662578063e47d60601461067e5761023d565b8063a230c524116100ff578063a230c52414610544578063a900a08a14610574578063b64afe0514610590578063b88d4fde146105ac578063c00af42c146105c85761023d565b806380d1ca89146104a057806383445232146104bc5780638da5cb5b146104ec57806395d89b411461050a578063a22cb465146105285761023d565b806323b872dd116101c95780634fb2e45d1161018d5780634fb2e45d146103ea578063604a427e146104065780636352211e1461042257806370a08231146104525780637734a9f6146104825761023d565b806323b872dd1461035c5780632819cc0c1461037857806328a12642146103945780633ccfd60b146103c457806342842e0e146103ce5761023d565b80630d9551da116102105780630d9551da146102dc5780631096a59c146102fa57806310df54a0146103045780631249c58b1461033457806318160ddd1461033e5761023d565b806301ffc9a71461024257806306fdde0314610272578063081812fc14610290578063095ea7b3146102c0575b600080fd5b61025c60048036038101906102579190613f79565b610765565b6040516102699190613fc1565b60405180910390f35b61027a610847565b604051610287919061406c565b60405180910390f35b6102aa60048036038101906102a591906140c4565b6108d9565b6040516102b79190614132565b60405180910390f35b6102da60048036038101906102d59190614179565b6108f5565b005b6102e461090b565b6040516102f19190613fc1565b60405180910390f35b61030261091e565b005b61031e600480360381019061031991906140c4565b6109cb565b60405161032b919061428b565b60405180910390f35b61033c610c06565b005b610346610c84565b60405161035391906142bc565b60405180910390f35b610376600480360381019061037191906142d7565b610c8a565b005b610392600480360381019061038d91906140c4565b610d8c565b005b6103ae60048036038101906103a9919061432a565b61104c565b6040516103bb9190613fc1565b60405180910390f35b6103cc61107b565b005b6103e860048036038101906103e391906142d7565b611239565b005b61040460048036038101906103ff919061436a565b611259565b005b610420600480360381019061041b9190614179565b6114e6565b005b61043c600480360381019061043791906140c4565b6116f2565b6040516104499190614132565b60405180910390f35b61046c6004803603810190610467919061436a565b611704565b60405161047991906142bc565b60405180910390f35b61048a6117be565b60405161049791906142bc565b60405180910390f35b6104ba60048036038101906104b59190614179565b6117c4565b005b6104d660048036038101906104d1919061432a565b611a58565b6040516104e39190613fc1565b60405180910390f35b6104f4611a87565b6040516105019190614132565b60405180910390f35b610512611aad565b60405161051f919061406c565b60405180910390f35b610542600480360381019061053d91906143c3565b611b3f565b005b61055e6004803603810190610559919061436a565b611b55565b60405161056b9190613fc1565b60405180910390f35b61058e600480360381019061058991906140c4565b611b75565b005b6105aa60048036038101906105a59190614179565b611da2565b005b6105c660048036038101906105c19190614538565b611fae565b005b6105e260048036038101906105dd91906140c4565b611fcb565b6040516105ef9190614132565b60405180910390f35b610600611ffe565b005b61061c600480360381019061061791906140c4565b6120ab565b604051610629919061406c565b60405180910390f35b61064c6004803603810190610647919061436a565b612114565b6040516106599190613fc1565b60405180910390f35b61067c60048036038101906106779190614179565b612134565b005b6106986004803603810190610693919061436a565b6124c8565b6040516106a59190613fc1565b60405180910390f35b6106c860048036038101906106c391906140c4565b6124e8565b6040516106d894939291906145bb565b60405180910390f35b6106fb60048036038101906106f6919061460e565b612648565b6040516107089190613fc1565b60405180910390f35b61072b6004803603810190610726919061436a565b6126dc565b005b610747600480360381019061074291906146ef565b61285a565b005b610763600480360381019061075e919061436a565b612fd6565b005b60007f80ac58cd000000000000000000000000000000000000000000000000000000007bffffffffffffffffffffffffffffffffffffffffffffffffffffffff1916827bffffffffffffffffffffffffffffffffffffffffffffffffffffffff1916148061083057507f5b5e139f000000000000000000000000000000000000000000000000000000007bffffffffffffffffffffffffffffffffffffffffffffffffffffffff1916827bffffffffffffffffffffffffffffffffffffffffffffffffffffffff1916145b80610840575061083f82613154565b5b9050919050565b6060600080546108569061477a565b80601f01602080910402602001604051908101604052809291908181526020018280546108829061477a565b80156108cf5780601f106108a4576101008083540402835291602001916108cf565b820191906000526020600020905b8154815290600101906020018083116108b257829003601f168201915b5050505050905090565b60006108e4826131be565b506108ee82613246565b9050919050565b6109078282610902613283565b61328b565b5050565b601060009054906101000a900460ff1681565b600760009054906101000a900473ffffffffffffffffffffffffffffffffffffffff1673ffffffffffffffffffffffffffffffffffffffff163373ffffffffffffffffffffffffffffffffffffffff16146109ae576040517f08c379a00000000000000000000000000000000000000000000000000000000081526004016109a59061481d565b60405180910390fd5b6001601060006101000a81548160ff021916908315150217905550565b6109d3613ecf565b8160008103610a17576040517f08c379a0000000000000000000000000000000000000000000000000000000008152600401610a0e906148af565b60405180910390fd5b600954811115610a5c576040517f08c379a0000000000000000000000000000000000000000000000000000000008152600401610a539061491b565b60405180910390fd5b600b6000848152602001908152602001600020604051806080016040529081600082015481526020016001820160009054906101000a900473ffffffffffffffffffffffffffffffffffffffff1673ffffffffffffffffffffffffffffffffffffffff1673ffffffffffffffffffffffffffffffffffffffff168152602001600282018054610aea9061477a565b80601f0160208091040260200160405190810160405280929190818152602001828054610b169061477a565b8015610b635780601f10610b3857610100808354040283529160200191610b63565b820191906000526020600020905b815481529060010190602001808311610b4657829003601f168201915b50505050508152602001600382018054610b7c9061477a565b80601f0160208091040260200160405190810160405280929190818152602001828054610ba89061477a565b8015610bf55780601f10610bca57610100808354040283529160200191610bf5565b820191906000526020600020905b815481529060010190602001808311610bd857829003601f168201915b505050505081525050915050919050565b60066000815480929190610c199061496a565b9190505550610c2a3360065461329d565b6001600d60003373ffffffffffffffffffffffffffffffffffffffff1673ffffffffffffffffffffffffffffffffffffffff16815260200190815260200160002060006101000a81548160ff021916908315150217905550565b60065481565b600073ffffffffffffffffffffffffffffffffffffffff168273ffffffffffffffffffffffffffffffffffffffff1603610cfc5760006040517f64a0ae92000000000000000000000000000000000000000000000000000000008152600401610cf39190614132565b60405180910390fd5b6000610d108383610d0b613283565b6132bb565b90508373ffffffffffffffffffffffffffffffffffffffff168173ffffffffffffffffffffffffffffffffffffffff1614610d86578382826040517f64283d7b000000000000000000000000000000000000000000000000000000008152600401610d7d939291906149b2565b60405180910390fd5b50505050565b60011515600d60003373ffffffffffffffffffffffffffffffffffffffff1673ffffffffffffffffffffffffffffffffffffffff16815260200190815260200160002060009054906101000a900460ff16151514610e1f576040517f08c379a0000000000000000000000000000000000000000000000000000000008152600401610e1690614a5b565b60405180910390fd5b60011515600e60003373ffffffffffffffffffffffffffffffffffffffff1673ffffffffffffffffffffffffffffffffffffffff16815260200190815260200160002060009054906101000a900460ff16151503610eb2576040517f08c379a0000000000000000000000000000000000000000000000000000000008152600401610ea990614b13565b60405180910390fd5b8060008103610ef6576040517f08c379a0000000000000000000000000000000000000000000000000000000008152600401610eed906148af565b60405180910390fd5b600954811115610f3b576040517f08c379a0000000000000000000000000000000000000000000000000000000008152600401610f329061491b565b60405180910390fd5b60011515600c600084815260200190815260200160002060003373ffffffffffffffffffffffffffffffffffffffff1673ffffffffffffffffffffffffffffffffffffffff16815260200190815260200160002060009054906101000a900460ff16151503610fdf576040517f08c379a0000000000000000000000000000000000000000000000000000000008152600401610fd690614ba5565b60405180910390fd5b6001600c600084815260200190815260200160002060003373ffffffffffffffffffffffffffffffffffffffff1673ffffffffffffffffffffffffffffffffffffffff16815260200190815260200160002060006101000a81548160ff0219169083151502179055505050565b600f6020528160005260406000206020528060005260406000206000915091509054906101000a900460ff1681565b600760009054906101000a900473ffffffffffffffffffffffffffffffffffffffff1673ffffffffffffffffffffffffffffffffffffffff163373ffffffffffffffffffffffffffffffffffffffff161461110b576040517f08c379a00000000000000000000000000000000000000000000000000000000081526004016111029061481d565b60405180910390fd5b60011515600e60003373ffffffffffffffffffffffffffffffffffffffff1673ffffffffffffffffffffffffffffffffffffffff16815260200190815260200160002060009054906101000a900460ff1615150361119e576040517f08c379a000000000000000000000000000000000000000000000000000000000815260040161119590614b13565b60405180910390fd5b6000600760009054906101000a900473ffffffffffffffffffffffffffffffffffffffff1673ffffffffffffffffffffffffffffffffffffffff16476040516111e690614bf6565b60006040518083038185875af1925050503d8060008114611223576040519150601f19603f3d011682016040523d82523d6000602084013e611228565b606091505b505090508061123657600080fd5b50565b61125483838360405180602001604052806000815250611fae565b505050565b600760009054906101000a900473ffffffffffffffffffffffffffffffffffffffff1673ffffffffffffffffffffffffffffffffffffffff163373ffffffffffffffffffffffffffffffffffffffff16146112e9576040517f08c379a00000000000000000000000000000000000000000000000000000000081526004016112e09061481d565b60405180910390fd5b60011515600e60003373ffffffffffffffffffffffffffffffffffffffff1673ffffffffffffffffffffffffffffffffffffffff16815260200190815260200160002060009054906101000a900460ff1615150361137c576040517f08c379a000000000000000000000000000000000000000000000000000000000815260040161137390614b13565b60405180910390fd5b60011515600d60008373ffffffffffffffffffffffffffffffffffffffff1673ffffffffffffffffffffffffffffffffffffffff16815260200190815260200160002060009054906101000a900460ff1615151461140f576040517f08c379a000000000000000000000000000000000000000000000000000000000815260040161140690614c7d565b60405180910390fd5b60011515600e60008373ffffffffffffffffffffffffffffffffffffffff1673ffffffffffffffffffffffffffffffffffffffff16815260200190815260200160002060009054906101000a900460ff161515036114a2576040517f08c379a000000000000000000000000000000000000000000000000000000000815260040161149990614d0f565b60405180910390fd5b80600760006101000a81548173ffffffffffffffffffffffffffffffffffffffff021916908373ffffffffffffffffffffffffffffffffffffffff16021790555050565b806008600082815260200190815260200160002060009054906101000a900473ffffffffffffffffffffffffffffffffffffffff1673ffffffffffffffffffffffffffffffffffffffff163373ffffffffffffffffffffffffffffffffffffffff1614806115a15750600760009054906101000a900473ffffffffffffffffffffffffffffffffffffffff1673ffffffffffffffffffffffffffffffffffffffff163373ffffffffffffffffffffffffffffffffffffffff16145b6115e0576040517f08c379a00000000000000000000000000000000000000000000000000000000081526004016115d790614da1565b60405180910390fd5b60011515600f600084815260200190815260200160002060008573ffffffffffffffffffffffffffffffffffffffff1673ffffffffffffffffffffffffffffffffffffffff16815260200190815260200160002060009054906101000a900460ff16151503611684576040517f08c379a000000000000000000000000000000000000000000000000000000000815260040161167b90614e33565b60405180910390fd5b6001600f600084815260200190815260200160002060008573ffffffffffffffffffffffffffffffffffffffff1673ffffffffffffffffffffffffffffffffffffffff16815260200190815260200160002060006101000a81548160ff021916908315150217905550505050565b60006116fd826131be565b9050919050565b60008073ffffffffffffffffffffffffffffffffffffffff168273ffffffffffffffffffffffffffffffffffffffff16036117775760006040517f89c62b6400000000000000000000000000000000000000000000000000000000815260040161176e9190614132565b60405180910390fd5b600360008373ffffffffffffffffffffffffffffffffffffffff1673ffffffffffffffffffffffffffffffffffffffff168152602001908152602001600020549050919050565b60095481565b600760009054906101000a900473ffffffffffffffffffffffffffffffffffffffff1673ffffffffffffffffffffffffffffffffffffffff163373ffffffffffffffffffffffffffffffffffffffff1614611854576040517f08c379a000000000000000000000000000000000000000000000000000000000815260040161184b9061481d565b60405180910390fd5b60011515600e60008473ffffffffffffffffffffffffffffffffffffffff1673ffffffffffffffffffffffffffffffffffffffff16815260200190815260200160002060009054906101000a900460ff161515036118e7576040517f08c379a00000000000000000000000000000000000000000000000000000000081526004016118de90614e9f565b60405180910390fd5b8173ffffffffffffffffffffffffffffffffffffffff166008600083815260200190815260200160002060009054906101000a900473ffffffffffffffffffffffffffffffffffffffff1673ffffffffffffffffffffffffffffffffffffffff1614611988576040517f08c379a000000000000000000000000000000000000000000000000000000000815260040161197f90614f31565b60405180910390fd5b600760009054906101000a900473ffffffffffffffffffffffffffffffffffffffff166008600083815260200190815260200160002060006101000a81548173ffffffffffffffffffffffffffffffffffffffff021916908373ffffffffffffffffffffffffffffffffffffffff1602179055506001600e60008473ffffffffffffffffffffffffffffffffffffffff1673ffffffffffffffffffffffffffffffffffffffff16815260200190815260200160002060006101000a81548160ff0219169083151502179055505050565b600c6020528160005260406000206020528060005260406000206000915091509054906101000a900460ff1681565b600760009054906101000a900473ffffffffffffffffffffffffffffffffffffffff1681565b606060018054611abc9061477a565b80601f0160208091040260200160405190810160405280929190818152602001828054611ae89061477a565b8015611b355780601f10611b0a57610100808354040283529160200191611b35565b820191906000526020600020905b815481529060010190602001808311611b1857829003601f168201915b5050505050905090565b611b51611b4a613283565b83836134d5565b5050565b600d6020528060005260406000206000915054906101000a900460ff1681565b60011515600d60003373ffffffffffffffffffffffffffffffffffffffff1673ffffffffffffffffffffffffffffffffffffffff16815260200190815260200160002060009054906101000a900460ff16151514611c08576040517f08c379a0000000000000000000000000000000000000000000000000000000008152600401611bff90614a5b565b60405180910390fd5b8060008103611c4c576040517f08c379a0000000000000000000000000000000000000000000000000000000008152600401611c43906148af565b60405180910390fd5b600954811115611c91576040517f08c379a0000000000000000000000000000000000000000000000000000000008152600401611c889061491b565b60405180910390fd5b60011515600c600084815260200190815260200160002060003373ffffffffffffffffffffffffffffffffffffffff1673ffffffffffffffffffffffffffffffffffffffff16815260200190815260200160002060009054906101000a900460ff16151514611d35576040517f08c379a0000000000000000000000000000000000000000000000000000000008152600401611d2c90614fc3565b60405180910390fd5b6000600c600084815260200190815260200160002060003373ffffffffffffffffffffffffffffffffffffffff1673ffffffffffffffffffffffffffffffffffffffff16815260200190815260200160002060006101000a81548160ff0219169083151502179055505050565b806008600082815260200190815260200160002060009054906101000a900473ffffffffffffffffffffffffffffffffffffffff1673ffffffffffffffffffffffffffffffffffffffff163373ffffffffffffffffffffffffffffffffffffffff161480611e5d5750600760009054906101000a900473ffffffffffffffffffffffffffffffffffffffff1673ffffffffffffffffffffffffffffffffffffffff163373ffffffffffffffffffffffffffffffffffffffff16145b611e9c576040517f08c379a0000000000000000000000000000000000000000000000000000000008152600401611e9390614da1565b60405180910390fd5b60011515600f600084815260200190815260200160002060008573ffffffffffffffffffffffffffffffffffffffff1673ffffffffffffffffffffffffffffffffffffffff16815260200190815260200160002060009054906101000a900460ff16151514611f40576040517f08c379a0000000000000000000000000000000000000000000000000000000008152600401611f3790615055565b60405180910390fd5b6000600f600084815260200190815260200160002060008573ffffffffffffffffffffffffffffffffffffffff1673ffffffffffffffffffffffffffffffffffffffff16815260200190815260200160002060006101000a81548160ff021916908315150217905550505050565b611fb9848484610c8a565b611fc584848484613644565b50505050565b60086020528060005260406000206000915054906101000a900473ffffffffffffffffffffffffffffffffffffffff1681565b600760009054906101000a900473ffffffffffffffffffffffffffffffffffffffff1673ffffffffffffffffffffffffffffffffffffffff163373ffffffffffffffffffffffffffffffffffffffff161461208e576040517f08c379a00000000000000000000000000000000000000000000000000000000081526004016120859061481d565b60405180910390fd5b6000601060006101000a81548160ff021916908315150217905550565b60606120b6826131be565b5060006120c16137fb565b905060008151116120e1576040518060200160405280600081525061210c565b806120eb84613812565b6040516020016120fc9291906150b1565b6040516020818303038152906040525b915050919050565b600a6020528060005260406000206000915054906101000a900460ff1681565b8060008103612178576040517f08c379a000000000000000000000000000000000000000000000000000000000815260040161216f906148af565b60405180910390fd5b6009548111156121bd576040517f08c379a00000000000000000000000000000000000000000000000000000000081526004016121b49061491b565b60405180910390fd5b816008600082815260200190815260200160002060009054906101000a900473ffffffffffffffffffffffffffffffffffffffff1673ffffffffffffffffffffffffffffffffffffffff163373ffffffffffffffffffffffffffffffffffffffff1614806122785750600760009054906101000a900473ffffffffffffffffffffffffffffffffffffffff1673ffffffffffffffffffffffffffffffffffffffff163373ffffffffffffffffffffffffffffffffffffffff16145b6122b7576040517f08c379a00000000000000000000000000000000000000000000000000000000081526004016122ae90614da1565b60405180910390fd5b60011515600e60003373ffffffffffffffffffffffffffffffffffffffff1673ffffffffffffffffffffffffffffffffffffffff16815260200190815260200160002060009054906101000a900460ff1615150361234a576040517f08c379a000000000000000000000000000000000000000000000000000000000815260040161234190614b13565b60405180910390fd5b60011515600d60008673ffffffffffffffffffffffffffffffffffffffff1673ffffffffffffffffffffffffffffffffffffffff16815260200190815260200160002060009054906101000a900460ff161515146123dd576040517f08c379a00000000000000000000000000000000000000000000000000000000081526004016123d490615147565b60405180910390fd5b60011515600e60008673ffffffffffffffffffffffffffffffffffffffff1673ffffffffffffffffffffffffffffffffffffffff16815260200190815260200160002060009054906101000a900460ff16151503612470576040517f08c379a0000000000000000000000000000000000000000000000000000000008152600401612467906151d9565b60405180910390fd5b836008600085815260200190815260200160002060006101000a81548173ffffffffffffffffffffffffffffffffffffffff021916908373ffffffffffffffffffffffffffffffffffffffff16021790555050505050565b600e6020528060005260406000206000915054906101000a900460ff1681565b600b6020528060005260406000206000915090508060000154908060010160009054906101000a900473ffffffffffffffffffffffffffffffffffffffff16908060020180546125379061477a565b80601f01602080910402602001604051908101604052809291908181526020018280546125639061477a565b80156125b05780601f10612585576101008083540402835291602001916125b0565b820191906000526020600020905b81548152906001019060200180831161259357829003601f168201915b5050505050908060030180546125c59061477a565b80601f01602080910402602001604051908101604052809291908181526020018280546125f19061477a565b801561263e5780601f106126135761010080835404028352916020019161263e565b820191906000526020600020905b81548152906001019060200180831161262157829003601f168201915b5050505050905084565b6000600560008473ffffffffffffffffffffffffffffffffffffffff1673ffffffffffffffffffffffffffffffffffffffff16815260200190815260200160002060008373ffffffffffffffffffffffffffffffffffffffff1673ffffffffffffffffffffffffffffffffffffffff16815260200190815260200160002060009054906101000a900460ff16905092915050565b600760009054906101000a900473ffffffffffffffffffffffffffffffffffffffff1673ffffffffffffffffffffffffffffffffffffffff163373ffffffffffffffffffffffffffffffffffffffff161461276c576040517f08c379a00000000000000000000000000000000000000000000000000000000081526004016127639061481d565b60405180910390fd5b60011515600e60008373ffffffffffffffffffffffffffffffffffffffff1673ffffffffffffffffffffffffffffffffffffffff16815260200190815260200160002060009054906101000a900460ff161515146127ff576040517f08c379a00000000000000000000000000000000000000000000000000000000081526004016127f69061526b565b60405180910390fd5b6000600e60008373ffffffffffffffffffffffffffffffffffffffff1673ffffffffffffffffffffffffffffffffffffffff16815260200190815260200160002060006101000a81548160ff02191690831515021790555050565b60011515600d60003373ffffffffffffffffffffffffffffffffffffffff1673ffffffffffffffffffffffffffffffffffffffff16815260200190815260200160002060009054906101000a900460ff161515146128ed576040517f08c379a00000000000000000000000000000000000000000000000000000000081526004016128e490614a5b565b60405180910390fd5b60011515600e60003373ffffffffffffffffffffffffffffffffffffffff1673ffffffffffffffffffffffffffffffffffffffff16815260200190815260200160002060009054906101000a900460ff16151503612980576040517f08c379a000000000000000000000000000000000000000000000000000000000815260040161297790614b13565b60405180910390fd5b60011515600a60008473ffffffffffffffffffffffffffffffffffffffff1673ffffffffffffffffffffffffffffffffffffffff16815260200190815260200160002060009054906101000a900460ff16151503612a13576040517f08c379a0000000000000000000000000000000000000000000000000000000008152600401612a0a906152d7565b60405180910390fd5b6000604051602001612a2490615343565b6040516020818303038152906040528051906020012090506000604051602001612a4d906153a4565b604051602081830303815290604052805190602001209050600083604051602001612a7891906153b9565b60405160208183030381529060405280519060200120905082811480612a9d57508181145b612adc576040517f08c379a0000000000000000000000000000000000000000000000000000000008152600401612ad390615442565b60405180910390fd5b818103612ba1578473ffffffffffffffffffffffffffffffffffffffff166301ffc9a76380ac58cd6040518263ffffffff1660e01b8152600401612b2091906154aa565b602060405180830381865afa158015612b3d573d6000803e3d6000fd5b505050506040513d601f19601f82011682018060405250810190612b6191906154da565b612ba0576040517f08c379a0000000000000000000000000000000000000000000000000000000008152600401612b9790615579565b60405180910390fd5b5b828103612c5e5760008573ffffffffffffffffffffffffffffffffffffffff1663313ce5676040518163ffffffff1660e01b8152600401602060405180830381865afa158015612bf5573d6000803e3d6000fd5b505050506040513d601f19601f82011682018060405250810190612c1991906155d2565b60ff161015612c5d576040517f08c379a0000000000000000000000000000000000000000000000000000000008152600401612c549061564b565b60405180910390fd5b5b6060838203612cf5578573ffffffffffffffffffffffffffffffffffffffff166306fdde036040518163ffffffff1660e01b8152600401600060405180830381865afa925050508015612cd457506040513d6000823e3d601f19601f82011682018060405250810190612cd191906156db565b60015b612cef57604051806020016040528060008152509050612cf4565b809150505b5b828203612d8a578573ffffffffffffffffffffffffffffffffffffffff166306fdde036040518163ffffffff1660e01b8152600401600060405180830381865afa925050508015612d6957506040513d6000823e3d601f19601f82011682018060405250810190612d6691906156db565b60015b612d8457604051806020016040528060008152509050612d89565b809150505b5b838203612dd6576000815111612dd5576040517f08c379a0000000000000000000000000000000000000000000000000000000008152600401612dcc90615796565b60405180910390fd5b5b828203612e22576000815111612e21576040517f08c379a0000000000000000000000000000000000000000000000000000000008152600401612e1890615828565b60405180910390fd5b5b60096000815480929190612e359061496a565b9190505550604051806080016040528060095481526020018773ffffffffffffffffffffffffffffffffffffffff16815260200182815260200186815250600b600060095481526020019081526020016000206000820151816000015560208201518160010160006101000a81548173ffffffffffffffffffffffffffffffffffffffff021916908373ffffffffffffffffffffffffffffffffffffffff1602179055506040820151816002019081612eee91906159f4565b506060820151816003019081612f0491906159f4565b50905050600760009054906101000a900473ffffffffffffffffffffffffffffffffffffffff1660086000600954815260200190815260200160002060006101000a81548173ffffffffffffffffffffffffffffffffffffffff021916908373ffffffffffffffffffffffffffffffffffffffff16021790555060011515600a60008873ffffffffffffffffffffffffffffffffffffffff1673ffffffffffffffffffffffffffffffffffffffff16815260200190815260200160002060009054906101000a90505050505050505050565b600760009054906101000a900473ffffffffffffffffffffffffffffffffffffffff1673ffffffffffffffffffffffffffffffffffffffff163373ffffffffffffffffffffffffffffffffffffffff1614613066576040517f08c379a000000000000000000000000000000000000000000000000000000000815260040161305d9061481d565b60405180910390fd5b60011515600e60008373ffffffffffffffffffffffffffffffffffffffff1673ffffffffffffffffffffffffffffffffffffffff16815260200190815260200160002060009054906101000a900460ff161515036130f9576040517f08c379a00000000000000000000000000000000000000000000000000000000081526004016130f090614e9f565b60405180910390fd5b6001600e60008373ffffffffffffffffffffffffffffffffffffffff1673ffffffffffffffffffffffffffffffffffffffff16815260200190815260200160002060006101000a81548160ff02191690831515021790555050565b60007f01ffc9a7000000000000000000000000000000000000000000000000000000007bffffffffffffffffffffffffffffffffffffffffffffffffffffffff1916827bffffffffffffffffffffffffffffffffffffffffffffffffffffffff1916149050919050565b6000806131ca836138e0565b9050600073ffffffffffffffffffffffffffffffffffffffff168173ffffffffffffffffffffffffffffffffffffffff160361323d57826040517f7e27328900000000000000000000000000000000000000000000000000000000815260040161323491906142bc565b60405180910390fd5b80915050919050565b60006004600083815260200190815260200160002060009054906101000a900473ffffffffffffffffffffffffffffffffffffffff169050919050565b600033905090565b613298838383600161391d565b505050565b6132b7828260405180602001604052806000815250613ae2565b5050565b6000806132c7846138e0565b9050600073ffffffffffffffffffffffffffffffffffffffff168373ffffffffffffffffffffffffffffffffffffffff161461330957613308818486613afe565b5b600073ffffffffffffffffffffffffffffffffffffffff168173ffffffffffffffffffffffffffffffffffffffff161461339a5761334b60008560008061391d565b6001600360008373ffffffffffffffffffffffffffffffffffffffff1673ffffffffffffffffffffffffffffffffffffffff168152602001908152602001600020600082825403925050819055505b600073ffffffffffffffffffffffffffffffffffffffff168573ffffffffffffffffffffffffffffffffffffffff161461341d576001600360008773ffffffffffffffffffffffffffffffffffffffff1673ffffffffffffffffffffffffffffffffffffffff168152602001908152602001600020600082825401925050819055505b846002600086815260200190815260200160002060006101000a81548173ffffffffffffffffffffffffffffffffffffffff021916908373ffffffffffffffffffffffffffffffffffffffff160217905550838573ffffffffffffffffffffffffffffffffffffffff168273ffffffffffffffffffffffffffffffffffffffff167fddf252ad1be2c89b69c2b068fc378daa952ba7f163c4a11628f55a4df523b3ef60405160405180910390a4809150509392505050565b600073ffffffffffffffffffffffffffffffffffffffff168273ffffffffffffffffffffffffffffffffffffffff160361354657816040517f5b08ba1800000000000000000000000000000000000000000000000000000000815260040161353d9190614132565b60405180910390fd5b80600560008573ffffffffffffffffffffffffffffffffffffffff1673ffffffffffffffffffffffffffffffffffffffff16815260200190815260200160002060008473ffffffffffffffffffffffffffffffffffffffff1673ffffffffffffffffffffffffffffffffffffffff16815260200190815260200160002060006101000a81548160ff0219169083151502179055508173ffffffffffffffffffffffffffffffffffffffff168373ffffffffffffffffffffffffffffffffffffffff167f17307eab39ab6107e8899845ad3d59bd9653f200f220920489ca2b5937696c31836040516136379190613fc1565b60405180910390a3505050565b60008373ffffffffffffffffffffffffffffffffffffffff163b11156137f5578273ffffffffffffffffffffffffffffffffffffffff1663150b7a02613688613283565b8685856040518563ffffffff1660e01b81526004016136aa9493929190615b1b565b6020604051808303816000875af19250505080156136e657506040513d601f19601f820116820180604052508101906136e39190615b7c565b60015b61376a573d8060008114613716576040519150601f19603f3d011682016040523d82523d6000602084013e61371b565b606091505b50600081510361376257836040517f64a0ae920000000000000000000000000000000000000000000000000000000081526004016137599190614132565b60405180910390fd5b805181602001fd5b63150b7a0260e01b7bffffffffffffffffffffffffffffffffffffffffffffffffffffffff1916817bffffffffffffffffffffffffffffffffffffffffffffffffffffffff1916146137f357836040517f64a0ae920000000000000000000000000000000000000000000000000000000081526004016137ea9190614132565b60405180910390fd5b505b50505050565b606060405180602001604052806000815250905090565b60606000600161382184613bc2565b01905060008167ffffffffffffffff8111156138405761383f61440d565b5b6040519080825280601f01601f1916602001820160405280156138725781602001600182028036833780820191505090505b509050600082602001820190505b6001156138d5578080600190039150507f3031323334353637383961626364656600000000000000000000000000000000600a86061a8153600a85816138c9576138c8615ba9565b5b04945060008503613880575b819350505050919050565b60006002600083815260200190815260200160002060009054906101000a900473ffffffffffffffffffffffffffffffffffffffff169050919050565b80806139565750600073ffffffffffffffffffffffffffffffffffffffff168273ffffffffffffffffffffffffffffffffffffffff1614155b15613a8a576000613966846131be565b9050600073ffffffffffffffffffffffffffffffffffffffff168373ffffffffffffffffffffffffffffffffffffffff16141580156139d157508273ffffffffffffffffffffffffffffffffffffffff168173ffffffffffffffffffffffffffffffffffffffff1614155b80156139e457506139e28184612648565b155b15613a2657826040517fa9fbf51f000000000000000000000000000000000000000000000000000000008152600401613a1d9190614132565b60405180910390fd5b8115613a8857838573ffffffffffffffffffffffffffffffffffffffff168273ffffffffffffffffffffffffffffffffffffffff167f8c5be1e5ebec7d5bd14f71427d1e84f3dd0314c0f7b2291e5b200ac8c7c3b92560405160405180910390a45b505b836004600085815260200190815260200160002060006101000a81548173ffffffffffffffffffffffffffffffffffffffff021916908373ffffffffffffffffffffffffffffffffffffffff16021790555050505050565b613aec8383613d15565b613af96000848484613644565b505050565b613b09838383613e0e565b613bbd57600073ffffffffffffffffffffffffffffffffffffffff168373ffffffffffffffffffffffffffffffffffffffff1603613b7e57806040517f7e273289000000000000000000000000000000000000000000000000000000008152600401613b7591906142bc565b60405180910390fd5b81816040517f177e802f000000000000000000000000000000000000000000000000000000008152600401613bb4929190615bd8565b60405180910390fd5b505050565b600080600090507a184f03e93ff9f4daa797ed6e38ed64bf6a1f0100000000000000008310613c20577a184f03e93ff9f4daa797ed6e38ed64bf6a1f0100000000000000008381613c1657613c15615ba9565b5b0492506040810190505b6d04ee2d6d415b85acef81000000008310613c5d576d04ee2d6d415b85acef81000000008381613c5357613c52615ba9565b5b0492506020810190505b662386f26fc100008310613c8c57662386f26fc100008381613c8257613c81615ba9565b5b0492506010810190505b6305f5e1008310613cb5576305f5e1008381613cab57613caa615ba9565b5b0492506008810190505b6127108310613cda576127108381613cd057613ccf615ba9565b5b0492506004810190505b60648310613cfd5760648381613cf357613cf2615ba9565b5b0492506002810190505b600a8310613d0c576001810190505b80915050919050565b600073ffffffffffffffffffffffffffffffffffffffff168273ffffffffffffffffffffffffffffffffffffffff1603613d875760006040517f64a0ae92000000000000000000000000000000000000000000000000000000008152600401613d7e9190614132565b60405180910390fd5b6000613d95838360006132bb565b9050600073ffffffffffffffffffffffffffffffffffffffff168173ffffffffffffffffffffffffffffffffffffffff1614613e095760006040517f73c6ac6e000000000000000000000000000000000000000000000000000000008152600401613e009190614132565b60405180910390fd5b505050565b60008073ffffffffffffffffffffffffffffffffffffffff168373ffffffffffffffffffffffffffffffffffffffff1614158015613ec657508273ffffffffffffffffffffffffffffffffffffffff168473ffffffffffffffffffffffffffffffffffffffff161480613e875750613e868484612648565b5b80613ec557508273ffffffffffffffffffffffffffffffffffffffff16613ead83613246565b73ffffffffffffffffffffffffffffffffffffffff16145b5b90509392505050565b604051806080016040528060008152602001600073ffffffffffffffffffffffffffffffffffffffff16815260200160608152602001606081525090565b6000604051905090565b600080fd5b600080fd5b60007fffffffff0000000000000000000000000000000000000000000000000000000082169050919050565b613f5681613f21565b8114613f6157600080fd5b50565b600081359050613f7381613f4d565b92915050565b600060208284031215613f8f57613f8e613f17565b5b6000613f9d84828501613f64565b91505092915050565b60008115159050919050565b613fbb81613fa6565b82525050565b6000602082019050613fd66000830184613fb2565b92915050565b600081519050919050565b600082825260208201905092915050565b60005b83811015614016578082015181840152602081019050613ffb565b60008484015250505050565b6000601f19601f8301169050919050565b600061403e82613fdc565b6140488185613fe7565b9350614058818560208601613ff8565b61406181614022565b840191505092915050565b600060208201905081810360008301526140868184614033565b905092915050565b6000819050919050565b6140a18161408e565b81146140ac57600080fd5b50565b6000813590506140be81614098565b92915050565b6000602082840312156140da576140d9613f17565b5b60006140e8848285016140af565b91505092915050565b600073ffffffffffffffffffffffffffffffffffffffff82169050919050565b600061411c826140f1565b9050919050565b61412c81614111565b82525050565b60006020820190506141476000830184614123565b92915050565b61415681614111565b811461416157600080fd5b50565b6000813590506141738161414d565b92915050565b600080604083850312156141905761418f613f17565b5b600061419e85828601614164565b92505060206141af858286016140af565b9150509250929050565b6141c28161408e565b82525050565b6141d181614111565b82525050565b600082825260208201905092915050565b60006141f382613fdc565b6141fd81856141d7565b935061420d818560208601613ff8565b61421681614022565b840191505092915050565b600060808301600083015161423960008601826141b9565b50602083015161424c60208601826141c8565b506040830151848203604086015261426482826141e8565b9150506060830151848203606086015261427e82826141e8565b9150508091505092915050565b600060208201905081810360008301526142a58184614221565b905092915050565b6142b68161408e565b82525050565b60006020820190506142d160008301846142ad565b92915050565b6000806000606084860312156142f0576142ef613f17565b5b60006142fe86828701614164565b935050602061430f86828701614164565b9250506040614320868287016140af565b9150509250925092565b6000806040838503121561434157614340613f17565b5b600061434f858286016140af565b925050602061436085828601614164565b9150509250929050565b6000602082840312156143805761437f613f17565b5b600061438e84828501614164565b91505092915050565b6143a081613fa6565b81146143ab57600080fd5b50565b6000813590506143bd81614397565b92915050565b600080604083850312156143da576143d9613f17565b5b60006143e885828601614164565b92505060206143f9858286016143ae565b9150509250929050565b600080fd5b600080fd5b7f4e487b7100000000000000000000000000000000000000000000000000000000600052604160045260246000fd5b61444582614022565b810181811067ffffffffffffffff821117156144645761446361440d565b5b80604052505050565b6000614477613f0d565b9050614483828261443c565b919050565b600067ffffffffffffffff8211156144a3576144a261440d565b5b6144ac82614022565b9050602081019050919050565b82818337600083830152505050565b60006144db6144d684614488565b61446d565b9050828152602081018484840111156144f7576144f6614408565b5b6145028482856144b9565b509392505050565b600082601f83011261451f5761451e614403565b5b813561452f8482602086016144c8565b91505092915050565b6000806000806080858703121561455257614551613f17565b5b600061456087828801614164565b945050602061457187828801614164565b9350506040614582878288016140af565b925050606085013567ffffffffffffffff8111156145a3576145a2613f1c565b5b6145af8782880161450a565b91505092959194509250565b60006080820190506145d060008301876142ad565b6145dd6020830186614123565b81810360408301526145ef8185614033565b905081810360608301526146038184614033565b905095945050505050565b6000806040838503121561462557614624613f17565b5b600061463385828601614164565b925050602061464485828601614164565b9150509250929050565b600067ffffffffffffffff8211156146695761466861440d565b5b61467282614022565b9050602081019050919050565b600061469261468d8461464e565b61446d565b9050828152602081018484840111156146ae576146ad614408565b5b6146b98482856144b9565b509392505050565b600082601f8301126146d6576146d5614403565b5b81356146e684826020860161467f565b91505092915050565b6000806040838503121561470657614705613f17565b5b600061471485828601614164565b925050602083013567ffffffffffffffff81111561473557614734613f1c565b5b614741858286016146c1565b9150509250929050565b7f4e487b7100000000000000000000000000000000000000000000000000000000600052602260045260246000fd5b6000600282049050600182168061479257607f821691505b6020821081036147a5576147a461474b565b5b50919050565b7f4f6e6c79204f776e657220526f6c65204d61792045786563757465205468697360008201527f2046756e6374696f6e2100000000000000000000000000000000000000000000602082015250565b6000614807602a83613fe7565b9150614812826147ab565b604082019050919050565b60006020820190508181036000830152614836816147fa565b9050919050565b7f4368616e6e656c204944204d7573742042652047726561746572205468616e2060008201527f5a65726f21000000000000000000000000000000000000000000000000000000602082015250565b6000614899602583613fe7565b91506148a48261483d565b604082019050919050565b600060208201905081810360008301526148c88161488c565b9050919050565b7f4368616e6e656c20494420546f6f204c61726765210000000000000000000000600082015250565b6000614905601583613fe7565b9150614910826148cf565b602082019050919050565b60006020820190508181036000830152614934816148f8565b9050919050565b7f4e487b7100000000000000000000000000000000000000000000000000000000600052601160045260246000fd5b60006149758261408e565b91507fffffffffffffffffffffffffffffffffffffffffffffffffffffffffffffffff82036149a7576149a661493b565b5b600182019050919050565b60006060820190506149c76000830186614123565b6149d460208301856142ad565b6149e16040830184614123565b949350505050565b7f4f6e6c7920416c70686150494e47204d656d62657273204d617920457865637560008201527f746520546869732046756e6374696f6e21000000000000000000000000000000602082015250565b6000614a45603183613fe7565b9150614a50826149e9565b604082019050919050565b60006020820190508181036000830152614a7481614a38565b9050919050565b7f54686973205573657227732050726976656c656467657320486176652042656560008201527f6e205265766f6b65642044756520546f204265696e6720426c61636b6c69737460208201527f6564210000000000000000000000000000000000000000000000000000000000604082015250565b6000614afd604383613fe7565b9150614b0882614a7b565b606082019050919050565b60006020820190508181036000830152614b2c81614af0565b9050919050565b7f596f75204861766520416c7265616479204a6f696e656420546869732043686160008201527f6e6e656c00000000000000000000000000000000000000000000000000000000602082015250565b6000614b8f602483613fe7565b9150614b9a82614b33565b604082019050919050565b60006020820190508181036000830152614bbe81614b82565b9050919050565b600081905092915050565b50565b6000614be0600083614bc5565b9150614beb82614bd0565b600082019050919050565b6000614c0182614bd3565b9150819050919050565b7f4e6577204f776e6572204d75737420426520416e20416c70686150494e47204d60008201527f656d626572210000000000000000000000000000000000000000000000000000602082015250565b6000614c67602683613fe7565b9150614c7282614c0b565b604082019050919050565b60006020820190508181036000830152614c9681614c5a565b9050919050565b7f4e6577204f776e6572204d757374204e6f7420426520426c61636b6c6973746560008201527f6421000000000000000000000000000000000000000000000000000000000000602082015250565b6000614cf9602283613fe7565b9150614d0482614c9d565b604082019050919050565b60006020820190508181036000830152614d2881614cec565b9050919050565b7f4f6e6c79204368616e6e656c204d6f64206f72204f776e657220526f6c65204d60008201527f6179204578656375746520546869732046756e6374696f6e2100000000000000602082015250565b6000614d8b603983613fe7565b9150614d9682614d2f565b604082019050919050565b60006020820190508181036000830152614dba81614d7e565b9050919050565b7f54686973205573657220497320416c72656164792042616e6e6564204f6e205460008201527f686973204368616e6e656c210000000000000000000000000000000000000000602082015250565b6000614e1d602c83613fe7565b9150614e2882614dc1565b604082019050919050565b60006020820190508181036000830152614e4c81614e10565b9050919050565b7f5573657220497320416c726561647920426c61636b6c69737465642100000000600082015250565b6000614e89601c83613fe7565b9150614e9482614e53565b602082019050919050565b60006020820190508181036000830152614eb881614e7c565b9050919050565b7f55736572204973204e6f742041204d6f6420466f722054686973204368616e6e60008201527f656c210000000000000000000000000000000000000000000000000000000000602082015250565b6000614f1b602383613fe7565b9150614f2682614ebf565b604082019050919050565b60006020820190508181036000830152614f4a81614f0e565b9050919050565b7f596f7520417265204e6f742043757272656e746c792041204d656d626572206f60008201527f662054686973204368616e6e656c210000000000000000000000000000000000602082015250565b6000614fad602f83613fe7565b9150614fb882614f51565b604082019050919050565b60006020820190508181036000830152614fdc81614fa0565b9050919050565b7f546869732055736572204973204e6f742043757272656e746c792042616e6e6560008201527f6421000000000000000000000000000000000000000000000000000000000000602082015250565b600061503f602283613fe7565b915061504a82614fe3565b604082019050919050565b6000602082019050818103600083015261506e81615032565b9050919050565b600081905092915050565b600061508b82613fdc565b6150958185615075565b93506150a5818560208601613ff8565b80840191505092915050565b60006150bd8285615080565b91506150c98284615080565b91508190509392505050565b7f4e6577204368616e6e656c204d6f64204d75737420426520416e20416c70686160008201527f50494e47204d656d626572210000000000000000000000000000000000000000602082015250565b6000615131602c83613fe7565b915061513c826150d5565b604082019050919050565b6000602082019050818103600083015261516081615124565b9050919050565b7f4e6577204368616e6e656c204d6f64204d757374204e6f7420426520426c616360008201527f6b6c697374656421000000000000000000000000000000000000000000000000602082015250565b60006151c3602883613fe7565b91506151ce82615167565b604082019050919050565b600060208201905081810360008301526151f2816151b6565b9050919050565b7f55736572204973204e6f742043757272656e746c7920426c61636b6c6973746560008201527f6421000000000000000000000000000000000000000000000000000000000000602082015250565b6000615255602283613fe7565b9150615260826151f9565b604082019050919050565b6000602082019050818103600083015261528481615248565b9050919050565b7f54686973204368616e6e656c20416c7265616479204578697374732100000000600082015250565b60006152c1601c83613fe7565b91506152cc8261528b565b602082019050919050565b600060208201905081810360008301526152f0816152b4565b9050919050565b7f4552433230000000000000000000000000000000000000000000000000000000600082015250565b600061532d600583615075565b9150615338826152f7565b600582019050919050565b600061534e82615320565b9150819050919050565b7f4552433732310000000000000000000000000000000000000000000000000000600082015250565b600061538e600683615075565b915061539982615358565b600682019050919050565b60006153af82615381565b9150819050919050565b60006153c58284615080565b915081905092915050565b7f546f6b656e2054797065204d757374204569746865722042652045524332302060008201527f6f72204552433732312100000000000000000000000000000000000000000000602082015250565b600061542c602a83613fe7565b9150615437826153d0565b604082019050919050565b6000602082019050818103600083015261545b8161541f565b9050919050565b6000819050919050565b60008160e01b9050919050565b600061549461548f61548a84615462565b61546c565b613f21565b9050919050565b6154a481615479565b82525050565b60006020820190506154bf600083018461549b565b92915050565b6000815190506154d481614397565b92915050565b6000602082840312156154f0576154ef613f17565b5b60006154fe848285016154c5565b91505092915050565b7f54686973204973204e6f7420412056616c69642045524337323120546f6b656e60008201527f2100000000000000000000000000000000000000000000000000000000000000602082015250565b6000615563602183613fe7565b915061556e82615507565b604082019050919050565b6000602082019050818103600083015261559281615556565b9050919050565b600060ff82169050919050565b6155af81615599565b81146155ba57600080fd5b50565b6000815190506155cc816155a6565b92915050565b6000602082840312156155e8576155e7613f17565b5b60006155f6848285016155bd565b91505092915050565b7f54686973204973204e6f7420412056616c696420455243323020546f6b656e21600082015250565b6000615635602083613fe7565b9150615640826155ff565b602082019050919050565b6000602082019050818103600083015261566481615628565b9050919050565b600061567e6156798461464e565b61446d565b90508281526020810184848401111561569a57615699614408565b5b6156a5848285613ff8565b509392505050565b600082601f8301126156c2576156c1614403565b5b81516156d284826020860161566b565b91505092915050565b6000602082840312156156f1576156f0613f17565b5b600082015167ffffffffffffffff81111561570f5761570e613f1c565b5b61571b848285016156ad565b91505092915050565b7f4e6f204e616d6520466f756e6420466f72205468697320455243323020546f6b60008201527f656e210000000000000000000000000000000000000000000000000000000000602082015250565b6000615780602383613fe7565b915061578b82615724565b604082019050919050565b600060208201905081810360008301526157af81615773565b9050919050565b7f4e6f204e616d6520466f756e6420466f7220546869732045524337323120546f60008201527f6b656e2100000000000000000000000000000000000000000000000000000000602082015250565b6000615812602483613fe7565b915061581d826157b6565b604082019050919050565b6000602082019050818103600083015261584181615805565b9050919050565b60008190508160005260206000209050919050565b60006020601f8301049050919050565b600082821b905092915050565b6000600883026158aa7fffffffffffffffffffffffffffffffffffffffffffffffffffffffffffffffff8261586d565b6158b4868361586d565b95508019841693508086168417925050509392505050565b6000819050919050565b60006158f16158ec6158e78461408e565b6158cc565b61408e565b9050919050565b6000819050919050565b61590b836158d6565b61591f615917826158f8565b84845461587a565b825550505050565b600090565b615934615927565b61593f818484615902565b505050565b5b818110156159635761595860008261592c565b600181019050615945565b5050565b601f8211156159a85761597981615848565b6159828461585d565b81016020851015615991578190505b6159a561599d8561585d565b830182615944565b50505b505050565b600082821c905092915050565b60006159cb600019846008026159ad565b1980831691505092915050565b60006159e483836159ba565b9150826002028217905092915050565b6159fd82613fdc565b67ffffffffffffffff811115615a1657615a1561440d565b5b615a20825461477a565b615a2b828285615967565b600060209050601f831160018114615a5e5760008415615a4c578287015190505b615a5685826159d8565b865550615abe565b601f198416615a6c86615848565b60005b82811015615a9457848901518255600182019150602085019450602081019050615a6f565b86831015615ab15784890151615aad601f8916826159ba565b8355505b6001600288020188555050505b505050505050565b600081519050919050565b600082825260208201905092915050565b6000615aed82615ac6565b615af78185615ad1565b9350615b07818560208601613ff8565b615b1081614022565b840191505092915050565b6000608082019050615b306000830187614123565b615b3d6020830186614123565b615b4a60408301856142ad565b8181036060830152615b5c8184615ae2565b905095945050505050565b600081519050615b7681613f4d565b92915050565b600060208284031215615b9257615b91613f17565b5b6000615ba084828501615b67565b91505092915050565b7f4e487b7100000000000000000000000000000000000000000000000000000000600052601260045260246000fd5b6000604082019050615bed6000830185614123565b615bfa60208301846142ad565b939250505056fea2646970667358221220b0f9b0053833efcd55717caf64504a5266e4856920098eaaabea054dbb397bf764736f6c63430008180033",
  "linkReferences": {},
  "deployedLinkReferences": {}
}