{
  "_format": "hh-sol-artifact-1",
  "contractName": "ERC20Faucet",
  "sourceName": "contracts/ERC20Faucet.sol",
  "abi": [
    {
      "inputs": [],
      "stateMutability": "nonpayable",
      "type": "constructor"
    },
    {
      "anonymous": false,
      "inputs": [
        {
          "indexed": true,
          "internalType": "address",
          "name": "owner",
          "type": "address"
        },
        {
          "indexed": true,
          "internalType": "address",
          "name": "spender",
          "type": "address"
        },
        {
          "indexed": false,
          "internalType": "uint256",
          "name": "value",
          "type": "uint256"
        }
      ],
      "name": "Approval",
      "type": "event"
    },
    {
      "anonymous": false,
      "inputs": [
        {
          "indexed": true,
          "internalType": "address",
          "name": "from",
          "type": "address"
        },
        {
          "indexed": true,
          "internalType": "address",
          "name": "to",
          "type": "address"
        },
        {
          "indexed": false,
          "internalType": "uint256",
          "name": "value",
          "type": "uint256"
        }
      ],
      "name": "Transfer",
      "type": "event"
    },
    {
      "inputs": [
        {
          "internalType": "address",
          "name": "owner",
          "type": "address"
        },
        {
          "internalType": "address",
          "name": "spender",
          "type": "address"
        }
      ],
      "name": "allowance",
      "outputs": [
        {
          "internalType": "uint256",
          "name": "",
          "type": "uint256"
        }
      ],
      "stateMutability": "view",
      "type": "function"
    },
    {
      "inputs": [
        {
          "internalType": "address",
          "name": "spender",
          "type": "address"
        },
        {
          "internalType": "uint256",
          "name": "amount",
          "type": "uint256"
        }
      ],
      "name": "approve",
      "outputs": [
        {
          "internalType": "bool",
          "name": "",
          "type": "bool"
        }
      ],
      "stateMutability": "nonpayable",
      "type": "function"
    },
    {
      "inputs": [
        {
          "internalType": "address",
          "name": "account",
          "type": "address"
        }
      ],
      "name": "balanceOf",
      "outputs": [
        {
          "internalType": "uint256",
          "name": "",
          "type": "uint256"
        }
      ],
      "stateMutability": "view",
      "type": "function"
    },
    {
      "inputs": [],
      "name": "decimals",
      "outputs": [
        {
          "internalType": "uint8",
          "name": "",
          "type": "uint8"
        }
      ],
      "stateMutability": "view",
      "type": "function"
    },
    {
      "inputs": [],
      "name": "name",
      "outputs": [
        {
          "internalType": "string",
          "name": "",
          "type": "string"
        }
      ],
      "stateMutability": "view",
      "type": "function"
    },
    {
      "inputs": [
        {
          "internalType": "address",
          "name": "token",
          "type": "address"
        },
        {
          "internalType": "address",
          "name": "recipient",
          "type": "address"
        },
        {
          "internalType": "uint256",
          "name": "amount",
          "type": "uint256"
        }
      ],
      "name": "sendTokens",
      "outputs": [],
      "stateMutability": "nonpayable",
      "type": "function"
    },
    {
      "inputs": [],
      "name": "symbol",
      "outputs": [
        {
          "internalType": "string",
          "name": "",
          "type": "string"
        }
      ],
      "stateMutability": "view",
      "type": "function"
    },
    {
      "inputs": [],
      "name": "totalSupply",
      "outputs": [
        {
          "internalType": "uint256",
          "name": "",
          "type": "uint256"
        }
      ],
      "stateMutability": "view",
      "type": "function"
    },
    {
      "inputs": [
        {
          "internalType": "address",
          "name": "recipient",
          "type": "address"
        },
        {
          "internalType": "uint256",
          "name": "amount",
          "type": "uint256"
        }
      ],
      "name": "transfer",
      "outputs": [
        {
          "internalType": "bool",
          "name": "",
          "type": "bool"
        }
      ],
      "stateMutability": "nonpayable",
      "type": "function"
    },
    {
      "inputs": [
        {
          "internalType": "address",
          "name": "sender",
          "type": "address"
        },
        {
          "internalType": "address",
          "name": "recipient",
          "type": "address"
        },
        {
          "internalType": "uint256",
          "name": "amount",
          "type": "uint256"
        }
      ],
      "name": "transferFrom",
      "outputs": [
        {
          "internalType": "bool",
          "name": "",
          "type": "bool"
        }
      ],
      "stateMutability": "nonpayable",
      "type": "function"
    }
  ],
  "bytecode": "0x608060405234801561001057600080fd5b5061001e33624c4b40610023565b61018c565b6001600160a01b03821661007e5760405162461bcd60e51b815260206004820152601860248201527f4d696e7420746f20746865207a65726f2061646472657373000000000000000060448201526064015b60405180910390fd5b600081116100dc5760405162461bcd60e51b815260206004820152602560248201527f4d696e7420616d6f756e74206d7573742062652067726561746572207468616e604482015264207a65726f60d81b6064820152608401610075565b80600160008282546100ee9190610165565b90915550506001600160a01b0382166000908152602081905260408120805483929061011b908490610165565b90915550506040518181526001600160a01b038316906000907fddf252ad1be2c89b69c2b068fc378daa952ba7f163c4a11628f55a4df523b3ef9060200160405180910390a35050565b8082018082111561018657634e487b7160e01b600052601160045260246000fd5b92915050565b6108a48061019b6000396000f3fe608060405234801561001057600080fd5b50600436106100be5760003560e01c806370a0823111610076578063a9059cbb1161005b578063a9059cbb146101dc578063dd62ed3e146101ef578063e6d66ac81461022857600080fd5b806370a082311461017757806395d89b41146101a057600080fd5b806318160ddd116100a757806318160ddd1461013857806323b872dd1461014a578063313ce5671461015d57600080fd5b806306fdde03146100c3578063095ea7b314610115575b600080fd5b6100ff6040518060400160405280600981526020017f4d6f636b2055534443000000000000000000000000000000000000000000000081525081565b60405161010c91906106d1565b60405180910390f35b61012861012336600461073c565b61023d565b604051901515815260200161010c565b6001545b60405190815260200161010c565b610128610158366004610766565b6102aa565b610165600681565b60405160ff909116815260200161010c565b61013c6101853660046107a2565b6001600160a01b031660009081526020819052604090205490565b6100ff6040518060400160405280600481526020017f555344430000000000000000000000000000000000000000000000000000000081525081565b6101286101ea36600461073c565b610398565b61013c6101fd3660046107c4565b6001600160a01b03918216600090815260026020908152604080832093909416825291909152205490565b61023b610236366004610766565b6103ae565b005b3360008181526002602090815260408083206001600160a01b038716808552925280832085905551919290917f8c5be1e5ebec7d5bd14f71427d1e84f3dd0314c0f7b2291e5b200ac8c7c3b925906102989086815260200190565b60405180910390a35060015b92915050565b6001600160a01b03831660009081526002602090815260408083203384529091528120548211156103485760405162461bcd60e51b815260206004820152602860248201527f45524332303a207472616e7366657220616d6f756e742065786365656473206160448201527f6c6c6f77616e636500000000000000000000000000000000000000000000000060648201526084015b60405180910390fd5b610353848484610440565b6001600160a01b03841660009081526002602090815260408083203380855292529091205461038e918691610389908690610826565b610678565b5060019392505050565b60006103a5338484610440565b50600192915050565b6040517fa9059cbb0000000000000000000000000000000000000000000000000000000081526001600160a01b0383811660048301526024820183905284169063a9059cbb906044016020604051808303816000875af1158015610416573d6000803e3d6000fd5b505050506040513d601f19601f8201168201806040525081019061043a9190610839565b50505050565b6001600160a01b0383166104965760405162461bcd60e51b815260206004820152601e60248201527f5472616e736665722066726f6d20746865207a65726f20616464726573730000604482015260640161033f565b6001600160a01b0382166104ec5760405162461bcd60e51b815260206004820152601c60248201527f5472616e7366657220746f20746865207a65726f206164647265737300000000604482015260640161033f565b600081116105625760405162461bcd60e51b815260206004820152602960248201527f5472616e7366657220616d6f756e74206d75737420626520677265617465722060448201527f7468616e207a65726f0000000000000000000000000000000000000000000000606482015260840161033f565b6001600160a01b0383166000908152602081905260409020548111156105ca5760405162461bcd60e51b815260206004820152601460248201527f496e73756666696369656e742062616c616e6365000000000000000000000000604482015260640161033f565b6001600160a01b038316600090815260208190526040812080548392906105f2908490610826565b90915550506001600160a01b0382166000908152602081905260408120805483929061061f90849061085b565b92505081905550816001600160a01b0316836001600160a01b03167fddf252ad1be2c89b69c2b068fc378daa952ba7f163c4a11628f55a4df523b3ef8360405161066b91815260200190565b60405180910390a3505050565b6001600160a01b0383811660008181526002602090815260408083209487168084529482529182902085905590518481527f8c5be1e5ebec7d5bd14f71427d1e84f3dd0314c0f7b2291e5b200ac8c7c3b925910161066b565b60006020808352835180602085015260005b818110156106ff578581018301518582016040015282016106e3565b506000604082860101526040601f19601f8301168501019250505092915050565b80356001600160a01b038116811461073757600080fd5b919050565b6000806040838503121561074f57600080fd5b61075883610720565b946020939093013593505050565b60008060006060848603121561077b57600080fd5b61078484610720565b925061079260208501610720565b9150604084013590509250925092565b6000602082840312156107b457600080fd5b6107bd82610720565b9392505050565b600080604083850312156107d757600080fd5b6107e083610720565b91506107ee60208401610720565b90509250929050565b7f4e487b7100000000000000000000000000000000000000000000000000000000600052601160045260246000fd5b818103818111156102a4576102a46107f7565b60006020828403121561084b57600080fd5b815180151581146107bd57600080fd5b808201808211156102a4576102a46107f756fea2646970667358221220176366327686bddda102a778e4772599a21431e1567d773f956f607669c2565a64736f6c63430008180033",
  "linkReferences": {},
  "deployedLinkReferences": {}
}