{
  "_format": "hh-sol-artifact-1",
  "contractName": "AlphaPING",
  "sourceName": "contracts/AlphaPING.sol",
  "abi": [
    {
      "inputs": [
        {
          "internalType": "string",
          "name": "_name",
          "type": "string"
        },
        {
          "internalType": "string",
          "name": "_symbol",
          "type": "string"
        }
      ],
      "stateMutability": "nonpayable",
      "type": "constructor"
    },
    {
      "inputs": [
        {
          "internalType": "address",
          "name": "sender",
          "type": "address"
        },
        {
          "internalType": "uint256",
          "name": "tokenId",
          "type": "uint256"
        },
        {
          "internalType": "address",
          "name": "owner",
          "type": "address"
        }
      ],
      "name": "ERC721IncorrectOwner",
      "type": "error"
    },
    {
      "inputs": [
        {
          "internalType": "address",
          "name": "operator",
          "type": "address"
        },
        {
          "internalType": "uint256",
          "name": "tokenId",
          "type": "uint256"
        }
      ],
      "name": "ERC721InsufficientApproval",
      "type": "error"
    },
    {
      "inputs": [
        {
          "internalType": "address",
          "name": "approver",
          "type": "address"
        }
      ],
      "name": "ERC721InvalidApprover",
      "type": "error"
    },
    {
      "inputs": [
        {
          "internalType": "address",
          "name": "operator",
          "type": "address"
        }
      ],
      "name": "ERC721InvalidOperator",
      "type": "error"
    },
    {
      "inputs": [
        {
          "internalType": "address",
          "name": "owner",
          "type": "address"
        }
      ],
      "name": "ERC721InvalidOwner",
      "type": "error"
    },
    {
      "inputs": [
        {
          "internalType": "address",
          "name": "receiver",
          "type": "address"
        }
      ],
      "name": "ERC721InvalidReceiver",
      "type": "error"
    },
    {
      "inputs": [
        {
          "internalType": "address",
          "name": "sender",
          "type": "address"
        }
      ],
      "name": "ERC721InvalidSender",
      "type": "error"
    },
    {
      "inputs": [
        {
          "internalType": "uint256",
          "name": "tokenId",
          "type": "uint256"
        }
      ],
      "name": "ERC721NonexistentToken",
      "type": "error"
    },
    {
      "anonymous": false,
      "inputs": [
        {
          "indexed": true,
          "internalType": "address",
          "name": "owner",
          "type": "address"
        },
        {
          "indexed": true,
          "internalType": "address",
          "name": "approved",
          "type": "address"
        },
        {
          "indexed": true,
          "internalType": "uint256",
          "name": "tokenId",
          "type": "uint256"
        }
      ],
      "name": "Approval",
      "type": "event"
    },
    {
      "anonymous": false,
      "inputs": [
        {
          "indexed": true,
          "internalType": "address",
          "name": "owner",
          "type": "address"
        },
        {
          "indexed": true,
          "internalType": "address",
          "name": "operator",
          "type": "address"
        },
        {
          "indexed": false,
          "internalType": "bool",
          "name": "approved",
          "type": "bool"
        }
      ],
      "name": "ApprovalForAll",
      "type": "event"
    },
    {
      "anonymous": false,
      "inputs": [
        {
          "indexed": true,
          "internalType": "address",
          "name": "from",
          "type": "address"
        },
        {
          "indexed": true,
          "internalType": "address",
          "name": "to",
          "type": "address"
        },
        {
          "indexed": true,
          "internalType": "uint256",
          "name": "tokenId",
          "type": "uint256"
        }
      ],
      "name": "Transfer",
      "type": "event"
    },
    {
      "inputs": [
        {
          "internalType": "address",
          "name": "_blacklistedAddress",
          "type": "address"
        }
      ],
      "name": "addToPersonalBlockList",
      "outputs": [],
      "stateMutability": "nonpayable",
      "type": "function"
    },
    {
      "inputs": [
        {
          "internalType": "address",
          "name": "_followedAddress",
          "type": "address"
        }
      ],
      "name": "addToPersonalFollowList",
      "outputs": [],
      "stateMutability": "nonpayable",
      "type": "function"
    },
    {
      "inputs": [
        {
          "internalType": "address",
          "name": "to",
          "type": "address"
        },
        {
          "internalType": "uint256",
          "name": "tokenId",
          "type": "uint256"
        }
      ],
      "name": "approve",
      "outputs": [],
      "stateMutability": "nonpayable",
      "type": "function"
    },
    {
      "inputs": [
        {
          "internalType": "address",
          "name": "owner",
          "type": "address"
        }
      ],
      "name": "balanceOf",
      "outputs": [
        {
          "internalType": "uint256",
          "name": "",
          "type": "uint256"
        }
      ],
      "stateMutability": "view",
      "type": "function"
    },
    {
      "inputs": [
        {
          "internalType": "address",
          "name": "_bannedMod",
          "type": "address"
        },
        {
          "internalType": "uint256",
          "name": "_channelId",
          "type": "uint256"
        }
      ],
      "name": "banMod",
      "outputs": [],
      "stateMutability": "nonpayable",
      "type": "function"
    },
    {
      "inputs": [
        {
          "internalType": "address",
          "name": "_blacklistedUser",
          "type": "address"
        }
      ],
      "name": "blacklistUser",
      "outputs": [],
      "stateMutability": "nonpayable",
      "type": "function"
    },
    {
      "inputs": [
        {
          "internalType": "address",
          "name": "_bannedAccount",
          "type": "address"
        },
        {
          "internalType": "uint256",
          "name": "_channelId",
          "type": "uint256"
        }
      ],
      "name": "channelBan",
      "outputs": [],
      "stateMutability": "nonpayable",
      "type": "function"
    },
    {
      "inputs": [
        {
          "internalType": "uint256",
          "name": "",
          "type": "uint256"
        },
        {
          "internalType": "address",
          "name": "",
          "type": "address"
        }
      ],
      "name": "channelBans",
      "outputs": [
        {
          "internalType": "bool",
          "name": "",
          "type": "bool"
        }
      ],
      "stateMutability": "view",
      "type": "function"
    },
    {
      "inputs": [
        {
          "internalType": "address",
          "name": "",
          "type": "address"
        }
      ],
      "name": "channelExistsForToken",
      "outputs": [
        {
          "internalType": "bool",
          "name": "",
          "type": "bool"
        }
      ],
      "stateMutability": "view",
      "type": "function"
    },
    {
      "inputs": [
        {
          "internalType": "address",
          "name": "_bannedAccount",
          "type": "address"
        },
        {
          "internalType": "uint256",
          "name": "_channelId",
          "type": "uint256"
        }
      ],
      "name": "channelUnban",
      "outputs": [],
      "stateMutability": "nonpayable",
      "type": "function"
    },
    {
      "inputs": [
        {
          "internalType": "uint256",
          "name": "",
          "type": "uint256"
        }
      ],
      "name": "channels",
      "outputs": [
        {
          "internalType": "uint256",
          "name": "id",
          "type": "uint256"
        },
        {
          "internalType": "address",
          "name": "tokenAddress",
          "type": "address"
        },
        {
          "internalType": "string",
          "name": "name",
          "type": "string"
        },
        {
          "internalType": "string",
          "name": "tokenType",
          "type": "string"
        }
      ],
      "stateMutability": "view",
      "type": "function"
    },
    {
      "inputs": [
        {
          "internalType": "address",
          "name": "_tokenAddress",
          "type": "address"
        },
        {
          "internalType": "string",
          "name": "_tokenType",
          "type": "string"
        }
      ],
      "name": "createChannel",
      "outputs": [],
      "stateMutability": "nonpayable",
      "type": "function"
    },
    {
      "inputs": [
        {
          "internalType": "uint256",
          "name": "tokenId",
          "type": "uint256"
        }
      ],
      "name": "getApproved",
      "outputs": [
        {
          "internalType": "address",
          "name": "",
          "type": "address"
        }
      ],
      "stateMutability": "view",
      "type": "function"
    },
    {
      "inputs": [
        {
          "internalType": "uint256",
          "name": "_channelId",
          "type": "uint256"
        }
      ],
      "name": "getChannel",
      "outputs": [
        {
          "components": [
            {
              "internalType": "uint256",
              "name": "id",
              "type": "uint256"
            },
            {
              "internalType": "address",
              "name": "tokenAddress",
              "type": "address"
            },
            {
              "internalType": "string",
              "name": "name",
              "type": "string"
            },
            {
              "internalType": "string",
              "name": "tokenType",
              "type": "string"
            }
          ],
          "internalType": "struct AlphaPING.Channel",
          "name": "",
          "type": "tuple"
        }
      ],
      "stateMutability": "view",
      "type": "function"
    },
    {
      "inputs": [
        {
          "internalType": "uint256",
          "name": "",
          "type": "uint256"
        },
        {
          "internalType": "address",
          "name": "",
          "type": "address"
        }
      ],
      "name": "hasJoinedChannel",
      "outputs": [
        {
          "internalType": "bool",
          "name": "",
          "type": "bool"
        }
      ],
      "stateMutability": "view",
      "type": "function"
    },
    {
      "inputs": [
        {
          "internalType": "address",
          "name": "owner",
          "type": "address"
        },
        {
          "internalType": "address",
          "name": "operator",
          "type": "address"
        }
      ],
      "name": "isApprovedForAll",
      "outputs": [
        {
          "internalType": "bool",
          "name": "",
          "type": "bool"
        }
      ],
      "stateMutability": "view",
      "type": "function"
    },
    {
      "inputs": [
        {
          "internalType": "address",
          "name": "",
          "type": "address"
        }
      ],
      "name": "isBlackListed",
      "outputs": [
        {
          "internalType": "bool",
          "name": "",
          "type": "bool"
        }
      ],
      "stateMutability": "view",
      "type": "function"
    },
    {
      "inputs": [
        {
          "internalType": "address",
          "name": "",
          "type": "address"
        }
      ],
      "name": "isMember",
      "outputs": [
        {
          "internalType": "bool",
          "name": "",
          "type": "bool"
        }
      ],
      "stateMutability": "view",
      "type": "function"
    },
    {
      "inputs": [
        {
          "internalType": "address",
          "name": "_subscriber",
          "type": "address"
        }
      ],
      "name": "isSubscriptionActive",
      "outputs": [
        {
          "internalType": "bool",
          "name": "",
          "type": "bool"
        }
      ],
      "stateMutability": "view",
      "type": "function"
    },
    {
      "inputs": [
        {
          "internalType": "uint256",
          "name": "_channelId",
          "type": "uint256"
        }
      ],
      "name": "joinChannel",
      "outputs": [],
      "stateMutability": "nonpayable",
      "type": "function"
    },
    {
      "inputs": [
        {
          "internalType": "uint256",
          "name": "_channelId",
          "type": "uint256"
        }
      ],
      "name": "leaveChannel",
      "outputs": [],
      "stateMutability": "nonpayable",
      "type": "function"
    },
    {
      "inputs": [],
      "name": "mint",
      "outputs": [],
      "stateMutability": "nonpayable",
      "type": "function"
    },
    {
      "inputs": [
        {
          "internalType": "uint256",
          "name": "",
          "type": "uint256"
        }
      ],
      "name": "mods",
      "outputs": [
        {
          "internalType": "address",
          "name": "",
          "type": "address"
        }
      ],
      "stateMutability": "view",
      "type": "function"
    },
    {
      "inputs": [],
      "name": "monthDuration",
      "outputs": [
        {
          "internalType": "uint256",
          "name": "",
          "type": "uint256"
        }
      ],
      "stateMutability": "view",
      "type": "function"
    },
    {
      "inputs": [],
      "name": "name",
      "outputs": [
        {
          "internalType": "string",
          "name": "",
          "type": "string"
        }
      ],
      "stateMutability": "view",
      "type": "function"
    },
    {
      "inputs": [],
      "name": "owner",
      "outputs": [
        {
          "internalType": "address",
          "name": "",
          "type": "address"
        }
      ],
      "stateMutability": "view",
      "type": "function"
    },
    {
      "inputs": [
        {
          "internalType": "uint256",
          "name": "tokenId",
          "type": "uint256"
        }
      ],
      "name": "ownerOf",
      "outputs": [
        {
          "internalType": "address",
          "name": "",
          "type": "address"
        }
      ],
      "stateMutability": "view",
      "type": "function"
    },
    {
      "inputs": [
        {
          "internalType": "address",
          "name": "",
          "type": "address"
        },
        {
          "internalType": "address",
          "name": "",
          "type": "address"
        }
      ],
      "name": "personalBlockList",
      "outputs": [
        {
          "internalType": "bool",
          "name": "",
          "type": "bool"
        }
      ],
      "stateMutability": "view",
      "type": "function"
    },
    {
      "inputs": [
        {
          "internalType": "address",
          "name": "",
          "type": "address"
        },
        {
          "internalType": "address",
          "name": "",
          "type": "address"
        }
      ],
      "name": "personalFollowList",
      "outputs": [
        {
          "internalType": "bool",
          "name": "",
          "type": "bool"
        }
      ],
      "stateMutability": "view",
      "type": "function"
    },
    {
      "inputs": [
        {
          "internalType": "address",
          "name": "",
          "type": "address"
        }
      ],
      "name": "premiumMembershipExpiry",
      "outputs": [
        {
          "internalType": "uint256",
          "name": "",
          "type": "uint256"
        }
      ],
      "stateMutability": "view",
      "type": "function"
    },
    {
      "inputs": [],
      "name": "promoPeriod",
      "outputs": [
        {
          "internalType": "bool",
          "name": "",
          "type": "bool"
        }
      ],
      "stateMutability": "view",
      "type": "function"
    },
    {
      "inputs": [],
      "name": "purchaseMonthlySubscription",
      "outputs": [],
      "stateMutability": "nonpayable",
      "type": "function"
    },
    {
      "inputs": [
        {
          "internalType": "address",
          "name": "_blacklistedAddress",
          "type": "address"
        }
      ],
      "name": "removeFromPersonalBlockList",
      "outputs": [],
      "stateMutability": "nonpayable",
      "type": "function"
    },
    {
      "inputs": [
        {
          "internalType": "address",
          "name": "_followedAddress",
          "type": "address"
        }
      ],
      "name": "removeFromPersonalFollowList",
      "outputs": [],
      "stateMutability": "nonpayable",
      "type": "function"
    },
    {
      "inputs": [
        {
          "internalType": "address",
          "name": "from",
          "type": "address"
        },
        {
          "internalType": "address",
          "name": "to",
          "type": "address"
        },
        {
          "internalType": "uint256",
          "name": "tokenId",
          "type": "uint256"
        }
      ],
      "name": "safeTransferFrom",
      "outputs": [],
      "stateMutability": "nonpayable",
      "type": "function"
    },
    {
      "inputs": [
        {
          "internalType": "address",
          "name": "from",
          "type": "address"
        },
        {
          "internalType": "address",
          "name": "to",
          "type": "address"
        },
        {
          "internalType": "uint256",
          "name": "tokenId",
          "type": "uint256"
        },
        {
          "internalType": "bytes",
          "name": "data",
          "type": "bytes"
        }
      ],
      "name": "safeTransferFrom",
      "outputs": [],
      "stateMutability": "nonpayable",
      "type": "function"
    },
    {
      "inputs": [
        {
          "internalType": "address",
          "name": "operator",
          "type": "address"
        },
        {
          "internalType": "bool",
          "name": "approved",
          "type": "bool"
        }
      ],
      "name": "setApprovalForAll",
      "outputs": [],
      "stateMutability": "nonpayable",
      "type": "function"
    },
    {
      "inputs": [
        {
          "internalType": "address",
          "name": "_subscriptionCurrency",
          "type": "address"
        }
      ],
      "name": "setSubscriptionCurrency",
      "outputs": [],
      "stateMutability": "nonpayable",
      "type": "function"
    },
    {
      "inputs": [
        {
          "internalType": "uint256",
          "name": "_newSubscriptionPrice",
          "type": "uint256"
        }
      ],
      "name": "setSubscriptionPriceMonthly",
      "outputs": [],
      "stateMutability": "nonpayable",
      "type": "function"
    },
    {
      "inputs": [],
      "name": "subscriptionCurrency",
      "outputs": [
        {
          "internalType": "address",
          "name": "",
          "type": "address"
        }
      ],
      "stateMutability": "view",
      "type": "function"
    },
    {
      "inputs": [],
      "name": "subscriptionPriceMonthly",
      "outputs": [
        {
          "internalType": "uint256",
          "name": "",
          "type": "uint256"
        }
      ],
      "stateMutability": "view",
      "type": "function"
    },
    {
      "inputs": [
        {
          "internalType": "bytes4",
          "name": "interfaceId",
          "type": "bytes4"
        }
      ],
      "name": "supportsInterface",
      "outputs": [
        {
          "internalType": "bool",
          "name": "",
          "type": "bool"
        }
      ],
      "stateMutability": "view",
      "type": "function"
    },
    {
      "inputs": [],
      "name": "symbol",
      "outputs": [
        {
          "internalType": "string",
          "name": "",
          "type": "string"
        }
      ],
      "stateMutability": "view",
      "type": "function"
    },
    {
      "inputs": [],
      "name": "togglePromoPeriod",
      "outputs": [],
      "stateMutability": "nonpayable",
      "type": "function"
    },
    {
      "inputs": [
        {
          "internalType": "uint256",
          "name": "tokenId",
          "type": "uint256"
        }
      ],
      "name": "tokenURI",
      "outputs": [
        {
          "internalType": "string",
          "name": "",
          "type": "string"
        }
      ],
      "stateMutability": "view",
      "type": "function"
    },
    {
      "inputs": [],
      "name": "totalChannels",
      "outputs": [
        {
          "internalType": "uint256",
          "name": "",
          "type": "uint256"
        }
      ],
      "stateMutability": "view",
      "type": "function"
    },
    {
      "inputs": [],
      "name": "totalSupply",
      "outputs": [
        {
          "internalType": "uint256",
          "name": "",
          "type": "uint256"
        }
      ],
      "stateMutability": "view",
      "type": "function"
    },
    {
      "inputs": [
        {
          "internalType": "address",
          "name": "from",
          "type": "address"
        },
        {
          "internalType": "address",
          "name": "to",
          "type": "address"
        },
        {
          "internalType": "uint256",
          "name": "tokenId",
          "type": "uint256"
        }
      ],
      "name": "transferFrom",
      "outputs": [],
      "stateMutability": "nonpayable",
      "type": "function"
    },
    {
      "inputs": [
        {
          "internalType": "address",
          "name": "_newMod",
          "type": "address"
        },
        {
          "internalType": "uint256",
          "name": "_channelId",
          "type": "uint256"
        }
      ],
      "name": "transferMod",
      "outputs": [],
      "stateMutability": "nonpayable",
      "type": "function"
    },
    {
      "inputs": [
        {
          "internalType": "address",
          "name": "_newOwner",
          "type": "address"
        }
      ],
      "name": "transferOwner",
      "outputs": [],
      "stateMutability": "nonpayable",
      "type": "function"
    },
    {
      "inputs": [
        {
          "internalType": "address",
          "name": "_blacklistedUser",
          "type": "address"
        }
      ],
      "name": "unBlacklistUser",
      "outputs": [],
      "stateMutability": "nonpayable",
      "type": "function"
    },
    {
      "inputs": [],
      "name": "withdraw",
      "outputs": [],
      "stateMutability": "nonpayable",
      "type": "function"
    }
  ],
  "bytecode": "0x60806040526010805460ff1916600117905562278d006012553480156200002557600080fd5b5060405162004542380380620045428339810160408190526200004891620007fe565b81816000620000588382620008f8565b506001620000678282620008f8565b5050600780546001600160a01b031916331790555062000086620000bb565b620000a573af88d065e77c8cc2239327c5edb3a432268e583162000102565b620000b3624c4b4062000186565b505062000a75565b60068054906000620000cd83620009c4565b9190505550620000e633600654620001e960201b60201c565b336000908152600d60205260409020805460ff19166001179055565b6007546001600160a01b03163314620001645760405162461bcd60e51b815260206004820152602a6024820152600080516020620045228339815191526044820152692046756e6374696f6e2160b01b60648201526084015b60405180910390fd5b601480546001600160a01b0319166001600160a01b0392909216919091179055565b6007546001600160a01b03163314620001e45760405162461bcd60e51b815260206004820152602a6024820152600080516020620045228339815191526044820152692046756e6374696f6e2160b01b60648201526084016200015b565b601355565b6200020b8282604051806020016040528060008152506200020f60201b60201c565b5050565b6200021b83836200022f565b6200022a600084848462000299565b505050565b6001600160a01b0382166200025b57604051633250574960e11b8152600060048201526024016200015b565b60006200026a838383620003d0565b90506001600160a01b038116156200022a576040516339e3563760e11b8152600060048201526024016200015b565b6001600160a01b0383163b15620003ca57604051630a85bd0160e11b81526001600160a01b0384169063150b7a0290620002de903390889087908790600401620009ec565b6020604051808303816000875af19250505080156200031c575060408051601f3d908101601f19168201909252620003199181019062000a42565b60015b6200038a573d8080156200034d576040519150601f19603f3d011682016040523d82523d6000602084013e62000352565b606091505b5080516000036200038257604051633250574960e11b81526001600160a01b03851660048201526024016200015b565b805181602001fd5b6001600160e01b03198116630a85bd0160e11b14620003c857604051633250574960e11b81526001600160a01b03851660048201526024016200015b565b505b50505050565b6000828152600260205260408120546001600160a01b0390811690831615620004005762000400818486620004cf565b6001600160a01b0381161562000440576200041f600085818062000539565b6001600160a01b038116600090815260036020526040902080546000190190555b6001600160a01b0385161562000470576001600160a01b0385166000908152600360205260409020805460010190555b60008481526002602052604080822080546001600160a01b0319166001600160a01b0389811691821790925591518793918516917fddf252ad1be2c89b69c2b068fc378daa952ba7f163c4a11628f55a4df523b3ef91a4949350505050565b620004dc83838362000667565b6200022a576001600160a01b0383166200050d57604051637e27328960e01b8152600481018290526024016200015b565b60405163177e802f60e01b81526001600160a01b0383166004820152602481018290526044016200015b565b80806200054e57506001600160a01b03821615155b15620006375760006200056184620006f0565b90506001600160a01b038316158015906200058e5750826001600160a01b0316816001600160a01b031614155b8015620005c157506001600160a01b0380821660009081526005602090815260408083209387168352929052205460ff16155b15620005ec5760405163a9fbf51f60e01b81526001600160a01b03841660048201526024016200015b565b8115620006355783856001600160a01b0316826001600160a01b03167f8c5be1e5ebec7d5bd14f71427d1e84f3dd0314c0f7b2291e5b200ac8c7c3b92560405160405180910390a45b505b5050600090815260046020526040902080546001600160a01b0319166001600160a01b0392909216919091179055565b60006001600160a01b03831615801590620006e85750826001600160a01b0316846001600160a01b03161480620006c357506001600160a01b0380851660009081526005602090815260408083209387168352929052205460ff165b80620006e857506000828152600460205260409020546001600160a01b038481169116145b949350505050565b6000818152600260205260408120546001600160a01b0316806200072b57604051637e27328960e01b8152600481018490526024016200015b565b92915050565b634e487b7160e01b600052604160045260246000fd5b60005b83811015620007645781810151838201526020016200074a565b50506000910152565b600082601f8301126200077f57600080fd5b81516001600160401b03808211156200079c576200079c62000731565b604051601f8301601f19908116603f01168101908282118183101715620007c757620007c762000731565b81604052838152866020858801011115620007e157600080fd5b620007f484602083016020890162000747565b9695505050505050565b600080604083850312156200081257600080fd5b82516001600160401b03808211156200082a57600080fd5b62000838868387016200076d565b935060208501519150808211156200084f57600080fd5b506200085e858286016200076d565b9150509250929050565b600181811c908216806200087d57607f821691505b6020821081036200089e57634e487b7160e01b600052602260045260246000fd5b50919050565b601f8211156200022a576000816000526020600020601f850160051c81016020861015620008cf5750805b601f850160051c820191505b81811015620008f057828155600101620008db565b505050505050565b81516001600160401b0381111562000914576200091462000731565b6200092c8162000925845462000868565b84620008a4565b602080601f8311600181146200096457600084156200094b5750858301515b600019600386901b1c1916600185901b178555620008f0565b600085815260208120601f198616915b82811015620009955788860151825594840194600190910190840162000974565b5085821015620009b45787850151600019600388901b60f8161c191681555b5050505050600190811b01905550565b600060018201620009e557634e487b7160e01b600052601160045260246000fd5b5060010190565b600060018060a01b03808716835280861660208401525083604083015260806060830152825180608084015262000a2b8160a085016020870162000747565b601f01601f19169190910160a00195945050505050565b60006020828403121562000a5557600080fd5b81516001600160e01b03198116811462000a6e57600080fd5b9392505050565b613a9d8062000a856000396000f3fe608060405234801561001057600080fd5b506004361061034c5760003560e01c80637c622fd9116101bd578063c70854ac116100f9578063e638dfc2116100a2578063ec4ceae91161007c578063ec4ceae91461086a578063ed01fbd71461087d578063f2f06bcb14610890578063fcbca456146108a357600080fd5b8063e638dfc2146107ea578063e985e9c514610826578063ec08ad761461086257600080fd5b8063e04794b6116100d3578063e04794b614610791578063e47d6060146107a4578063e5949b5d146107c757600080fd5b8063c70854ac14610748578063c87b56dd1461075b578063cb661f391461076e57600080fd5b8063a230c52411610166578063b64afe0511610140578063b64afe05146106d9578063b88d4fde146106ec578063bf59a6c8146106ff578063c00af42c1461071f57600080fd5b8063a230c52414610664578063a900a08a14610687578063b08a778c1461069a57600080fd5b80638da5cb5b116101975780638da5cb5b1461063657806395d89b4114610649578063a22cb4651461065157600080fd5b80637c622fd9146105b657806380d1ca89146105f5578063834452321461060857600080fd5b80632819cc0c1161028c5780633ccfd60b11610235578063604a427e1161020f578063604a427e146105745780636352211e1461058757806370a082311461059a5780637734a9f6146105ad57600080fd5b80633ccfd60b1461054657806342842e0e1461054e5780634fb2e45d1461056157600080fd5b80632d6d761d116102665780632d6d761d146104d3578063334d4de4146105015780633a17916b1461053d57600080fd5b80632819cc0c1461046457806328a12642146104775780632d01936a146104a557600080fd5b806310df54a0116102f957806318160ddd116102d357806318160ddd1461042d5780631b3d7e1c146104365780632183525d1461043e57806323b872dd1461045157600080fd5b806310df54a0146103f25780631249c58b14610412578063144013291461041a57600080fd5b806308cad1bf1161032a57806308cad1bf146103b9578063095ea7b3146103d05780630d9551da146103e557600080fd5b806301ffc9a71461035157806306fdde0314610379578063081812fc1461038e575b600080fd5b61036461035f366004613376565b6108b6565b60405190151581526020015b60405180910390f35b610381610921565b60405161037091906133e3565b6103a161039c3660046133f6565b6109b3565b6040516001600160a01b039091168152602001610370565b6103c260125481565b604051908152602001610370565b6103e36103de36600461342b565b6109dc565b005b6010546103649060ff1681565b6104056104003660046133f6565b6109eb565b6040516103709190613455565b6103e3610c34565b6103646104283660046134b4565b610c71565b6103c260065481565b6103e3610cb0565b6103e361044c3660046133f6565b610ff9565b6103e361045f3660046134cf565b61106b565b6103e36104723660046133f6565b61110f565b61036461048536600461350b565b600f60209081526000928352604080842090915290825290205460ff1681565b6103646104b3366004613537565b601560209081526000928352604080842090915290825290205460ff1681565b6103646104e1366004613537565b601660209081526000928352604080842090915290825290205460ff1681565b6103e361050f3660046134b4565b3360009081526015602090815260408083206001600160a01b0394909416835292905220805460ff19169055565b6103c260135481565b6103e36112f0565b6103e361055c3660046134cf565b6114c8565b6103e361056f3660046134b4565b6114e8565b6103e361058236600461342b565b611682565b6103a16105953660046133f6565b6117f2565b6103c26105a83660046134b4565b6117fd565b6103c260095481565b6103e36105c43660046134b4565b3360009081526016602090815260408083206001600160a01b0394909416835292905220805460ff19166001179055565b6103e361060336600461342b565b61185e565b61036461061636600461350b565b600c60209081526000928352604080842090915290825290205460ff1681565b6007546103a1906001600160a01b031681565b610381611a0d565b6103e361065f36600461356f565b611a1c565b6103646106723660046134b4565b600d6020526000908152604090205460ff1681565b6103e36106953660046133f6565b611a27565b6103e36106a83660046134b4565b3360009081526015602090815260408083206001600160a01b0394909416835292905220805460ff19166001179055565b6103e36106e736600461342b565b611b88565b6103e36106fa366004613653565b611cda565b6103c261070d3660046134b4565b60116020526000908152604090205481565b6103a161072d3660046133f6565b6008602052600090815260409020546001600160a01b031681565b6014546103a1906001600160a01b031681565b6103816107693660046133f6565b611cf1565b61036461077c3660046134b4565b600a6020526000908152604090205460ff1681565b6103e361079f36600461342b565b611d66565b6103646107b23660046134b4565b600e6020526000908152604090205460ff1681565b6107da6107d53660046133f6565b612008565b60405161037094939291906136cf565b6103e36107f83660046134b4565b3360009081526016602090815260408083206001600160a01b0394909416835292905220805460ff19169055565b610364610834366004613537565b6001600160a01b03918216600090815260056020908152604080832093909416825291909152205460ff1690565b6103e361214b565b6103e36108783660046134b4565b6121cc565b6103e361088b3660046134b4565b6122d2565b6103e361089e366004613714565b612361565b6103e36108b13660046134b4565b612acd565b60006001600160e01b031982166380ac58cd60e01b148061090057506001600160e01b031982167f5b5e139f00000000000000000000000000000000000000000000000000000000145b8061091b57506301ffc9a760e01b6001600160e01b03198316145b92915050565b60606000805461093090613776565b80601f016020809104026020016040519081016040528092919081815260200182805461095c90613776565b80156109a95780601f1061097e576101008083540402835291602001916109a9565b820191906000526020600020905b81548152906001019060200180831161098c57829003601f168201915b5050505050905090565b60006109be82612bcb565b506000828152600460205260409020546001600160a01b031661091b565b6109e7828233612c04565b5050565b610a1f60405180608001604052806000815260200160006001600160a01b0316815260200160608152602001606081525090565b8180600003610a835760405162461bcd60e51b815260206004820152602560248201527f4368616e6e656c204944204d7573742042652047726561746572205468616e206044820152645a65726f2160d81b60648201526084015b60405180910390fd5b600954811115610acd5760405162461bcd60e51b81526020600482015260156024820152744368616e6e656c20494420546f6f204c617267652160581b6044820152606401610a7a565b6000838152600b602090815260409182902082516080810184528154815260018201546001600160a01b0316928101929092526002810180549293919291840191610b1790613776565b80601f0160208091040260200160405190810160405280929190818152602001828054610b4390613776565b8015610b905780601f10610b6557610100808354040283529160200191610b90565b820191906000526020600020905b815481529060010190602001808311610b7357829003601f168201915b50505050508152602001600382018054610ba990613776565b80601f0160208091040260200160405190810160405280929190818152602001828054610bd590613776565b8015610c225780601f10610bf757610100808354040283529160200191610c22565b820191906000526020600020905b815481529060010190602001808311610c0557829003601f168201915b50505050508152505091505b50919050565b60068054906000610c44836137c0565b9190505550610c5533600654612c11565b336000908152600d60205260409020805460ff19166001179055565b6007546000906001600160a01b0390811690831603610c9257506001919050565b506001600160a01b0316600090815260116020526040902054421090565b336000908152600d602052604090205460ff161515600114610d2e5760405162461bcd60e51b815260206004820152603160248201527f4f6e6c7920416c70686150494e47204d656d62657273204d6179204578656375604482015270746520546869732046756e6374696f6e2160781b6064820152608401610a7a565b6013546014546040517f70a082310000000000000000000000000000000000000000000000000000000081523360048201526001600160a01b03909116906370a0823190602401602060405180830381865afa158015610d92573d6000803e3d6000fd5b505050506040513d601f19601f82011682018060405250810190610db691906137d9565b1015610e295760405162461bcd60e51b8152602060048201526024808201527f596f7520646f206e6f74206861766520656e6f75676820555344432062616c6160448201527f6e636521000000000000000000000000000000000000000000000000000000006064820152608401610a7a565b6014546040517fdd62ed3e0000000000000000000000000000000000000000000000000000000081523360048201523060248201526000916001600160a01b03169063dd62ed3e90604401602060405180830381865afa158015610e91573d6000803e3d6000fd5b505050506040513d601f19601f82011682018060405250810190610eb591906137d9565b9050601354811015610f095760405162461bcd60e51b815260206004820152601b60248201527f416c6c6f77616e6365206973206e6f742073756666696369656e7400000000006044820152606401610a7a565b6014546013546040516323b872dd60e01b815233600482015230602482015260448101919091526000916001600160a01b0316906323b872dd906064016020604051808303816000875af1158015610f65573d6000803e3d6000fd5b505050506040513d601f19601f82011682018060405250810190610f8991906137f2565b905080610fd85760405162461bcd60e51b815260206004820152600f60248201527f5472616e73666572204661696c656400000000000000000000000000000000006044820152606401610a7a565b601254610fe5904261380f565b336000908152601160205260409020555050565b6007546001600160a01b031633146110665760405162461bcd60e51b815260206004820152602a60248201527f4f6e6c79204f776e657220526f6c65204d6179204578656375746520546869736044820152692046756e6374696f6e2160b01b6064820152608401610a7a565b601355565b6001600160a01b03821661109557604051633250574960e11b815260006004820152602401610a7a565b60006110a2838333612c2b565b9050836001600160a01b0316816001600160a01b031614611109576040517f64283d7b0000000000000000000000000000000000000000000000000000000081526001600160a01b0380861660048301526024820184905282166044820152606401610a7a565b50505050565b336000908152600d602052604090205460ff16151560011461118d5760405162461bcd60e51b815260206004820152603160248201527f4f6e6c7920416c70686150494e47204d656d62657273204d6179204578656375604482015270746520546869732046756e6374696f6e2160781b6064820152608401610a7a565b80806000036111ec5760405162461bcd60e51b815260206004820152602560248201527f4368616e6e656c204944204d7573742042652047726561746572205468616e206044820152645a65726f2160d81b6064820152608401610a7a565b6009548111156112365760405162461bcd60e51b81526020600482015260156024820152744368616e6e656c20494420546f6f204c617267652160581b6044820152606401610a7a565b6000828152600c6020908152604080832033845290915290205460ff1615156001036112c95760405162461bcd60e51b8152602060048201526024808201527f596f75204861766520416c7265616479204a6f696e656420546869732043686160448201527f6e6e656c000000000000000000000000000000000000000000000000000000006064820152608401610a7a565b506000908152600c602090815260408083203384529091529020805460ff19166001179055565b6007546001600160a01b0316331461135d5760405162461bcd60e51b815260206004820152602a60248201527f4f6e6c79204f776e657220526f6c65204d6179204578656375746520546869736044820152692046756e6374696f6e2160b01b6064820152608401610a7a565b6014546013546040517f095ea7b300000000000000000000000000000000000000000000000000000000815230600482015260248101919091526000916001600160a01b03169063095ea7b3906044016020604051808303816000875af11580156113cc573d6000803e3d6000fd5b505050506040513d601f19601f820116820180604052508101906113f091906137f2565b6014546007546013546040516323b872dd60e01b81523060048201526001600160a01b03928316602482015260448101919091529293506000929116906323b872dd906064016020604051808303816000875af1158015611455573d6000803e3d6000fd5b505050506040513d601f19601f8201168201806040525081019061147991906137f2565b9050806109e75760405162461bcd60e51b815260206004820152600f60248201527f5472616e73666572204661696c656400000000000000000000000000000000006044820152606401610a7a565b6114e383838360405180602001604052806000815250611cda565b505050565b6007546001600160a01b031633146115555760405162461bcd60e51b815260206004820152602a60248201527f4f6e6c79204f776e657220526f6c65204d6179204578656375746520546869736044820152692046756e6374696f6e2160b01b6064820152608401610a7a565b6001600160a01b0381166000908152600d602052604090205460ff1615156001146115e85760405162461bcd60e51b815260206004820152602660248201527f4e6577204f776e6572204d75737420426520416e20416c70686150494e47204d60448201527f656d6265722100000000000000000000000000000000000000000000000000006064820152608401610a7a565b6001600160a01b0381166000908152600e602052604090205460ff1615156001036116605760405162461bcd60e51b815260206004820152602260248201527f4e6577204f776e6572204d757374204e6f7420426520426c61636b6c69737465604482015261642160f01b6064820152608401610a7a565b600780546001600160a01b0319166001600160a01b0392909216919091179055565b60008181526008602052604090205481906001600160a01b03163314806116b357506007546001600160a01b031633145b6117255760405162461bcd60e51b815260206004820152603960248201527f4f6e6c79204368616e6e656c204d6f64206f72204f776e657220526f6c65204d60448201527f6179204578656375746520546869732046756e6374696f6e21000000000000006064820152608401610a7a565b6000828152600f602090815260408083206001600160a01b038716845290915290205460ff1615156001036117c25760405162461bcd60e51b815260206004820152602c60248201527f54686973205573657220497320416c72656164792042616e6e6564204f6e205460448201527f686973204368616e6e656c2100000000000000000000000000000000000000006064820152608401610a7a565b506000908152600f602090815260408083206001600160a01b03909416835292905220805460ff19166001179055565b600061091b82612bcb565b60006001600160a01b038216611842576040517f89c62b6400000000000000000000000000000000000000000000000000000000815260006004820152602401610a7a565b506001600160a01b031660009081526003602052604090205490565b6007546001600160a01b031633146118cb5760405162461bcd60e51b815260206004820152602a60248201527f4f6e6c79204f776e657220526f6c65204d6179204578656375746520546869736044820152692046756e6374696f6e2160b01b6064820152608401610a7a565b6001600160a01b0382166000908152600e602052604090205460ff1615156001036119385760405162461bcd60e51b815260206004820152601c60248201527f5573657220497320416c726561647920426c61636b6c697374656421000000006044820152606401610a7a565b6000818152600860205260409020546001600160a01b038381169116146119c75760405162461bcd60e51b815260206004820152602360248201527f55736572204973204e6f742041204d6f6420466f722054686973204368616e6e60448201527f656c2100000000000000000000000000000000000000000000000000000000006064820152608401610a7a565b600754600091825260086020908152604080842080546001600160a01b0319166001600160a01b03948516179055939091168252600e905220805460ff19166001179055565b60606001805461093090613776565b6109e7338383612d24565b8080600003611a865760405162461bcd60e51b815260206004820152602560248201527f4368616e6e656c204944204d7573742042652047726561746572205468616e206044820152645a65726f2160d81b6064820152608401610a7a565b600954811115611ad05760405162461bcd60e51b81526020600482015260156024820152744368616e6e656c20494420546f6f204c617267652160581b6044820152606401610a7a565b6000828152600c6020908152604080832033845290915290205460ff161515600114611b645760405162461bcd60e51b815260206004820152602f60248201527f596f7520417265204e6f742043757272656e746c792041204d656d626572206f60448201527f662054686973204368616e6e656c2100000000000000000000000000000000006064820152608401610a7a565b506000908152600c602090815260408083203384529091529020805460ff19169055565b60008181526008602052604090205481906001600160a01b0316331480611bb957506007546001600160a01b031633145b611c2b5760405162461bcd60e51b815260206004820152603960248201527f4f6e6c79204368616e6e656c204d6f64206f72204f776e657220526f6c65204d60448201527f6179204578656375746520546869732046756e6374696f6e21000000000000006064820152608401610a7a565b6000828152600f602090815260408083206001600160a01b038716845290915290205460ff161515600114611cad5760405162461bcd60e51b815260206004820152602260248201527f546869732055736572204973204e6f742043757272656e746c792042616e6e65604482015261642160f01b6064820152608401610a7a565b506000908152600f602090815260408083206001600160a01b03909416835292905220805460ff19169055565b611ce584848461106b565b61110984848484612ddc565b6060611cfc82612bcb565b506000611d1460408051602081019091526000815290565b90506000815111611d345760405180602001604052806000815250611d5f565b80611d3e84612f05565b604051602001611d4f929190613822565b6040516020818303038152906040525b9392505050565b8080600003611dc55760405162461bcd60e51b815260206004820152602560248201527f4368616e6e656c204944204d7573742042652047726561746572205468616e206044820152645a65726f2160d81b6064820152608401610a7a565b600954811115611e0f5760405162461bcd60e51b81526020600482015260156024820152744368616e6e656c20494420546f6f204c617267652160581b6044820152606401610a7a565b60008281526008602052604090205482906001600160a01b0316331480611e4057506007546001600160a01b031633145b611eb25760405162461bcd60e51b815260206004820152603960248201527f4f6e6c79204368616e6e656c204d6f64206f72204f776e657220526f6c65204d60448201527f6179204578656375746520546869732046756e6374696f6e21000000000000006064820152608401610a7a565b6001600160a01b0384166000908152600d602052604090205460ff161515600114611f455760405162461bcd60e51b815260206004820152602c60248201527f4e6577204368616e6e656c204d6f64204d75737420426520416e20416c70686160448201527f50494e47204d656d6265722100000000000000000000000000000000000000006064820152608401610a7a565b6001600160a01b0384166000908152600e602052604090205460ff161515600103611fd85760405162461bcd60e51b815260206004820152602860248201527f4e6577204368616e6e656c204d6f64204d757374204e6f7420426520426c616360448201527f6b6c6973746564210000000000000000000000000000000000000000000000006064820152608401610a7a565b5050600090815260086020526040902080546001600160a01b0319166001600160a01b0392909216919091179055565b600b6020526000908152604090208054600182015460028301805492936001600160a01b039092169261203a90613776565b80601f016020809104026020016040519081016040528092919081815260200182805461206690613776565b80156120b35780601f10612088576101008083540402835291602001916120b3565b820191906000526020600020905b81548152906001019060200180831161209657829003601f168201915b5050505050908060030180546120c890613776565b80601f01602080910402602001604051908101604052809291908181526020018280546120f490613776565b80156121415780601f1061211657610100808354040283529160200191612141565b820191906000526020600020905b81548152906001019060200180831161212457829003601f168201915b5050505050905084565b6007546001600160a01b031633146121b85760405162461bcd60e51b815260206004820152602a60248201527f4f6e6c79204f776e657220526f6c65204d6179204578656375746520546869736044820152692046756e6374696f6e2160b01b6064820152608401610a7a565b6010805460ff19811660ff90911615179055565b6007546001600160a01b031633146122395760405162461bcd60e51b815260206004820152602a60248201527f4f6e6c79204f776e657220526f6c65204d6179204578656375746520546869736044820152692046756e6374696f6e2160b01b6064820152608401610a7a565b6001600160a01b0381166000908152600e602052604090205460ff1615156001146122b15760405162461bcd60e51b815260206004820152602260248201527f55736572204973204e6f742043757272656e746c7920426c61636b6c69737465604482015261642160f01b6064820152608401610a7a565b6001600160a01b03166000908152600e60205260409020805460ff19169055565b6007546001600160a01b0316331461233f5760405162461bcd60e51b815260206004820152602a60248201527f4f6e6c79204f776e657220526f6c65204d6179204578656375746520546869736044820152692046756e6374696f6e2160b01b6064820152608401610a7a565b601480546001600160a01b0319166001600160a01b0392909216919091179055565b336000908152600d602052604090205460ff1615156001146123df5760405162461bcd60e51b815260206004820152603160248201527f4f6e6c7920416c70686150494e47204d656d62657273204d6179204578656375604482015270746520546869732046756e6374696f6e2160781b6064820152608401610a7a565b336000908152600e602052604090205460ff16151560010361248f5760405162461bcd60e51b815260206004820152604360248201527f54686973205573657227732050726976656c656467657320486176652042656560448201527f6e205265766f6b65642044756520546f204265696e6720426c61636b6c69737460648201527f6564210000000000000000000000000000000000000000000000000000000000608482015260a401610a7a565b6001600160a01b0382166000908152600a602052604090205460ff1615156001036124fc5760405162461bcd60e51b815260206004820152601c60248201527f54686973204368616e6e656c20416c72656164792045786973747321000000006044820152606401610a7a565b6040517f455243323000000000000000000000000000000000000000000000000000000060208201526000906025016040516020818303038152906040528051906020012090506000604051602001612578907f4552433732310000000000000000000000000000000000000000000000000000815260060190565b6040516020818303038152906040528051906020012090506000836040516020016125a39190613851565b604051602081830303815290604052805190602001209050828114806125c857508181145b61263a5760405162461bcd60e51b815260206004820152602a60248201527f546f6b656e2054797065204d757374204569746865722042652045524332302060448201527f6f722045524337323121000000000000000000000000000000000000000000006064820152608401610a7a565b818103612722576040516301ffc9a760e01b81526380ac58cd60e01b60048201526001600160a01b038616906301ffc9a790602401602060405180830381865afa15801561268c573d6000803e3d6000fd5b505050506040513d601f19601f820116820180604052508101906126b091906137f2565b6127225760405162461bcd60e51b815260206004820152602160248201527f54686973204973204e6f7420412056616c69642045524337323120546f6b656e60448201527f21000000000000000000000000000000000000000000000000000000000000006064820152608401610a7a565b8281036127de576000856001600160a01b031663313ce5676040518163ffffffff1660e01b8152600401602060405180830381865afa158015612769573d6000803e3d6000fd5b505050506040513d601f19601f8201168201806040525081019061278d919061386d565b60ff1610156127de5760405162461bcd60e51b815260206004820181905260248201527f54686973204973204e6f7420412056616c696420455243323020546f6b656e216044820152606401610a7a565b606083820361286257856001600160a01b03166306fdde036040518163ffffffff1660e01b8152600401600060405180830381865afa92505050801561284657506040513d6000823e601f3d908101601f191682016040526128439190810190613890565b60015b61285f5750604080516020810190915260008152612862565b90505b8282036128e457856001600160a01b03166306fdde036040518163ffffffff1660e01b8152600401600060405180830381865afa9250505080156128c857506040513d6000823e601f3d908101601f191682016040526128c59190810190613890565b60015b6128e157506040805160208101909152600081526128e4565b90505b8382036129625760008151116129625760405162461bcd60e51b815260206004820152602360248201527f4e6f204e616d6520466f756e6420466f72205468697320455243323020546f6b60448201527f656e2100000000000000000000000000000000000000000000000000000000006064820152608401610a7a565b8282036129df5760008151116129df5760405162461bcd60e51b8152602060048201526024808201527f4e6f204e616d6520466f756e6420466f7220546869732045524337323120546f60448201527f6b656e21000000000000000000000000000000000000000000000000000000006064820152608401610a7a565b600980549060006129ef836137c0565b9091555050604080516080810182526009548082526001600160a01b038981166020808501918252848601878152606086018c90526000948552600b909152949092208351815591516001830180546001600160a01b0319169190921617905591519091906002820190612a63908261394e565b5060608201516003820190612a78908261394e565b5050600754600954600090815260086020908152604080832080546001600160a01b0319166001600160a01b03958616179055999092168152600a90915296909620805460ff19166001179055505050505050565b6007546001600160a01b03163314612b3a5760405162461bcd60e51b815260206004820152602a60248201527f4f6e6c79204f776e657220526f6c65204d6179204578656375746520546869736044820152692046756e6374696f6e2160b01b6064820152608401610a7a565b6001600160a01b0381166000908152600e602052604090205460ff161515600103612ba75760405162461bcd60e51b815260206004820152601c60248201527f5573657220497320416c726561647920426c61636b6c697374656421000000006044820152606401610a7a565b6001600160a01b03166000908152600e60205260409020805460ff19166001179055565b6000818152600260205260408120546001600160a01b03168061091b57604051637e27328960e01b815260048101849052602401610a7a565b6114e38383836001612fa5565b6109e78282604051806020016040528060008152506130e3565b6000828152600260205260408120546001600160a01b0390811690831615612c5857612c588184866130fa565b6001600160a01b03811615612c9657612c75600085600080612fa5565b6001600160a01b038116600090815260036020526040902080546000190190555b6001600160a01b03851615612cc5576001600160a01b0385166000908152600360205260409020805460010190555b60008481526002602052604080822080546001600160a01b0319166001600160a01b0389811691821790925591518793918516917fddf252ad1be2c89b69c2b068fc378daa952ba7f163c4a11628f55a4df523b3ef91a4949350505050565b6001600160a01b038216612d6f576040517f5b08ba180000000000000000000000000000000000000000000000000000000081526001600160a01b0383166004820152602401610a7a565b6001600160a01b03838116600081815260056020908152604080832094871680845294825291829020805460ff191686151590811790915591519182527f17307eab39ab6107e8899845ad3d59bd9653f200f220920489ca2b5937696c31910160405180910390a3505050565b6001600160a01b0383163b1561110957604051630a85bd0160e11b81526001600160a01b0384169063150b7a0290612e1e903390889087908790600401613a0e565b6020604051808303816000875af1925050508015612e59575060408051601f3d908101601f19168201909252612e5691810190613a4a565b60015b612ec2573d808015612e87576040519150601f19603f3d011682016040523d82523d6000602084013e612e8c565b606091505b508051600003612eba57604051633250574960e11b81526001600160a01b0385166004820152602401610a7a565b805181602001fd5b6001600160e01b03198116630a85bd0160e11b14612efe57604051633250574960e11b81526001600160a01b0385166004820152602401610a7a565b5050505050565b60606000612f1283613177565b600101905060008167ffffffffffffffff811115612f3257612f326135a6565b6040519080825280601f01601f191660200182016040528015612f5c576020820181803683370190505b5090508181016020015b600019017f3031323334353637383961626364656600000000000000000000000000000000600a86061a8153600a8504945084612f6657509392505050565b8080612fb957506001600160a01b03821615155b156130b3576000612fc984612bcb565b90506001600160a01b03831615801590612ff55750826001600160a01b0316816001600160a01b031614155b801561302757506001600160a01b0380821660009081526005602090815260408083209387168352929052205460ff16155b15613069576040517fa9fbf51f0000000000000000000000000000000000000000000000000000000081526001600160a01b0384166004820152602401610a7a565b81156130b15783856001600160a01b0316826001600160a01b03167f8c5be1e5ebec7d5bd14f71427d1e84f3dd0314c0f7b2291e5b200ac8c7c3b92560405160405180910390a45b505b5050600090815260046020526040902080546001600160a01b0319166001600160a01b0392909216919091179055565b6130ed8383613259565b6114e36000848484612ddc565b6131058383836132d7565b6114e3576001600160a01b03831661313357604051637e27328960e01b815260048101829052602401610a7a565b6040517f177e802f0000000000000000000000000000000000000000000000000000000081526001600160a01b038316600482015260248101829052604401610a7a565b6000807a184f03e93ff9f4daa797ed6e38ed64bf6a1f01000000000000000083106131c0577a184f03e93ff9f4daa797ed6e38ed64bf6a1f010000000000000000830492506040015b6d04ee2d6d415b85acef810000000083106131ec576d04ee2d6d415b85acef8100000000830492506020015b662386f26fc10000831061320a57662386f26fc10000830492506010015b6305f5e1008310613222576305f5e100830492506008015b612710831061323657612710830492506004015b60648310613248576064830492506002015b600a831061091b5760010192915050565b6001600160a01b03821661328357604051633250574960e11b815260006004820152602401610a7a565b600061329183836000612c2b565b90506001600160a01b038116156114e3576040517f73c6ac6e00000000000000000000000000000000000000000000000000000000815260006004820152602401610a7a565b60006001600160a01b038316158015906133555750826001600160a01b0316846001600160a01b0316148061333157506001600160a01b0380851660009081526005602090815260408083209387168352929052205460ff165b8061335557506000828152600460205260409020546001600160a01b038481169116145b949350505050565b6001600160e01b03198116811461337357600080fd5b50565b60006020828403121561338857600080fd5b8135611d5f8161335d565b60005b838110156133ae578181015183820152602001613396565b50506000910152565b600081518084526133cf816020860160208601613393565b601f01601f19169290920160200192915050565b602081526000611d5f60208301846133b7565b60006020828403121561340857600080fd5b5035919050565b80356001600160a01b038116811461342657600080fd5b919050565b6000806040838503121561343e57600080fd5b6134478361340f565b946020939093013593505050565b60208152815160208201526001600160a01b036020830151166040820152600060408301516080606084015261348e60a08401826133b7565b90506060840151601f198483030160808501526134ab82826133b7565b95945050505050565b6000602082840312156134c657600080fd5b611d5f8261340f565b6000806000606084860312156134e457600080fd5b6134ed8461340f565b92506134fb6020850161340f565b9150604084013590509250925092565b6000806040838503121561351e57600080fd5b8235915061352e6020840161340f565b90509250929050565b6000806040838503121561354a57600080fd5b6135538361340f565b915061352e6020840161340f565b801515811461337357600080fd5b6000806040838503121561358257600080fd5b61358b8361340f565b9150602083013561359b81613561565b809150509250929050565b634e487b7160e01b600052604160045260246000fd5b604051601f8201601f1916810167ffffffffffffffff811182821017156135e5576135e56135a6565b604052919050565b600067ffffffffffffffff821115613607576136076135a6565b50601f01601f191660200190565b6000613628613623846135ed565b6135bc565b905082815283838301111561363c57600080fd5b828260208301376000602084830101529392505050565b6000806000806080858703121561366957600080fd5b6136728561340f565b93506136806020860161340f565b925060408501359150606085013567ffffffffffffffff8111156136a357600080fd5b8501601f810187136136b457600080fd5b6136c387823560208401613615565b91505092959194509250565b8481526001600160a01b03841660208201526080604082015260006136f760808301856133b7565b828103606084015261370981856133b7565b979650505050505050565b6000806040838503121561372757600080fd5b6137308361340f565b9150602083013567ffffffffffffffff81111561374c57600080fd5b8301601f8101851361375d57600080fd5b61376c85823560208401613615565b9150509250929050565b600181811c9082168061378a57607f821691505b602082108103610c2e57634e487b7160e01b600052602260045260246000fd5b634e487b7160e01b600052601160045260246000fd5b6000600182016137d2576137d26137aa565b5060010190565b6000602082840312156137eb57600080fd5b5051919050565b60006020828403121561380457600080fd5b8151611d5f81613561565b8082018082111561091b5761091b6137aa565b60008351613834818460208801613393565b835190830190613848818360208801613393565b01949350505050565b60008251613863818460208701613393565b9190910192915050565b60006020828403121561387f57600080fd5b815160ff81168114611d5f57600080fd5b6000602082840312156138a257600080fd5b815167ffffffffffffffff8111156138b957600080fd5b8201601f810184136138ca57600080fd5b80516138d8613623826135ed565b8181528560208385010111156138ed57600080fd5b6134ab826020830160208601613393565b601f8211156114e3576000816000526020600020601f850160051c810160208610156139275750805b601f850160051c820191505b8181101561394657828155600101613933565b505050505050565b815167ffffffffffffffff811115613968576139686135a6565b61397c816139768454613776565b846138fe565b602080601f8311600181146139b157600084156139995750858301515b600019600386901b1c1916600185901b178555613946565b600085815260208120601f198616915b828110156139e0578886015182559484019460019091019084016139c1565b50858210156139fe5787850151600019600388901b60f8161c191681555b5050505050600190811b01905550565b60006001600160a01b03808716835280861660208401525083604083015260806060830152613a4060808301846133b7565b9695505050505050565b600060208284031215613a5c57600080fd5b8151611d5f8161335d56fea26469706673582212200c831876421b8e88b38cdd9ccdb8af05cad1057965ac5b916213f12d3869403564736f6c634300081800334f6e6c79204f776e657220526f6c65204d617920457865637574652054686973",
  "linkReferences": {},
  "deployedLinkReferences": {}
}